{"abi":[{"type":"function","name":"onERC721Received","inputs":[{"name":"","type":"address","internalType":"address"},{"name":"","type":"address","internalType":"address"},{"name":"","type":"uint256","internalType":"uint256"},{"name":"","type":"bytes","internalType":"bytes"}],"outputs":[{"name":"","type":"bytes4","internalType":"bytes4"}],"stateMutability":"pure"},{"type":"function","name":"wrongSelector","inputs":[],"outputs":[],"stateMutability":"pure"}],"bytecode":{"object":"0x608060405234801561001057600080fd5b50610166806100206000396000f3fe608060405234801561001057600080fd5b50600436106100365760003560e01c8063150b7a021461003b578063247a4f3714610077575b600080fd5b61005a610049366004610095565b63247a4f3760e01b95945050505050565b6040516001600160e01b0319909116815260200160405180910390f35b005b80356001600160a01b038116811461009057600080fd5b919050565b6000806000806000608086880312156100ad57600080fd5b6100b686610079565b94506100c460208701610079565b935060408601359250606086013567ffffffffffffffff808211156100e857600080fd5b818801915088601f8301126100fc57600080fd5b81358181111561010b57600080fd5b89602082850101111561011d57600080fd5b969995985093965060200194939250505056fea26469706673582212203b74f69019df50719e6c779767f04f6ddbbae6fa55e0144f1a14fb54c54d92ae64736f6c63430008140033","linkReferences":{}},"methodIdentifiers":{"onERC721Received(address,address,uint256,bytes)":"150b7a02","wrongSelector()":"247a4f37"},"id":19}