{"abi":[{"type":"constructor","inputs":[{"name":"name_","type":"string","internalType":"string"},{"name":"symbol_","type":"string","internalType":"string"},{"name":"decimals_","type":"uint8","internalType":"uint8"},{"name":"maxTotalSupplyERC721_","type":"uint256","internalType":"uint256"},{"name":"initialOwner_","type":"address","internalType":"address"},{"name":"initialMintRecipient_","type":"address","internalType":"address"},{"name":"uniswapSwapRouter_","type":"address","internalType":"address"},{"name":"uniswapV3NonfungiblePositionManager_","type":"address","internalType":"address"}],"stateMutability":"nonpayable"},{"type":"function","name":"DOMAIN_SEPARATOR","inputs":[],"outputs":[{"name":"","type":"bytes32","internalType":"bytes32"}],"stateMutability":"view"},{"type":"function","name":"ID_ENCODING_PREFIX","inputs":[],"outputs":[{"name":"","type":"uint256","internalType":"uint256"}],"stateMutability":"view"},{"type":"function","name":"allowance","inputs":[{"name":"","type":"address","internalType":"address"},{"name":"","type":"address","internalType":"address"}],"outputs":[{"name":"","type":"uint256","internalType":"uint256"}],"stateMutability":"view"},{"type":"function","name":"approve","inputs":[{"name":"spender_","type":"address","internalType":"address"},{"name":"valueOrId_","type":"uint256","internalType":"uint256"}],"outputs":[{"name":"","type":"bool","internalType":"bool"}],"stateMutability":"nonpayable"},{"type":"function","name":"balanceOf","inputs":[{"name":"","type":"address","internalType":"address"}],"outputs":[{"name":"","type":"uint256","internalType":"uint256"}],"stateMutability":"view"},{"type":"function","name":"decimals","inputs":[],"outputs":[{"name":"","type":"uint8","internalType":"uint8"}],"stateMutability":"view"},{"type":"function","name":"depositTokens","inputs":[{"name":"tokenId_","type":"uint256","internalType":"uint256"},{"name":"tokenAddress_","type":"address","internalType":"address"},{"name":"amount_","type":"uint256","internalType":"uint256"}],"outputs":[],"stateMutability":"nonpayable"},{"type":"function","name":"depositTokens","inputs":[{"name":"tokenId_","type":"uint256","internalType":"uint256"},{"name":"amount_","type":"uint256","internalType":"uint256"}],"outputs":[],"stateMutability":"nonpayable"},{"type":"function","name":"erc20Approve","inputs":[{"name":"spender_","type":"address","internalType":"address"},{"name":"value_","type":"uint256","internalType":"uint256"}],"outputs":[{"name":"","type":"bool","internalType":"bool"}],"stateMutability":"nonpayable"},{"type":"function","name":"erc20BalanceOf","inputs":[{"name":"owner_","type":"address","internalType":"address"}],"outputs":[{"name":"","type":"uint256","internalType":"uint256"}],"stateMutability":"view"},{"type":"function","name":"erc20TotalSupply","inputs":[],"outputs":[{"name":"","type":"uint256","internalType":"uint256"}],"stateMutability":"view"},{"type":"function","name":"erc20TransferFrom","inputs":[{"name":"from_","type":"address","internalType":"address"},{"name":"to_","type":"address","internalType":"address"},{"name":"value_","type":"uint256","internalType":"uint256"}],"outputs":[{"name":"","type":"bool","internalType":"bool"}],"stateMutability":"nonpayable"},{"type":"function","name":"erc721Approve","inputs":[{"name":"spender_","type":"address","internalType":"address"},{"name":"id_","type":"uint256","internalType":"uint256"}],"outputs":[],"stateMutability":"nonpayable"},{"type":"function","name":"erc721BalanceOf","inputs":[{"name":"owner_","type":"address","internalType":"address"}],"outputs":[{"name":"","type":"uint256","internalType":"uint256"}],"stateMutability":"view"},{"type":"function","name":"erc721TotalSupply","inputs":[],"outputs":[{"name":"","type":"uint256","internalType":"uint256"}],"stateMutability":"view"},{"type":"function","name":"erc721TransferExempt","inputs":[{"name":"target_","type":"address","internalType":"address"}],"outputs":[{"name":"","type":"bool","internalType":"bool"}],"stateMutability":"view"},{"type":"function","name":"erc721TransferFrom","inputs":[{"name":"from_","type":"address","internalType":"address"},{"name":"to_","type":"address","internalType":"address"},{"name":"id_","type":"uint256","internalType":"uint256"}],"outputs":[],"stateMutability":"nonpayable"},{"type":"function","name":"getApproved","inputs":[{"name":"","type":"uint256","internalType":"uint256"}],"outputs":[{"name":"","type":"address","internalType":"address"}],"stateMutability":"view"},{"type":"function","name":"getERC721QueueLength","inputs":[],"outputs":[{"name":"","type":"uint256","internalType":"uint256"}],"stateMutability":"view"},{"type":"function","name":"getERC721TokensInQueue","inputs":[{"name":"start_","type":"uint256","internalType":"uint256"},{"name":"count_","type":"uint256","internalType":"uint256"}],"outputs":[{"name":"","type":"uint256[]","internalType":"uint256[]"}],"stateMutability":"view"},{"type":"function","name":"getTokenDeposits","inputs":[{"name":"tokenId_","type":"uint256","internalType":"uint256"}],"outputs":[{"name":"","type":"tuple[]","internalType":"struct ERC404Deposits.TokenDeposit[]","components":[{"name":"tokenAddress","type":"address","internalType":"address"},{"name":"amount","type":"uint256","internalType":"uint256"}]}],"stateMutability":"view"},{"type":"function","name":"isApprovedForAll","inputs":[{"name":"","type":"address","internalType":"address"},{"name":"","type":"address","internalType":"address"}],"outputs":[{"name":"","type":"bool","internalType":"bool"}],"stateMutability":"view"},{"type":"function","name":"minted","inputs":[],"outputs":[{"name":"","type":"uint256","internalType":"uint256"}],"stateMutability":"view"},{"type":"function","name":"name","inputs":[],"outputs":[{"name":"","type":"string","internalType":"string"}],"stateMutability":"view"},{"type":"function","name":"nonces","inputs":[{"name":"","type":"address","internalType":"address"}],"outputs":[{"name":"","type":"uint256","internalType":"uint256"}],"stateMutability":"view"},{"type":"function","name":"owned","inputs":[{"name":"owner_","type":"address","internalType":"address"}],"outputs":[{"name":"","type":"uint256[]","internalType":"uint256[]"}],"stateMutability":"view"},{"type":"function","name":"owner","inputs":[],"outputs":[{"name":"","type":"address","internalType":"address"}],"stateMutability":"view"},{"type":"function","name":"ownerOf","inputs":[{"name":"id_","type":"uint256","internalType":"uint256"}],"outputs":[{"name":"erc721Owner","type":"address","internalType":"address"}],"stateMutability":"view"},{"type":"function","name":"permit","inputs":[{"name":"owner_","type":"address","internalType":"address"},{"name":"spender_","type":"address","internalType":"address"},{"name":"value_","type":"uint256","internalType":"uint256"},{"name":"deadline_","type":"uint256","internalType":"uint256"},{"name":"v_","type":"uint8","internalType":"uint8"},{"name":"r_","type":"bytes32","internalType":"bytes32"},{"name":"s_","type":"bytes32","internalType":"bytes32"}],"outputs":[],"stateMutability":"nonpayable"},{"type":"function","name":"renounceOwnership","inputs":[],"outputs":[],"stateMutability":"nonpayable"},{"type":"function","name":"safeTransferFrom","inputs":[{"name":"from_","type":"address","internalType":"address"},{"name":"to_","type":"address","internalType":"address"},{"name":"id_","type":"uint256","internalType":"uint256"}],"outputs":[],"stateMutability":"nonpayable"},{"type":"function","name":"safeTransferFrom","inputs":[{"name":"from_","type":"address","internalType":"address"},{"name":"to_","type":"address","internalType":"address"},{"name":"id_","type":"uint256","internalType":"uint256"},{"name":"data_","type":"bytes","internalType":"bytes"}],"outputs":[],"stateMutability":"nonpayable"},{"type":"function","name":"setApprovalForAll","inputs":[{"name":"operator_","type":"address","internalType":"address"},{"name":"approved_","type":"bool","internalType":"bool"}],"outputs":[],"stateMutability":"nonpayable"},{"type":"function","name":"setERC721TransferExempt","inputs":[{"name":"account_","type":"address","internalType":"address"},{"name":"value_","type":"bool","internalType":"bool"}],"outputs":[],"stateMutability":"nonpayable"},{"type":"function","name":"setSelfERC721TransferExempt","inputs":[{"name":"state_","type":"bool","internalType":"bool"}],"outputs":[],"stateMutability":"nonpayable"},{"type":"function","name":"supportsInterface","inputs":[{"name":"interfaceId","type":"bytes4","internalType":"bytes4"}],"outputs":[{"name":"","type":"bool","internalType":"bool"}],"stateMutability":"view"},{"type":"function","name":"symbol","inputs":[],"outputs":[{"name":"","type":"string","internalType":"string"}],"stateMutability":"view"},{"type":"function","name":"tokenURI","inputs":[{"name":"id_","type":"uint256","internalType":"uint256"}],"outputs":[{"name":"","type":"string","internalType":"string"}],"stateMutability":"pure"},{"type":"function","name":"totalSupply","inputs":[],"outputs":[{"name":"","type":"uint256","internalType":"uint256"}],"stateMutability":"view"},{"type":"function","name":"transfer","inputs":[{"name":"to_","type":"address","internalType":"address"},{"name":"value_","type":"uint256","internalType":"uint256"}],"outputs":[{"name":"","type":"bool","internalType":"bool"}],"stateMutability":"nonpayable"},{"type":"function","name":"transferFrom","inputs":[{"name":"from_","type":"address","internalType":"address"},{"name":"to_","type":"address","internalType":"address"},{"name":"valueOrId_","type":"uint256","internalType":"uint256"}],"outputs":[{"name":"","type":"bool","internalType":"bool"}],"stateMutability":"nonpayable"},{"type":"function","name":"transferOwnership","inputs":[{"name":"newOwner","type":"address","internalType":"address"}],"outputs":[],"stateMutability":"nonpayable"},{"type":"function","name":"units","inputs":[],"outputs":[{"name":"","type":"uint256","internalType":"uint256"}],"stateMutability":"view"},{"type":"function","name":"withdrawTokens","inputs":[{"name":"tokenId_","type":"uint256","internalType":"uint256"},{"name":"depositIndex_","type":"uint256","internalType":"uint256"}],"outputs":[],"stateMutability":"nonpayable"},{"type":"event","name":"Approval","inputs":[{"name":"owner","type":"address","indexed":true,"internalType":"address"},{"name":"spender","type":"address","indexed":true,"internalType":"address"},{"name":"value","type":"uint256","indexed":false,"internalType":"uint256"}],"anonymous":false},{"type":"event","name":"Approval","inputs":[{"name":"owner","type":"address","indexed":true,"internalType":"address"},{"name":"spender","type":"address","indexed":true,"internalType":"address"},{"name":"id","type":"uint256","indexed":true,"internalType":"uint256"}],"anonymous":false},{"type":"event","name":"ApprovalForAll","inputs":[{"name":"owner","type":"address","indexed":true,"internalType":"address"},{"name":"operator","type":"address","indexed":true,"internalType":"address"},{"name":"approved","type":"bool","indexed":false,"internalType":"bool"}],"anonymous":false},{"type":"event","name":"OwnershipTransferred","inputs":[{"name":"previousOwner","type":"address","indexed":true,"internalType":"address"},{"name":"newOwner","type":"address","indexed":true,"internalType":"address"}],"anonymous":false},{"type":"event","name":"TokensDeposited","inputs":[{"name":"tokenId","type":"uint256","indexed":true,"internalType":"uint256"},{"name":"tokenAddress","type":"address","indexed":true,"internalType":"address"},{"name":"amount","type":"uint256","indexed":false,"internalType":"uint256"}],"anonymous":false},{"type":"event","name":"TokensWithdrawn","inputs":[{"name":"tokenId","type":"uint256","indexed":true,"internalType":"uint256"},{"name":"tokenAddress","type":"address","indexed":true,"internalType":"address"},{"name":"amount","type":"uint256","indexed":false,"internalType":"uint256"}],"anonymous":false},{"type":"event","name":"Transfer","inputs":[{"name":"from","type":"address","indexed":true,"internalType":"address"},{"name":"to","type":"address","indexed":true,"internalType":"address"},{"name":"amount","type":"uint256","indexed":false,"internalType":"uint256"}],"anonymous":false},{"type":"event","name":"Transfer","inputs":[{"name":"from","type":"address","indexed":true,"internalType":"address"},{"name":"to","type":"address","indexed":true,"internalType":"address"},{"name":"id","type":"uint256","indexed":true,"internalType":"uint256"}],"anonymous":false},{"type":"error","name":"AlreadyExists","inputs":[]},{"type":"error","name":"DecimalsTooLow","inputs":[]},{"type":"error","name":"ERC404UniswapV3ExemptFactoryMismatch","inputs":[]},{"type":"error","name":"ERC404UniswapV3ExemptWETH9Mismatch","inputs":[]},{"type":"error","name":"InsufficientAllowance","inputs":[]},{"type":"error","name":"InvalidAmount","inputs":[]},{"type":"error","name":"InvalidApproval","inputs":[]},{"type":"error","name":"InvalidExemption","inputs":[]},{"type":"error","name":"InvalidOperator","inputs":[]},{"type":"error","name":"InvalidRecipient","inputs":[]},{"type":"error","name":"InvalidSender","inputs":[]},{"type":"error","name":"InvalidSigner","inputs":[]},{"type":"error","name":"InvalidSpender","inputs":[]},{"type":"error","name":"InvalidTokenId","inputs":[]},{"type":"error","name":"MintLimitReached","inputs":[]},{"type":"error","name":"NotFound","inputs":[]},{"type":"error","name":"OwnableInvalidOwner","inputs":[{"name":"owner","type":"address","internalType":"address"}]},{"type":"error","name":"OwnableUnauthorizedAccount","inputs":[{"name":"account","type":"address","internalType":"address"}]},{"type":"error","name":"OwnedIndexOverflow","inputs":[]},{"type":"error","name":"PermitDeadlineExpired","inputs":[]},{"type":"error","name":"QueueEmpty","inputs":[]},{"type":"error","name":"QueueFull","inputs":[]},{"type":"error","name":"QueueOutOfBounds","inputs":[]},{"type":"error","name":"RecipientIsERC721TransferExempt","inputs":[]},{"type":"error","name":"Unauthorized","inputs":[]},{"type":"error","name":"UnsafeRecipient","inputs":[]}],"bytecode":{"object":"0x6101006040523480156200001257600080fd5b50604051620052a0380380620052a0833981016040819052620000359162001981565b8181898989886001600160a01b0381166200006b57604051631e4fbdf760e01b8152600060048201526024015b60405180910390fd5b62000076816200047c565b50600662000085848262001ae0565b50600762000094838262001ae0565b5060128160ff161015620000bb576040516398790fd560e01b815260040160405180910390fd5b60ff81166080819052620000d190600a62001cbf565b60a0524660c052620000e2620004cc565b60e05250839150620000f8905081600162000568565b816200010681600162000568565b806001600160a01b031663c45a01556040518163ffffffff1660e01b8152600401602060405180830381865afa15801562000145573d6000803e3d6000fd5b505050506040513d601f19601f820116820180604052508101906200016b919062001cd7565b6001600160a01b0316826001600160a01b031663c45a01556040518163ffffffff1660e01b8152600401602060405180830381865afa158015620001b3573d6000803e3d6000fd5b505050506040513d601f19601f82011682018060405250810190620001d9919062001cd7565b6001600160a01b0316146200020157604051633338041760e01b815260040160405180910390fd5b806001600160a01b0316634aa4a4fc6040518163ffffffff1660e01b8152600401602060405180830381865afa15801562000240573d6000803e3d6000fd5b505050506040513d601f19601f8201168201806040525081019062000266919062001cd7565b6001600160a01b0316826001600160a01b0316634aa4a4fc6040518163ffffffff1660e01b8152600401602060405180830381865afa158015620002ae573d6000803e3d6000fd5b505050506040513d601f19601f82011682018060405250810190620002d4919062001cd7565b6001600160a01b031614620002fc576040516376a731bf60e01b815260040160405180910390fd5b60408051608081018252606481526101f46020820152610bb891810191909152612710606082015260005b60048110156200043a57600062000421856001600160a01b031663c45a01556040518163ffffffff1660e01b8152600401602060405180830381865afa15801562000376573d6000803e3d6000fd5b505050506040513d601f19601f820116820180604052508101906200039c919062001cd7565b866001600160a01b0316634aa4a4fc6040518163ffffffff1660e01b8152600401602060405180830381865afa158015620003db573d6000803e3d6000fd5b505050506040513d601f19601f8201168201806040525081019062000401919062001cd7565b85856004811062000416576200041662001cf5565b6020020151620005de565b90506200043081600162000568565b5060010162000327565b505050505050620004538360016200056860201b60201c565b6200046e8360a0518762000468919062001d0b565b620006e0565b505050505050505062001e24565b600080546001600160a01b038381166001600160a01b0319831681178455604051919092169283917f8be0079c531659141344cd1fd0a4f28419497f9722a3daafe3b4186f6b6457e09190a35050565b60007f8b73c3c69bb8fe3d512ecc4cf759cc79239f7b179b0ffacaa9a75d522b39400f600660405162000500919062001d25565b6040805191829003822060208301939093528101919091527fc89efdaa54c0f20c7adf612882df0950f5a951637e0307cdcb4c672f298b8bc660608201524660808201523060a082015260c00160405160208183030381529060405280519060200120905090565b6001600160a01b038216620005905760405163a41e3d3f60e01b815260040160405180910390fd5b8015620005a857620005a28262000750565b620005b3565b620005b38262000788565b6001600160a01b03919091166000908152601160205260409020805460ff1916911515919091179055565b60003081806001600160a01b0386168310620005fc578583620005ff565b82865b604080516001600160a01b03808516602083015283169181019190915262ffffff881660608201529193509150879060800160405160208183030381529060405280519060200120604051602001620006bd9291907fff00000000000000000000000000000000000000000000000000000000000000815260609290921b6001600160601b031916600183015260158201527fe34f199b19b2b4f47f68442619d555527d244f78a3297ea89325f843f87b8b54603582015260550190565b60408051601f198184030181529190528051602090910120979650505050505050565b6001600160a01b0382166200070857604051634e46966960e11b815260040160405180910390fd5b600160ff1b816008546200071d919062001da3565b11156200073d5760405163303b682f60e01b815260040160405180910390fd5b6200074b6000838362000814565b505050565b6001600160a01b038116600090815260106020526040812054905b818110156200074b576200077f8362000ad9565b6001016200076b565b60a051600090620007ae836001600160a01b03166000908152600b602052604090205490565b620007ba919062001db9565b90506000620007de836001600160a01b031660009081526010602052604090205490565b905060005b620007ef828462001ddc565b8110156200080e57620008058460018062000b79565b600101620007e3565b50505050565b6001600160a01b038381166000908152600b60205260408082205492851682528120549091906200084786868662000bc0565b6000620008548762000c72565b90506000620008638762000c72565b9050818015620008705750805b62000acb578115620008f757600060a051846200088e919062001db9565b60a0516001600160a01b038a166000908152600b6020526040902054620008b6919062001db9565b620008c2919062001ddc565b905060005b81811015620008ef57620008e68960a051600062000b7960201b60201c565b600101620008c7565b505062000acb565b8015620009645760a0516001600160a01b0389166000908152600b60205260408120549091620009279162001db9565b60a05162000936908762001db9565b62000942919062001ddc565b905060005b81811015620008ef576200095b8a62000ad9565b60010162000947565b600060a0518762000976919062001db9565b905060005b8181101562000a08576001600160a01b038a16600090815260106020526040812054620009ab9060019062001ddc565b6001600160a01b038c1660009081526010602052604081208054929350909183908110620009dd57620009dd62001cf5565b90600052602060002001549050620009fd8c8c8362000ca960201b60201c565b50506001016200097b565b5060a051819062000a2e8b6001600160a01b03166000908152600b602052604090205490565b62000a3a919062001db9565b60a05162000a49908862001db9565b62000a55919062001ddc565b111562000a675762000a678962000ad9565b8060a0518562000a78919062001db9565b60a0516001600160a01b038b166000908152600b602052604090205462000aa0919062001db9565b62000aac919062001ddc565b111562000ac95762000ac98860a051600062000b7960201b60201c565b505b506001979650505050505050565b6001600160a01b03811662000b0157604051636edaef2f60e11b815260040160405180910390fd5b6001600160a01b0381166000908152601060205260408120805462000b299060019062001ddc565b8154811062000b3c5762000b3c62001cf5565b9060005260206000200154905062000b5a8162000e7760201b60201c565b62000b688260008362000ca9565b62000b7560048262000ee5565b5050565b6001600160a01b03831662000ba157604051634e46966960e11b815260040160405180910390fd5b801562000bb4576200074b838362000f50565b6200074b83836200103e565b6001600160a01b03831662000bef57806008600082825462000be3919062001da3565b9091555062000c1f9050565b6001600160a01b0383166000908152600b60205260408120805483929062000c1990849062001ddc565b90915550505b6001600160a01b038083166000818152600b602052604090819020805485019055519091851690600080516020620052808339815191529062000c659085815260200190565b60405180910390a3505050565b60006001600160a01b038216158062000ca357506001600160a01b03821660009081526011602052604090205460ff165b92915050565b62000cb6818484620012a6565b6000818152600f6020526040902080546001600160a01b0319166001600160a01b0384160190556001600160a01b0383161562000de4576001600160a01b0383166000908152601060205260408120805462000d159060019062001ddc565b8154811062000d285762000d2862001cf5565b6000918252602082200154915062000d4f836000908152600f602052604090205460a01c90565b6001600160a01b0386166000908152601060205260409020805491925083918390811062000d815762000d8162001cf5565b60009182526020808320909101929092556001600160a01b038716815260109091526040902080548062000db95762000db962001df2565b6001900381819060005260206000200160009055905562000de182826200144a60201b60201c565b50505b6001600160a01b038216600081815260106020908152604082208054600181810183558285529284200185905592909152905462000e3091839162000e2a919062001ddc565b6200144a565b6000818152600d602052604080822080546001600160a01b03191690555182916001600160a01b0385811692908716916000805160206200528083398151915291a4505050565b6000818152600260205260409020541562000ee2576000818152600260205260408120805490919062000eae5762000eae62001cf5565b600091825260208083206002928302016001015484845260038252604080852091909155919052812062000ee29162001856565b50565b81546001600160801b038082166000190191600160801b900481169082160362000f2257604051638acb5f2760e01b815260040160405180910390fd5b6001600160801b0316600081815260018401602052604090209190915581546001600160801b031916179055565b6004546001600160801b03808216600160801b9092041614620010255760008062000f946004546001600160801b03808216600160801b9092048116919091031690565b90505b808210156200102257600062000faf600484620014b2565b600081815260036020526040902054909150848114801562000fd7575062000fd7826200151f565b156200100b5762000fe96004620015e2565b5062000ff58262001658565b620010036000878462000ca9565b505050505050565b83620010178162001e08565b945050505062000f97565b50505b60405163162908e360e11b815260040160405180910390fd5b600060a0518262001050919062001db9565b905060005b818110156200080e5760006200107f600454600160801b81046001600160801b0390811691161490565b6200123557600080620010ab6004546001600160801b03808216600160801b9092048116919091031690565b90505b8082108015620010bc575082155b1562001232576000620010d1600484620014b2565b60a051600082815260036020526040902054919250148015620010fa5750620010fa816200151f565b156200121c57826000036200111c57620011156004620015e2565b50620011fe565b6001620011426004546001600160801b03808216600160801b9092048116919091031690565b6200114e919062001ddc565b83036200116157620011156004620017e5565b6000620011876004546001600160801b03808216600160801b9092048116919091031690565b9050835b6200119860018362001ddc565b811015620011ee576000620011bc620011b383600162001da3565b600490620014b2565b9050620011ca6004620017e5565b50620011d860048262000ee5565b5080620011e58162001e08565b9150506200118b565b50620011fb6004620017e5565b50505b620012098162001658565b620012176000898362000ca9565b600193505b82620012288162001e08565b93505050620010ae565b50505b806200129c576009600081546200124c9062001e08565b90915550600954600101620012745760405163303b682f60e01b815260040160405180910390fd5b6000600954600160ff1b6200128a919062001da3565b90506200129a6000878362000ca9565b505b5060010162001055565b60008381526002602052604090205480156200080e576000848152600260205260409020620012d760018362001ddc565b81548110620012ea57620012ea62001cf5565b600091825260208083206002928302015487845291905260409091206001600160a01b039091169085907f3f5fbaf86658fdadee77f1d46e7f8a72424ad9839eda6a1dc6eb0a4228e4226e906200134360018662001ddc565b8154811062001356576200135662001cf5565b9060005260206000209060020201600101546040516200137891815260200190565b60405180910390a360008481526002602052604090206200139b60018362001ddc565b81548110620013ae57620013ae62001cf5565b600091825260208083206002928302015487845291905260409091206001600160a01b039091169085907fb162210da7d23d82c18cff5af46d3562661d26b42a6848fa28d64a6bdc70386a906200140760018662001ddc565b815481106200141a576200141a62001cf5565b9060005260206000209060020201600101546040516200143c91815260200190565b60405180910390a350505050565b6000828152600f60205260409020546001600160601b038211156200148257604051633f2cd0e360e21b815260040160405180910390fd5b6000928352600f60205260409092206001600160a01b039290921660a09190911b6001600160a01b031916019055565b6000620014d783546001600160801b03808216600160801b9092048116919091031690565b8210620014f75760405163580821e760e01b815260040160405180910390fd5b5081546001600160801b03908116820116600090815260018301602052604090205492915050565b6000818152600a602052604081205460ff1615806200154a5750600082815260016020526040902054155b156200155857506001919050565b600082815260016020908152604080832060029092528220805491929091900362001587575060009392505050565b816000815481106200159d576200159d62001cf5565b90600052602060002090600202016001015481600081548110620015c557620015c562001cf5565b906000526020600020906002020160010154101592505050919050565b80546000906001600160801b0380821691600160801b90041681036200161b576040516375e52f4f60e01b815260040160405180910390fd5b6001600160801b038181166000908152600185810160205260408220805492905585546001600160801b0319169301909116919091179092555090565b6000818152600a602052604090205460ff16801562001684575060008181526001602052604090205415155b1562000ee25762001695816200151f565b620016ef5760405162461bcd60e51b8152602060048201526024808201527f496e73756666696369656e74206465706f7369747320746f20726573746f72656044820152630813919560e21b606482015260840162000062565b6000818152600260205260408120620017089162001856565b60005b600082815260016020526040902054811015620017b3576000828152600260209081526040808320600190925290912080548390811062001750576200175062001cf5565b6000918252602080832084546001818101875595855291909320600292830290930180549190920290920180546001600160a01b0319166001600160a01b0390931692909217825582015491015580620017aa8162001e08565b9150506200170b565b506000818152600160205260408120620017cd9162001856565b6000908152600a60205260409020805460ff19169055565b80546000906001600160801b03600160801b82048116911681036200181d576040516375e52f4f60e01b815260040160405180910390fd5b600019016001600160801b039081166000818152600185016020526040812080549190558454909216600160801b909102179092555090565b508054600082556002029060005260206000209081019062000ee291905b808211156200189b5780546001600160a01b03191681556000600182015560020162001874565b5090565b634e487b7160e01b600052604160045260246000fd5b600082601f830112620018c757600080fd5b81516001600160401b0380821115620018e457620018e46200189f565b604051601f8301601f19908116603f011681019082821181831017156200190f576200190f6200189f565b816040528381526020925086838588010111156200192c57600080fd5b600091505b8382101562001950578582018301518183018401529082019062001931565b600093810190920192909252949350505050565b80516001600160a01b03811681146200197c57600080fd5b919050565b600080600080600080600080610100898b0312156200199f57600080fd5b88516001600160401b0380821115620019b757600080fd5b620019c58c838d01620018b5565b995060208b0151915080821115620019dc57600080fd5b50620019eb8b828c01620018b5565b975050604089015160ff8116811462001a0357600080fd5b60608a0151909650945062001a1b60808a0162001964565b935062001a2b60a08a0162001964565b925062001a3b60c08a0162001964565b915062001a4b60e08a0162001964565b90509295985092959890939650565b600181811c9082168062001a6f57607f821691505b60208210810362001a9057634e487b7160e01b600052602260045260246000fd5b50919050565b601f8211156200074b57600081815260208120601f850160051c8101602086101562001abf5750805b601f850160051c820191505b81811015620010035782815560010162001acb565b81516001600160401b0381111562001afc5762001afc6200189f565b62001b148162001b0d845462001a5a565b8462001a96565b602080601f83116001811462001b4c576000841562001b335750858301515b600019600386901b1c1916600185901b17855562001003565b600085815260208120601f198616915b8281101562001b7d5788860151825594840194600190910190840162001b5c565b508582101562001b9c5787850151600019600388901b60f8161c191681555b5050505050600190811b01905550565b634e487b7160e01b600052601160045260246000fd5b600181815b8085111562001c0357816000190482111562001be75762001be762001bac565b8085161562001bf557918102915b93841c939080029062001bc7565b509250929050565b60008262001c1c5750600162000ca3565b8162001c2b5750600062000ca3565b816001811462001c44576002811462001c4f5762001c6f565b600191505062000ca3565b60ff84111562001c635762001c6362001bac565b50506001821b62000ca3565b5060208310610133831016604e8410600b841016171562001c94575081810a62000ca3565b62001ca0838362001bc2565b806000190482111562001cb75762001cb762001bac565b029392505050565b600062001cd060ff84168362001c0b565b9392505050565b60006020828403121562001cea57600080fd5b62001cd08262001964565b634e487b7160e01b600052603260045260246000fd5b808202811582820484141762000ca35762000ca362001bac565b600080835462001d358162001a5a565b6001828116801562001d50576001811462001d665762001d97565b60ff198416875282151583028701945062001d97565b8760005260208060002060005b8581101562001d8e5781548a82015290840190820162001d73565b50505082870194505b50929695505050505050565b8082018082111562000ca35762000ca362001bac565b60008262001dd757634e487b7160e01b600052601260045260246000fd5b500490565b8181038181111562000ca35762000ca362001bac565b634e487b7160e01b600052603160045260246000fd5b60006001820162001e1d5762001e1d62001bac565b5060010190565b60805160a05160c05160e0516133c062001ec060003960006109d9015260006109a90152600081816104bc01528181611a3601528181611a7a01528181611abc01528181611b1601528181611b4001528181611b9401528181611c4001528181611c8d01528181611cd101528181611cf801528181611d56015281816121ee015281816126be01526127570152600061039201526133c06000f3fe608060405234801561001057600080fd5b50600436106102745760003560e01c80638a696e5011610151578063c6e672b9116100c3578063dd63769911610087578063dd637699146105f2578063dfabc03314610605578063e985e9c514610618578063f16ad51e14610646578063f2fde38b14610659578063f780bc1a1461066c57600080fd5b8063c6e672b91461057b578063c87b56dd1461058e578063d505accf146105a1578063d96ca0b9146105b4578063dd62ed3e146105c757600080fd5b8063a9059cbb11610115578063a9059cbb146104f1578063b1ab931714610504578063b3f9ea3414610524578063b88d4fde1461054d578063ba7bd2aa14610560578063c5ab3ba61461057357600080fd5b80638a696e501461048b5780638da5cb5b1461049e57806395d89b41146104af578063976a8435146104b7578063a22cb465146104de57600080fd5b80633644e515116101ea5780636e8f624b116101ae5780636e8f624b1461041057806370a082311461041b578063715018a61461043b5780637df1c3d8146104435780637ecebe001461046357806389fb4c661461048357600080fd5b80633644e515146103c657806342842e0e146103ce5780634d966072146103e15780634f02c420146103f45780636352211e146103fd57600080fd5b8063095ea7b31161023c578063095ea7b31461034357806309674eb01461035657806309f0ef651461035e57806318160ddd1461037157806323b872dd1461037a578063313ce5671461038d57600080fd5b8063015bf2641461027957806301ffc9a71461028e57806302519da3146102b657806306fdde03146102ed578063081812fc14610302575b600080fd5b61028c610287366004612d1c565b61067f565b005b6102a161029c366004612d67565b610827565b60405190151581526020015b60405180910390f35b6102df6102c4366004612d84565b6001600160a01b03166000908152600b602052604090205490565b6040519081526020016102ad565b6102f561085e565b6040516102ad9190612def565b61032b610310366004612e02565b600d602052600090815260409020546001600160a01b031681565b6040516001600160a01b0390911681526020016102ad565b6102a1610351366004612e1b565b6108ec565b6102df610925565b6102a161036c366004612d84565b610936565b6102df60085481565b6102a1610388366004612e45565b610968565b6103b47f000000000000000000000000000000000000000000000000000000000000000081565b60405160ff90911681526020016102ad565b6102df6109a5565b61028c6103dc366004612e45565b6109fb565b6102a16103ef366004612e1b565b610a1b565b6102df60095481565b61032b61040b366004612e02565b610aa8565b6102df600160ff1b81565b6102df610429366004612d84565b600b6020526000908152604090205481565b61028c610b12565b610456610451366004612e02565b610b26565b6040516102ad9190612e71565b6102df610471366004612d84565b60126020526000908152604090205481565b6008546102df565b61028c610499366004612ed7565b610bae565b6000546001600160a01b031661032b565b6102f5610bbb565b6102df7f000000000000000000000000000000000000000000000000000000000000000081565b61028c6104ec366004612ef4565b610bc8565b6102a16104ff366004612e1b565b610c5c565b610517610512366004612d84565b610c90565b6040516102ad9190612f2b565b6102df610532366004612d84565b6001600160a01b031660009081526010602052604090205490565b61028c61055b366004612f85565b610cfc565b61028c61056e366004613061565b610dea565b6009546102df565b61028c610589366004612ef4565b610f7d565b6102f561059c366004612e02565b610f93565b61028c6105af366004613083565b610fc4565b6102a16105c2366004612e45565b611207565b6102df6105d53660046130f6565b600c60209081526000928352604080842090915290825290205481565b61028c610600366004612e45565b6112c7565b61028c610613366004612e1b565b6113fd565b6102a16106263660046130f6565b600e60209081526000928352604080842090915290825290205460ff1681565b61028c610654366004613061565b6114c2565b61028c610667366004612d84565b61167f565b61051761067a366004613061565b6116ba565b6000838152600f60205260409020546001600160a01b03163381146106b6576040516282b42960e81b815260040160405180910390fd5b306001600160a01b0384160361073157336000908152600b60205260409020548211156107215760405162461bcd60e51b8152602060048201526014602482015273496e73756666696369656e742062616c616e636560601b60448201526064015b60405180910390fd5b61072c333084611757565b6107c8565b6040516323b872dd60e01b81523360048201523060248201526044810183905283906001600160a01b038216906323b872dd906064016020604051808303816000875af1158015610786573d6000803e3d6000fd5b505050506040513d601f19601f820116820180604052508101906107aa9190613129565b6107c65760405162461bcd60e51b815260040161071890613146565b505b50600092835260026020818152604080862081518083019092526001600160a01b0395861682528183019485528054600180820183559188529290962090519190920290910180546001600160a01b0319169190931617825551910155565b60006001600160e01b0319821663caf91ff560e01b148061085857506001600160e01b031982166301ffc9a760e01b145b92915050565b6006805461086b9061316f565b80601f01602080910402602001604051908101604052809291908181526020018280546108979061316f565b80156108e45780601f106108b9576101008083540402835291602001916108e4565b820191906000526020600020905b8154815290600101906020018083116108c757829003601f168201915b505050505081565b60006108f782611813565b1561090b5761090683836113fd565b61091c565b6109158383610a1b565b9050610858565b50600192915050565b6000610931600461182c565b905090565b60006001600160a01b03821615806108585750506001600160a01b031660009081526011602052604090205460ff1690565b600061097382611813565b15610988576109838484846112c7565b61099a565b610993848484611207565b905061099e565b5060015b9392505050565b60007f000000000000000000000000000000000000000000000000000000000000000046146109d65761093161184a565b507f000000000000000000000000000000000000000000000000000000000000000090565b610a1683838360405180602001604052806000815250610cfc565b505050565b60006001600160a01b038316610a4457604051635461585f60e01b815260040160405180910390fd5b336000818152600c602090815260408083206001600160a01b03881680855290835292819020869055518581529192917f8c5be1e5ebec7d5bd14f71427d1e84f3dd0314c0f7b2291e5b200ac8c7c3b925910160405180910390a350600192915050565b6000818152600f60205260409020546001600160a01b0316610ac982611813565b610ae6576040516307ed98ed60e31b815260040160405180910390fd5b6001600160a01b038116610b0d5760405163c5723b5160e01b815260040160405180910390fd5b919050565b610b1a6118e4565b610b246000611911565b565b606060026000838152602001908152602001600020805480602002602001604051908101604052809291908181526020016000905b82821015610ba3576000848152602090819020604080518082019091526002850290910180546001600160a01b03168252600190810154828401529083529092019101610b5b565b505050509050919050565b610bb83382611961565b50565b6007805461086b9061316f565b6001600160a01b038216610bef5760405163ccea9e6f60e01b815260040160405180910390fd5b336000818152600e602090815260408083206001600160a01b03871680855290835292819020805460ff191686151590811790915590519081529192917f17307eab39ab6107e8899845ad3d59bd9653f200f220920489ca2b5937696c3191015b60405180910390a35050565b60006001600160a01b038316610c8557604051634e46966960e11b815260040160405180910390fd5b61099e3384846119d0565b6001600160a01b038116600090815260106020908152604091829020805483518184028101840190945280845260609392830182828015610cf057602002820191906000526020600020905b815481526020019060010190808311610cdc575b50505050509050919050565b610d0582611813565b610d22576040516307ed98ed60e31b815260040160405180910390fd5b610d2d848484610968565b506001600160a01b0383163b15801590610dc65750604051630a85bd0160e11b808252906001600160a01b0385169063150b7a0290610d769033908990889088906004016131a9565b6020604051808303816000875af1158015610d95573d6000803e3d6000fd5b505050506040513d601f19601f82011682018060405250810190610db991906131e6565b6001600160e01b03191614155b15610de457604051633da6393160e01b815260040160405180910390fd5b50505050565b6000828152600f60205260409020546001600160a01b0316338114610e21576040516282b42960e81b815260040160405180910390fd5b6000838152600260205260409020548210610e765760405162461bcd60e51b8152602060048201526015602482015274092dcecc2d8d2c840c8cae0dee6d2e840d2dcc8caf605b1b6044820152606401610718565b6000838152600260205260408120805484908110610e9657610e96613203565b6000918252602090912060029091020160018101548154919250906001600160a01b0316610ec48686611d8c565b306001600160a01b03821603610ee457610edf303384611757565b610f75565b60405163a9059cbb60e01b81523360048201526024810183905281906001600160a01b0382169063a9059cbb906044016020604051808303816000875af1158015610f33573d6000803e3d6000fd5b505050506040513d601f19601f82011682018060405250810190610f579190613129565b610f735760405162461bcd60e51b815260040161071890613146565b505b505050505050565b610f856118e4565b610f8f8282611961565b5050565b6060610f9e82611edb565b604051602001610fae9190613219565b6040516020818303038152906040529050919050565b42841015610fe5576040516305787bdf60e01b815260040160405180910390fd5b610fee85611813565b1561100c576040516303e7c1bd60e31b815260040160405180910390fd5b6001600160a01b03861661103357604051635461585f60e01b815260040160405180910390fd5b6000600161103f6109a5565b6001600160a01b038a811660008181526012602090815260409182902080546001810190915582517f6e71edae12b1b97f4d1f60370fef10105fa2faae0126114a169c64845d6126c98184015280840194909452938d166060840152608083018c905260a083019390935260c08083018b90528151808403909101815260e08301909152805192019190912061190160f01b6101008301526101028201929092526101228101919091526101420160408051601f198184030181528282528051602091820120600084529083018083525260ff871690820152606081018590526080810184905260a0016020604051602081039080840390855afa15801561114b573d6000803e3d6000fd5b5050604051601f1901519150506001600160a01b03811615806111805750876001600160a01b0316816001600160a01b031614155b1561119e57604051632057875960e21b815260040160405180910390fd5b6001600160a01b039081166000908152600c602090815260408083208a8516808552908352928190208990555188815291928a16917f8c5be1e5ebec7d5bd14f71427d1e84f3dd0314c0f7b2291e5b200ac8c7c3b925910160405180910390a350505050505050565b60006001600160a01b03841661123057604051636edaef2f60e11b815260040160405180910390fd5b6001600160a01b03831661125757604051634e46966960e11b815260040160405180910390fd5b6001600160a01b0384166000908152600c6020908152604080832033845290915290205460001981146112b35761128e8382613274565b6001600160a01b0386166000908152600c602090815260408083203384529091529020555b6112be8585856119d0565b95945050505050565b6001600160a01b0383166112ee57604051636edaef2f60e11b815260040160405180910390fd5b6001600160a01b03821661131557604051634e46966960e11b815260040160405180910390fd5b6000818152600f60205260409020546001600160a01b0384811691161461134e576040516282b42960e81b815260040160405180910390fd5b336001600160a01b0384161480159061138b57506001600160a01b0383166000908152600e6020908152604080832033845290915290205460ff16155b80156113ae57506000818152600d60205260409020546001600160a01b03163314155b156113cb576040516282b42960e81b815260040160405180910390fd5b6113d482610936565b156113f257604051635ce7539760e01b815260040160405180910390fd5b610a16838383611f6e565b6000818152600f60205260409020546001600160a01b031633811480159061144957506001600160a01b0381166000908152600e6020908152604080832033845290915290205460ff16155b15611466576040516282b42960e81b815260040160405180910390fd5b6000828152600d602052604080822080546001600160a01b0319166001600160a01b0387811691821790925591518593918516917f8c5be1e5ebec7d5bd14f71427d1e84f3dd0314c0f7b2291e5b200ac8c7c3b92591a4505050565b6000828152600f60205260409020546001600160a01b0316331461151a5760405162461bcd60e51b815260206004820152600f60248201526e2737ba103a37b5b2b71037bbb732b960891b6044820152606401610718565b6000811161156a5760405162461bcd60e51b815260206004820152601d60248201527f416d6f756e74206d7573742062652067726561746572207468616e20300000006044820152606401610718565b60008281526002602052604081205490036115df5760008281526002602081815260408084208151808301909252308252818301868152815460018082018455928752939095209151929093020180546001600160a01b0319166001600160a01b039092169190911781559151910155611624565b600082815260026020526040812080548392906115fe576115fe613203565b9060005260206000209060020201600101600082825461161e9190613287565b90915550505b61162f333083612134565b61164b5760405162461bcd60e51b815260040161071890613146565b604051818152309083907fb162210da7d23d82c18cff5af46d3562661d26b42a6848fa28d64a6bdc70386a90602001610c50565b6116876118e4565b6001600160a01b0381166116b157604051631e4fbdf760e01b815260006004820152602401610718565b610bb881611911565b606060008267ffffffffffffffff8111156116d7576116d7612f6f565b604051908082528060200260200182016040528015611700578160200160208202803683370190505b509050835b61170f8486613287565b81101561174f57611721600482612149565b8261172c8784613274565b8151811061173c5761173c613203565b6020908102919091010152600101611705565b509392505050565b6001600160a01b0383166117825780600860008282546117779190613287565b909155506117b09050565b6001600160a01b0383166000908152600b6020526040812080548392906117aa908490613274565b90915550505b6001600160a01b038083166000818152600b6020526040908190208054850190555190918516907fddf252ad1be2c89b69c2b068fc378daa952ba7f163c4a11628f55a4df523b3ef906118069085815260200190565b60405180910390a3505050565b6000600160ff1b82118015610858575050600019141590565b546001600160801b03808216600160801b9092048116919091031690565b60007f8b73c3c69bb8fe3d512ecc4cf759cc79239f7b179b0ffacaa9a75d522b39400f600660405161187c919061329a565b6040805191829003822060208301939093528101919091527fc89efdaa54c0f20c7adf612882df0950f5a951637e0307cdcb4c672f298b8bc660608201524660808201523060a082015260c00160405160208183030381529060405280519060200120905090565b6000546001600160a01b03163314610b245760405163118cdaa760e01b8152336004820152602401610718565b600080546001600160a01b038381166001600160a01b0319831681178455604051919092169283917f8be0079c531659141344cd1fd0a4f28419497f9722a3daafe3b4186f6b6457e09190a35050565b6001600160a01b0382166119885760405163a41e3d3f60e01b815260040160405180910390fd5b801561199c576119978261219b565b6119a5565b6119a5826121cf565b6001600160a01b03919091166000908152601160205260409020805460ff1916911515919091179055565b6001600160a01b038381166000908152600b6020526040808220549285168252812054909190611a01868686611757565b6000611a0c87610936565b90506000611a1987610936565b9050818015611a255750805b611d7e578115611af1576000611a5b7f000000000000000000000000000000000000000000000000000000000000000085613339565b6001600160a01b0389166000908152600b6020526040902054611a9f907f000000000000000000000000000000000000000000000000000000000000000090613339565b611aa99190613274565b905060005b81811015611aea57611ae2897f00000000000000000000000000000000000000000000000000000000000000006000612260565b600101611aae565b5050611d7e565b8015611b8d576001600160a01b0388166000908152600b6020526040812054611b3b907f000000000000000000000000000000000000000000000000000000000000000090613339565b611b657f000000000000000000000000000000000000000000000000000000000000000087613339565b611b6f9190613274565b905060005b81811015611aea57611b858a6122a1565b600101611b74565b6000611bb97f000000000000000000000000000000000000000000000000000000000000000088613339565b905060005b81811015611c3c576001600160a01b038a16600090815260106020526040812054611beb90600190613274565b6001600160a01b038c1660009081526010602052604081208054929350909183908110611c1a57611c1a613203565b90600052602060002001549050611c328c8c83611f6e565b5050600101611bbe565b50807f0000000000000000000000000000000000000000000000000000000000000000611c7e8b6001600160a01b03166000908152600b602052604090205490565b611c889190613339565b611cb27f000000000000000000000000000000000000000000000000000000000000000088613339565b611cbc9190613274565b1115611ccb57611ccb896122a1565b80611cf67f000000000000000000000000000000000000000000000000000000000000000086613339565b7f0000000000000000000000000000000000000000000000000000000000000000611d368b6001600160a01b03166000908152600b602052604090205490565b611d409190613339565b611d4a9190613274565b1115611d7c57611d7c887f00000000000000000000000000000000000000000000000000000000000000006000612260565b505b506001979650505050505050565b6000828152600260205260409020548110611dd95760405162461bcd60e51b815260206004820152600d60248201526c092dcecc2d8d2c840d2dcc8caf609b1b6044820152606401610718565b600082815260026020526040902054611df490600190613274565b8114611e915760008281526002602052604090208054611e1690600190613274565b81548110611e2657611e26613203565b9060005260206000209060020201600260008481526020019081526020016000208281548110611e5857611e58613203565b60009182526020909120825460029092020180546001600160a01b0319166001600160a01b039092169190911781556001918201549101555b6000828152600260205260409020805480611eae57611eae61335b565b60008281526020812060026000199093019283020180546001600160a01b03191681556001015590555050565b60606000611ee88361232b565b600101905060008167ffffffffffffffff811115611f0857611f08612f6f565b6040519080825280601f01601f191660200182016040528015611f32576020820181803683370190505b5090508181016020015b600019016f181899199a1a9b1b9c1cb0b131b232b360811b600a86061a8153600a8504945084611f3c57509392505050565b611f79818484612403565b6000818152600f6020526040902080546001600160a01b0319166001600160a01b0384160190556001600160a01b03831615612094576001600160a01b03831660009081526010602052604081208054611fd590600190613274565b81548110611fe557611fe5613203565b90600052602060002001549050600061200d836000908152600f602052604090205460a01c90565b6001600160a01b0386166000908152601060205260409020805491925083918390811061203c5761203c613203565b60009182526020808320909101929092556001600160a01b03871681526010909152604090208054806120715761207161335b565b600190038181906000526020600020016000905590556120918282612590565b50505b6001600160a01b03821660008181526010602090815260408220805460018181018355828552928420018590559290915290546120dc9183916120d79190613274565b612590565b6000818152600d602052604080822080546001600160a01b03191690555182916001600160a01b0385811692908716917fddf252ad1be2c89b69c2b068fc378daa952ba7f163c4a11628f55a4df523b3ef91a4505050565b60006121418484846119d0565b949350505050565b60006121548361182c565b82106121735760405163580821e760e01b815260040160405180910390fd5b5081546001600160801b03908116820116600090815260018301602052604090205492915050565b6001600160a01b038116600090815260106020526040812054905b81811015610a16576121c7836122a1565b6001016121b6565b6001600160a01b0381166000908152600b6020526040812054612213907f000000000000000000000000000000000000000000000000000000000000000090613339565b90506000612236836001600160a01b031660009081526010602052604090205490565b905060005b6122458284613274565b811015610de45761225884600180612260565b60010161223b565b6001600160a01b03831661228757604051634e46966960e11b815260040160405180910390fd5b801561229757610a1683836125fc565b610a1683836126b7565b6001600160a01b0381166122c857604051636edaef2f60e11b815260040160405180910390fd5b6001600160a01b038116600090815260106020526040812080546122ee90600190613274565b815481106122fe576122fe613203565b90600052602060002001549050612314816128d5565b61232082600083611f6e565b610f8f60048261293a565b60008072184f03e93ff9f4daa797ed6e38ed64bf6a1f0160401b831061236a5772184f03e93ff9f4daa797ed6e38ed64bf6a1f0160401b830492506040015b6d04ee2d6d415b85acef81000000008310612396576d04ee2d6d415b85acef8100000000830492506020015b662386f26fc1000083106123b457662386f26fc10000830492506010015b6305f5e10083106123cc576305f5e100830492506008015b61271083106123e057612710830492506004015b606483106123f2576064830492506002015b600a83106108585760010192915050565b6000838152600260205260409020548015610de4576000848152600260205260409020612431600183613274565b8154811061244157612441613203565b600091825260208083206002928302015487845291905260409091206001600160a01b039091169085907f3f5fbaf86658fdadee77f1d46e7f8a72424ad9839eda6a1dc6eb0a4228e4226e90612498600186613274565b815481106124a8576124a8613203565b9060005260206000209060020201600101546040516124c991815260200190565b60405180910390a360008481526002602052604090206124ea600183613274565b815481106124fa576124fa613203565b600091825260208083206002928302015487845291905260409091206001600160a01b039091169085907fb162210da7d23d82c18cff5af46d3562661d26b42a6848fa28d64a6bdc70386a90612551600186613274565b8154811061256157612561613203565b90600052602060002090600202016001015460405161258291815260200190565b60405180910390a350505050565b6000828152600f60205260409020546bffffffffffffffffffffffff8211156125cc57604051633f2cd0e360e21b815260040160405180910390fd5b6000928352600f60205260409092206001600160a01b039290921660a09190911b6001600160a01b031916019055565b6004546001600160801b03808216600160801b909204161461269e57600080612625600461182c565b90505b8082101561269b57600061263d600484612149565b60008181526003602052604090205490915084811480156126625750612662826129a4565b15612687576126716004612a5e565b5061267b82612ad3565b610f7560008784611f6e565b8361269181613371565b9450505050612628565b50505b60405163162908e360e11b815260040160405180910390fd5b60006126e37f000000000000000000000000000000000000000000000000000000000000000083613339565b905060005b81811015610de4576000612710600454600160801b81046001600160801b0390811691161490565b61286d57600080612721600461182c565b90505b8082108015612731575082155b1561286a576000612743600484612149565b6000818152600360205260409020549091507f00000000000000000000000000000000000000000000000000000000000000001480156127875750612787816129a4565b1561285757826000036127a45761279e6004612a5e565b5061283d565b60016127b0600461182c565b6127ba9190613274565b83036127ca5761279e6004612c4f565b60006127d6600461182c565b9050835b6127e5600183613274565b81101561282f5760006128046127fc836001613287565b600490612149565b90506128106004612c4f565b5061281c60048261293a565b508061282781613371565b9150506127da565b5061283a6004612c4f565b50505b61284681612ad3565b61285260008983611f6e565b600193505b8261286181613371565b93505050612724565b50505b806128cc5760096000815461288190613371565b909155506009546001016128a85760405163303b682f60e01b815260040160405180910390fd5b6000600954600160ff1b6128bc9190613287565b90506128ca60008783611f6e565b505b506001016126e8565b60008181526002602052604090205415610bb8576000818152600260205260408120805490919061290857612908613203565b6000918252602080832060029283020160010154848452600382526040808520919091559190528120610bb891612cbf565b81546001600160801b038082166000190191600160801b900481169082160361297657604051638acb5f2760e01b815260040160405180910390fd5b6001600160801b0316600081815260018401602052604090209190915581546001600160801b031916179055565b6000818152600a602052604081205460ff1615806129ce5750600082815260016020526040902054155b156129db57506001919050565b6000828152600160209081526040808320600290925282208054919290919003612a09575060009392505050565b81600081548110612a1c57612a1c613203565b90600052602060002090600202016001015481600081548110612a4157612a41613203565b906000526020600020906002020160010154101592505050919050565b80546000906001600160801b0380821691600160801b9004168103612a96576040516375e52f4f60e01b815260040160405180910390fd5b6001600160801b038181166000908152600185810160205260408220805492905585546001600160801b0319169301909116919091179092555090565b6000818152600a602052604090205460ff168015612afe575060008181526001602052604090205415155b15610bb857612b0c816129a4565b612b645760405162461bcd60e51b8152602060048201526024808201527f496e73756666696369656e74206465706f7369747320746f20726573746f72656044820152630813919560e21b6064820152608401610718565b6000818152600260205260408120612b7b91612cbf565b60005b600082815260016020526040902054811015612c1f5760008281526002602090815260408083206001909252909120805483908110612bbf57612bbf613203565b6000918252602080832084546001818101875595855291909320600292830290930180549190920290920180546001600160a01b0319166001600160a01b0390931692909217825582015491015580612c1781613371565b915050612b7e565b506000818152600160205260408120612c3791612cbf565b6000908152600a60205260409020805460ff19169055565b80546000906001600160801b03600160801b8204811691168103612c86576040516375e52f4f60e01b815260040160405180910390fd5b600019016001600160801b039081166000818152600185016020526040812080549190558454909216600160801b909102179092555090565b5080546000825560020290600052602060002090810190610bb891905b80821115612d015780546001600160a01b031916815560006001820155600201612cdc565b5090565b80356001600160a01b0381168114610b0d57600080fd5b600080600060608486031215612d3157600080fd5b83359250612d4160208501612d05565b9150604084013590509250925092565b6001600160e01b031981168114610bb857600080fd5b600060208284031215612d7957600080fd5b813561099e81612d51565b600060208284031215612d9657600080fd5b61099e82612d05565b60005b83811015612dba578181015183820152602001612da2565b50506000910152565b60008151808452612ddb816020860160208601612d9f565b601f01601f19169290920160200192915050565b60208152600061099e6020830184612dc3565b600060208284031215612e1457600080fd5b5035919050565b60008060408385031215612e2e57600080fd5b612e3783612d05565b946020939093013593505050565b600080600060608486031215612e5a57600080fd5b612e6384612d05565b9250612d4160208501612d05565b602080825282518282018190526000919060409081850190868401855b82811015612ebc57815180516001600160a01b03168552860151868501529284019290850190600101612e8e565b5091979650505050505050565b8015158114610bb857600080fd5b600060208284031215612ee957600080fd5b813561099e81612ec9565b60008060408385031215612f0757600080fd5b612f1083612d05565b91506020830135612f2081612ec9565b809150509250929050565b6020808252825182820181905260009190848201906040850190845b81811015612f6357835183529284019291840191600101612f47565b50909695505050505050565b634e487b7160e01b600052604160045260246000fd5b60008060008060808587031215612f9b57600080fd5b612fa485612d05565b9350612fb260208601612d05565b925060408501359150606085013567ffffffffffffffff80821115612fd657600080fd5b818701915087601f830112612fea57600080fd5b813581811115612ffc57612ffc612f6f565b604051601f8201601f19908116603f0116810190838211818310171561302457613024612f6f565b816040528281528a602084870101111561303d57600080fd5b82602086016020830137600060208483010152809550505050505092959194509250565b6000806040838503121561307457600080fd5b50508035926020909101359150565b600080600080600080600060e0888a03121561309e57600080fd5b6130a788612d05565b96506130b560208901612d05565b95506040880135945060608801359350608088013560ff811681146130d957600080fd5b9699959850939692959460a0840135945060c09093013592915050565b6000806040838503121561310957600080fd5b61311283612d05565b915061312060208401612d05565b90509250929050565b60006020828403121561313b57600080fd5b815161099e81612ec9565b6020808252600f908201526e151c985b9cd9995c8819985a5b1959608a1b604082015260600190565b600181811c9082168061318357607f821691505b6020821081036131a357634e487b7160e01b600052602260045260246000fd5b50919050565b6001600160a01b03858116825284166020820152604081018390526080606082018190526000906131dc90830184612dc3565b9695505050505050565b6000602082840312156131f857600080fd5b815161099e81612d51565b634e487b7160e01b600052603260045260246000fd5b7f68747470733a2f2f6578616d706c652e636f6d2f746f6b656e2f00000000000081526000825161325181601a850160208701612d9f565b91909101601a0192915050565b634e487b7160e01b600052601160045260246000fd5b818103818111156108585761085861325e565b808201808211156108585761085861325e565b600080835481600182811c9150808316806132b657607f831692505b602080841082036132d557634e487b7160e01b86526022600452602486fd5b8180156132e957600181146132fe5761332b565b60ff198616895284151585028901965061332b565b60008a81526020902060005b868110156133235781548b82015290850190830161330a565b505084890196505b509498975050505050505050565b60008261335657634e487b7160e01b600052601260045260246000fd5b500490565b634e487b7160e01b600052603160045260246000fd5b6000600182016133835761338361325e565b506001019056fea26469706673582212209255ddbd2bf73284c4761beef8f2c8e1aea9dc7dde8c0a82bd25e1194fde35d764736f6c63430008140033ddf252ad1be2c89b69c2b068fc378daa952ba7f163c4a11628f55a4df523b3ef","linkReferences":{}},"methodIdentifiers":{"DOMAIN_SEPARATOR()":"3644e515","ID_ENCODING_PREFIX()":"6e8f624b","allowance(address,address)":"dd62ed3e","approve(address,uint256)":"095ea7b3","balanceOf(address)":"70a08231","decimals()":"313ce567","depositTokens(uint256,address,uint256)":"015bf264","depositTokens(uint256,uint256)":"f16ad51e","erc20Approve(address,uint256)":"4d966072","erc20BalanceOf(address)":"02519da3","erc20TotalSupply()":"89fb4c66","erc20TransferFrom(address,address,uint256)":"d96ca0b9","erc721Approve(address,uint256)":"dfabc033","erc721BalanceOf(address)":"b3f9ea34","erc721TotalSupply()":"c5ab3ba6","erc721TransferExempt(address)":"09f0ef65","erc721TransferFrom(address,address,uint256)":"dd637699","getApproved(uint256)":"081812fc","getERC721QueueLength()":"09674eb0","getERC721TokensInQueue(uint256,uint256)":"f780bc1a","getTokenDeposits(uint256)":"7df1c3d8","isApprovedForAll(address,address)":"e985e9c5","minted()":"4f02c420","name()":"06fdde03","nonces(address)":"7ecebe00","owned(address)":"b1ab9317","owner()":"8da5cb5b","ownerOf(uint256)":"6352211e","permit(address,address,uint256,uint256,uint8,bytes32,bytes32)":"d505accf","renounceOwnership()":"715018a6","safeTransferFrom(address,address,uint256)":"42842e0e","safeTransferFrom(address,address,uint256,bytes)":"b88d4fde","setApprovalForAll(address,bool)":"a22cb465","setERC721TransferExempt(address,bool)":"c6e672b9","setSelfERC721TransferExempt(bool)":"8a696e50","supportsInterface(bytes4)":"01ffc9a7","symbol()":"95d89b41","tokenURI(uint256)":"c87b56dd","totalSupply()":"18160ddd","transfer(address,uint256)":"a9059cbb","transferFrom(address,address,uint256)":"23b872dd","transferOwnership(address)":"f2fde38b","units()":"976a8435","withdrawTokens(uint256,uint256)":"ba7bd2aa"},"id":4}