{"abi":[{"type":"constructor","inputs":[{"name":"name_","type":"string","internalType":"string"},{"name":"symbol_","type":"string","internalType":"string"},{"name":"decimals_","type":"uint8","internalType":"uint8"},{"name":"initialOwner_","type":"address","internalType":"address"}],"stateMutability":"nonpayable"},{"type":"function","name":"DOMAIN_SEPARATOR","inputs":[],"outputs":[{"name":"","type":"bytes32","internalType":"bytes32"}],"stateMutability":"view"},{"type":"function","name":"ID_ENCODING_PREFIX","inputs":[],"outputs":[{"name":"","type":"uint256","internalType":"uint256"}],"stateMutability":"view"},{"type":"function","name":"_tokenDeposits","inputs":[{"name":"","type":"uint256","internalType":"uint256"},{"name":"","type":"uint256","internalType":"uint256"}],"outputs":[{"name":"tokenAddress","type":"address","internalType":"address"},{"name":"amount","type":"uint256","internalType":"uint256"}],"stateMutability":"view"},{"type":"function","name":"allowance","inputs":[{"name":"","type":"address","internalType":"address"},{"name":"","type":"address","internalType":"address"}],"outputs":[{"name":"","type":"uint256","internalType":"uint256"}],"stateMutability":"view"},{"type":"function","name":"approve","inputs":[{"name":"spender_","type":"address","internalType":"address"},{"name":"value_","type":"uint256","internalType":"uint256"}],"outputs":[{"name":"","type":"bool","internalType":"bool"}],"stateMutability":"nonpayable"},{"type":"function","name":"balanceOf","inputs":[{"name":"","type":"address","internalType":"address"}],"outputs":[{"name":"","type":"uint256","internalType":"uint256"}],"stateMutability":"view"},{"type":"function","name":"decimals","inputs":[],"outputs":[{"name":"","type":"uint8","internalType":"uint8"}],"stateMutability":"view"},{"type":"function","name":"depositTokens","inputs":[{"name":"tokenId_","type":"uint256","internalType":"uint256"},{"name":"tokenAddress_","type":"address","internalType":"address"},{"name":"amount_","type":"uint256","internalType":"uint256"}],"outputs":[],"stateMutability":"nonpayable"},{"type":"function","name":"depositTokens","inputs":[{"name":"tokenId_","type":"uint256","internalType":"uint256"},{"name":"amount_","type":"uint256","internalType":"uint256"}],"outputs":[],"stateMutability":"nonpayable"},{"type":"function","name":"erc20BalanceOf","inputs":[{"name":"owner_","type":"address","internalType":"address"}],"outputs":[{"name":"","type":"uint256","internalType":"uint256"}],"stateMutability":"view"},{"type":"function","name":"erc20TotalSupply","inputs":[],"outputs":[{"name":"","type":"uint256","internalType":"uint256"}],"stateMutability":"view"},{"type":"function","name":"erc20TransferFrom","inputs":[{"name":"from_","type":"address","internalType":"address"},{"name":"to_","type":"address","internalType":"address"},{"name":"value_","type":"uint256","internalType":"uint256"}],"outputs":[{"name":"","type":"bool","internalType":"bool"}],"stateMutability":"nonpayable"},{"type":"function","name":"erc721Approve","inputs":[{"name":"spender_","type":"address","internalType":"address"},{"name":"id_","type":"uint256","internalType":"uint256"}],"outputs":[],"stateMutability":"nonpayable"},{"type":"function","name":"erc721BalanceOf","inputs":[{"name":"owner_","type":"address","internalType":"address"}],"outputs":[{"name":"","type":"uint256","internalType":"uint256"}],"stateMutability":"view"},{"type":"function","name":"erc721TotalSupply","inputs":[],"outputs":[{"name":"","type":"uint256","internalType":"uint256"}],"stateMutability":"view"},{"type":"function","name":"erc721TransferExempt","inputs":[{"name":"target_","type":"address","internalType":"address"}],"outputs":[{"name":"","type":"bool","internalType":"bool"}],"stateMutability":"view"},{"type":"function","name":"erc721TransferFrom","inputs":[{"name":"from_","type":"address","internalType":"address"},{"name":"to_","type":"address","internalType":"address"},{"name":"id_","type":"uint256","internalType":"uint256"}],"outputs":[],"stateMutability":"nonpayable"},{"type":"function","name":"getApproved","inputs":[{"name":"","type":"uint256","internalType":"uint256"}],"outputs":[{"name":"","type":"address","internalType":"address"}],"stateMutability":"view"},{"type":"function","name":"getERC721QueueLength","inputs":[],"outputs":[{"name":"","type":"uint256","internalType":"uint256"}],"stateMutability":"view"},{"type":"function","name":"getERC721TokensInQueue","inputs":[{"name":"start_","type":"uint256","internalType":"uint256"},{"name":"count_","type":"uint256","internalType":"uint256"}],"outputs":[{"name":"","type":"uint256[]","internalType":"uint256[]"}],"stateMutability":"view"},{"type":"function","name":"getTokenDeposits","inputs":[{"name":"tokenId_","type":"uint256","internalType":"uint256"}],"outputs":[{"name":"","type":"tuple[]","internalType":"struct ERC404Deposits.TokenDeposit[]","components":[{"name":"tokenAddress","type":"address","internalType":"address"},{"name":"amount","type":"uint256","internalType":"uint256"}]}],"stateMutability":"view"},{"type":"function","name":"isApprovedForAll","inputs":[{"name":"","type":"address","internalType":"address"},{"name":"","type":"address","internalType":"address"}],"outputs":[{"name":"","type":"bool","internalType":"bool"}],"stateMutability":"view"},{"type":"function","name":"mintERC20","inputs":[{"name":"account_","type":"address","internalType":"address"},{"name":"value_","type":"uint256","internalType":"uint256"}],"outputs":[],"stateMutability":"nonpayable"},{"type":"function","name":"minted","inputs":[],"outputs":[{"name":"","type":"uint256","internalType":"uint256"}],"stateMutability":"view"},{"type":"function","name":"name","inputs":[],"outputs":[{"name":"","type":"string","internalType":"string"}],"stateMutability":"view"},{"type":"function","name":"nonces","inputs":[{"name":"","type":"address","internalType":"address"}],"outputs":[{"name":"","type":"uint256","internalType":"uint256"}],"stateMutability":"view"},{"type":"function","name":"owned","inputs":[{"name":"owner_","type":"address","internalType":"address"}],"outputs":[{"name":"","type":"uint256[]","internalType":"uint256[]"}],"stateMutability":"view"},{"type":"function","name":"owner","inputs":[],"outputs":[{"name":"","type":"address","internalType":"address"}],"stateMutability":"view"},{"type":"function","name":"ownerOf","inputs":[{"name":"id_","type":"uint256","internalType":"uint256"}],"outputs":[{"name":"erc721Owner","type":"address","internalType":"address"}],"stateMutability":"view"},{"type":"function","name":"permit","inputs":[{"name":"owner_","type":"address","internalType":"address"},{"name":"spender_","type":"address","internalType":"address"},{"name":"value_","type":"uint256","internalType":"uint256"},{"name":"deadline_","type":"uint256","internalType":"uint256"},{"name":"v_","type":"uint8","internalType":"uint8"},{"name":"r_","type":"bytes32","internalType":"bytes32"},{"name":"s_","type":"bytes32","internalType":"bytes32"}],"outputs":[],"stateMutability":"nonpayable"},{"type":"function","name":"renounceOwnership","inputs":[],"outputs":[],"stateMutability":"nonpayable"},{"type":"function","name":"safeTransferFrom","inputs":[{"name":"from_","type":"address","internalType":"address"},{"name":"to_","type":"address","internalType":"address"},{"name":"id_","type":"uint256","internalType":"uint256"}],"outputs":[],"stateMutability":"nonpayable"},{"type":"function","name":"safeTransferFrom","inputs":[{"name":"from_","type":"address","internalType":"address"},{"name":"to_","type":"address","internalType":"address"},{"name":"id_","type":"uint256","internalType":"uint256"},{"name":"data_","type":"bytes","internalType":"bytes"}],"outputs":[],"stateMutability":"nonpayable"},{"type":"function","name":"setApprovalForAll","inputs":[{"name":"operator_","type":"address","internalType":"address"},{"name":"approved_","type":"bool","internalType":"bool"}],"outputs":[],"stateMutability":"nonpayable"},{"type":"function","name":"setERC721TransferExempt","inputs":[{"name":"account_","type":"address","internalType":"address"},{"name":"value_","type":"bool","internalType":"bool"}],"outputs":[],"stateMutability":"nonpayable"},{"type":"function","name":"setSelfERC721TransferExempt","inputs":[{"name":"state_","type":"bool","internalType":"bool"}],"outputs":[],"stateMutability":"nonpayable"},{"type":"function","name":"supportsInterface","inputs":[{"name":"interfaceId","type":"bytes4","internalType":"bytes4"}],"outputs":[{"name":"","type":"bool","internalType":"bool"}],"stateMutability":"view"},{"type":"function","name":"symbol","inputs":[],"outputs":[{"name":"","type":"string","internalType":"string"}],"stateMutability":"view"},{"type":"function","name":"tokenURI","inputs":[{"name":"id_","type":"uint256","internalType":"uint256"}],"outputs":[{"name":"","type":"string","internalType":"string"}],"stateMutability":"pure"},{"type":"function","name":"totalSupply","inputs":[],"outputs":[{"name":"","type":"uint256","internalType":"uint256"}],"stateMutability":"view"},{"type":"function","name":"transfer","inputs":[{"name":"to_","type":"address","internalType":"address"},{"name":"value_","type":"uint256","internalType":"uint256"}],"outputs":[{"name":"","type":"bool","internalType":"bool"}],"stateMutability":"nonpayable"},{"type":"function","name":"transferFrom","inputs":[{"name":"from_","type":"address","internalType":"address"},{"name":"to_","type":"address","internalType":"address"},{"name":"valueOrId_","type":"uint256","internalType":"uint256"}],"outputs":[{"name":"","type":"bool","internalType":"bool"}],"stateMutability":"nonpayable"},{"type":"function","name":"transferOwnership","inputs":[{"name":"newOwner","type":"address","internalType":"address"}],"outputs":[],"stateMutability":"nonpayable"},{"type":"function","name":"units","inputs":[],"outputs":[{"name":"","type":"uint256","internalType":"uint256"}],"stateMutability":"view"},{"type":"function","name":"withdrawTokens","inputs":[{"name":"tokenId_","type":"uint256","internalType":"uint256"},{"name":"depositIndex_","type":"uint256","internalType":"uint256"}],"outputs":[],"stateMutability":"nonpayable"},{"type":"event","name":"Approval","inputs":[{"name":"owner","type":"address","indexed":true,"internalType":"address"},{"name":"spender","type":"address","indexed":true,"internalType":"address"},{"name":"value","type":"uint256","indexed":false,"internalType":"uint256"}],"anonymous":false},{"type":"event","name":"Approval","inputs":[{"name":"owner","type":"address","indexed":true,"internalType":"address"},{"name":"spender","type":"address","indexed":true,"internalType":"address"},{"name":"id","type":"uint256","indexed":true,"internalType":"uint256"}],"anonymous":false},{"type":"event","name":"ApprovalForAll","inputs":[{"name":"owner","type":"address","indexed":true,"internalType":"address"},{"name":"operator","type":"address","indexed":true,"internalType":"address"},{"name":"approved","type":"bool","indexed":false,"internalType":"bool"}],"anonymous":false},{"type":"event","name":"OwnershipTransferred","inputs":[{"name":"previousOwner","type":"address","indexed":true,"internalType":"address"},{"name":"newOwner","type":"address","indexed":true,"internalType":"address"}],"anonymous":false},{"type":"event","name":"TokensDeposited","inputs":[{"name":"tokenId","type":"uint256","indexed":true,"internalType":"uint256"},{"name":"tokenAddress","type":"address","indexed":true,"internalType":"address"},{"name":"amount","type":"uint256","indexed":false,"internalType":"uint256"}],"anonymous":false},{"type":"event","name":"TokensWithdrawn","inputs":[{"name":"tokenId","type":"uint256","indexed":true,"internalType":"uint256"},{"name":"tokenAddress","type":"address","indexed":true,"internalType":"address"},{"name":"amount","type":"uint256","indexed":false,"internalType":"uint256"}],"anonymous":false},{"type":"event","name":"Transfer","inputs":[{"name":"from","type":"address","indexed":true,"internalType":"address"},{"name":"to","type":"address","indexed":true,"internalType":"address"},{"name":"amount","type":"uint256","indexed":false,"internalType":"uint256"}],"anonymous":false},{"type":"event","name":"Transfer","inputs":[{"name":"from","type":"address","indexed":true,"internalType":"address"},{"name":"to","type":"address","indexed":true,"internalType":"address"},{"name":"id","type":"uint256","indexed":true,"internalType":"uint256"}],"anonymous":false},{"type":"error","name":"AlreadyExists","inputs":[]},{"type":"error","name":"DecimalsTooLow","inputs":[]},{"type":"error","name":"InsufficientAllowance","inputs":[]},{"type":"error","name":"InvalidAmount","inputs":[]},{"type":"error","name":"InvalidApproval","inputs":[]},{"type":"error","name":"InvalidExemption","inputs":[]},{"type":"error","name":"InvalidOperator","inputs":[]},{"type":"error","name":"InvalidRecipient","inputs":[]},{"type":"error","name":"InvalidSender","inputs":[]},{"type":"error","name":"InvalidSigner","inputs":[]},{"type":"error","name":"InvalidSpender","inputs":[]},{"type":"error","name":"InvalidTokenId","inputs":[]},{"type":"error","name":"MintLimitReached","inputs":[]},{"type":"error","name":"NotFound","inputs":[]},{"type":"error","name":"OwnableInvalidOwner","inputs":[{"name":"owner","type":"address","internalType":"address"}]},{"type":"error","name":"OwnableUnauthorizedAccount","inputs":[{"name":"account","type":"address","internalType":"address"}]},{"type":"error","name":"OwnedIndexOverflow","inputs":[]},{"type":"error","name":"PermitDeadlineExpired","inputs":[]},{"type":"error","name":"QueueEmpty","inputs":[]},{"type":"error","name":"QueueFull","inputs":[]},{"type":"error","name":"QueueOutOfBounds","inputs":[]},{"type":"error","name":"RecipientIsERC721TransferExempt","inputs":[]},{"type":"error","name":"Unauthorized","inputs":[]},{"type":"error","name":"UnsafeRecipient","inputs":[]}],"bytecode":{"object":"0x6101006040523480156200001257600080fd5b5060405162003b1838038062003b188339810160408190526200003591620002a1565b838383836001600160a01b0381166200006857604051631e4fbdf760e01b81526000600482015260240160405180910390fd5b6200007381620000f0565b506006620000828482620003d4565b506007620000918382620003d4565b5060128160ff161015620000b8576040516398790fd560e01b815260040160405180910390fd5b60ff81166080819052620000ce90600a620005b5565b60a0524660c052620000df62000140565b60e052506200064b95505050505050565b600080546001600160a01b038381166001600160a01b0319831681178455604051919092169283917f8be0079c531659141344cd1fd0a4f28419497f9722a3daafe3b4186f6b6457e09190a35050565b60007f8b73c3c69bb8fe3d512ecc4cf759cc79239f7b179b0ffacaa9a75d522b39400f6006604051620001749190620005cd565b6040805191829003822060208301939093528101919091527fc89efdaa54c0f20c7adf612882df0950f5a951637e0307cdcb4c672f298b8bc660608201524660808201523060a082015260c00160405160208183030381529060405280519060200120905090565b634e487b7160e01b600052604160045260246000fd5b600082601f8301126200020457600080fd5b81516001600160401b0380821115620002215762000221620001dc565b604051601f8301601f19908116603f011681019082821181831017156200024c576200024c620001dc565b816040528381526020925086838588010111156200026957600080fd5b600091505b838210156200028d57858201830151818301840152908201906200026e565b600093810190920192909252949350505050565b60008060008060808587031215620002b857600080fd5b84516001600160401b0380821115620002d057600080fd5b620002de88838901620001f2565b95506020870151915080821115620002f557600080fd5b506200030487828801620001f2565b935050604085015160ff811681146200031c57600080fd5b60608601519092506001600160a01b03811681146200033a57600080fd5b939692955090935050565b600181811c908216806200035a57607f821691505b6020821081036200037b57634e487b7160e01b600052602260045260246000fd5b50919050565b601f821115620003cf57600081815260208120601f850160051c81016020861015620003aa5750805b601f850160051c820191505b81811015620003cb57828155600101620003b6565b5050505b505050565b81516001600160401b03811115620003f057620003f0620001dc565b620004088162000401845462000345565b8462000381565b602080601f831160018114620004405760008415620004275750858301515b600019600386901b1c1916600185901b178555620003cb565b600085815260208120601f198616915b82811015620004715788860151825594840194600190910190840162000450565b5085821015620004905787850151600019600388901b60f8161c191681555b5050505050600190811b01905550565b634e487b7160e01b600052601160045260246000fd5b600181815b80851115620004f7578160001904821115620004db57620004db620004a0565b80851615620004e957918102915b93841c9390800290620004bb565b509250929050565b6000826200051057506001620005af565b816200051f57506000620005af565b8160018114620005385760028114620005435762000563565b6001915050620005af565b60ff841115620005575762000557620004a0565b50506001821b620005af565b5060208310610133831016604e8410600b841016171562000588575081810a620005af565b620005948383620004b6565b8060001904821115620005ab57620005ab620004a0565b0290505b92915050565b6000620005c660ff841683620004ff565b9392505050565b6000808354620005dd8162000345565b60018281168015620005f857600181146200060e576200063f565b60ff19841687528215158302870194506200063f565b8760005260208060002060005b85811015620006365781548a8201529084019082016200061b565b50505082870194505b50929695505050505050565b60805160a05160c05160e05161344d620006cb6000396000610b5901526000610b290152600081816104c7015281816118e5015281816119290152818161196b015281816119c5015281816119ef01528181611a4301528181612307015281816126f90152818161279201526129230152600061039d015261344d6000f3fe608060405234801561001057600080fd5b506004361061027f5760003560e01c80638a696e501161015c578063c5ab3ba6116100ce578063dd63769911610087578063dd6376991461062f578063dfabc03314610642578063e985e9c514610655578063f16ad51e14610683578063f2fde38b14610696578063f780bc1a146106a957600080fd5b8063c5ab3ba6146105b0578063c6e672b9146105b8578063c87b56dd146105cb578063d505accf146105de578063d96ca0b9146105f1578063dd62ed3e1461060457600080fd5b8063a9059cbb11610120578063a9059cbb146104fc578063b1ab93171461050f578063b3f9ea341461052f578063b810217b14610558578063b88d4fde1461058a578063ba7bd2aa1461059d57600080fd5b80638a696e50146104965780638da5cb5b146104a957806395d89b41146104ba578063976a8435146104c2578063a22cb465146104e957600080fd5b80633644e515116101f557806370a08231116101b957806370a0823114610413578063715018a6146104335780637c4ca9cc1461043b5780637df1c3d81461044e5780637ecebe001461046e57806389fb4c661461048e57600080fd5b80633644e515146103d157806342842e0e146103d95780634f02c420146103ec5780636352211e146103f55780636e8f624b1461040857600080fd5b8063095ea7b311610247578063095ea7b31461034e57806309674eb01461036157806309f0ef651461036957806318160ddd1461037c57806323b872dd14610385578063313ce5671461039857600080fd5b8063015bf2641461028457806301ffc9a71461029957806302519da3146102c157806306fdde03146102f8578063081812fc1461030d575b600080fd5b610297610292366004612dd2565b6106bc565b005b6102ac6102a7366004612e1d565b610953565b60405190151581526020015b60405180910390f35b6102ea6102cf366004612e3a565b6001600160a01b03166000908152600b602052604090205490565b6040519081526020016102b8565b61030061098a565b6040516102b89190612ea5565b61033661031b366004612eb8565b600d602052600090815260409020546001600160a01b031681565b6040516001600160a01b0390911681526020016102b8565b6102ac61035c366004612ed1565b610a18565b6102ea610aa5565b6102ac610377366004612e3a565b610ab6565b6102ea60085481565b6102ac610393366004612efb565b610ae8565b6103bf7f000000000000000000000000000000000000000000000000000000000000000081565b60405160ff90911681526020016102b8565b6102ea610b25565b6102976103e7366004612efb565b610b7b565b6102ea60095481565b610336610403366004612eb8565b610b9b565b6102ea600160ff1b81565b6102ea610421366004612e3a565b600b6020526000908152604090205481565b610297610c05565b610297610449366004612ed1565b610c19565b61046161045c366004612eb8565b610c2f565b6040516102b89190612f27565b6102ea61047c366004612e3a565b60126020526000908152604090205481565b6008546102ea565b6102976104a4366004612f8d565b610cb7565b6000546001600160a01b0316610336565b610300610cc4565b6102ea7f000000000000000000000000000000000000000000000000000000000000000081565b6102976104f7366004612faa565b610cd1565b6102ac61050a366004612ed1565b610d65565b61052261051d366004612e3a565b610d99565b6040516102b89190612fe1565b6102ea61053d366004612e3a565b6001600160a01b031660009081526010602052604090205490565b61056b610566366004613025565b610e05565b604080516001600160a01b0390931683526020830191909152016102b8565b61029761059836600461305d565b610e4b565b6102976105ab366004613025565b610f39565b6009546102ea565b6102976105c6366004612faa565b611087565b6103006105d9366004612eb8565b611099565b6102976105ec366004613139565b6110ca565b6102ac6105ff366004612efb565b61130d565b6102ea6106123660046131ac565b600c60209081526000928352604080842090915290825290205481565b61029761063d366004612efb565b6113cd565b610297610650366004612ed1565b611503565b6102ac6106633660046131ac565b600e60209081526000928352604080842090915290825290205460ff1681565b610297610691366004613025565b6115c8565b6102976106a4366004612e3a565b6117a7565b6105226106b7366004613025565b6117e2565b336000908152600b602052604090205481106107165760405162461bcd60e51b8152602060048201526014602482015273496e73756666696369656e742062616c616e636560601b60448201526064015b60405180910390fd5b6000838152600f60205260409020546001600160a01b031633811461074d576040516282b42960e81b815260040160405180910390fd5b60008481526002602052604081208054829061076b5761076b6131df565b9060005260206000209060020201600101549050306001600160a01b0316846001600160a01b0316036107ff57336000908152600b60205260409020548311156107ee5760405162461bcd60e51b8152602060048201526014602482015273496e73756666696369656e742062616c616e636560601b604482015260640161070d565b6107f933308561187f565b50610853565b60405162461bcd60e51b815260206004820152602360248201527f6e6f772074686973206973206e6f7420737570706f727420666f72206465706f6044820152621cda5d60ea1b606482015260840161070d565b600260008681526020019081526020016000206040518060400160405280866001600160a01b03168152602001838661088c919061320b565b90528154600180820184556000938452602093849020835160029093020180546001600160a01b0319166001600160a01b0390931692909217825591909201519101556040516323b872dd60e01b8152306004820181905233602483015260448201879052906323b872dd906064016020604051808303816000875af1925050508015610936575060408051601f3d908101601f191682019092526109339181019061321e565b60015b61094a57610945303385611afc565b61094c565b505b5050505050565b60006001600160e01b0319821663876f7f8760e01b148061098457506001600160e01b031982166301ffc9a760e01b145b92915050565b600680546109979061323b565b80601f01602080910402602001604051908101604052809291908181526020018280546109c39061323b565b8015610a105780601f106109e557610100808354040283529160200191610a10565b820191906000526020600020905b8154815290600101906020018083116109f357829003601f168201915b505050505081565b60006001600160a01b038316610a4157604051635461585f60e01b815260040160405180910390fd5b336000818152600c602090815260408083206001600160a01b03881680855290835292819020869055518581529192917f8c5be1e5ebec7d5bd14f71427d1e84f3dd0314c0f7b2291e5b200ac8c7c3b925910160405180910390a350600192915050565b6000610ab16004611bb8565b905090565b60006001600160a01b03821615806109845750506001600160a01b031660009081526011602052604090205460ff1690565b6000610af382611bd6565b15610b0857610b038484846113cd565b610b1a565b610b1384848461130d565b9050610b1e565b5060015b9392505050565b60007f00000000000000000000000000000000000000000000000000000000000000004614610b5657610ab1611bef565b507f000000000000000000000000000000000000000000000000000000000000000090565b610b9683838360405180602001604052806000815250610e4b565b505050565b6000818152600f60205260409020546001600160a01b0316610bbc82611bd6565b610bd9576040516307ed98ed60e31b815260040160405180910390fd5b6001600160a01b038116610c005760405163c5723b5160e01b815260040160405180910390fd5b919050565b610c0d611c89565b610c176000611cb6565b565b610c21611c89565b610c2b8282611d06565b5050565b606060026000838152602001908152602001600020805480602002602001604051908101604052809291908181526020016000905b82821015610cac576000848152602090819020604080518082019091526002850290910180546001600160a01b03168252600190810154828401529083529092019101610c64565b505050509050919050565b610cc13382611d6b565b50565b600780546109979061323b565b6001600160a01b038216610cf85760405163ccea9e6f60e01b815260040160405180910390fd5b336000818152600e602090815260408083206001600160a01b03871680855290835292819020805460ff191686151590811790915590519081529192917f17307eab39ab6107e8899845ad3d59bd9653f200f220920489ca2b5937696c3191015b60405180910390a35050565b60006001600160a01b038316610d8e57604051634e46966960e11b815260040160405180910390fd5b610b1e33848461187f565b6001600160a01b038116600090815260106020908152604091829020805483518184028101840190945280845260609392830182828015610df957602002820191906000526020600020905b815481526020019060010190808311610de5575b50505050509050919050565b60026020528160005260406000208181548110610e2157600080fd5b6000918252602090912060029091020180546001909101546001600160a01b039091169250905082565b610e5482611bd6565b610e71576040516307ed98ed60e31b815260040160405180910390fd5b610e7c848484610ae8565b506001600160a01b0383163b15801590610f155750604051630a85bd0160e11b808252906001600160a01b0385169063150b7a0290610ec5903390899088908890600401613275565b6020604051808303816000875af1158015610ee4573d6000803e3d6000fd5b505050506040513d601f19601f82011682018060405250810190610f0891906132b2565b6001600160e01b03191614155b15610f3357604051633da6393160e01b815260040160405180910390fd5b50505050565b6000828152600f60205260409020546001600160a01b0316338114610f70576040516282b42960e81b815260040160405180910390fd5b6000838152600260205260409020548210610fc55760405162461bcd60e51b8152602060048201526015602482015274092dcecc2d8d2c840c8cae0dee6d2e840d2dcc8caf605b1b604482015260640161070d565b6000838152600260205260408120805484908110610fe557610fe56131df565b6000918252602090912060029091020160018101548154919250906001600160a01b03166110138686611dda565b306001600160a01b038216036110335761102e303384611afc565b61094a565b60405162461bcd60e51b8152602060048201526024808201527f6e6f772074686973206973206e6f7420737570706f727420666f7220776974686044820152636472617760e01b606482015260840161070d565b61108f611c89565b610c2b8282611d6b565b60606110a482611f29565b6040516020016110b491906132cf565b6040516020818303038152906040529050919050565b428410156110eb576040516305787bdf60e01b815260040160405180910390fd5b6110f485611bd6565b15611112576040516303e7c1bd60e31b815260040160405180910390fd5b6001600160a01b03861661113957604051635461585f60e01b815260040160405180910390fd5b60006001611145610b25565b6001600160a01b038a811660008181526012602090815260409182902080546001810190915582517f6e71edae12b1b97f4d1f60370fef10105fa2faae0126114a169c64845d6126c98184015280840194909452938d166060840152608083018c905260a083019390935260c08083018b90528151808403909101815260e08301909152805192019190912061190160f01b6101008301526101028201929092526101228101919091526101420160408051601f198184030181528282528051602091820120600084529083018083525260ff871690820152606081018590526080810184905260a0016020604051602081039080840390855afa158015611251573d6000803e3d6000fd5b5050604051601f1901519150506001600160a01b03811615806112865750876001600160a01b0316816001600160a01b031614155b156112a457604051632057875960e21b815260040160405180910390fd5b6001600160a01b039081166000908152600c602090815260408083208a8516808552908352928190208990555188815291928a16917f8c5be1e5ebec7d5bd14f71427d1e84f3dd0314c0f7b2291e5b200ac8c7c3b925910160405180910390a350505050505050565b60006001600160a01b03841661133657604051636edaef2f60e11b815260040160405180910390fd5b6001600160a01b03831661135d57604051634e46966960e11b815260040160405180910390fd5b6001600160a01b0384166000908152600c6020908152604080832033845290915290205460001981146113b9576113948382613314565b6001600160a01b0386166000908152600c602090815260408083203384529091529020555b6113c485858561187f565b95945050505050565b6001600160a01b0383166113f457604051636edaef2f60e11b815260040160405180910390fd5b6001600160a01b03821661141b57604051634e46966960e11b815260040160405180910390fd5b6000818152600f60205260409020546001600160a01b03848116911614611454576040516282b42960e81b815260040160405180910390fd5b336001600160a01b0384161480159061149157506001600160a01b0383166000908152600e6020908152604080832033845290915290205460ff16155b80156114b457506000818152600d60205260409020546001600160a01b03163314155b156114d1576040516282b42960e81b815260040160405180910390fd5b6114da82610ab6565b156114f857604051635ce7539760e01b815260040160405180910390fd5b610b96838383611fbc565b6000818152600f60205260409020546001600160a01b031633811480159061154f57506001600160a01b0381166000908152600e6020908152604080832033845290915290205460ff16155b1561156c576040516282b42960e81b815260040160405180910390fd5b6000828152600d602052604080822080546001600160a01b0319166001600160a01b0387811691821790925591518593918516917f8c5be1e5ebec7d5bd14f71427d1e84f3dd0314c0f7b2291e5b200ac8c7c3b92591a4505050565b6000828152600f60205260409020546001600160a01b031633146116205760405162461bcd60e51b815260206004820152600f60248201526e2737ba103a37b5b2b71037bbb732b960891b604482015260640161070d565b600081116116705760405162461bcd60e51b815260206004820152601d60248201527f416d6f756e74206d7573742062652067726561746572207468616e2030000000604482015260640161070d565b60008281526002602052604081205490036116e55760008281526002602081815260408084208151808301909252308252818301868152815460018082018455928752939095209151929093020180546001600160a01b0319166001600160a01b03909216919091178155915191015561172a565b60008281526002602052604081208054839290611704576117046131df565b90600052602060002090600202016001016000828254611724919061320b565b90915550505b611735333083612182565b6117735760405162461bcd60e51b815260206004820152600f60248201526e151c985b9cd9995c8819985a5b1959608a1b604482015260640161070d565b604051818152309083907fb162210da7d23d82c18cff5af46d3562661d26b42a6848fa28d64a6bdc70386a90602001610d59565b6117af611c89565b6001600160a01b0381166117d957604051631e4fbdf760e01b81526000600482015260240161070d565b610cc181611cb6565b606060008267ffffffffffffffff8111156117ff576117ff613047565b604051908082528060200260200182016040528015611828578160200160208202803683370190505b509050835b611837848661320b565b81101561187757611849600482612197565b826118548784613314565b81518110611864576118646131df565b602090810291909101015260010161182d565b509392505050565b6001600160a01b038381166000908152600b60205260408082205492851682528120549091906118b0868686611afc565b60006118bb87610ab6565b905060006118c887610ab6565b90508180156118d45750805b611aee5781156119a057600061190a7f000000000000000000000000000000000000000000000000000000000000000085613327565b6001600160a01b0389166000908152600b602052604090205461194e907f000000000000000000000000000000000000000000000000000000000000000090613327565b6119589190613314565b905060005b8181101561199957611991897f000000000000000000000000000000000000000000000000000000000000000060006121e9565b60010161195d565b5050611aee565b8015611a3c576001600160a01b0388166000908152600b60205260408120546119ea907f000000000000000000000000000000000000000000000000000000000000000090613327565b611a147f000000000000000000000000000000000000000000000000000000000000000087613327565b611a1e9190613314565b905060005b8181101561199957611a348a61222a565b600101611a23565b6000611a687f000000000000000000000000000000000000000000000000000000000000000088613327565b905060005b81811015611aeb576001600160a01b038a16600090815260106020526040812054611a9a90600190613314565b6001600160a01b038c1660009081526010602052604081208054929350909183908110611ac957611ac96131df565b90600052602060002001549050611ae18c8c83611fbc565b5050600101611a6d565b50505b506001979650505050505050565b6001600160a01b038316611b27578060086000828254611b1c919061320b565b90915550611b559050565b6001600160a01b0383166000908152600b602052604081208054839290611b4f908490613314565b90915550505b6001600160a01b038083166000818152600b6020526040908190208054850190555190918516907fddf252ad1be2c89b69c2b068fc378daa952ba7f163c4a11628f55a4df523b3ef90611bab9085815260200190565b60405180910390a3505050565b546001600160801b03808216600160801b9092048116919091031690565b6000600160ff1b82118015610984575050600019141590565b60007f8b73c3c69bb8fe3d512ecc4cf759cc79239f7b179b0ffacaa9a75d522b39400f6006604051611c219190613349565b6040805191829003822060208301939093528101919091527fc89efdaa54c0f20c7adf612882df0950f5a951637e0307cdcb4c672f298b8bc660608201524660808201523060a082015260c00160405160208183030381529060405280519060200120905090565b6000546001600160a01b03163314610c175760405163118cdaa760e01b815233600482015260240161070d565b600080546001600160a01b038381166001600160a01b0319831681178455604051919092169283917f8be0079c531659141344cd1fd0a4f28419497f9722a3daafe3b4186f6b6457e09190a35050565b6001600160a01b038216611d2d57604051634e46966960e11b815260040160405180910390fd5b600160ff1b81600854611d40919061320b565b1115611d5f5760405163303b682f60e01b815260040160405180910390fd5b610b966000838361187f565b6001600160a01b038216611d925760405163a41e3d3f60e01b815260040160405180910390fd5b8015611da657611da1826122b4565b611daf565b611daf826122e8565b6001600160a01b03919091166000908152601160205260409020805460ff1916911515919091179055565b6000828152600260205260409020548110611e275760405162461bcd60e51b815260206004820152600d60248201526c092dcecc2d8d2c840d2dcc8caf609b1b604482015260640161070d565b600082815260026020526040902054611e4290600190613314565b8114611edf5760008281526002602052604090208054611e6490600190613314565b81548110611e7457611e746131df565b9060005260206000209060020201600260008481526020019081526020016000208281548110611ea657611ea66131df565b60009182526020909120825460029092020180546001600160a01b0319166001600160a01b039092169190911781556001918201549101555b6000828152600260205260409020805480611efc57611efc6133e8565b60008281526020812060026000199093019283020180546001600160a01b03191681556001015590555050565b60606000611f3683612379565b600101905060008167ffffffffffffffff811115611f5657611f56613047565b6040519080825280601f01601f191660200182016040528015611f80576020820181803683370190505b5090508181016020015b600019016f181899199a1a9b1b9c1cb0b131b232b360811b600a86061a8153600a8504945084611f8a57509392505050565b611fc7818484612451565b6000818152600f6020526040902080546001600160a01b0319166001600160a01b0384160190556001600160a01b038316156120e2576001600160a01b0383166000908152601060205260408120805461202390600190613314565b81548110612033576120336131df565b90600052602060002001549050600061205b836000908152600f602052604090205460a01c90565b6001600160a01b0386166000908152601060205260409020805491925083918390811061208a5761208a6131df565b60009182526020808320909101929092556001600160a01b03871681526010909152604090208054806120bf576120bf6133e8565b600190038181906000526020600020016000905590556120df82826125de565b50505b6001600160a01b038216600081815260106020908152604082208054600181810183558285529284200185905592909152905461212a9183916121259190613314565b6125de565b6000818152600d602052604080822080546001600160a01b03191690555182916001600160a01b0385811692908716917fddf252ad1be2c89b69c2b068fc378daa952ba7f163c4a11628f55a4df523b3ef91a4505050565b600061218f84848461187f565b949350505050565b60006121a283611bb8565b82106121c15760405163580821e760e01b815260040160405180910390fd5b5081546001600160801b03908116820116600090815260018301602052604090205492915050565b6001600160a01b03831661221057604051634e46966960e11b815260040160405180910390fd5b801561222057610b96838361264a565b610b9683836126f2565b6001600160a01b03811661225157604051636edaef2f60e11b815260040160405180910390fd5b6001600160a01b0381166000908152601060205260408120805461227790600190613314565b81548110612287576122876131df565b9060005260206000200154905061229d8161298b565b6122a982600083611fbc565b610c2b6004826129f0565b6001600160a01b038116600090815260106020526040812054905b81811015610b96576122e08361222a565b6001016122cf565b6001600160a01b0381166000908152600b602052604081205461232c907f000000000000000000000000000000000000000000000000000000000000000090613327565b9050600061234f836001600160a01b031660009081526010602052604090205490565b905060005b61235e8284613314565b811015610f3357612371846001806121e9565b600101612354565b60008072184f03e93ff9f4daa797ed6e38ed64bf6a1f0160401b83106123b85772184f03e93ff9f4daa797ed6e38ed64bf6a1f0160401b830492506040015b6d04ee2d6d415b85acef810000000083106123e4576d04ee2d6d415b85acef8100000000830492506020015b662386f26fc10000831061240257662386f26fc10000830492506010015b6305f5e100831061241a576305f5e100830492506008015b612710831061242e57612710830492506004015b60648310612440576064830492506002015b600a83106109845760010192915050565b6000838152600260205260409020548015610f3357600084815260026020526040902061247f600183613314565b8154811061248f5761248f6131df565b600091825260208083206002928302015487845291905260409091206001600160a01b039091169085907f3f5fbaf86658fdadee77f1d46e7f8a72424ad9839eda6a1dc6eb0a4228e4226e906124e6600186613314565b815481106124f6576124f66131df565b90600052602060002090600202016001015460405161251791815260200190565b60405180910390a36000848152600260205260409020612538600183613314565b81548110612548576125486131df565b600091825260208083206002928302015487845291905260409091206001600160a01b039091169085907fb162210da7d23d82c18cff5af46d3562661d26b42a6848fa28d64a6bdc70386a9061259f600186613314565b815481106125af576125af6131df565b9060005260206000209060020201600101546040516125d091815260200190565b60405180910390a350505050565b6000828152600f60205260409020546bffffffffffffffffffffffff82111561261a57604051633f2cd0e360e21b815260040160405180910390fd5b6000928352600f60205260409092206001600160a01b039290921660a09190911b6001600160a01b031916019055565b6004546001600160801b03808216600160801b90920416146126ec576000806126736004611bb8565b90505b808210156126e957600061268b600484612197565b60008181526003602052604090205490915084811480156126b057506126b082612a5a565b156126d5576126bf6004612b14565b506126c982612b89565b61094a60008784611fbc565b836126df816133fe565b9450505050612676565b50505b610c2b82825b600061271e7f000000000000000000000000000000000000000000000000000000000000000083613327565b905060005b81811015610f3357600061274b600454600160801b81046001600160801b0390811691161490565b6128a85760008061275c6004611bb8565b90505b808210801561276c575082155b156128a557600061277e600484612197565b6000818152600360205260409020549091507f00000000000000000000000000000000000000000000000000000000000000001480156127c257506127c281612a5a565b1561289257826000036127df576127d96004612b14565b50612878565b60016127eb6004611bb8565b6127f59190613314565b8303612805576127d96004612d05565b60006128116004611bb8565b9050835b612820600183613314565b81101561286a57600061283f61283783600161320b565b600490612197565b905061284b6004612d05565b506128576004826129f0565b5080612862816133fe565b915050612815565b506128756004612d05565b50505b61288181612b89565b61288d60008983611fbc565b600193505b8261289c816133fe565b9350505061275f565b50505b80612982576009600081546128bc906133fe565b909155506009546001016128e35760405163303b682f60e01b815260040160405180910390fd5b6000600954600160ff1b6128f7919061320b565b905061290560008783611fbc565b600090815260026020818152604080842081518083019092523082527f0000000000000000000000000000000000000000000000000000000000000000828401908152815460018082018455928752939095209151929093020180546001600160a01b0319166001600160a01b0390921691909117815591519101555b50600101612723565b60008181526002602052604090205415610cc157600081815260026020526040812080549091906129be576129be6131df565b6000918252602080832060029283020160010154848452600382526040808520919091559190528120610cc191612d75565b81546001600160801b038082166000190191600160801b9004811690821603612a2c57604051638acb5f2760e01b815260040160405180910390fd5b6001600160801b0316600081815260018401602052604090209190915581546001600160801b031916179055565b6000818152600a602052604081205460ff161580612a845750600082815260016020526040902054155b15612a9157506001919050565b6000828152600160209081526040808320600290925282208054919290919003612abf575060009392505050565b81600081548110612ad257612ad26131df565b90600052602060002090600202016001015481600081548110612af757612af76131df565b906000526020600020906002020160010154101592505050919050565b80546000906001600160801b0380821691600160801b9004168103612b4c576040516375e52f4f60e01b815260040160405180910390fd5b6001600160801b038181166000908152600185810160205260408220805492905585546001600160801b0319169301909116919091179092555090565b6000818152600a602052604090205460ff168015612bb4575060008181526001602052604090205415155b15610cc157612bc281612a5a565b612c1a5760405162461bcd60e51b8152602060048201526024808201527f496e73756666696369656e74206465706f7369747320746f20726573746f72656044820152630813919560e21b606482015260840161070d565b6000818152600260205260408120612c3191612d75565b60005b600082815260016020526040902054811015612cd55760008281526002602090815260408083206001909252909120805483908110612c7557612c756131df565b6000918252602080832084546001818101875595855291909320600292830290930180549190920290920180546001600160a01b0319166001600160a01b0390931692909217825582015491015580612ccd816133fe565b915050612c34565b506000818152600160205260408120612ced91612d75565b6000908152600a60205260409020805460ff19169055565b80546000906001600160801b03600160801b8204811691168103612d3c576040516375e52f4f60e01b815260040160405180910390fd5b600019016001600160801b039081166000818152600185016020526040812080549190558454909216600160801b909102179092555090565b5080546000825560020290600052602060002090810190610cc191905b80821115612db75780546001600160a01b031916815560006001820155600201612d92565b5090565b80356001600160a01b0381168114610c0057600080fd5b600080600060608486031215612de757600080fd5b83359250612df760208501612dbb565b9150604084013590509250925092565b6001600160e01b031981168114610cc157600080fd5b600060208284031215612e2f57600080fd5b8135610b1e81612e07565b600060208284031215612e4c57600080fd5b610b1e82612dbb565b60005b83811015612e70578181015183820152602001612e58565b50506000910152565b60008151808452612e91816020860160208601612e55565b601f01601f19169290920160200192915050565b602081526000610b1e6020830184612e79565b600060208284031215612eca57600080fd5b5035919050565b60008060408385031215612ee457600080fd5b612eed83612dbb565b946020939093013593505050565b600080600060608486031215612f1057600080fd5b612f1984612dbb565b9250612df760208501612dbb565b602080825282518282018190526000919060409081850190868401855b82811015612f7257815180516001600160a01b03168552860151868501529284019290850190600101612f44565b5091979650505050505050565b8015158114610cc157600080fd5b600060208284031215612f9f57600080fd5b8135610b1e81612f7f565b60008060408385031215612fbd57600080fd5b612fc683612dbb565b91506020830135612fd681612f7f565b809150509250929050565b6020808252825182820181905260009190848201906040850190845b8181101561301957835183529284019291840191600101612ffd565b50909695505050505050565b6000806040838503121561303857600080fd5b50508035926020909101359150565b634e487b7160e01b600052604160045260246000fd5b6000806000806080858703121561307357600080fd5b61307c85612dbb565b935061308a60208601612dbb565b925060408501359150606085013567ffffffffffffffff808211156130ae57600080fd5b818701915087601f8301126130c257600080fd5b8135818111156130d4576130d4613047565b604051601f8201601f19908116603f011681019083821181831017156130fc576130fc613047565b816040528281528a602084870101111561311557600080fd5b82602086016020830137600060208483010152809550505050505092959194509250565b600080600080600080600060e0888a03121561315457600080fd5b61315d88612dbb565b965061316b60208901612dbb565b95506040880135945060608801359350608088013560ff8116811461318f57600080fd5b9699959850939692959460a0840135945060c09093013592915050565b600080604083850312156131bf57600080fd5b6131c883612dbb565b91506131d660208401612dbb565b90509250929050565b634e487b7160e01b600052603260045260246000fd5b634e487b7160e01b600052601160045260246000fd5b80820180821115610984576109846131f5565b60006020828403121561323057600080fd5b8151610b1e81612f7f565b600181811c9082168061324f57607f821691505b60208210810361326f57634e487b7160e01b600052602260045260246000fd5b50919050565b6001600160a01b03858116825284166020820152604081018390526080606082018190526000906132a890830184612e79565b9695505050505050565b6000602082840312156132c457600080fd5b8151610b1e81612e07565b7f68747470733a2f2f6578616d706c652e636f6d2f746f6b656e2f00000000000081526000825161330781601a850160208701612e55565b91909101601a0192915050565b81810381811115610984576109846131f5565b60008261334457634e487b7160e01b600052601260045260246000fd5b500490565b600080835481600182811c91508083168061336557607f831692505b6020808410820361338457634e487b7160e01b86526022600452602486fd5b81801561339857600181146133ad576133da565b60ff19861689528415158502890196506133da565b60008a81526020902060005b868110156133d25781548b8201529085019083016133b9565b505084890196505b509498975050505050505050565b634e487b7160e01b600052603160045260246000fd5b600060018201613410576134106131f5565b506001019056fea2646970667358221220a1978852c737d64e0d051fa3be95db4fdfbdd972b6ed346f6ba7a5587282821664736f6c63430008140033","linkReferences":{}},"methodIdentifiers":{"DOMAIN_SEPARATOR()":"3644e515","ID_ENCODING_PREFIX()":"6e8f624b","_tokenDeposits(uint256,uint256)":"b810217b","allowance(address,address)":"dd62ed3e","approve(address,uint256)":"095ea7b3","balanceOf(address)":"70a08231","decimals()":"313ce567","depositTokens(uint256,address,uint256)":"015bf264","depositTokens(uint256,uint256)":"f16ad51e","erc20BalanceOf(address)":"02519da3","erc20TotalSupply()":"89fb4c66","erc20TransferFrom(address,address,uint256)":"d96ca0b9","erc721Approve(address,uint256)":"dfabc033","erc721BalanceOf(address)":"b3f9ea34","erc721TotalSupply()":"c5ab3ba6","erc721TransferExempt(address)":"09f0ef65","erc721TransferFrom(address,address,uint256)":"dd637699","getApproved(uint256)":"081812fc","getERC721QueueLength()":"09674eb0","getERC721TokensInQueue(uint256,uint256)":"f780bc1a","getTokenDeposits(uint256)":"7df1c3d8","isApprovedForAll(address,address)":"e985e9c5","mintERC20(address,uint256)":"7c4ca9cc","minted()":"4f02c420","name()":"06fdde03","nonces(address)":"7ecebe00","owned(address)":"b1ab9317","owner()":"8da5cb5b","ownerOf(uint256)":"6352211e","permit(address,address,uint256,uint256,uint8,bytes32,bytes32)":"d505accf","renounceOwnership()":"715018a6","safeTransferFrom(address,address,uint256)":"42842e0e","safeTransferFrom(address,address,uint256,bytes)":"b88d4fde","setApprovalForAll(address,bool)":"a22cb465","setERC721TransferExempt(address,bool)":"c6e672b9","setSelfERC721TransferExempt(bool)":"8a696e50","supportsInterface(bytes4)":"01ffc9a7","symbol()":"95d89b41","tokenURI(uint256)":"c87b56dd","totalSupply()":"18160ddd","transfer(address,uint256)":"a9059cbb","transferFrom(address,address,uint256)":"23b872dd","transferOwnership(address)":"f2fde38b","units()":"976a8435","withdrawTokens(uint256,uint256)":"ba7bd2aa"},"id":11}