{"abi":[{"type":"constructor","inputs":[{"name":"name_","type":"string","internalType":"string"},{"name":"symbol_","type":"string","internalType":"string"},{"name":"decimals_","type":"uint8","internalType":"uint8"},{"name":"initialOwner_","type":"address","internalType":"address"}],"stateMutability":"nonpayable"},{"type":"function","name":"DOMAIN_SEPARATOR","inputs":[],"outputs":[{"name":"","type":"bytes32","internalType":"bytes32"}],"stateMutability":"view"},{"type":"function","name":"ID_ENCODING_PREFIX","inputs":[],"outputs":[{"name":"","type":"uint256","internalType":"uint256"}],"stateMutability":"view"},{"type":"function","name":"allowance","inputs":[{"name":"","type":"address","internalType":"address"},{"name":"","type":"address","internalType":"address"}],"outputs":[{"name":"","type":"uint256","internalType":"uint256"}],"stateMutability":"view"},{"type":"function","name":"approve","inputs":[{"name":"spender_","type":"address","internalType":"address"},{"name":"value_","type":"uint256","internalType":"uint256"}],"outputs":[{"name":"","type":"bool","internalType":"bool"}],"stateMutability":"nonpayable"},{"type":"function","name":"balanceOf","inputs":[{"name":"","type":"address","internalType":"address"}],"outputs":[{"name":"","type":"uint256","internalType":"uint256"}],"stateMutability":"view"},{"type":"function","name":"decimals","inputs":[],"outputs":[{"name":"","type":"uint8","internalType":"uint8"}],"stateMutability":"view"},{"type":"function","name":"depositTokens","inputs":[{"name":"tokenId_","type":"uint256","internalType":"uint256"},{"name":"tokenAddress_","type":"address","internalType":"address"},{"name":"amount_","type":"uint256","internalType":"uint256"}],"outputs":[],"stateMutability":"nonpayable"},{"type":"function","name":"depositTokens","inputs":[{"name":"tokenId_","type":"uint256","internalType":"uint256"},{"name":"amount_","type":"uint256","internalType":"uint256"}],"outputs":[],"stateMutability":"nonpayable"},{"type":"function","name":"erc20BalanceOf","inputs":[{"name":"owner_","type":"address","internalType":"address"}],"outputs":[{"name":"","type":"uint256","internalType":"uint256"}],"stateMutability":"view"},{"type":"function","name":"erc20TotalSupply","inputs":[],"outputs":[{"name":"","type":"uint256","internalType":"uint256"}],"stateMutability":"view"},{"type":"function","name":"erc20TransferFrom","inputs":[{"name":"from_","type":"address","internalType":"address"},{"name":"to_","type":"address","internalType":"address"},{"name":"value_","type":"uint256","internalType":"uint256"}],"outputs":[{"name":"","type":"bool","internalType":"bool"}],"stateMutability":"nonpayable"},{"type":"function","name":"erc721Approve","inputs":[{"name":"spender_","type":"address","internalType":"address"},{"name":"id_","type":"uint256","internalType":"uint256"}],"outputs":[],"stateMutability":"nonpayable"},{"type":"function","name":"erc721BalanceOf","inputs":[{"name":"owner_","type":"address","internalType":"address"}],"outputs":[{"name":"","type":"uint256","internalType":"uint256"}],"stateMutability":"view"},{"type":"function","name":"erc721TotalSupply","inputs":[],"outputs":[{"name":"","type":"uint256","internalType":"uint256"}],"stateMutability":"view"},{"type":"function","name":"erc721TransferExempt","inputs":[{"name":"target_","type":"address","internalType":"address"}],"outputs":[{"name":"","type":"bool","internalType":"bool"}],"stateMutability":"view"},{"type":"function","name":"erc721TransferFrom","inputs":[{"name":"from_","type":"address","internalType":"address"},{"name":"to_","type":"address","internalType":"address"},{"name":"id_","type":"uint256","internalType":"uint256"}],"outputs":[],"stateMutability":"nonpayable"},{"type":"function","name":"getApproved","inputs":[{"name":"","type":"uint256","internalType":"uint256"}],"outputs":[{"name":"","type":"address","internalType":"address"}],"stateMutability":"view"},{"type":"function","name":"getERC721QueueLength","inputs":[],"outputs":[{"name":"","type":"uint256","internalType":"uint256"}],"stateMutability":"view"},{"type":"function","name":"getERC721TokensInQueue","inputs":[{"name":"start_","type":"uint256","internalType":"uint256"},{"name":"count_","type":"uint256","internalType":"uint256"}],"outputs":[{"name":"","type":"uint256[]","internalType":"uint256[]"}],"stateMutability":"view"},{"type":"function","name":"getTokenDeposits","inputs":[{"name":"tokenId_","type":"uint256","internalType":"uint256"}],"outputs":[{"name":"","type":"tuple[]","internalType":"struct ERC404Deposits.TokenDeposit[]","components":[{"name":"tokenAddress","type":"address","internalType":"address"},{"name":"amount","type":"uint256","internalType":"uint256"}]}],"stateMutability":"view"},{"type":"function","name":"isApprovedForAll","inputs":[{"name":"","type":"address","internalType":"address"},{"name":"","type":"address","internalType":"address"}],"outputs":[{"name":"","type":"bool","internalType":"bool"}],"stateMutability":"view"},{"type":"function","name":"mintERC20","inputs":[{"name":"account_","type":"address","internalType":"address"},{"name":"value_","type":"uint256","internalType":"uint256"}],"outputs":[],"stateMutability":"nonpayable"},{"type":"function","name":"minted","inputs":[],"outputs":[{"name":"","type":"uint256","internalType":"uint256"}],"stateMutability":"view"},{"type":"function","name":"name","inputs":[],"outputs":[{"name":"","type":"string","internalType":"string"}],"stateMutability":"view"},{"type":"function","name":"nonces","inputs":[{"name":"","type":"address","internalType":"address"}],"outputs":[{"name":"","type":"uint256","internalType":"uint256"}],"stateMutability":"view"},{"type":"function","name":"owned","inputs":[{"name":"owner_","type":"address","internalType":"address"}],"outputs":[{"name":"","type":"uint256[]","internalType":"uint256[]"}],"stateMutability":"view"},{"type":"function","name":"owner","inputs":[],"outputs":[{"name":"","type":"address","internalType":"address"}],"stateMutability":"view"},{"type":"function","name":"ownerOf","inputs":[{"name":"id_","type":"uint256","internalType":"uint256"}],"outputs":[{"name":"erc721Owner","type":"address","internalType":"address"}],"stateMutability":"view"},{"type":"function","name":"permit","inputs":[{"name":"owner_","type":"address","internalType":"address"},{"name":"spender_","type":"address","internalType":"address"},{"name":"value_","type":"uint256","internalType":"uint256"},{"name":"deadline_","type":"uint256","internalType":"uint256"},{"name":"v_","type":"uint8","internalType":"uint8"},{"name":"r_","type":"bytes32","internalType":"bytes32"},{"name":"s_","type":"bytes32","internalType":"bytes32"}],"outputs":[],"stateMutability":"nonpayable"},{"type":"function","name":"renounceOwnership","inputs":[],"outputs":[],"stateMutability":"nonpayable"},{"type":"function","name":"safeTransferFrom","inputs":[{"name":"from_","type":"address","internalType":"address"},{"name":"to_","type":"address","internalType":"address"},{"name":"id_","type":"uint256","internalType":"uint256"}],"outputs":[],"stateMutability":"nonpayable"},{"type":"function","name":"safeTransferFrom","inputs":[{"name":"from_","type":"address","internalType":"address"},{"name":"to_","type":"address","internalType":"address"},{"name":"id_","type":"uint256","internalType":"uint256"},{"name":"data_","type":"bytes","internalType":"bytes"}],"outputs":[],"stateMutability":"nonpayable"},{"type":"function","name":"setApprovalForAll","inputs":[{"name":"operator_","type":"address","internalType":"address"},{"name":"approved_","type":"bool","internalType":"bool"}],"outputs":[],"stateMutability":"nonpayable"},{"type":"function","name":"setERC721TransferExempt","inputs":[{"name":"account_","type":"address","internalType":"address"},{"name":"value_","type":"bool","internalType":"bool"}],"outputs":[],"stateMutability":"nonpayable"},{"type":"function","name":"setSelfERC721TransferExempt","inputs":[{"name":"state_","type":"bool","internalType":"bool"}],"outputs":[],"stateMutability":"nonpayable"},{"type":"function","name":"supportsInterface","inputs":[{"name":"interfaceId","type":"bytes4","internalType":"bytes4"}],"outputs":[{"name":"","type":"bool","internalType":"bool"}],"stateMutability":"view"},{"type":"function","name":"symbol","inputs":[],"outputs":[{"name":"","type":"string","internalType":"string"}],"stateMutability":"view"},{"type":"function","name":"tokenURI","inputs":[{"name":"id_","type":"uint256","internalType":"uint256"}],"outputs":[{"name":"","type":"string","internalType":"string"}],"stateMutability":"pure"},{"type":"function","name":"totalSupply","inputs":[],"outputs":[{"name":"","type":"uint256","internalType":"uint256"}],"stateMutability":"view"},{"type":"function","name":"transfer","inputs":[{"name":"to_","type":"address","internalType":"address"},{"name":"value_","type":"uint256","internalType":"uint256"}],"outputs":[{"name":"","type":"bool","internalType":"bool"}],"stateMutability":"nonpayable"},{"type":"function","name":"transferFrom","inputs":[{"name":"from_","type":"address","internalType":"address"},{"name":"to_","type":"address","internalType":"address"},{"name":"valueOrId_","type":"uint256","internalType":"uint256"}],"outputs":[{"name":"","type":"bool","internalType":"bool"}],"stateMutability":"nonpayable"},{"type":"function","name":"transferOwnership","inputs":[{"name":"newOwner","type":"address","internalType":"address"}],"outputs":[],"stateMutability":"nonpayable"},{"type":"function","name":"units","inputs":[],"outputs":[{"name":"","type":"uint256","internalType":"uint256"}],"stateMutability":"view"},{"type":"function","name":"withdrawTokens","inputs":[{"name":"tokenId_","type":"uint256","internalType":"uint256"},{"name":"depositIndex_","type":"uint256","internalType":"uint256"}],"outputs":[],"stateMutability":"nonpayable"},{"type":"event","name":"Approval","inputs":[{"name":"owner","type":"address","indexed":true,"internalType":"address"},{"name":"spender","type":"address","indexed":true,"internalType":"address"},{"name":"value","type":"uint256","indexed":false,"internalType":"uint256"}],"anonymous":false},{"type":"event","name":"Approval","inputs":[{"name":"owner","type":"address","indexed":true,"internalType":"address"},{"name":"spender","type":"address","indexed":true,"internalType":"address"},{"name":"id","type":"uint256","indexed":true,"internalType":"uint256"}],"anonymous":false},{"type":"event","name":"ApprovalForAll","inputs":[{"name":"owner","type":"address","indexed":true,"internalType":"address"},{"name":"operator","type":"address","indexed":true,"internalType":"address"},{"name":"approved","type":"bool","indexed":false,"internalType":"bool"}],"anonymous":false},{"type":"event","name":"OwnershipTransferred","inputs":[{"name":"previousOwner","type":"address","indexed":true,"internalType":"address"},{"name":"newOwner","type":"address","indexed":true,"internalType":"address"}],"anonymous":false},{"type":"event","name":"TokensDeposited","inputs":[{"name":"tokenId","type":"uint256","indexed":true,"internalType":"uint256"},{"name":"tokenAddress","type":"address","indexed":true,"internalType":"address"},{"name":"amount","type":"uint256","indexed":false,"internalType":"uint256"}],"anonymous":false},{"type":"event","name":"TokensWithdrawn","inputs":[{"name":"tokenId","type":"uint256","indexed":true,"internalType":"uint256"},{"name":"tokenAddress","type":"address","indexed":true,"internalType":"address"},{"name":"amount","type":"uint256","indexed":false,"internalType":"uint256"}],"anonymous":false},{"type":"event","name":"Transfer","inputs":[{"name":"from","type":"address","indexed":true,"internalType":"address"},{"name":"to","type":"address","indexed":true,"internalType":"address"},{"name":"amount","type":"uint256","indexed":false,"internalType":"uint256"}],"anonymous":false},{"type":"event","name":"Transfer","inputs":[{"name":"from","type":"address","indexed":true,"internalType":"address"},{"name":"to","type":"address","indexed":true,"internalType":"address"},{"name":"id","type":"uint256","indexed":true,"internalType":"uint256"}],"anonymous":false},{"type":"error","name":"AlreadyExists","inputs":[]},{"type":"error","name":"DecimalsTooLow","inputs":[]},{"type":"error","name":"InsufficientAllowance","inputs":[]},{"type":"error","name":"InvalidAmount","inputs":[]},{"type":"error","name":"InvalidApproval","inputs":[]},{"type":"error","name":"InvalidExemption","inputs":[]},{"type":"error","name":"InvalidOperator","inputs":[]},{"type":"error","name":"InvalidRecipient","inputs":[]},{"type":"error","name":"InvalidSender","inputs":[]},{"type":"error","name":"InvalidSigner","inputs":[]},{"type":"error","name":"InvalidSpender","inputs":[]},{"type":"error","name":"InvalidTokenId","inputs":[]},{"type":"error","name":"MintLimitReached","inputs":[]},{"type":"error","name":"NotFound","inputs":[]},{"type":"error","name":"OwnableInvalidOwner","inputs":[{"name":"owner","type":"address","internalType":"address"}]},{"type":"error","name":"OwnableUnauthorizedAccount","inputs":[{"name":"account","type":"address","internalType":"address"}]},{"type":"error","name":"OwnedIndexOverflow","inputs":[]},{"type":"error","name":"PermitDeadlineExpired","inputs":[]},{"type":"error","name":"QueueEmpty","inputs":[]},{"type":"error","name":"QueueFull","inputs":[]},{"type":"error","name":"QueueOutOfBounds","inputs":[]},{"type":"error","name":"RecipientIsERC721TransferExempt","inputs":[]},{"type":"error","name":"Unauthorized","inputs":[]},{"type":"error","name":"UnsafeRecipient","inputs":[]}],"bytecode":{"object":"0x6101006040523480156200001257600080fd5b5060405162003ad238038062003ad28339810160408190526200003591620002a1565b838383836001600160a01b0381166200006857604051631e4fbdf760e01b81526000600482015260240160405180910390fd5b6200007381620000f0565b506006620000828482620003d4565b506007620000918382620003d4565b5060128160ff161015620000b8576040516398790fd560e01b815260040160405180910390fd5b60ff81166080819052620000ce90600a620005b5565b60a0524660c052620000df62000140565b60e052506200064b95505050505050565b600080546001600160a01b038381166001600160a01b0319831681178455604051919092169283917f8be0079c531659141344cd1fd0a4f28419497f9722a3daafe3b4186f6b6457e09190a35050565b60007f8b73c3c69bb8fe3d512ecc4cf759cc79239f7b179b0ffacaa9a75d522b39400f6006604051620001749190620005cd565b6040805191829003822060208301939093528101919091527fc89efdaa54c0f20c7adf612882df0950f5a951637e0307cdcb4c672f298b8bc660608201524660808201523060a082015260c00160405160208183030381529060405280519060200120905090565b634e487b7160e01b600052604160045260246000fd5b600082601f8301126200020457600080fd5b81516001600160401b0380821115620002215762000221620001dc565b604051601f8301601f19908116603f011681019082821181831017156200024c576200024c620001dc565b816040528381526020925086838588010111156200026957600080fd5b600091505b838210156200028d57858201830151818301840152908201906200026e565b600093810190920192909252949350505050565b60008060008060808587031215620002b857600080fd5b84516001600160401b0380821115620002d057600080fd5b620002de88838901620001f2565b95506020870151915080821115620002f557600080fd5b506200030487828801620001f2565b935050604085015160ff811681146200031c57600080fd5b60608601519092506001600160a01b03811681146200033a57600080fd5b939692955090935050565b600181811c908216806200035a57607f821691505b6020821081036200037b57634e487b7160e01b600052602260045260246000fd5b50919050565b601f821115620003cf57600081815260208120601f850160051c81016020861015620003aa5750805b601f850160051c820191505b81811015620003cb57828155600101620003b6565b5050505b505050565b81516001600160401b03811115620003f057620003f0620001dc565b620004088162000401845462000345565b8462000381565b602080601f831160018114620004405760008415620004275750858301515b600019600386901b1c1916600185901b178555620003cb565b600085815260208120601f198616915b82811015620004715788860151825594840194600190910190840162000450565b5085821015620004905787850151600019600388901b60f8161c191681555b5050505050600190811b01905550565b634e487b7160e01b600052601160045260246000fd5b600181815b80851115620004f7578160001904821115620004db57620004db620004a0565b80851615620004e957918102915b93841c9390800290620004bb565b509250929050565b6000826200051057506001620005af565b816200051f57506000620005af565b8160018114620005385760028114620005435762000563565b6001915050620005af565b60ff841115620005575762000557620004a0565b50506001821b620005af565b5060208310610133831016604e8410600b841016171562000588575081810a620005af565b620005948383620004b6565b8060001904821115620005ab57620005ab620004a0565b0290505b92915050565b6000620005c660ff841683620004ff565b9392505050565b6000808354620005dd8162000345565b60018281168015620005f857600181146200060e576200063f565b60ff19841687528215158302870194506200063f565b8760005260208060002060005b85811015620006365781548a8201529084019082016200061b565b50505082870194505b50929695505050505050565b60805160a05160c05160e0516133eb620006e76000396000610a2d015260006109fd0152600081816104bc01528181611a7401528181611ab801528181611afa01528181611b5401528181611b7e01528181611bd201528181611c7e01528181611ccb01528181611d0f01528181611d3601528181611d940152818161222c015281816126e901526127820152600061039201526133eb6000f3fe608060405234801561001057600080fd5b50600436106102745760003560e01c80638a696e5011610151578063c6e672b9116100c3578063dd63769911610087578063dd637699146105f2578063dfabc03314610605578063e985e9c514610618578063f16ad51e14610646578063f2fde38b14610659578063f780bc1a1461066c57600080fd5b8063c6e672b91461057b578063c87b56dd1461058e578063d505accf146105a1578063d96ca0b9146105b4578063dd62ed3e146105c757600080fd5b8063a9059cbb11610115578063a9059cbb146104f1578063b1ab931714610504578063b3f9ea3414610524578063b88d4fde1461054d578063ba7bd2aa14610560578063c5ab3ba61461057357600080fd5b80638a696e501461048b5780638da5cb5b1461049e57806395d89b41146104af578063976a8435146104b7578063a22cb465146104de57600080fd5b80633644e515116101ea57806370a08231116101ae57806370a0823114610408578063715018a6146104285780637c4ca9cc146104305780637df1c3d8146104435780637ecebe001461046357806389fb4c661461048357600080fd5b80633644e515146103c657806342842e0e146103ce5780634f02c420146103e15780636352211e146103ea5780636e8f624b146103fd57600080fd5b8063095ea7b31161023c578063095ea7b31461034357806309674eb01461035657806309f0ef651461035e57806318160ddd1461037157806323b872dd1461037a578063313ce5671461038d57600080fd5b8063015bf2641461027957806301ffc9a71461028e57806302519da3146102b657806306fdde03146102ed578063081812fc14610302575b600080fd5b61028c610287366004612d47565b61067f565b005b6102a161029c366004612d92565b610827565b60405190151581526020015b60405180910390f35b6102df6102c4366004612daf565b6001600160a01b03166000908152600b602052604090205490565b6040519081526020016102ad565b6102f561085e565b6040516102ad9190612e1a565b61032b610310366004612e2d565b600d602052600090815260409020546001600160a01b031681565b6040516001600160a01b0390911681526020016102ad565b6102a1610351366004612e46565b6108ec565b6102df610979565b6102a161036c366004612daf565b61098a565b6102df60085481565b6102a1610388366004612e70565b6109bc565b6103b47f000000000000000000000000000000000000000000000000000000000000000081565b60405160ff90911681526020016102ad565b6102df6109f9565b61028c6103dc366004612e70565b610a4f565b6102df60095481565b61032b6103f8366004612e2d565b610a6f565b6102df600160ff1b81565b6102df610416366004612daf565b600b6020526000908152604090205481565b61028c610ad9565b61028c61043e366004612e46565b610aed565b610456610451366004612e2d565b610b03565b6040516102ad9190612e9c565b6102df610471366004612daf565b60126020526000908152604090205481565b6008546102df565b61028c610499366004612f02565b610b8b565b6000546001600160a01b031661032b565b6102f5610b98565b6102df7f000000000000000000000000000000000000000000000000000000000000000081565b61028c6104ec366004612f1f565b610ba5565b6102a16104ff366004612e46565b610c39565b610517610512366004612daf565b610c6d565b6040516102ad9190612f56565b6102df610532366004612daf565b6001600160a01b031660009081526010602052604090205490565b61028c61055b366004612fb0565b610cd9565b61028c61056e36600461308c565b610dc7565b6009546102df565b61028c610589366004612f1f565b610f5a565b6102f561059c366004612e2d565b610f6c565b61028c6105af3660046130ae565b610f9d565b6102a16105c2366004612e70565b6111e0565b6102df6105d5366004613121565b600c60209081526000928352604080842090915290825290205481565b61028c610600366004612e70565b6112a0565b61028c610613366004612e46565b6113d6565b6102a1610626366004613121565b600e60209081526000928352604080842090915290825290205460ff1681565b61028c61065436600461308c565b61149b565b61028c610667366004612daf565b611658565b61051761067a36600461308c565b611693565b6000838152600f60205260409020546001600160a01b03163381146106b6576040516282b42960e81b815260040160405180910390fd5b306001600160a01b0384160361073157336000908152600b60205260409020548211156107215760405162461bcd60e51b8152602060048201526014602482015273496e73756666696369656e742062616c616e636560601b60448201526064015b60405180910390fd5b61072c333084611730565b6107c8565b6040516323b872dd60e01b81523360048201523060248201526044810183905283906001600160a01b038216906323b872dd906064016020604051808303816000875af1158015610786573d6000803e3d6000fd5b505050506040513d601f19601f820116820180604052508101906107aa9190613154565b6107c65760405162461bcd60e51b815260040161071890613171565b505b50600092835260026020818152604080862081518083019092526001600160a01b0395861682528183019485528054600180820183559188529290962090519190920290910180546001600160a01b0319169190931617825551910155565b60006001600160e01b0319821663876f7f8760e01b148061085857506001600160e01b031982166301ffc9a760e01b145b92915050565b6006805461086b9061319a565b80601f01602080910402602001604051908101604052809291908181526020018280546108979061319a565b80156108e45780601f106108b9576101008083540402835291602001916108e4565b820191906000526020600020905b8154815290600101906020018083116108c757829003601f168201915b505050505081565b60006001600160a01b03831661091557604051635461585f60e01b815260040160405180910390fd5b336000818152600c602090815260408083206001600160a01b03881680855290835292819020869055518581529192917f8c5be1e5ebec7d5bd14f71427d1e84f3dd0314c0f7b2291e5b200ac8c7c3b925910160405180910390a350600192915050565b600061098560046117ec565b905090565b60006001600160a01b03821615806108585750506001600160a01b031660009081526011602052604090205460ff1690565b60006109c78261180a565b156109dc576109d78484846112a0565b6109ee565b6109e78484846111e0565b90506109f2565b5060015b9392505050565b60007f00000000000000000000000000000000000000000000000000000000000000004614610a2a57610985611823565b507f000000000000000000000000000000000000000000000000000000000000000090565b610a6a83838360405180602001604052806000815250610cd9565b505050565b6000818152600f60205260409020546001600160a01b0316610a908261180a565b610aad576040516307ed98ed60e31b815260040160405180910390fd5b6001600160a01b038116610ad45760405163c5723b5160e01b815260040160405180910390fd5b919050565b610ae16118bd565b610aeb60006118ea565b565b610af56118bd565b610aff828261193a565b5050565b606060026000838152602001908152602001600020805480602002602001604051908101604052809291908181526020016000905b82821015610b80576000848152602090819020604080518082019091526002850290910180546001600160a01b03168252600190810154828401529083529092019101610b38565b505050509050919050565b610b95338261199f565b50565b6007805461086b9061319a565b6001600160a01b038216610bcc5760405163ccea9e6f60e01b815260040160405180910390fd5b336000818152600e602090815260408083206001600160a01b03871680855290835292819020805460ff191686151590811790915590519081529192917f17307eab39ab6107e8899845ad3d59bd9653f200f220920489ca2b5937696c3191015b60405180910390a35050565b60006001600160a01b038316610c6257604051634e46966960e11b815260040160405180910390fd5b6109f2338484611a0e565b6001600160a01b038116600090815260106020908152604091829020805483518184028101840190945280845260609392830182828015610ccd57602002820191906000526020600020905b815481526020019060010190808311610cb9575b50505050509050919050565b610ce28261180a565b610cff576040516307ed98ed60e31b815260040160405180910390fd5b610d0a8484846109bc565b506001600160a01b0383163b15801590610da35750604051630a85bd0160e11b808252906001600160a01b0385169063150b7a0290610d539033908990889088906004016131d4565b6020604051808303816000875af1158015610d72573d6000803e3d6000fd5b505050506040513d601f19601f82011682018060405250810190610d969190613211565b6001600160e01b03191614155b15610dc157604051633da6393160e01b815260040160405180910390fd5b50505050565b6000828152600f60205260409020546001600160a01b0316338114610dfe576040516282b42960e81b815260040160405180910390fd5b6000838152600260205260409020548210610e535760405162461bcd60e51b8152602060048201526015602482015274092dcecc2d8d2c840c8cae0dee6d2e840d2dcc8caf605b1b6044820152606401610718565b6000838152600260205260408120805484908110610e7357610e7361322e565b6000918252602090912060029091020160018101548154919250906001600160a01b0316610ea18686611dca565b306001600160a01b03821603610ec157610ebc303384611730565b610f52565b60405163a9059cbb60e01b81523360048201526024810183905281906001600160a01b0382169063a9059cbb906044016020604051808303816000875af1158015610f10573d6000803e3d6000fd5b505050506040513d601f19601f82011682018060405250810190610f349190613154565b610f505760405162461bcd60e51b815260040161071890613171565b505b505050505050565b610f626118bd565b610aff828261199f565b6060610f7782611f19565b604051602001610f879190613244565b6040516020818303038152906040529050919050565b42841015610fbe576040516305787bdf60e01b815260040160405180910390fd5b610fc78561180a565b15610fe5576040516303e7c1bd60e31b815260040160405180910390fd5b6001600160a01b03861661100c57604051635461585f60e01b815260040160405180910390fd5b600060016110186109f9565b6001600160a01b038a811660008181526012602090815260409182902080546001810190915582517f6e71edae12b1b97f4d1f60370fef10105fa2faae0126114a169c64845d6126c98184015280840194909452938d166060840152608083018c905260a083019390935260c08083018b90528151808403909101815260e08301909152805192019190912061190160f01b6101008301526101028201929092526101228101919091526101420160408051601f198184030181528282528051602091820120600084529083018083525260ff871690820152606081018590526080810184905260a0016020604051602081039080840390855afa158015611124573d6000803e3d6000fd5b5050604051601f1901519150506001600160a01b03811615806111595750876001600160a01b0316816001600160a01b031614155b1561117757604051632057875960e21b815260040160405180910390fd5b6001600160a01b039081166000908152600c602090815260408083208a8516808552908352928190208990555188815291928a16917f8c5be1e5ebec7d5bd14f71427d1e84f3dd0314c0f7b2291e5b200ac8c7c3b925910160405180910390a350505050505050565b60006001600160a01b03841661120957604051636edaef2f60e11b815260040160405180910390fd5b6001600160a01b03831661123057604051634e46966960e11b815260040160405180910390fd5b6001600160a01b0384166000908152600c60209081526040808320338452909152902054600019811461128c57611267838261329f565b6001600160a01b0386166000908152600c602090815260408083203384529091529020555b611297858585611a0e565b95945050505050565b6001600160a01b0383166112c757604051636edaef2f60e11b815260040160405180910390fd5b6001600160a01b0382166112ee57604051634e46966960e11b815260040160405180910390fd5b6000818152600f60205260409020546001600160a01b03848116911614611327576040516282b42960e81b815260040160405180910390fd5b336001600160a01b0384161480159061136457506001600160a01b0383166000908152600e6020908152604080832033845290915290205460ff16155b801561138757506000818152600d60205260409020546001600160a01b03163314155b156113a4576040516282b42960e81b815260040160405180910390fd5b6113ad8261098a565b156113cb57604051635ce7539760e01b815260040160405180910390fd5b610a6a838383611fac565b6000818152600f60205260409020546001600160a01b031633811480159061142257506001600160a01b0381166000908152600e6020908152604080832033845290915290205460ff16155b1561143f576040516282b42960e81b815260040160405180910390fd5b6000828152600d602052604080822080546001600160a01b0319166001600160a01b0387811691821790925591518593918516917f8c5be1e5ebec7d5bd14f71427d1e84f3dd0314c0f7b2291e5b200ac8c7c3b92591a4505050565b6000828152600f60205260409020546001600160a01b031633146114f35760405162461bcd60e51b815260206004820152600f60248201526e2737ba103a37b5b2b71037bbb732b960891b6044820152606401610718565b600081116115435760405162461bcd60e51b815260206004820152601d60248201527f416d6f756e74206d7573742062652067726561746572207468616e20300000006044820152606401610718565b60008281526002602052604081205490036115b85760008281526002602081815260408084208151808301909252308252818301868152815460018082018455928752939095209151929093020180546001600160a01b0319166001600160a01b0390921691909117815591519101556115fd565b600082815260026020526040812080548392906115d7576115d761322e565b906000526020600020906002020160010160008282546115f791906132b2565b90915550505b611608333083612172565b6116245760405162461bcd60e51b815260040161071890613171565b604051818152309083907fb162210da7d23d82c18cff5af46d3562661d26b42a6848fa28d64a6bdc70386a90602001610c2d565b6116606118bd565b6001600160a01b03811661168a57604051631e4fbdf760e01b815260006004820152602401610718565b610b95816118ea565b606060008267ffffffffffffffff8111156116b0576116b0612f9a565b6040519080825280602002602001820160405280156116d9578160200160208202803683370190505b509050835b6116e884866132b2565b811015611728576116fa600482612187565b82611705878461329f565b815181106117155761171561322e565b60209081029190910101526001016116de565b509392505050565b6001600160a01b03831661175b57806008600082825461175091906132b2565b909155506117899050565b6001600160a01b0383166000908152600b60205260408120805483929061178390849061329f565b90915550505b6001600160a01b038083166000818152600b6020526040908190208054850190555190918516907fddf252ad1be2c89b69c2b068fc378daa952ba7f163c4a11628f55a4df523b3ef906117df9085815260200190565b60405180910390a3505050565b546001600160801b03808216600160801b9092048116919091031690565b6000600160ff1b82118015610858575050600019141590565b60007f8b73c3c69bb8fe3d512ecc4cf759cc79239f7b179b0ffacaa9a75d522b39400f600660405161185591906132c5565b6040805191829003822060208301939093528101919091527fc89efdaa54c0f20c7adf612882df0950f5a951637e0307cdcb4c672f298b8bc660608201524660808201523060a082015260c00160405160208183030381529060405280519060200120905090565b6000546001600160a01b03163314610aeb5760405163118cdaa760e01b8152336004820152602401610718565b600080546001600160a01b038381166001600160a01b0319831681178455604051919092169283917f8be0079c531659141344cd1fd0a4f28419497f9722a3daafe3b4186f6b6457e09190a35050565b6001600160a01b03821661196157604051634e46966960e11b815260040160405180910390fd5b600160ff1b8160085461197491906132b2565b11156119935760405163303b682f60e01b815260040160405180910390fd5b610a6a60008383611a0e565b6001600160a01b0382166119c65760405163a41e3d3f60e01b815260040160405180910390fd5b80156119da576119d5826121d9565b6119e3565b6119e38261220d565b6001600160a01b03919091166000908152601160205260409020805460ff1916911515919091179055565b6001600160a01b038381166000908152600b6020526040808220549285168252812054909190611a3f868686611730565b6000611a4a8761098a565b90506000611a578761098a565b9050818015611a635750805b611dbc578115611b2f576000611a997f000000000000000000000000000000000000000000000000000000000000000085613364565b6001600160a01b0389166000908152600b6020526040902054611add907f000000000000000000000000000000000000000000000000000000000000000090613364565b611ae7919061329f565b905060005b81811015611b2857611b20897f0000000000000000000000000000000000000000000000000000000000000000600061229e565b600101611aec565b5050611dbc565b8015611bcb576001600160a01b0388166000908152600b6020526040812054611b79907f000000000000000000000000000000000000000000000000000000000000000090613364565b611ba37f000000000000000000000000000000000000000000000000000000000000000087613364565b611bad919061329f565b905060005b81811015611b2857611bc38a6122df565b600101611bb2565b6000611bf77f000000000000000000000000000000000000000000000000000000000000000088613364565b905060005b81811015611c7a576001600160a01b038a16600090815260106020526040812054611c299060019061329f565b6001600160a01b038c1660009081526010602052604081208054929350909183908110611c5857611c5861322e565b90600052602060002001549050611c708c8c83611fac565b5050600101611bfc565b50807f0000000000000000000000000000000000000000000000000000000000000000611cbc8b6001600160a01b03166000908152600b602052604090205490565b611cc69190613364565b611cf07f000000000000000000000000000000000000000000000000000000000000000088613364565b611cfa919061329f565b1115611d0957611d09896122df565b80611d347f000000000000000000000000000000000000000000000000000000000000000086613364565b7f0000000000000000000000000000000000000000000000000000000000000000611d748b6001600160a01b03166000908152600b602052604090205490565b611d7e9190613364565b611d88919061329f565b1115611dba57611dba887f0000000000000000000000000000000000000000000000000000000000000000600061229e565b505b506001979650505050505050565b6000828152600260205260409020548110611e175760405162461bcd60e51b815260206004820152600d60248201526c092dcecc2d8d2c840d2dcc8caf609b1b6044820152606401610718565b600082815260026020526040902054611e329060019061329f565b8114611ecf5760008281526002602052604090208054611e549060019061329f565b81548110611e6457611e6461322e565b9060005260206000209060020201600260008481526020019081526020016000208281548110611e9657611e9661322e565b60009182526020909120825460029092020180546001600160a01b0319166001600160a01b039092169190911781556001918201549101555b6000828152600260205260409020805480611eec57611eec613386565b60008281526020812060026000199093019283020180546001600160a01b03191681556001015590555050565b60606000611f2683612369565b600101905060008167ffffffffffffffff811115611f4657611f46612f9a565b6040519080825280601f01601f191660200182016040528015611f70576020820181803683370190505b5090508181016020015b600019016f181899199a1a9b1b9c1cb0b131b232b360811b600a86061a8153600a8504945084611f7a57509392505050565b611fb7818484612441565b6000818152600f6020526040902080546001600160a01b0319166001600160a01b0384160190556001600160a01b038316156120d2576001600160a01b038316600090815260106020526040812080546120139060019061329f565b815481106120235761202361322e565b90600052602060002001549050600061204b836000908152600f602052604090205460a01c90565b6001600160a01b0386166000908152601060205260409020805491925083918390811061207a5761207a61322e565b60009182526020808320909101929092556001600160a01b03871681526010909152604090208054806120af576120af613386565b600190038181906000526020600020016000905590556120cf82826125ce565b50505b6001600160a01b038216600081815260106020908152604082208054600181810183558285529284200185905592909152905461211a918391612115919061329f565b6125ce565b6000818152600d602052604080822080546001600160a01b03191690555182916001600160a01b0385811692908716917fddf252ad1be2c89b69c2b068fc378daa952ba7f163c4a11628f55a4df523b3ef91a4505050565b600061217f848484611a0e565b949350505050565b6000612192836117ec565b82106121b15760405163580821e760e01b815260040160405180910390fd5b5081546001600160801b03908116820116600090815260018301602052604090205492915050565b6001600160a01b038116600090815260106020526040812054905b81811015610a6a57612205836122df565b6001016121f4565b6001600160a01b0381166000908152600b6020526040812054612251907f000000000000000000000000000000000000000000000000000000000000000090613364565b90506000612274836001600160a01b031660009081526010602052604090205490565b905060005b612283828461329f565b811015610dc1576122968460018061229e565b600101612279565b6001600160a01b0383166122c557604051634e46966960e11b815260040160405180910390fd5b80156122d557610a6a838361263a565b610a6a83836126e2565b6001600160a01b03811661230657604051636edaef2f60e11b815260040160405180910390fd5b6001600160a01b0381166000908152601060205260408120805461232c9060019061329f565b8154811061233c5761233c61322e565b9060005260206000200154905061235281612900565b61235e82600083611fac565b610aff600482612965565b60008072184f03e93ff9f4daa797ed6e38ed64bf6a1f0160401b83106123a85772184f03e93ff9f4daa797ed6e38ed64bf6a1f0160401b830492506040015b6d04ee2d6d415b85acef810000000083106123d4576d04ee2d6d415b85acef8100000000830492506020015b662386f26fc1000083106123f257662386f26fc10000830492506010015b6305f5e100831061240a576305f5e100830492506008015b612710831061241e57612710830492506004015b60648310612430576064830492506002015b600a83106108585760010192915050565b6000838152600260205260409020548015610dc157600084815260026020526040902061246f60018361329f565b8154811061247f5761247f61322e565b600091825260208083206002928302015487845291905260409091206001600160a01b039091169085907f3f5fbaf86658fdadee77f1d46e7f8a72424ad9839eda6a1dc6eb0a4228e4226e906124d660018661329f565b815481106124e6576124e661322e565b90600052602060002090600202016001015460405161250791815260200190565b60405180910390a3600084815260026020526040902061252860018361329f565b815481106125385761253861322e565b600091825260208083206002928302015487845291905260409091206001600160a01b039091169085907fb162210da7d23d82c18cff5af46d3562661d26b42a6848fa28d64a6bdc70386a9061258f60018661329f565b8154811061259f5761259f61322e565b9060005260206000209060020201600101546040516125c091815260200190565b60405180910390a350505050565b6000828152600f60205260409020546bffffffffffffffffffffffff82111561260a57604051633f2cd0e360e21b815260040160405180910390fd5b6000928352600f60205260409092206001600160a01b039290921660a09190911b6001600160a01b031916019055565b6004546001600160801b03808216600160801b90920416146126dc5760008061266360046117ec565b90505b808210156126d957600061267b600484612187565b60008181526003602052604090205490915084811480156126a057506126a0826129cf565b156126c5576126af6004612a89565b506126b982612afe565b610f5260008784611fac565b836126cf8161339c565b9450505050612666565b50505b610aff82825b600061270e7f000000000000000000000000000000000000000000000000000000000000000083613364565b905060005b81811015610dc157600061273b600454600160801b81046001600160801b0390811691161490565b6128985760008061274c60046117ec565b90505b808210801561275c575082155b1561289557600061276e600484612187565b6000818152600360205260409020549091507f00000000000000000000000000000000000000000000000000000000000000001480156127b257506127b2816129cf565b1561288257826000036127cf576127c96004612a89565b50612868565b60016127db60046117ec565b6127e5919061329f565b83036127f5576127c96004612c7a565b600061280160046117ec565b9050835b61281060018361329f565b81101561285a57600061282f6128278360016132b2565b600490612187565b905061283b6004612c7a565b50612847600482612965565b50806128528161339c565b915050612805565b506128656004612c7a565b50505b61287181612afe565b61287d60008983611fac565b600193505b8261288c8161339c565b9350505061274f565b50505b806128f7576009600081546128ac9061339c565b909155506009546001016128d35760405163303b682f60e01b815260040160405180910390fd5b6000600954600160ff1b6128e791906132b2565b90506128f560008783611fac565b505b50600101612713565b60008181526002602052604090205415610b9557600081815260026020526040812080549091906129335761293361322e565b6000918252602080832060029283020160010154848452600382526040808520919091559190528120610b9591612cea565b81546001600160801b038082166000190191600160801b90048116908216036129a157604051638acb5f2760e01b815260040160405180910390fd5b6001600160801b0316600081815260018401602052604090209190915581546001600160801b031916179055565b6000818152600a602052604081205460ff1615806129f95750600082815260016020526040902054155b15612a0657506001919050565b6000828152600160209081526040808320600290925282208054919290919003612a34575060009392505050565b81600081548110612a4757612a4761322e565b90600052602060002090600202016001015481600081548110612a6c57612a6c61322e565b906000526020600020906002020160010154101592505050919050565b80546000906001600160801b0380821691600160801b9004168103612ac1576040516375e52f4f60e01b815260040160405180910390fd5b6001600160801b038181166000908152600185810160205260408220805492905585546001600160801b0319169301909116919091179092555090565b6000818152600a602052604090205460ff168015612b29575060008181526001602052604090205415155b15610b9557612b37816129cf565b612b8f5760405162461bcd60e51b8152602060048201526024808201527f496e73756666696369656e74206465706f7369747320746f20726573746f72656044820152630813919560e21b6064820152608401610718565b6000818152600260205260408120612ba691612cea565b60005b600082815260016020526040902054811015612c4a5760008281526002602090815260408083206001909252909120805483908110612bea57612bea61322e565b6000918252602080832084546001818101875595855291909320600292830290930180549190920290920180546001600160a01b0319166001600160a01b0390931692909217825582015491015580612c428161339c565b915050612ba9565b506000818152600160205260408120612c6291612cea565b6000908152600a60205260409020805460ff19169055565b80546000906001600160801b03600160801b8204811691168103612cb1576040516375e52f4f60e01b815260040160405180910390fd5b600019016001600160801b039081166000818152600185016020526040812080549190558454909216600160801b909102179092555090565b5080546000825560020290600052602060002090810190610b9591905b80821115612d2c5780546001600160a01b031916815560006001820155600201612d07565b5090565b80356001600160a01b0381168114610ad457600080fd5b600080600060608486031215612d5c57600080fd5b83359250612d6c60208501612d30565b9150604084013590509250925092565b6001600160e01b031981168114610b9557600080fd5b600060208284031215612da457600080fd5b81356109f281612d7c565b600060208284031215612dc157600080fd5b6109f282612d30565b60005b83811015612de5578181015183820152602001612dcd565b50506000910152565b60008151808452612e06816020860160208601612dca565b601f01601f19169290920160200192915050565b6020815260006109f26020830184612dee565b600060208284031215612e3f57600080fd5b5035919050565b60008060408385031215612e5957600080fd5b612e6283612d30565b946020939093013593505050565b600080600060608486031215612e8557600080fd5b612e8e84612d30565b9250612d6c60208501612d30565b602080825282518282018190526000919060409081850190868401855b82811015612ee757815180516001600160a01b03168552860151868501529284019290850190600101612eb9565b5091979650505050505050565b8015158114610b9557600080fd5b600060208284031215612f1457600080fd5b81356109f281612ef4565b60008060408385031215612f3257600080fd5b612f3b83612d30565b91506020830135612f4b81612ef4565b809150509250929050565b6020808252825182820181905260009190848201906040850190845b81811015612f8e57835183529284019291840191600101612f72565b50909695505050505050565b634e487b7160e01b600052604160045260246000fd5b60008060008060808587031215612fc657600080fd5b612fcf85612d30565b9350612fdd60208601612d30565b925060408501359150606085013567ffffffffffffffff8082111561300157600080fd5b818701915087601f83011261301557600080fd5b81358181111561302757613027612f9a565b604051601f8201601f19908116603f0116810190838211818310171561304f5761304f612f9a565b816040528281528a602084870101111561306857600080fd5b82602086016020830137600060208483010152809550505050505092959194509250565b6000806040838503121561309f57600080fd5b50508035926020909101359150565b600080600080600080600060e0888a0312156130c957600080fd5b6130d288612d30565b96506130e060208901612d30565b95506040880135945060608801359350608088013560ff8116811461310457600080fd5b9699959850939692959460a0840135945060c09093013592915050565b6000806040838503121561313457600080fd5b61313d83612d30565b915061314b60208401612d30565b90509250929050565b60006020828403121561316657600080fd5b81516109f281612ef4565b6020808252600f908201526e151c985b9cd9995c8819985a5b1959608a1b604082015260600190565b600181811c908216806131ae57607f821691505b6020821081036131ce57634e487b7160e01b600052602260045260246000fd5b50919050565b6001600160a01b038581168252841660208201526040810183905260806060820181905260009061320790830184612dee565b9695505050505050565b60006020828403121561322357600080fd5b81516109f281612d7c565b634e487b7160e01b600052603260045260246000fd5b7f68747470733a2f2f6578616d706c652e636f6d2f746f6b656e2f00000000000081526000825161327c81601a850160208701612dca565b91909101601a0192915050565b634e487b7160e01b600052601160045260246000fd5b8181038181111561085857610858613289565b8082018082111561085857610858613289565b600080835481600182811c9150808316806132e157607f831692505b6020808410820361330057634e487b7160e01b86526022600452602486fd5b818015613314576001811461332957613356565b60ff1986168952841515850289019650613356565b60008a81526020902060005b8681101561334e5781548b820152908501908301613335565b505084890196505b509498975050505050505050565b60008261338157634e487b7160e01b600052601260045260246000fd5b500490565b634e487b7160e01b600052603160045260246000fd5b6000600182016133ae576133ae613289565b506001019056fea2646970667358221220de7544281510de53ee0ab1a51fcb6eaab65f724c31ddce6eb53d98e85459367964736f6c63430008140033","linkReferences":{}},"methodIdentifiers":{"DOMAIN_SEPARATOR()":"3644e515","ID_ENCODING_PREFIX()":"6e8f624b","allowance(address,address)":"dd62ed3e","approve(address,uint256)":"095ea7b3","balanceOf(address)":"70a08231","decimals()":"313ce567","depositTokens(uint256,address,uint256)":"015bf264","depositTokens(uint256,uint256)":"f16ad51e","erc20BalanceOf(address)":"02519da3","erc20TotalSupply()":"89fb4c66","erc20TransferFrom(address,address,uint256)":"d96ca0b9","erc721Approve(address,uint256)":"dfabc033","erc721BalanceOf(address)":"b3f9ea34","erc721TotalSupply()":"c5ab3ba6","erc721TransferExempt(address)":"09f0ef65","erc721TransferFrom(address,address,uint256)":"dd637699","getApproved(uint256)":"081812fc","getERC721QueueLength()":"09674eb0","getERC721TokensInQueue(uint256,uint256)":"f780bc1a","getTokenDeposits(uint256)":"7df1c3d8","isApprovedForAll(address,address)":"e985e9c5","mintERC20(address,uint256)":"7c4ca9cc","minted()":"4f02c420","name()":"06fdde03","nonces(address)":"7ecebe00","owned(address)":"b1ab9317","owner()":"8da5cb5b","ownerOf(uint256)":"6352211e","permit(address,address,uint256,uint256,uint8,bytes32,bytes32)":"d505accf","renounceOwnership()":"715018a6","safeTransferFrom(address,address,uint256)":"42842e0e","safeTransferFrom(address,address,uint256,bytes)":"b88d4fde","setApprovalForAll(address,bool)":"a22cb465","setERC721TransferExempt(address,bool)":"c6e672b9","setSelfERC721TransferExempt(bool)":"8a696e50","supportsInterface(bytes4)":"01ffc9a7","symbol()":"95d89b41","tokenURI(uint256)":"c87b56dd","totalSupply()":"18160ddd","transfer(address,uint256)":"a9059cbb","transferFrom(address,address,uint256)":"23b872dd","transferOwnership(address)":"f2fde38b","units()":"976a8435","withdrawTokens(uint256,uint256)":"ba7bd2aa"},"id":11}