{"abi":[{"type":"constructor","inputs":[{"name":"name_","type":"string","internalType":"string"},{"name":"symbol_","type":"string","internalType":"string"},{"name":"decimals_","type":"uint8","internalType":"uint8"},{"name":"initialOwner_","type":"address","internalType":"address"}],"stateMutability":"nonpayable"},{"type":"function","name":"DOMAIN_SEPARATOR","inputs":[],"outputs":[{"name":"","type":"bytes32","internalType":"bytes32"}],"stateMutability":"view"},{"type":"function","name":"ID_ENCODING_PREFIX","inputs":[],"outputs":[{"name":"","type":"uint256","internalType":"uint256"}],"stateMutability":"view"},{"type":"function","name":"allowance","inputs":[{"name":"","type":"address","internalType":"address"},{"name":"","type":"address","internalType":"address"}],"outputs":[{"name":"","type":"uint256","internalType":"uint256"}],"stateMutability":"view"},{"type":"function","name":"approve","inputs":[{"name":"spender_","type":"address","internalType":"address"},{"name":"valueOrId_","type":"uint256","internalType":"uint256"}],"outputs":[{"name":"","type":"bool","internalType":"bool"}],"stateMutability":"nonpayable"},{"type":"function","name":"balanceOf","inputs":[{"name":"","type":"address","internalType":"address"}],"outputs":[{"name":"","type":"uint256","internalType":"uint256"}],"stateMutability":"view"},{"type":"function","name":"decimals","inputs":[],"outputs":[{"name":"","type":"uint8","internalType":"uint8"}],"stateMutability":"view"},{"type":"function","name":"depositTokens","inputs":[{"name":"tokenId_","type":"uint256","internalType":"uint256"},{"name":"tokenAddress_","type":"address","internalType":"address"},{"name":"amount_","type":"uint256","internalType":"uint256"}],"outputs":[],"stateMutability":"nonpayable"},{"type":"function","name":"depositTokens","inputs":[{"name":"tokenId_","type":"uint256","internalType":"uint256"},{"name":"amount_","type":"uint256","internalType":"uint256"}],"outputs":[],"stateMutability":"nonpayable"},{"type":"function","name":"erc20Approve","inputs":[{"name":"spender_","type":"address","internalType":"address"},{"name":"value_","type":"uint256","internalType":"uint256"}],"outputs":[{"name":"","type":"bool","internalType":"bool"}],"stateMutability":"nonpayable"},{"type":"function","name":"erc20BalanceOf","inputs":[{"name":"owner_","type":"address","internalType":"address"}],"outputs":[{"name":"","type":"uint256","internalType":"uint256"}],"stateMutability":"view"},{"type":"function","name":"erc20TotalSupply","inputs":[],"outputs":[{"name":"","type":"uint256","internalType":"uint256"}],"stateMutability":"view"},{"type":"function","name":"erc20TransferFrom","inputs":[{"name":"from_","type":"address","internalType":"address"},{"name":"to_","type":"address","internalType":"address"},{"name":"value_","type":"uint256","internalType":"uint256"}],"outputs":[{"name":"","type":"bool","internalType":"bool"}],"stateMutability":"nonpayable"},{"type":"function","name":"erc721Approve","inputs":[{"name":"spender_","type":"address","internalType":"address"},{"name":"id_","type":"uint256","internalType":"uint256"}],"outputs":[],"stateMutability":"nonpayable"},{"type":"function","name":"erc721BalanceOf","inputs":[{"name":"owner_","type":"address","internalType":"address"}],"outputs":[{"name":"","type":"uint256","internalType":"uint256"}],"stateMutability":"view"},{"type":"function","name":"erc721TotalSupply","inputs":[],"outputs":[{"name":"","type":"uint256","internalType":"uint256"}],"stateMutability":"view"},{"type":"function","name":"erc721TransferExempt","inputs":[{"name":"target_","type":"address","internalType":"address"}],"outputs":[{"name":"","type":"bool","internalType":"bool"}],"stateMutability":"view"},{"type":"function","name":"erc721TransferFrom","inputs":[{"name":"from_","type":"address","internalType":"address"},{"name":"to_","type":"address","internalType":"address"},{"name":"id_","type":"uint256","internalType":"uint256"}],"outputs":[],"stateMutability":"nonpayable"},{"type":"function","name":"getApproved","inputs":[{"name":"","type":"uint256","internalType":"uint256"}],"outputs":[{"name":"","type":"address","internalType":"address"}],"stateMutability":"view"},{"type":"function","name":"getERC721QueueLength","inputs":[],"outputs":[{"name":"","type":"uint256","internalType":"uint256"}],"stateMutability":"view"},{"type":"function","name":"getERC721TokensInQueue","inputs":[{"name":"start_","type":"uint256","internalType":"uint256"},{"name":"count_","type":"uint256","internalType":"uint256"}],"outputs":[{"name":"","type":"uint256[]","internalType":"uint256[]"}],"stateMutability":"view"},{"type":"function","name":"getTokenDeposits","inputs":[{"name":"tokenId_","type":"uint256","internalType":"uint256"}],"outputs":[{"name":"","type":"tuple[]","internalType":"struct ERC404Deposits.TokenDeposit[]","components":[{"name":"tokenAddress","type":"address","internalType":"address"},{"name":"amount","type":"uint256","internalType":"uint256"}]}],"stateMutability":"view"},{"type":"function","name":"isApprovedForAll","inputs":[{"name":"","type":"address","internalType":"address"},{"name":"","type":"address","internalType":"address"}],"outputs":[{"name":"","type":"bool","internalType":"bool"}],"stateMutability":"view"},{"type":"function","name":"mintERC20","inputs":[{"name":"account_","type":"address","internalType":"address"},{"name":"value_","type":"uint256","internalType":"uint256"}],"outputs":[],"stateMutability":"nonpayable"},{"type":"function","name":"minted","inputs":[],"outputs":[{"name":"","type":"uint256","internalType":"uint256"}],"stateMutability":"view"},{"type":"function","name":"name","inputs":[],"outputs":[{"name":"","type":"string","internalType":"string"}],"stateMutability":"view"},{"type":"function","name":"nonces","inputs":[{"name":"","type":"address","internalType":"address"}],"outputs":[{"name":"","type":"uint256","internalType":"uint256"}],"stateMutability":"view"},{"type":"function","name":"owned","inputs":[{"name":"owner_","type":"address","internalType":"address"}],"outputs":[{"name":"","type":"uint256[]","internalType":"uint256[]"}],"stateMutability":"view"},{"type":"function","name":"owner","inputs":[],"outputs":[{"name":"","type":"address","internalType":"address"}],"stateMutability":"view"},{"type":"function","name":"ownerOf","inputs":[{"name":"id_","type":"uint256","internalType":"uint256"}],"outputs":[{"name":"erc721Owner","type":"address","internalType":"address"}],"stateMutability":"view"},{"type":"function","name":"permit","inputs":[{"name":"owner_","type":"address","internalType":"address"},{"name":"spender_","type":"address","internalType":"address"},{"name":"value_","type":"uint256","internalType":"uint256"},{"name":"deadline_","type":"uint256","internalType":"uint256"},{"name":"v_","type":"uint8","internalType":"uint8"},{"name":"r_","type":"bytes32","internalType":"bytes32"},{"name":"s_","type":"bytes32","internalType":"bytes32"}],"outputs":[],"stateMutability":"nonpayable"},{"type":"function","name":"renounceOwnership","inputs":[],"outputs":[],"stateMutability":"nonpayable"},{"type":"function","name":"safeTransferFrom","inputs":[{"name":"from_","type":"address","internalType":"address"},{"name":"to_","type":"address","internalType":"address"},{"name":"id_","type":"uint256","internalType":"uint256"}],"outputs":[],"stateMutability":"nonpayable"},{"type":"function","name":"safeTransferFrom","inputs":[{"name":"from_","type":"address","internalType":"address"},{"name":"to_","type":"address","internalType":"address"},{"name":"id_","type":"uint256","internalType":"uint256"},{"name":"data_","type":"bytes","internalType":"bytes"}],"outputs":[],"stateMutability":"nonpayable"},{"type":"function","name":"setApprovalForAll","inputs":[{"name":"operator_","type":"address","internalType":"address"},{"name":"approved_","type":"bool","internalType":"bool"}],"outputs":[],"stateMutability":"nonpayable"},{"type":"function","name":"setERC721TransferExempt","inputs":[{"name":"account_","type":"address","internalType":"address"},{"name":"value_","type":"bool","internalType":"bool"}],"outputs":[],"stateMutability":"nonpayable"},{"type":"function","name":"setSelfERC721TransferExempt","inputs":[{"name":"state_","type":"bool","internalType":"bool"}],"outputs":[],"stateMutability":"nonpayable"},{"type":"function","name":"supportsInterface","inputs":[{"name":"interfaceId","type":"bytes4","internalType":"bytes4"}],"outputs":[{"name":"","type":"bool","internalType":"bool"}],"stateMutability":"view"},{"type":"function","name":"symbol","inputs":[],"outputs":[{"name":"","type":"string","internalType":"string"}],"stateMutability":"view"},{"type":"function","name":"tokenURI","inputs":[{"name":"id_","type":"uint256","internalType":"uint256"}],"outputs":[{"name":"","type":"string","internalType":"string"}],"stateMutability":"pure"},{"type":"function","name":"totalSupply","inputs":[],"outputs":[{"name":"","type":"uint256","internalType":"uint256"}],"stateMutability":"view"},{"type":"function","name":"transfer","inputs":[{"name":"to_","type":"address","internalType":"address"},{"name":"value_","type":"uint256","internalType":"uint256"}],"outputs":[{"name":"","type":"bool","internalType":"bool"}],"stateMutability":"nonpayable"},{"type":"function","name":"transferFrom","inputs":[{"name":"from_","type":"address","internalType":"address"},{"name":"to_","type":"address","internalType":"address"},{"name":"valueOrId_","type":"uint256","internalType":"uint256"}],"outputs":[{"name":"","type":"bool","internalType":"bool"}],"stateMutability":"nonpayable"},{"type":"function","name":"transferOwnership","inputs":[{"name":"newOwner","type":"address","internalType":"address"}],"outputs":[],"stateMutability":"nonpayable"},{"type":"function","name":"units","inputs":[],"outputs":[{"name":"","type":"uint256","internalType":"uint256"}],"stateMutability":"view"},{"type":"function","name":"withdrawTokens","inputs":[{"name":"tokenId_","type":"uint256","internalType":"uint256"},{"name":"depositIndex_","type":"uint256","internalType":"uint256"}],"outputs":[],"stateMutability":"nonpayable"},{"type":"event","name":"Approval","inputs":[{"name":"owner","type":"address","indexed":true,"internalType":"address"},{"name":"spender","type":"address","indexed":true,"internalType":"address"},{"name":"value","type":"uint256","indexed":false,"internalType":"uint256"}],"anonymous":false},{"type":"event","name":"Approval","inputs":[{"name":"owner","type":"address","indexed":true,"internalType":"address"},{"name":"spender","type":"address","indexed":true,"internalType":"address"},{"name":"id","type":"uint256","indexed":true,"internalType":"uint256"}],"anonymous":false},{"type":"event","name":"ApprovalForAll","inputs":[{"name":"owner","type":"address","indexed":true,"internalType":"address"},{"name":"operator","type":"address","indexed":true,"internalType":"address"},{"name":"approved","type":"bool","indexed":false,"internalType":"bool"}],"anonymous":false},{"type":"event","name":"OwnershipTransferred","inputs":[{"name":"previousOwner","type":"address","indexed":true,"internalType":"address"},{"name":"newOwner","type":"address","indexed":true,"internalType":"address"}],"anonymous":false},{"type":"event","name":"TokensDeposited","inputs":[{"name":"tokenId","type":"uint256","indexed":true,"internalType":"uint256"},{"name":"tokenAddress","type":"address","indexed":true,"internalType":"address"},{"name":"amount","type":"uint256","indexed":false,"internalType":"uint256"}],"anonymous":false},{"type":"event","name":"TokensWithdrawn","inputs":[{"name":"tokenId","type":"uint256","indexed":true,"internalType":"uint256"},{"name":"tokenAddress","type":"address","indexed":true,"internalType":"address"},{"name":"amount","type":"uint256","indexed":false,"internalType":"uint256"}],"anonymous":false},{"type":"event","name":"Transfer","inputs":[{"name":"from","type":"address","indexed":true,"internalType":"address"},{"name":"to","type":"address","indexed":true,"internalType":"address"},{"name":"amount","type":"uint256","indexed":false,"internalType":"uint256"}],"anonymous":false},{"type":"event","name":"Transfer","inputs":[{"name":"from","type":"address","indexed":true,"internalType":"address"},{"name":"to","type":"address","indexed":true,"internalType":"address"},{"name":"id","type":"uint256","indexed":true,"internalType":"uint256"}],"anonymous":false},{"type":"error","name":"AlreadyExists","inputs":[]},{"type":"error","name":"DecimalsTooLow","inputs":[]},{"type":"error","name":"InsufficientAllowance","inputs":[]},{"type":"error","name":"InvalidAmount","inputs":[]},{"type":"error","name":"InvalidApproval","inputs":[]},{"type":"error","name":"InvalidExemption","inputs":[]},{"type":"error","name":"InvalidOperator","inputs":[]},{"type":"error","name":"InvalidRecipient","inputs":[]},{"type":"error","name":"InvalidSender","inputs":[]},{"type":"error","name":"InvalidSigner","inputs":[]},{"type":"error","name":"InvalidSpender","inputs":[]},{"type":"error","name":"InvalidTokenId","inputs":[]},{"type":"error","name":"MintLimitReached","inputs":[]},{"type":"error","name":"NotFound","inputs":[]},{"type":"error","name":"OwnableInvalidOwner","inputs":[{"name":"owner","type":"address","internalType":"address"}]},{"type":"error","name":"OwnableUnauthorizedAccount","inputs":[{"name":"account","type":"address","internalType":"address"}]},{"type":"error","name":"OwnedIndexOverflow","inputs":[]},{"type":"error","name":"PermitDeadlineExpired","inputs":[]},{"type":"error","name":"QueueEmpty","inputs":[]},{"type":"error","name":"QueueFull","inputs":[]},{"type":"error","name":"QueueOutOfBounds","inputs":[]},{"type":"error","name":"RecipientIsERC721TransferExempt","inputs":[]},{"type":"error","name":"Unauthorized","inputs":[]},{"type":"error","name":"UnsafeRecipient","inputs":[]}],"bytecode":{"object":"0x6101006040523480156200001257600080fd5b5060405162003b5138038062003b518339810160408190526200003591620002a1565b838383836001600160a01b0381166200006857604051631e4fbdf760e01b81526000600482015260240160405180910390fd5b6200007381620000f0565b506006620000828482620003d4565b506007620000918382620003d4565b5060128160ff161015620000b8576040516398790fd560e01b815260040160405180910390fd5b60ff81166080819052620000ce90600a620005b5565b60a0524660c052620000df62000140565b60e052506200064b95505050505050565b600080546001600160a01b038381166001600160a01b0319831681178455604051919092169283917f8be0079c531659141344cd1fd0a4f28419497f9722a3daafe3b4186f6b6457e09190a35050565b60007f8b73c3c69bb8fe3d512ecc4cf759cc79239f7b179b0ffacaa9a75d522b39400f6006604051620001749190620005cd565b6040805191829003822060208301939093528101919091527fc89efdaa54c0f20c7adf612882df0950f5a951637e0307cdcb4c672f298b8bc660608201524660808201523060a082015260c00160405160208183030381529060405280519060200120905090565b634e487b7160e01b600052604160045260246000fd5b600082601f8301126200020457600080fd5b81516001600160401b0380821115620002215762000221620001dc565b604051601f8301601f19908116603f011681019082821181831017156200024c576200024c620001dc565b816040528381526020925086838588010111156200026957600080fd5b600091505b838210156200028d57858201830151818301840152908201906200026e565b600093810190920192909252949350505050565b60008060008060808587031215620002b857600080fd5b84516001600160401b0380821115620002d057600080fd5b620002de88838901620001f2565b95506020870151915080821115620002f557600080fd5b506200030487828801620001f2565b935050604085015160ff811681146200031c57600080fd5b60608601519092506001600160a01b03811681146200033a57600080fd5b939692955090935050565b600181811c908216806200035a57607f821691505b6020821081036200037b57634e487b7160e01b600052602260045260246000fd5b50919050565b601f821115620003cf57600081815260208120601f850160051c81016020861015620003aa5750805b601f850160051c820191505b81811015620003cb57828155600101620003b6565b5050505b505050565b81516001600160401b03811115620003f057620003f0620001dc565b620004088162000401845462000345565b8462000381565b602080601f831160018114620004405760008415620004275750858301515b600019600386901b1c1916600185901b178555620003cb565b600085815260208120601f198616915b82811015620004715788860151825594840194600190910190840162000450565b5085821015620004905787850151600019600388901b60f8161c191681555b5050505050600190811b01905550565b634e487b7160e01b600052601160045260246000fd5b600181815b80851115620004f7578160001904821115620004db57620004db620004a0565b80851615620004e957918102915b93841c9390800290620004bb565b509250929050565b6000826200051057506001620005af565b816200051f57506000620005af565b8160018114620005385760028114620005435762000563565b6001915050620005af565b60ff841115620005575762000557620004a0565b50506001821b620005af565b5060208310610133831016604e8410600b841016171562000588575081810a620005af565b620005948383620004b6565b8060001904821115620005ab57620005ab620004a0565b0290505b92915050565b6000620005c660ff841683620004ff565b9392505050565b6000808354620005dd8162000345565b60018281168015620005f857600181146200060e576200063f565b60ff19841687528215158302870194506200063f565b8760005260208060002060005b85811015620006365781548a8201529084019082016200061b565b50505082870194505b50929695505050505050565b60805160a05160c05160e05161346a620006e76000396000610a1f015260006109ef0152600081816104da01528181611af301528181611b3701528181611b7901528181611bd301528181611bfd01528181611c5101528181611cfd01528181611d4a01528181611d8e01528181611db501528181611e13015281816122ab0152818161276801526128010152600061039d015261346a6000f3fe608060405234801561001057600080fd5b506004361061027f5760003560e01c806389fb4c661161015c578063c5ab3ba6116100ce578063dd63769911610087578063dd63769914610610578063dfabc03314610623578063e985e9c514610636578063f16ad51e14610664578063f2fde38b14610677578063f780bc1a1461068a57600080fd5b8063c5ab3ba614610591578063c6e672b914610599578063c87b56dd146105ac578063d505accf146105bf578063d96ca0b9146105d2578063dd62ed3e146105e557600080fd5b8063a22cb46511610120578063a22cb465146104fc578063a9059cbb1461050f578063b1ab931714610522578063b3f9ea3414610542578063b88d4fde1461056b578063ba7bd2aa1461057e57600080fd5b806389fb4c66146104a15780638a696e50146104a95780638da5cb5b146104bc57806395d89b41146104cd578063976a8435146104d557600080fd5b80633644e515116101f55780636e8f624b116101b95780636e8f624b1461041b57806370a0823114610426578063715018a6146104465780637c4ca9cc1461044e5780637df1c3d8146104615780637ecebe001461048157600080fd5b80633644e515146103d157806342842e0e146103d95780634d966072146103ec5780634f02c420146103ff5780636352211e1461040857600080fd5b8063095ea7b311610247578063095ea7b31461034e57806309674eb01461036157806309f0ef651461036957806318160ddd1461037c57806323b872dd14610385578063313ce5671461039857600080fd5b8063015bf2641461028457806301ffc9a71461029957806302519da3146102c157806306fdde03146102f8578063081812fc1461030d575b600080fd5b610297610292366004612dc6565b61069d565b005b6102ac6102a7366004612e11565b610845565b60405190151581526020015b60405180910390f35b6102ea6102cf366004612e2e565b6001600160a01b03166000908152600b602052604090205490565b6040519081526020016102b8565b61030061087c565b6040516102b89190612e99565b61033661031b366004612eac565b600d602052600090815260409020546001600160a01b031681565b6040516001600160a01b0390911681526020016102b8565b6102ac61035c366004612ec5565b61090a565b6102ea61096b565b6102ac610377366004612e2e565b61097c565b6102ea60085481565b6102ac610393366004612eef565b6109ae565b6103bf7f000000000000000000000000000000000000000000000000000000000000000081565b60405160ff90911681526020016102b8565b6102ea6109eb565b6102976103e7366004612eef565b610a41565b6102ac6103fa366004612ec5565b610a61565b6102ea60095481565b610336610416366004612eac565b610aee565b6102ea600160ff1b81565b6102ea610434366004612e2e565b600b6020526000908152604090205481565b610297610b58565b61029761045c366004612ec5565b610b6c565b61047461046f366004612eac565b610b82565b6040516102b89190612f1b565b6102ea61048f366004612e2e565b60126020526000908152604090205481565b6008546102ea565b6102976104b7366004612f81565b610c0a565b6000546001600160a01b0316610336565b610300610c17565b6102ea7f000000000000000000000000000000000000000000000000000000000000000081565b61029761050a366004612f9e565b610c24565b6102ac61051d366004612ec5565b610cb8565b610535610530366004612e2e565b610cec565b6040516102b89190612fd5565b6102ea610550366004612e2e565b6001600160a01b031660009081526010602052604090205490565b61029761057936600461302f565b610d58565b61029761058c36600461310b565b610e46565b6009546102ea565b6102976105a7366004612f9e565b610fd9565b6103006105ba366004612eac565b610feb565b6102976105cd36600461312d565b61101c565b6102ac6105e0366004612eef565b61125f565b6102ea6105f33660046131a0565b600c60209081526000928352604080842090915290825290205481565b61029761061e366004612eef565b61131f565b610297610631366004612ec5565b611455565b6102ac6106443660046131a0565b600e60209081526000928352604080842090915290825290205460ff1681565b61029761067236600461310b565b61151a565b610297610685366004612e2e565b6116d7565b61053561069836600461310b565b611712565b6000838152600f60205260409020546001600160a01b03163381146106d4576040516282b42960e81b815260040160405180910390fd5b306001600160a01b0384160361074f57336000908152600b602052604090205482111561073f5760405162461bcd60e51b8152602060048201526014602482015273496e73756666696369656e742062616c616e636560601b60448201526064015b60405180910390fd5b61074a3330846117af565b6107e6565b6040516323b872dd60e01b81523360048201523060248201526044810183905283906001600160a01b038216906323b872dd906064016020604051808303816000875af11580156107a4573d6000803e3d6000fd5b505050506040513d601f19601f820116820180604052508101906107c891906131d3565b6107e45760405162461bcd60e51b8152600401610736906131f0565b505b50600092835260026020818152604080862081518083019092526001600160a01b0395861682528183019485528054600180820183559188529290962090519190920290910180546001600160a01b0319169190931617825551910155565b60006001600160e01b0319821663caf91ff560e01b148061087657506001600160e01b031982166301ffc9a760e01b145b92915050565b6006805461088990613219565b80601f01602080910402602001604051908101604052809291908181526020018280546108b590613219565b80156109025780601f106108d757610100808354040283529160200191610902565b820191906000526020600020905b8154815290600101906020018083116108e557829003601f168201915b505050505081565b60405162461bcd60e51b815260206004820152602d60248201527f557365206572633230417070726f76652829206f72206572633732314170707260448201526c1bdd994a0a481a5b9cdd195859609a1b6064820152600090608401610736565b6000610977600461186b565b905090565b60006001600160a01b03821615806108765750506001600160a01b031660009081526011602052604090205460ff1690565b60006109b982611889565b156109ce576109c984848461131f565b6109e0565b6109d984848461125f565b90506109e4565b5060015b9392505050565b60007f00000000000000000000000000000000000000000000000000000000000000004614610a1c576109776118a2565b507f000000000000000000000000000000000000000000000000000000000000000090565b610a5c83838360405180602001604052806000815250610d58565b505050565b60006001600160a01b038316610a8a57604051635461585f60e01b815260040160405180910390fd5b336000818152600c602090815260408083206001600160a01b03881680855290835292819020869055518581529192917f8c5be1e5ebec7d5bd14f71427d1e84f3dd0314c0f7b2291e5b200ac8c7c3b925910160405180910390a350600192915050565b6000818152600f60205260409020546001600160a01b0316610b0f82611889565b610b2c576040516307ed98ed60e31b815260040160405180910390fd5b6001600160a01b038116610b535760405163c5723b5160e01b815260040160405180910390fd5b919050565b610b6061193c565b610b6a6000611969565b565b610b7461193c565b610b7e82826119b9565b5050565b606060026000838152602001908152602001600020805480602002602001604051908101604052809291908181526020016000905b82821015610bff576000848152602090819020604080518082019091526002850290910180546001600160a01b03168252600190810154828401529083529092019101610bb7565b505050509050919050565b610c143382611a1e565b50565b6007805461088990613219565b6001600160a01b038216610c4b5760405163ccea9e6f60e01b815260040160405180910390fd5b336000818152600e602090815260408083206001600160a01b03871680855290835292819020805460ff191686151590811790915590519081529192917f17307eab39ab6107e8899845ad3d59bd9653f200f220920489ca2b5937696c3191015b60405180910390a35050565b60006001600160a01b038316610ce157604051634e46966960e11b815260040160405180910390fd5b6109e4338484611a8d565b6001600160a01b038116600090815260106020908152604091829020805483518184028101840190945280845260609392830182828015610d4c57602002820191906000526020600020905b815481526020019060010190808311610d38575b50505050509050919050565b610d6182611889565b610d7e576040516307ed98ed60e31b815260040160405180910390fd5b610d898484846109ae565b506001600160a01b0383163b15801590610e225750604051630a85bd0160e11b808252906001600160a01b0385169063150b7a0290610dd2903390899088908890600401613253565b6020604051808303816000875af1158015610df1573d6000803e3d6000fd5b505050506040513d601f19601f82011682018060405250810190610e159190613290565b6001600160e01b03191614155b15610e4057604051633da6393160e01b815260040160405180910390fd5b50505050565b6000828152600f60205260409020546001600160a01b0316338114610e7d576040516282b42960e81b815260040160405180910390fd5b6000838152600260205260409020548210610ed25760405162461bcd60e51b8152602060048201526015602482015274092dcecc2d8d2c840c8cae0dee6d2e840d2dcc8caf605b1b6044820152606401610736565b6000838152600260205260408120805484908110610ef257610ef26132ad565b6000918252602090912060029091020160018101548154919250906001600160a01b0316610f208686611e49565b306001600160a01b03821603610f4057610f3b3033846117af565b610fd1565b60405163a9059cbb60e01b81523360048201526024810183905281906001600160a01b0382169063a9059cbb906044016020604051808303816000875af1158015610f8f573d6000803e3d6000fd5b505050506040513d601f19601f82011682018060405250810190610fb391906131d3565b610fcf5760405162461bcd60e51b8152600401610736906131f0565b505b505050505050565b610fe161193c565b610b7e8282611a1e565b6060610ff682611f98565b60405160200161100691906132c3565b6040516020818303038152906040529050919050565b4284101561103d576040516305787bdf60e01b815260040160405180910390fd5b61104685611889565b15611064576040516303e7c1bd60e31b815260040160405180910390fd5b6001600160a01b03861661108b57604051635461585f60e01b815260040160405180910390fd5b600060016110976109eb565b6001600160a01b038a811660008181526012602090815260409182902080546001810190915582517f6e71edae12b1b97f4d1f60370fef10105fa2faae0126114a169c64845d6126c98184015280840194909452938d166060840152608083018c905260a083019390935260c08083018b90528151808403909101815260e08301909152805192019190912061190160f01b6101008301526101028201929092526101228101919091526101420160408051601f198184030181528282528051602091820120600084529083018083525260ff871690820152606081018590526080810184905260a0016020604051602081039080840390855afa1580156111a3573d6000803e3d6000fd5b5050604051601f1901519150506001600160a01b03811615806111d85750876001600160a01b0316816001600160a01b031614155b156111f657604051632057875960e21b815260040160405180910390fd5b6001600160a01b039081166000908152600c602090815260408083208a8516808552908352928190208990555188815291928a16917f8c5be1e5ebec7d5bd14f71427d1e84f3dd0314c0f7b2291e5b200ac8c7c3b925910160405180910390a350505050505050565b60006001600160a01b03841661128857604051636edaef2f60e11b815260040160405180910390fd5b6001600160a01b0383166112af57604051634e46966960e11b815260040160405180910390fd5b6001600160a01b0384166000908152600c60209081526040808320338452909152902054600019811461130b576112e6838261331e565b6001600160a01b0386166000908152600c602090815260408083203384529091529020555b611316858585611a8d565b95945050505050565b6001600160a01b03831661134657604051636edaef2f60e11b815260040160405180910390fd5b6001600160a01b03821661136d57604051634e46966960e11b815260040160405180910390fd5b6000818152600f60205260409020546001600160a01b038481169116146113a6576040516282b42960e81b815260040160405180910390fd5b336001600160a01b038416148015906113e357506001600160a01b0383166000908152600e6020908152604080832033845290915290205460ff16155b801561140657506000818152600d60205260409020546001600160a01b03163314155b15611423576040516282b42960e81b815260040160405180910390fd5b61142c8261097c565b1561144a57604051635ce7539760e01b815260040160405180910390fd5b610a5c83838361202b565b6000818152600f60205260409020546001600160a01b03163381148015906114a157506001600160a01b0381166000908152600e6020908152604080832033845290915290205460ff16155b156114be576040516282b42960e81b815260040160405180910390fd5b6000828152600d602052604080822080546001600160a01b0319166001600160a01b0387811691821790925591518593918516917f8c5be1e5ebec7d5bd14f71427d1e84f3dd0314c0f7b2291e5b200ac8c7c3b92591a4505050565b6000828152600f60205260409020546001600160a01b031633146115725760405162461bcd60e51b815260206004820152600f60248201526e2737ba103a37b5b2b71037bbb732b960891b6044820152606401610736565b600081116115c25760405162461bcd60e51b815260206004820152601d60248201527f416d6f756e74206d7573742062652067726561746572207468616e20300000006044820152606401610736565b60008281526002602052604081205490036116375760008281526002602081815260408084208151808301909252308252818301868152815460018082018455928752939095209151929093020180546001600160a01b0319166001600160a01b03909216919091178155915191015561167c565b60008281526002602052604081208054839290611656576116566132ad565b906000526020600020906002020160010160008282546116769190613331565b90915550505b6116873330836121f1565b6116a35760405162461bcd60e51b8152600401610736906131f0565b604051818152309083907fb162210da7d23d82c18cff5af46d3562661d26b42a6848fa28d64a6bdc70386a90602001610cac565b6116df61193c565b6001600160a01b03811661170957604051631e4fbdf760e01b815260006004820152602401610736565b610c1481611969565b606060008267ffffffffffffffff81111561172f5761172f613019565b604051908082528060200260200182016040528015611758578160200160208202803683370190505b509050835b6117678486613331565b8110156117a757611779600482612206565b82611784878461331e565b81518110611794576117946132ad565b602090810291909101015260010161175d565b509392505050565b6001600160a01b0383166117da5780600860008282546117cf9190613331565b909155506118089050565b6001600160a01b0383166000908152600b60205260408120805483929061180290849061331e565b90915550505b6001600160a01b038083166000818152600b6020526040908190208054850190555190918516907fddf252ad1be2c89b69c2b068fc378daa952ba7f163c4a11628f55a4df523b3ef9061185e9085815260200190565b60405180910390a3505050565b546001600160801b03808216600160801b9092048116919091031690565b6000600160ff1b82118015610876575050600019141590565b60007f8b73c3c69bb8fe3d512ecc4cf759cc79239f7b179b0ffacaa9a75d522b39400f60066040516118d49190613344565b6040805191829003822060208301939093528101919091527fc89efdaa54c0f20c7adf612882df0950f5a951637e0307cdcb4c672f298b8bc660608201524660808201523060a082015260c00160405160208183030381529060405280519060200120905090565b6000546001600160a01b03163314610b6a5760405163118cdaa760e01b8152336004820152602401610736565b600080546001600160a01b038381166001600160a01b0319831681178455604051919092169283917f8be0079c531659141344cd1fd0a4f28419497f9722a3daafe3b4186f6b6457e09190a35050565b6001600160a01b0382166119e057604051634e46966960e11b815260040160405180910390fd5b600160ff1b816008546119f39190613331565b1115611a125760405163303b682f60e01b815260040160405180910390fd5b610a5c60008383611a8d565b6001600160a01b038216611a455760405163a41e3d3f60e01b815260040160405180910390fd5b8015611a5957611a5482612258565b611a62565b611a628261228c565b6001600160a01b03919091166000908152601160205260409020805460ff1916911515919091179055565b6001600160a01b038381166000908152600b6020526040808220549285168252812054909190611abe8686866117af565b6000611ac98761097c565b90506000611ad68761097c565b9050818015611ae25750805b611e3b578115611bae576000611b187f0000000000000000000000000000000000000000000000000000000000000000856133e3565b6001600160a01b0389166000908152600b6020526040902054611b5c907f0000000000000000000000000000000000000000000000000000000000000000906133e3565b611b66919061331e565b905060005b81811015611ba757611b9f897f0000000000000000000000000000000000000000000000000000000000000000600061231d565b600101611b6b565b5050611e3b565b8015611c4a576001600160a01b0388166000908152600b6020526040812054611bf8907f0000000000000000000000000000000000000000000000000000000000000000906133e3565b611c227f0000000000000000000000000000000000000000000000000000000000000000876133e3565b611c2c919061331e565b905060005b81811015611ba757611c428a61235e565b600101611c31565b6000611c767f0000000000000000000000000000000000000000000000000000000000000000886133e3565b905060005b81811015611cf9576001600160a01b038a16600090815260106020526040812054611ca89060019061331e565b6001600160a01b038c1660009081526010602052604081208054929350909183908110611cd757611cd76132ad565b90600052602060002001549050611cef8c8c8361202b565b5050600101611c7b565b50807f0000000000000000000000000000000000000000000000000000000000000000611d3b8b6001600160a01b03166000908152600b602052604090205490565b611d4591906133e3565b611d6f7f0000000000000000000000000000000000000000000000000000000000000000886133e3565b611d79919061331e565b1115611d8857611d888961235e565b80611db37f0000000000000000000000000000000000000000000000000000000000000000866133e3565b7f0000000000000000000000000000000000000000000000000000000000000000611df38b6001600160a01b03166000908152600b602052604090205490565b611dfd91906133e3565b611e07919061331e565b1115611e3957611e39887f0000000000000000000000000000000000000000000000000000000000000000600061231d565b505b506001979650505050505050565b6000828152600260205260409020548110611e965760405162461bcd60e51b815260206004820152600d60248201526c092dcecc2d8d2c840d2dcc8caf609b1b6044820152606401610736565b600082815260026020526040902054611eb19060019061331e565b8114611f4e5760008281526002602052604090208054611ed39060019061331e565b81548110611ee357611ee36132ad565b9060005260206000209060020201600260008481526020019081526020016000208281548110611f1557611f156132ad565b60009182526020909120825460029092020180546001600160a01b0319166001600160a01b039092169190911781556001918201549101555b6000828152600260205260409020805480611f6b57611f6b613405565b60008281526020812060026000199093019283020180546001600160a01b03191681556001015590555050565b60606000611fa5836123e8565b600101905060008167ffffffffffffffff811115611fc557611fc5613019565b6040519080825280601f01601f191660200182016040528015611fef576020820181803683370190505b5090508181016020015b600019016f181899199a1a9b1b9c1cb0b131b232b360811b600a86061a8153600a8504945084611ff957509392505050565b6120368184846124c0565b6000818152600f6020526040902080546001600160a01b0319166001600160a01b0384160190556001600160a01b03831615612151576001600160a01b038316600090815260106020526040812080546120929060019061331e565b815481106120a2576120a26132ad565b9060005260206000200154905060006120ca836000908152600f602052604090205460a01c90565b6001600160a01b038616600090815260106020526040902080549192508391839081106120f9576120f96132ad565b60009182526020808320909101929092556001600160a01b038716815260109091526040902080548061212e5761212e613405565b6001900381819060005260206000200160009055905561214e828261264d565b50505b6001600160a01b0382166000818152601060209081526040822080546001818101835582855292842001859055929091529054612199918391612194919061331e565b61264d565b6000818152600d602052604080822080546001600160a01b03191690555182916001600160a01b0385811692908716917fddf252ad1be2c89b69c2b068fc378daa952ba7f163c4a11628f55a4df523b3ef91a4505050565b60006121fe848484611a8d565b949350505050565b60006122118361186b565b82106122305760405163580821e760e01b815260040160405180910390fd5b5081546001600160801b03908116820116600090815260018301602052604090205492915050565b6001600160a01b038116600090815260106020526040812054905b81811015610a5c576122848361235e565b600101612273565b6001600160a01b0381166000908152600b60205260408120546122d0907f0000000000000000000000000000000000000000000000000000000000000000906133e3565b905060006122f3836001600160a01b031660009081526010602052604090205490565b905060005b612302828461331e565b811015610e40576123158460018061231d565b6001016122f8565b6001600160a01b03831661234457604051634e46966960e11b815260040160405180910390fd5b801561235457610a5c83836126b9565b610a5c8383612761565b6001600160a01b03811661238557604051636edaef2f60e11b815260040160405180910390fd5b6001600160a01b038116600090815260106020526040812080546123ab9060019061331e565b815481106123bb576123bb6132ad565b906000526020600020015490506123d18161297f565b6123dd8260008361202b565b610b7e6004826129e4565b60008072184f03e93ff9f4daa797ed6e38ed64bf6a1f0160401b83106124275772184f03e93ff9f4daa797ed6e38ed64bf6a1f0160401b830492506040015b6d04ee2d6d415b85acef81000000008310612453576d04ee2d6d415b85acef8100000000830492506020015b662386f26fc10000831061247157662386f26fc10000830492506010015b6305f5e1008310612489576305f5e100830492506008015b612710831061249d57612710830492506004015b606483106124af576064830492506002015b600a83106108765760010192915050565b6000838152600260205260409020548015610e405760008481526002602052604090206124ee60018361331e565b815481106124fe576124fe6132ad565b600091825260208083206002928302015487845291905260409091206001600160a01b039091169085907f3f5fbaf86658fdadee77f1d46e7f8a72424ad9839eda6a1dc6eb0a4228e4226e9061255560018661331e565b81548110612565576125656132ad565b90600052602060002090600202016001015460405161258691815260200190565b60405180910390a360008481526002602052604090206125a760018361331e565b815481106125b7576125b76132ad565b600091825260208083206002928302015487845291905260409091206001600160a01b039091169085907fb162210da7d23d82c18cff5af46d3562661d26b42a6848fa28d64a6bdc70386a9061260e60018661331e565b8154811061261e5761261e6132ad565b90600052602060002090600202016001015460405161263f91815260200190565b60405180910390a350505050565b6000828152600f60205260409020546bffffffffffffffffffffffff82111561268957604051633f2cd0e360e21b815260040160405180910390fd5b6000928352600f60205260409092206001600160a01b039290921660a09190911b6001600160a01b031916019055565b6004546001600160801b03808216600160801b909204161461275b576000806126e2600461186b565b90505b808210156127585760006126fa600484612206565b600081815260036020526040902054909150848114801561271f575061271f82612a4e565b156127445761272e6004612b08565b5061273882612b7d565b610fd16000878461202b565b8361274e8161341b565b94505050506126e5565b50505b610b7e82825b600061278d7f0000000000000000000000000000000000000000000000000000000000000000836133e3565b905060005b81811015610e405760006127ba600454600160801b81046001600160801b0390811691161490565b612917576000806127cb600461186b565b90505b80821080156127db575082155b156129145760006127ed600484612206565b6000818152600360205260409020549091507f0000000000000000000000000000000000000000000000000000000000000000148015612831575061283181612a4e565b15612901578260000361284e576128486004612b08565b506128e7565b600161285a600461186b565b612864919061331e565b8303612874576128486004612cf9565b6000612880600461186b565b9050835b61288f60018361331e565b8110156128d95760006128ae6128a6836001613331565b600490612206565b90506128ba6004612cf9565b506128c66004826129e4565b50806128d18161341b565b915050612884565b506128e46004612cf9565b50505b6128f081612b7d565b6128fc6000898361202b565b600193505b8261290b8161341b565b935050506127ce565b50505b806129765760096000815461292b9061341b565b909155506009546001016129525760405163303b682f60e01b815260040160405180910390fd5b6000600954600160ff1b6129669190613331565b90506129746000878361202b565b505b50600101612792565b60008181526002602052604090205415610c1457600081815260026020526040812080549091906129b2576129b26132ad565b6000918252602080832060029283020160010154848452600382526040808520919091559190528120610c1491612d69565b81546001600160801b038082166000190191600160801b9004811690821603612a2057604051638acb5f2760e01b815260040160405180910390fd5b6001600160801b0316600081815260018401602052604090209190915581546001600160801b031916179055565b6000818152600a602052604081205460ff161580612a785750600082815260016020526040902054155b15612a8557506001919050565b6000828152600160209081526040808320600290925282208054919290919003612ab3575060009392505050565b81600081548110612ac657612ac66132ad565b90600052602060002090600202016001015481600081548110612aeb57612aeb6132ad565b906000526020600020906002020160010154101592505050919050565b80546000906001600160801b0380821691600160801b9004168103612b40576040516375e52f4f60e01b815260040160405180910390fd5b6001600160801b038181166000908152600185810160205260408220805492905585546001600160801b0319169301909116919091179092555090565b6000818152600a602052604090205460ff168015612ba8575060008181526001602052604090205415155b15610c1457612bb681612a4e565b612c0e5760405162461bcd60e51b8152602060048201526024808201527f496e73756666696369656e74206465706f7369747320746f20726573746f72656044820152630813919560e21b6064820152608401610736565b6000818152600260205260408120612c2591612d69565b60005b600082815260016020526040902054811015612cc95760008281526002602090815260408083206001909252909120805483908110612c6957612c696132ad565b6000918252602080832084546001818101875595855291909320600292830290930180549190920290920180546001600160a01b0319166001600160a01b0390931692909217825582015491015580612cc18161341b565b915050612c28565b506000818152600160205260408120612ce191612d69565b6000908152600a60205260409020805460ff19169055565b80546000906001600160801b03600160801b8204811691168103612d30576040516375e52f4f60e01b815260040160405180910390fd5b600019016001600160801b039081166000818152600185016020526040812080549190558454909216600160801b909102179092555090565b5080546000825560020290600052602060002090810190610c1491905b80821115612dab5780546001600160a01b031916815560006001820155600201612d86565b5090565b80356001600160a01b0381168114610b5357600080fd5b600080600060608486031215612ddb57600080fd5b83359250612deb60208501612daf565b9150604084013590509250925092565b6001600160e01b031981168114610c1457600080fd5b600060208284031215612e2357600080fd5b81356109e481612dfb565b600060208284031215612e4057600080fd5b6109e482612daf565b60005b83811015612e64578181015183820152602001612e4c565b50506000910152565b60008151808452612e85816020860160208601612e49565b601f01601f19169290920160200192915050565b6020815260006109e46020830184612e6d565b600060208284031215612ebe57600080fd5b5035919050565b60008060408385031215612ed857600080fd5b612ee183612daf565b946020939093013593505050565b600080600060608486031215612f0457600080fd5b612f0d84612daf565b9250612deb60208501612daf565b602080825282518282018190526000919060409081850190868401855b82811015612f6657815180516001600160a01b03168552860151868501529284019290850190600101612f38565b5091979650505050505050565b8015158114610c1457600080fd5b600060208284031215612f9357600080fd5b81356109e481612f73565b60008060408385031215612fb157600080fd5b612fba83612daf565b91506020830135612fca81612f73565b809150509250929050565b6020808252825182820181905260009190848201906040850190845b8181101561300d57835183529284019291840191600101612ff1565b50909695505050505050565b634e487b7160e01b600052604160045260246000fd5b6000806000806080858703121561304557600080fd5b61304e85612daf565b935061305c60208601612daf565b925060408501359150606085013567ffffffffffffffff8082111561308057600080fd5b818701915087601f83011261309457600080fd5b8135818111156130a6576130a6613019565b604051601f8201601f19908116603f011681019083821181831017156130ce576130ce613019565b816040528281528a60208487010111156130e757600080fd5b82602086016020830137600060208483010152809550505050505092959194509250565b6000806040838503121561311e57600080fd5b50508035926020909101359150565b600080600080600080600060e0888a03121561314857600080fd5b61315188612daf565b965061315f60208901612daf565b95506040880135945060608801359350608088013560ff8116811461318357600080fd5b9699959850939692959460a0840135945060c09093013592915050565b600080604083850312156131b357600080fd5b6131bc83612daf565b91506131ca60208401612daf565b90509250929050565b6000602082840312156131e557600080fd5b81516109e481612f73565b6020808252600f908201526e151c985b9cd9995c8819985a5b1959608a1b604082015260600190565b600181811c9082168061322d57607f821691505b60208210810361324d57634e487b7160e01b600052602260045260246000fd5b50919050565b6001600160a01b038581168252841660208201526040810183905260806060820181905260009061328690830184612e6d565b9695505050505050565b6000602082840312156132a257600080fd5b81516109e481612dfb565b634e487b7160e01b600052603260045260246000fd5b7f68747470733a2f2f6578616d706c652e636f6d2f746f6b656e2f0000000000008152600082516132fb81601a850160208701612e49565b91909101601a0192915050565b634e487b7160e01b600052601160045260246000fd5b8181038181111561087657610876613308565b8082018082111561087657610876613308565b600080835481600182811c91508083168061336057607f831692505b6020808410820361337f57634e487b7160e01b86526022600452602486fd5b81801561339357600181146133a8576133d5565b60ff19861689528415158502890196506133d5565b60008a81526020902060005b868110156133cd5781548b8201529085019083016133b4565b505084890196505b509498975050505050505050565b60008261340057634e487b7160e01b600052601260045260246000fd5b500490565b634e487b7160e01b600052603160045260246000fd5b60006001820161342d5761342d613308565b506001019056fea2646970667358221220c9a9b1ffc95e71315f177f69a738ef0b774a9628ac5a63cd6e04e37e4544d86764736f6c63430008140033","linkReferences":{}},"methodIdentifiers":{"DOMAIN_SEPARATOR()":"3644e515","ID_ENCODING_PREFIX()":"6e8f624b","allowance(address,address)":"dd62ed3e","approve(address,uint256)":"095ea7b3","balanceOf(address)":"70a08231","decimals()":"313ce567","depositTokens(uint256,address,uint256)":"015bf264","depositTokens(uint256,uint256)":"f16ad51e","erc20Approve(address,uint256)":"4d966072","erc20BalanceOf(address)":"02519da3","erc20TotalSupply()":"89fb4c66","erc20TransferFrom(address,address,uint256)":"d96ca0b9","erc721Approve(address,uint256)":"dfabc033","erc721BalanceOf(address)":"b3f9ea34","erc721TotalSupply()":"c5ab3ba6","erc721TransferExempt(address)":"09f0ef65","erc721TransferFrom(address,address,uint256)":"dd637699","getApproved(uint256)":"081812fc","getERC721QueueLength()":"09674eb0","getERC721TokensInQueue(uint256,uint256)":"f780bc1a","getTokenDeposits(uint256)":"7df1c3d8","isApprovedForAll(address,address)":"e985e9c5","mintERC20(address,uint256)":"7c4ca9cc","minted()":"4f02c420","name()":"06fdde03","nonces(address)":"7ecebe00","owned(address)":"b1ab9317","owner()":"8da5cb5b","ownerOf(uint256)":"6352211e","permit(address,address,uint256,uint256,uint8,bytes32,bytes32)":"d505accf","renounceOwnership()":"715018a6","safeTransferFrom(address,address,uint256)":"42842e0e","safeTransferFrom(address,address,uint256,bytes)":"b88d4fde","setApprovalForAll(address,bool)":"a22cb465","setERC721TransferExempt(address,bool)":"c6e672b9","setSelfERC721TransferExempt(bool)":"8a696e50","supportsInterface(bytes4)":"01ffc9a7","symbol()":"95d89b41","tokenURI(uint256)":"c87b56dd","totalSupply()":"18160ddd","transfer(address,uint256)":"a9059cbb","transferFrom(address,address,uint256)":"23b872dd","transferOwnership(address)":"f2fde38b","units()":"976a8435","withdrawTokens(uint256,uint256)":"ba7bd2aa"},"id":11}