{"abi":[{"type":"constructor","inputs":[{"name":"name_","type":"string","internalType":"string"},{"name":"symbol_","type":"string","internalType":"string"},{"name":"decimals_","type":"uint8","internalType":"uint8"},{"name":"initialOwner_","type":"address","internalType":"address"}],"stateMutability":"nonpayable"},{"type":"function","name":"DOMAIN_SEPARATOR","inputs":[],"outputs":[{"name":"","type":"bytes32","internalType":"bytes32"}],"stateMutability":"view"},{"type":"function","name":"ID_ENCODING_PREFIX","inputs":[],"outputs":[{"name":"","type":"uint256","internalType":"uint256"}],"stateMutability":"view"},{"type":"function","name":"_tokenDeposits","inputs":[{"name":"","type":"uint256","internalType":"uint256"},{"name":"","type":"uint256","internalType":"uint256"}],"outputs":[{"name":"tokenAddress","type":"address","internalType":"address"},{"name":"amount","type":"uint256","internalType":"uint256"}],"stateMutability":"view"},{"type":"function","name":"allowance","inputs":[{"name":"","type":"address","internalType":"address"},{"name":"","type":"address","internalType":"address"}],"outputs":[{"name":"","type":"uint256","internalType":"uint256"}],"stateMutability":"view"},{"type":"function","name":"approve","inputs":[{"name":"spender_","type":"address","internalType":"address"},{"name":"value_","type":"uint256","internalType":"uint256"}],"outputs":[{"name":"","type":"bool","internalType":"bool"}],"stateMutability":"nonpayable"},{"type":"function","name":"balanceOf","inputs":[{"name":"","type":"address","internalType":"address"}],"outputs":[{"name":"","type":"uint256","internalType":"uint256"}],"stateMutability":"view"},{"type":"function","name":"decimals","inputs":[],"outputs":[{"name":"","type":"uint8","internalType":"uint8"}],"stateMutability":"view"},{"type":"function","name":"depositTokens","inputs":[{"name":"tokenId_","type":"uint256","internalType":"uint256"},{"name":"tokenAddress_","type":"address","internalType":"address"},{"name":"amount_","type":"uint256","internalType":"uint256"}],"outputs":[],"stateMutability":"nonpayable"},{"type":"function","name":"depositTokens","inputs":[{"name":"tokenId_","type":"uint256","internalType":"uint256"},{"name":"amount_","type":"uint256","internalType":"uint256"}],"outputs":[],"stateMutability":"nonpayable"},{"type":"function","name":"erc20BalanceOf","inputs":[{"name":"owner_","type":"address","internalType":"address"}],"outputs":[{"name":"","type":"uint256","internalType":"uint256"}],"stateMutability":"view"},{"type":"function","name":"erc20TotalSupply","inputs":[],"outputs":[{"name":"","type":"uint256","internalType":"uint256"}],"stateMutability":"view"},{"type":"function","name":"erc20TransferFrom","inputs":[{"name":"from_","type":"address","internalType":"address"},{"name":"to_","type":"address","internalType":"address"},{"name":"value_","type":"uint256","internalType":"uint256"}],"outputs":[{"name":"","type":"bool","internalType":"bool"}],"stateMutability":"nonpayable"},{"type":"function","name":"erc721Approve","inputs":[{"name":"spender_","type":"address","internalType":"address"},{"name":"id_","type":"uint256","internalType":"uint256"}],"outputs":[],"stateMutability":"nonpayable"},{"type":"function","name":"erc721BalanceOf","inputs":[{"name":"owner_","type":"address","internalType":"address"}],"outputs":[{"name":"","type":"uint256","internalType":"uint256"}],"stateMutability":"view"},{"type":"function","name":"erc721TotalSupply","inputs":[],"outputs":[{"name":"","type":"uint256","internalType":"uint256"}],"stateMutability":"view"},{"type":"function","name":"erc721TransferExempt","inputs":[{"name":"target_","type":"address","internalType":"address"}],"outputs":[{"name":"","type":"bool","internalType":"bool"}],"stateMutability":"view"},{"type":"function","name":"erc721TransferFrom","inputs":[{"name":"from_","type":"address","internalType":"address"},{"name":"to_","type":"address","internalType":"address"},{"name":"id_","type":"uint256","internalType":"uint256"}],"outputs":[],"stateMutability":"nonpayable"},{"type":"function","name":"getApproved","inputs":[{"name":"","type":"uint256","internalType":"uint256"}],"outputs":[{"name":"","type":"address","internalType":"address"}],"stateMutability":"view"},{"type":"function","name":"getERC721QueueLength","inputs":[],"outputs":[{"name":"","type":"uint256","internalType":"uint256"}],"stateMutability":"view"},{"type":"function","name":"getERC721TokensInQueue","inputs":[{"name":"start_","type":"uint256","internalType":"uint256"},{"name":"count_","type":"uint256","internalType":"uint256"}],"outputs":[{"name":"","type":"uint256[]","internalType":"uint256[]"}],"stateMutability":"view"},{"type":"function","name":"getTokenDeposits","inputs":[{"name":"tokenId_","type":"uint256","internalType":"uint256"}],"outputs":[{"name":"","type":"tuple[]","internalType":"struct ERC404Deposits.TokenDeposit[]","components":[{"name":"tokenAddress","type":"address","internalType":"address"},{"name":"amount","type":"uint256","internalType":"uint256"}]}],"stateMutability":"view"},{"type":"function","name":"isApprovedForAll","inputs":[{"name":"","type":"address","internalType":"address"},{"name":"","type":"address","internalType":"address"}],"outputs":[{"name":"","type":"bool","internalType":"bool"}],"stateMutability":"view"},{"type":"function","name":"mintERC20","inputs":[{"name":"account_","type":"address","internalType":"address"},{"name":"value_","type":"uint256","internalType":"uint256"}],"outputs":[],"stateMutability":"nonpayable"},{"type":"function","name":"minted","inputs":[],"outputs":[{"name":"","type":"uint256","internalType":"uint256"}],"stateMutability":"view"},{"type":"function","name":"name","inputs":[],"outputs":[{"name":"","type":"string","internalType":"string"}],"stateMutability":"view"},{"type":"function","name":"nonces","inputs":[{"name":"","type":"address","internalType":"address"}],"outputs":[{"name":"","type":"uint256","internalType":"uint256"}],"stateMutability":"view"},{"type":"function","name":"owned","inputs":[{"name":"owner_","type":"address","internalType":"address"}],"outputs":[{"name":"","type":"uint256[]","internalType":"uint256[]"}],"stateMutability":"view"},{"type":"function","name":"owner","inputs":[],"outputs":[{"name":"","type":"address","internalType":"address"}],"stateMutability":"view"},{"type":"function","name":"ownerOf","inputs":[{"name":"id_","type":"uint256","internalType":"uint256"}],"outputs":[{"name":"erc721Owner","type":"address","internalType":"address"}],"stateMutability":"view"},{"type":"function","name":"permit","inputs":[{"name":"owner_","type":"address","internalType":"address"},{"name":"spender_","type":"address","internalType":"address"},{"name":"value_","type":"uint256","internalType":"uint256"},{"name":"deadline_","type":"uint256","internalType":"uint256"},{"name":"v_","type":"uint8","internalType":"uint8"},{"name":"r_","type":"bytes32","internalType":"bytes32"},{"name":"s_","type":"bytes32","internalType":"bytes32"}],"outputs":[],"stateMutability":"nonpayable"},{"type":"function","name":"renounceOwnership","inputs":[],"outputs":[],"stateMutability":"nonpayable"},{"type":"function","name":"safeTransferFrom","inputs":[{"name":"from_","type":"address","internalType":"address"},{"name":"to_","type":"address","internalType":"address"},{"name":"id_","type":"uint256","internalType":"uint256"}],"outputs":[],"stateMutability":"nonpayable"},{"type":"function","name":"safeTransferFrom","inputs":[{"name":"from_","type":"address","internalType":"address"},{"name":"to_","type":"address","internalType":"address"},{"name":"id_","type":"uint256","internalType":"uint256"},{"name":"data_","type":"bytes","internalType":"bytes"}],"outputs":[],"stateMutability":"nonpayable"},{"type":"function","name":"setApprovalForAll","inputs":[{"name":"operator_","type":"address","internalType":"address"},{"name":"approved_","type":"bool","internalType":"bool"}],"outputs":[],"stateMutability":"nonpayable"},{"type":"function","name":"setERC721TransferExempt","inputs":[{"name":"account_","type":"address","internalType":"address"},{"name":"value_","type":"bool","internalType":"bool"}],"outputs":[],"stateMutability":"nonpayable"},{"type":"function","name":"setSelfERC721TransferExempt","inputs":[{"name":"state_","type":"bool","internalType":"bool"}],"outputs":[],"stateMutability":"nonpayable"},{"type":"function","name":"supportsInterface","inputs":[{"name":"interfaceId","type":"bytes4","internalType":"bytes4"}],"outputs":[{"name":"","type":"bool","internalType":"bool"}],"stateMutability":"view"},{"type":"function","name":"symbol","inputs":[],"outputs":[{"name":"","type":"string","internalType":"string"}],"stateMutability":"view"},{"type":"function","name":"tokenURI","inputs":[{"name":"id_","type":"uint256","internalType":"uint256"}],"outputs":[{"name":"","type":"string","internalType":"string"}],"stateMutability":"pure"},{"type":"function","name":"totalSupply","inputs":[],"outputs":[{"name":"","type":"uint256","internalType":"uint256"}],"stateMutability":"view"},{"type":"function","name":"transfer","inputs":[{"name":"to_","type":"address","internalType":"address"},{"name":"value_","type":"uint256","internalType":"uint256"}],"outputs":[{"name":"","type":"bool","internalType":"bool"}],"stateMutability":"nonpayable"},{"type":"function","name":"transferFrom","inputs":[{"name":"from_","type":"address","internalType":"address"},{"name":"to_","type":"address","internalType":"address"},{"name":"valueOrId_","type":"uint256","internalType":"uint256"}],"outputs":[{"name":"","type":"bool","internalType":"bool"}],"stateMutability":"nonpayable"},{"type":"function","name":"transferOwnership","inputs":[{"name":"newOwner","type":"address","internalType":"address"}],"outputs":[],"stateMutability":"nonpayable"},{"type":"function","name":"units","inputs":[],"outputs":[{"name":"","type":"uint256","internalType":"uint256"}],"stateMutability":"view"},{"type":"function","name":"withdrawTokens","inputs":[{"name":"tokenId_","type":"uint256","internalType":"uint256"},{"name":"depositIndex_","type":"uint256","internalType":"uint256"}],"outputs":[],"stateMutability":"nonpayable"},{"type":"event","name":"Approval","inputs":[{"name":"owner","type":"address","indexed":true,"internalType":"address"},{"name":"spender","type":"address","indexed":true,"internalType":"address"},{"name":"value","type":"uint256","indexed":false,"internalType":"uint256"}],"anonymous":false},{"type":"event","name":"Approval","inputs":[{"name":"owner","type":"address","indexed":true,"internalType":"address"},{"name":"spender","type":"address","indexed":true,"internalType":"address"},{"name":"id","type":"uint256","indexed":true,"internalType":"uint256"}],"anonymous":false},{"type":"event","name":"ApprovalForAll","inputs":[{"name":"owner","type":"address","indexed":true,"internalType":"address"},{"name":"operator","type":"address","indexed":true,"internalType":"address"},{"name":"approved","type":"bool","indexed":false,"internalType":"bool"}],"anonymous":false},{"type":"event","name":"OwnershipTransferred","inputs":[{"name":"previousOwner","type":"address","indexed":true,"internalType":"address"},{"name":"newOwner","type":"address","indexed":true,"internalType":"address"}],"anonymous":false},{"type":"event","name":"TokensDeposited","inputs":[{"name":"tokenId","type":"uint256","indexed":true,"internalType":"uint256"},{"name":"tokenAddress","type":"address","indexed":true,"internalType":"address"},{"name":"amount","type":"uint256","indexed":false,"internalType":"uint256"}],"anonymous":false},{"type":"event","name":"TokensWithdrawn","inputs":[{"name":"tokenId","type":"uint256","indexed":true,"internalType":"uint256"},{"name":"tokenAddress","type":"address","indexed":true,"internalType":"address"},{"name":"amount","type":"uint256","indexed":false,"internalType":"uint256"}],"anonymous":false},{"type":"event","name":"Transfer","inputs":[{"name":"from","type":"address","indexed":true,"internalType":"address"},{"name":"to","type":"address","indexed":true,"internalType":"address"},{"name":"amount","type":"uint256","indexed":false,"internalType":"uint256"}],"anonymous":false},{"type":"event","name":"Transfer","inputs":[{"name":"from","type":"address","indexed":true,"internalType":"address"},{"name":"to","type":"address","indexed":true,"internalType":"address"},{"name":"id","type":"uint256","indexed":true,"internalType":"uint256"}],"anonymous":false},{"type":"error","name":"AlreadyExists","inputs":[]},{"type":"error","name":"DecimalsTooLow","inputs":[]},{"type":"error","name":"InsufficientAllowance","inputs":[]},{"type":"error","name":"InvalidAmount","inputs":[]},{"type":"error","name":"InvalidApproval","inputs":[]},{"type":"error","name":"InvalidExemption","inputs":[]},{"type":"error","name":"InvalidOperator","inputs":[]},{"type":"error","name":"InvalidRecipient","inputs":[]},{"type":"error","name":"InvalidSender","inputs":[]},{"type":"error","name":"InvalidSigner","inputs":[]},{"type":"error","name":"InvalidSpender","inputs":[]},{"type":"error","name":"InvalidTokenId","inputs":[]},{"type":"error","name":"MintLimitReached","inputs":[]},{"type":"error","name":"NotFound","inputs":[]},{"type":"error","name":"OwnableInvalidOwner","inputs":[{"name":"owner","type":"address","internalType":"address"}]},{"type":"error","name":"OwnableUnauthorizedAccount","inputs":[{"name":"account","type":"address","internalType":"address"}]},{"type":"error","name":"OwnedIndexOverflow","inputs":[]},{"type":"error","name":"PermitDeadlineExpired","inputs":[]},{"type":"error","name":"QueueEmpty","inputs":[]},{"type":"error","name":"QueueFull","inputs":[]},{"type":"error","name":"QueueOutOfBounds","inputs":[]},{"type":"error","name":"RecipientIsERC721TransferExempt","inputs":[]},{"type":"error","name":"Unauthorized","inputs":[]},{"type":"error","name":"UnsafeRecipient","inputs":[]}],"bytecode":{"object":"0x6101006040523480156200001257600080fd5b50604051620039f3380380620039f38339810160408190526200003591620002a1565b838383836001600160a01b0381166200006857604051631e4fbdf760e01b81526000600482015260240160405180910390fd5b6200007381620000f0565b506006620000828482620003d4565b506007620000918382620003d4565b5060128160ff161015620000b8576040516398790fd560e01b815260040160405180910390fd5b60ff81166080819052620000ce90600a620005b5565b60a0524660c052620000df62000140565b60e052506200064b95505050505050565b600080546001600160a01b038381166001600160a01b0319831681178455604051919092169283917f8be0079c531659141344cd1fd0a4f28419497f9722a3daafe3b4186f6b6457e09190a35050565b60007f8b73c3c69bb8fe3d512ecc4cf759cc79239f7b179b0ffacaa9a75d522b39400f6006604051620001749190620005cd565b6040805191829003822060208301939093528101919091527fc89efdaa54c0f20c7adf612882df0950f5a951637e0307cdcb4c672f298b8bc660608201524660808201523060a082015260c00160405160208183030381529060405280519060200120905090565b634e487b7160e01b600052604160045260246000fd5b600082601f8301126200020457600080fd5b81516001600160401b0380821115620002215762000221620001dc565b604051601f8301601f19908116603f011681019082821181831017156200024c576200024c620001dc565b816040528381526020925086838588010111156200026957600080fd5b600091505b838210156200028d57858201830151818301840152908201906200026e565b600093810190920192909252949350505050565b60008060008060808587031215620002b857600080fd5b84516001600160401b0380821115620002d057600080fd5b620002de88838901620001f2565b95506020870151915080821115620002f557600080fd5b506200030487828801620001f2565b935050604085015160ff811681146200031c57600080fd5b60608601519092506001600160a01b03811681146200033a57600080fd5b939692955090935050565b600181811c908216806200035a57607f821691505b6020821081036200037b57634e487b7160e01b600052602260045260246000fd5b50919050565b601f821115620003cf57600081815260208120601f850160051c81016020861015620003aa5750805b601f850160051c820191505b81811015620003cb57828155600101620003b6565b5050505b505050565b81516001600160401b03811115620003f057620003f0620001dc565b620004088162000401845462000345565b8462000381565b602080601f831160018114620004405760008415620004275750858301515b600019600386901b1c1916600185901b178555620003cb565b600085815260208120601f198616915b82811015620004715788860151825594840194600190910190840162000450565b5085821015620004905787850151600019600388901b60f8161c191681555b5050505050600190811b01905550565b634e487b7160e01b600052601160045260246000fd5b600181815b80851115620004f7578160001904821115620004db57620004db620004a0565b80851615620004e957918102915b93841c9390800290620004bb565b509250929050565b6000826200051057506001620005af565b816200051f57506000620005af565b8160018114620005385760028114620005435762000563565b6001915050620005af565b60ff841115620005575762000557620004a0565b50506001821b620005af565b5060208310610133831016604e8410600b841016171562000588575081810a620005af565b620005948383620004b6565b8060001904821115620005ab57620005ab620004a0565b0290505b92915050565b6000620005c660ff841683620004ff565b9392505050565b6000808354620005dd8162000345565b60018281168015620005f857600181146200060e576200063f565b60ff19841687528215158302870194506200063f565b8760005260208060002060005b85811015620006365781548a8201529084019082016200061b565b50505082870194505b50929695505050505050565b60805160a05160c05160e05161332f620006c46000396000610a6a01526000610a3a0152600081816104c701528181611af701528181611b3b01528181611b7d01528181611bd701528181611c0101528181611c55015281816121700152818161262d01526126c60152600061039d015261332f6000f3fe608060405234801561001057600080fd5b506004361061027f5760003560e01c80638a696e501161015c578063c5ab3ba6116100ce578063dd63769911610087578063dd6376991461062f578063dfabc03314610642578063e985e9c514610655578063f16ad51e14610683578063f2fde38b14610696578063f780bc1a146106a957600080fd5b8063c5ab3ba6146105b0578063c6e672b9146105b8578063c87b56dd146105cb578063d505accf146105de578063d96ca0b9146105f1578063dd62ed3e1461060457600080fd5b8063a9059cbb11610120578063a9059cbb146104fc578063b1ab93171461050f578063b3f9ea341461052f578063b810217b14610558578063b88d4fde1461058a578063ba7bd2aa1461059d57600080fd5b80638a696e50146104965780638da5cb5b146104a957806395d89b41146104ba578063976a8435146104c2578063a22cb465146104e957600080fd5b80633644e515116101f557806370a08231116101b957806370a0823114610413578063715018a6146104335780637c4ca9cc1461043b5780637df1c3d81461044e5780637ecebe001461046e57806389fb4c661461048e57600080fd5b80633644e515146103d157806342842e0e146103d95780634f02c420146103ec5780636352211e146103f55780636e8f624b1461040857600080fd5b8063095ea7b311610247578063095ea7b31461034e57806309674eb01461036157806309f0ef651461036957806318160ddd1461037c57806323b872dd14610385578063313ce5671461039857600080fd5b8063015bf2641461028457806301ffc9a71461029957806302519da3146102c157806306fdde03146102f8578063081812fc1461030d575b600080fd5b610297610292366004612c8b565b6106bc565b005b6102ac6102a7366004612cd6565b610864565b60405190151581526020015b60405180910390f35b6102ea6102cf366004612cf3565b6001600160a01b03166000908152600b602052604090205490565b6040519081526020016102b8565b61030061089b565b6040516102b89190612d5e565b61033661031b366004612d71565b600d602052600090815260409020546001600160a01b031681565b6040516001600160a01b0390911681526020016102b8565b6102ac61035c366004612d8a565b610929565b6102ea6109b6565b6102ac610377366004612cf3565b6109c7565b6102ea60085481565b6102ac610393366004612db4565b6109f9565b6103bf7f000000000000000000000000000000000000000000000000000000000000000081565b60405160ff90911681526020016102b8565b6102ea610a36565b6102976103e7366004612db4565b610a8c565b6102ea60095481565b610336610403366004612d71565b610aac565b6102ea600160ff1b81565b6102ea610421366004612cf3565b600b6020526000908152604090205481565b610297610b16565b610297610449366004612d8a565b610b2a565b61046161045c366004612d71565b610b40565b6040516102b89190612de0565b6102ea61047c366004612cf3565b60126020526000908152604090205481565b6008546102ea565b6102976104a4366004612e46565b610bc8565b6000546001600160a01b0316610336565b610300610bd5565b6102ea7f000000000000000000000000000000000000000000000000000000000000000081565b6102976104f7366004612e63565b610be2565b6102ac61050a366004612d8a565b610c76565b61052261051d366004612cf3565b610caa565b6040516102b89190612e9a565b6102ea61053d366004612cf3565b6001600160a01b031660009081526010602052604090205490565b61056b610566366004612ede565b610d16565b604080516001600160a01b0390931683526020830191909152016102b8565b610297610598366004612f16565b610d5c565b6102976105ab366004612ede565b610e4a565b6009546102ea565b6102976105c6366004612e63565b610fdd565b6103006105d9366004612d71565b610fef565b6102976105ec366004612ff2565b611020565b6102ac6105ff366004612db4565b611263565b6102ea610612366004613065565b600c60209081526000928352604080842090915290825290205481565b61029761063d366004612db4565b611323565b610297610650366004612d8a565b611459565b6102ac610663366004613065565b600e60209081526000928352604080842090915290825290205460ff1681565b610297610691366004612ede565b61151e565b6102976106a4366004612cf3565b6116db565b6105226106b7366004612ede565b611716565b6000838152600f60205260409020546001600160a01b03163381146106f3576040516282b42960e81b815260040160405180910390fd5b306001600160a01b0384160361076e57336000908152600b602052604090205482111561075e5760405162461bcd60e51b8152602060048201526014602482015273496e73756666696369656e742062616c616e636560601b60448201526064015b60405180910390fd5b6107693330846117b3565b610805565b6040516323b872dd60e01b81523360048201523060248201526044810183905283906001600160a01b038216906323b872dd906064016020604051808303816000875af11580156107c3573d6000803e3d6000fd5b505050506040513d601f19601f820116820180604052508101906107e79190613098565b6108035760405162461bcd60e51b8152600401610755906130b5565b505b50600092835260026020818152604080862081518083019092526001600160a01b0395861682528183019485528054600180820183559188529290962090519190920290910180546001600160a01b0319169190931617825551910155565b60006001600160e01b0319821663876f7f8760e01b148061089557506001600160e01b031982166301ffc9a760e01b145b92915050565b600680546108a8906130de565b80601f01602080910402602001604051908101604052809291908181526020018280546108d4906130de565b80156109215780601f106108f657610100808354040283529160200191610921565b820191906000526020600020905b81548152906001019060200180831161090457829003601f168201915b505050505081565b60006001600160a01b03831661095257604051635461585f60e01b815260040160405180910390fd5b336000818152600c602090815260408083206001600160a01b03881680855290835292819020869055518581529192917f8c5be1e5ebec7d5bd14f71427d1e84f3dd0314c0f7b2291e5b200ac8c7c3b925910160405180910390a350600192915050565b60006109c2600461186f565b905090565b60006001600160a01b03821615806108955750506001600160a01b031660009081526011602052604090205460ff1690565b6000610a048261188d565b15610a1957610a14848484611323565b610a2b565b610a24848484611263565b9050610a2f565b5060015b9392505050565b60007f00000000000000000000000000000000000000000000000000000000000000004614610a67576109c26118a6565b507f000000000000000000000000000000000000000000000000000000000000000090565b610aa783838360405180602001604052806000815250610d5c565b505050565b6000818152600f60205260409020546001600160a01b0316610acd8261188d565b610aea576040516307ed98ed60e31b815260040160405180910390fd5b6001600160a01b038116610b115760405163c5723b5160e01b815260040160405180910390fd5b919050565b610b1e611940565b610b28600061196d565b565b610b32611940565b610b3c82826119bd565b5050565b606060026000838152602001908152602001600020805480602002602001604051908101604052809291908181526020016000905b82821015610bbd576000848152602090819020604080518082019091526002850290910180546001600160a01b03168252600190810154828401529083529092019101610b75565b505050509050919050565b610bd23382611a22565b50565b600780546108a8906130de565b6001600160a01b038216610c095760405163ccea9e6f60e01b815260040160405180910390fd5b336000818152600e602090815260408083206001600160a01b03871680855290835292819020805460ff191686151590811790915590519081529192917f17307eab39ab6107e8899845ad3d59bd9653f200f220920489ca2b5937696c3191015b60405180910390a35050565b60006001600160a01b038316610c9f57604051634e46966960e11b815260040160405180910390fd5b610a2f338484611a91565b6001600160a01b038116600090815260106020908152604091829020805483518184028101840190945280845260609392830182828015610d0a57602002820191906000526020600020905b815481526020019060010190808311610cf6575b50505050509050919050565b60026020528160005260406000208181548110610d3257600080fd5b6000918252602090912060029091020180546001909101546001600160a01b039091169250905082565b610d658261188d565b610d82576040516307ed98ed60e31b815260040160405180910390fd5b610d8d8484846109f9565b506001600160a01b0383163b15801590610e265750604051630a85bd0160e11b808252906001600160a01b0385169063150b7a0290610dd6903390899088908890600401613118565b6020604051808303816000875af1158015610df5573d6000803e3d6000fd5b505050506040513d601f19601f82011682018060405250810190610e199190613155565b6001600160e01b03191614155b15610e4457604051633da6393160e01b815260040160405180910390fd5b50505050565b6000828152600f60205260409020546001600160a01b0316338114610e81576040516282b42960e81b815260040160405180910390fd5b6000838152600260205260409020548210610ed65760405162461bcd60e51b8152602060048201526015602482015274092dcecc2d8d2c840c8cae0dee6d2e840d2dcc8caf605b1b6044820152606401610755565b6000838152600260205260408120805484908110610ef657610ef6613172565b6000918252602090912060029091020160018101548154919250906001600160a01b0316610f248686611d0e565b306001600160a01b03821603610f4457610f3f3033846117b3565b610fd5565b60405163a9059cbb60e01b81523360048201526024810183905281906001600160a01b0382169063a9059cbb906044016020604051808303816000875af1158015610f93573d6000803e3d6000fd5b505050506040513d601f19601f82011682018060405250810190610fb79190613098565b610fd35760405162461bcd60e51b8152600401610755906130b5565b505b505050505050565b610fe5611940565b610b3c8282611a22565b6060610ffa82611e5d565b60405160200161100a9190613188565b6040516020818303038152906040529050919050565b42841015611041576040516305787bdf60e01b815260040160405180910390fd5b61104a8561188d565b15611068576040516303e7c1bd60e31b815260040160405180910390fd5b6001600160a01b03861661108f57604051635461585f60e01b815260040160405180910390fd5b6000600161109b610a36565b6001600160a01b038a811660008181526012602090815260409182902080546001810190915582517f6e71edae12b1b97f4d1f60370fef10105fa2faae0126114a169c64845d6126c98184015280840194909452938d166060840152608083018c905260a083019390935260c08083018b90528151808403909101815260e08301909152805192019190912061190160f01b6101008301526101028201929092526101228101919091526101420160408051601f198184030181528282528051602091820120600084529083018083525260ff871690820152606081018590526080810184905260a0016020604051602081039080840390855afa1580156111a7573d6000803e3d6000fd5b5050604051601f1901519150506001600160a01b03811615806111dc5750876001600160a01b0316816001600160a01b031614155b156111fa57604051632057875960e21b815260040160405180910390fd5b6001600160a01b039081166000908152600c602090815260408083208a8516808552908352928190208990555188815291928a16917f8c5be1e5ebec7d5bd14f71427d1e84f3dd0314c0f7b2291e5b200ac8c7c3b925910160405180910390a350505050505050565b60006001600160a01b03841661128c57604051636edaef2f60e11b815260040160405180910390fd5b6001600160a01b0383166112b357604051634e46966960e11b815260040160405180910390fd5b6001600160a01b0384166000908152600c60209081526040808320338452909152902054600019811461130f576112ea83826131e3565b6001600160a01b0386166000908152600c602090815260408083203384529091529020555b61131a858585611a91565b95945050505050565b6001600160a01b03831661134a57604051636edaef2f60e11b815260040160405180910390fd5b6001600160a01b03821661137157604051634e46966960e11b815260040160405180910390fd5b6000818152600f60205260409020546001600160a01b038481169116146113aa576040516282b42960e81b815260040160405180910390fd5b336001600160a01b038416148015906113e757506001600160a01b0383166000908152600e6020908152604080832033845290915290205460ff16155b801561140a57506000818152600d60205260409020546001600160a01b03163314155b15611427576040516282b42960e81b815260040160405180910390fd5b611430826109c7565b1561144e57604051635ce7539760e01b815260040160405180910390fd5b610aa7838383611ef0565b6000818152600f60205260409020546001600160a01b03163381148015906114a557506001600160a01b0381166000908152600e6020908152604080832033845290915290205460ff16155b156114c2576040516282b42960e81b815260040160405180910390fd5b6000828152600d602052604080822080546001600160a01b0319166001600160a01b0387811691821790925591518593918516917f8c5be1e5ebec7d5bd14f71427d1e84f3dd0314c0f7b2291e5b200ac8c7c3b92591a4505050565b6000828152600f60205260409020546001600160a01b031633146115765760405162461bcd60e51b815260206004820152600f60248201526e2737ba103a37b5b2b71037bbb732b960891b6044820152606401610755565b600081116115c65760405162461bcd60e51b815260206004820152601d60248201527f416d6f756e74206d7573742062652067726561746572207468616e20300000006044820152606401610755565b600082815260026020526040812054900361163b5760008281526002602081815260408084208151808301909252308252818301868152815460018082018455928752939095209151929093020180546001600160a01b0319166001600160a01b039092169190911781559151910155611680565b6000828152600260205260408120805483929061165a5761165a613172565b9060005260206000209060020201600101600082825461167a91906131f6565b90915550505b61168b3330836120b6565b6116a75760405162461bcd60e51b8152600401610755906130b5565b604051818152309083907fb162210da7d23d82c18cff5af46d3562661d26b42a6848fa28d64a6bdc70386a90602001610c6a565b6116e3611940565b6001600160a01b03811661170d57604051631e4fbdf760e01b815260006004820152602401610755565b610bd28161196d565b606060008267ffffffffffffffff81111561173357611733612f00565b60405190808252806020026020018201604052801561175c578160200160208202803683370190505b509050835b61176b84866131f6565b8110156117ab5761177d6004826120cb565b8261178887846131e3565b8151811061179857611798613172565b6020908102919091010152600101611761565b509392505050565b6001600160a01b0383166117de5780600860008282546117d391906131f6565b9091555061180c9050565b6001600160a01b0383166000908152600b6020526040812080548392906118069084906131e3565b90915550505b6001600160a01b038083166000818152600b6020526040908190208054850190555190918516907fddf252ad1be2c89b69c2b068fc378daa952ba7f163c4a11628f55a4df523b3ef906118629085815260200190565b60405180910390a3505050565b546001600160801b03808216600160801b9092048116919091031690565b6000600160ff1b82118015610895575050600019141590565b60007f8b73c3c69bb8fe3d512ecc4cf759cc79239f7b179b0ffacaa9a75d522b39400f60066040516118d89190613209565b6040805191829003822060208301939093528101919091527fc89efdaa54c0f20c7adf612882df0950f5a951637e0307cdcb4c672f298b8bc660608201524660808201523060a082015260c00160405160208183030381529060405280519060200120905090565b6000546001600160a01b03163314610b285760405163118cdaa760e01b8152336004820152602401610755565b600080546001600160a01b038381166001600160a01b0319831681178455604051919092169283917f8be0079c531659141344cd1fd0a4f28419497f9722a3daafe3b4186f6b6457e09190a35050565b6001600160a01b0382166119e457604051634e46966960e11b815260040160405180910390fd5b600160ff1b816008546119f791906131f6565b1115611a165760405163303b682f60e01b815260040160405180910390fd5b610aa760008383611a91565b6001600160a01b038216611a495760405163a41e3d3f60e01b815260040160405180910390fd5b8015611a5d57611a588261211d565b611a66565b611a6682612151565b6001600160a01b03919091166000908152601160205260409020805460ff1916911515919091179055565b6001600160a01b038381166000908152600b6020526040808220549285168252812054909190611ac28686866117b3565b6000611acd876109c7565b90506000611ada876109c7565b9050818015611ae65750805b611d00578115611bb2576000611b1c7f0000000000000000000000000000000000000000000000000000000000000000856132a8565b6001600160a01b0389166000908152600b6020526040902054611b60907f0000000000000000000000000000000000000000000000000000000000000000906132a8565b611b6a91906131e3565b905060005b81811015611bab57611ba3897f000000000000000000000000000000000000000000000000000000000000000060006121e2565b600101611b6f565b5050611d00565b8015611c4e576001600160a01b0388166000908152600b6020526040812054611bfc907f0000000000000000000000000000000000000000000000000000000000000000906132a8565b611c267f0000000000000000000000000000000000000000000000000000000000000000876132a8565b611c3091906131e3565b905060005b81811015611bab57611c468a612223565b600101611c35565b6000611c7a7f0000000000000000000000000000000000000000000000000000000000000000886132a8565b905060005b81811015611cfd576001600160a01b038a16600090815260106020526040812054611cac906001906131e3565b6001600160a01b038c1660009081526010602052604081208054929350909183908110611cdb57611cdb613172565b90600052602060002001549050611cf38c8c83611ef0565b5050600101611c7f565b50505b506001979650505050505050565b6000828152600260205260409020548110611d5b5760405162461bcd60e51b815260206004820152600d60248201526c092dcecc2d8d2c840d2dcc8caf609b1b6044820152606401610755565b600082815260026020526040902054611d76906001906131e3565b8114611e135760008281526002602052604090208054611d98906001906131e3565b81548110611da857611da8613172565b9060005260206000209060020201600260008481526020019081526020016000208281548110611dda57611dda613172565b60009182526020909120825460029092020180546001600160a01b0319166001600160a01b039092169190911781556001918201549101555b6000828152600260205260409020805480611e3057611e306132ca565b60008281526020812060026000199093019283020180546001600160a01b03191681556001015590555050565b60606000611e6a836122ad565b600101905060008167ffffffffffffffff811115611e8a57611e8a612f00565b6040519080825280601f01601f191660200182016040528015611eb4576020820181803683370190505b5090508181016020015b600019016f181899199a1a9b1b9c1cb0b131b232b360811b600a86061a8153600a8504945084611ebe57509392505050565b611efb818484612385565b6000818152600f6020526040902080546001600160a01b0319166001600160a01b0384160190556001600160a01b03831615612016576001600160a01b03831660009081526010602052604081208054611f57906001906131e3565b81548110611f6757611f67613172565b906000526020600020015490506000611f8f836000908152600f602052604090205460a01c90565b6001600160a01b03861660009081526010602052604090208054919250839183908110611fbe57611fbe613172565b60009182526020808320909101929092556001600160a01b0387168152601090915260409020805480611ff357611ff36132ca565b600190038181906000526020600020016000905590556120138282612512565b50505b6001600160a01b038216600081815260106020908152604082208054600181810183558285529284200185905592909152905461205e91839161205991906131e3565b612512565b6000818152600d602052604080822080546001600160a01b03191690555182916001600160a01b0385811692908716917fddf252ad1be2c89b69c2b068fc378daa952ba7f163c4a11628f55a4df523b3ef91a4505050565b60006120c3848484611a91565b949350505050565b60006120d68361186f565b82106120f55760405163580821e760e01b815260040160405180910390fd5b5081546001600160801b03908116820116600090815260018301602052604090205492915050565b6001600160a01b038116600090815260106020526040812054905b81811015610aa75761214983612223565b600101612138565b6001600160a01b0381166000908152600b6020526040812054612195907f0000000000000000000000000000000000000000000000000000000000000000906132a8565b905060006121b8836001600160a01b031660009081526010602052604090205490565b905060005b6121c782846131e3565b811015610e44576121da846001806121e2565b6001016121bd565b6001600160a01b03831661220957604051634e46966960e11b815260040160405180910390fd5b801561221957610aa7838361257e565b610aa78383612626565b6001600160a01b03811661224a57604051636edaef2f60e11b815260040160405180910390fd5b6001600160a01b03811660009081526010602052604081208054612270906001906131e3565b8154811061228057612280613172565b9060005260206000200154905061229681612844565b6122a282600083611ef0565b610b3c6004826128a9565b60008072184f03e93ff9f4daa797ed6e38ed64bf6a1f0160401b83106122ec5772184f03e93ff9f4daa797ed6e38ed64bf6a1f0160401b830492506040015b6d04ee2d6d415b85acef81000000008310612318576d04ee2d6d415b85acef8100000000830492506020015b662386f26fc10000831061233657662386f26fc10000830492506010015b6305f5e100831061234e576305f5e100830492506008015b612710831061236257612710830492506004015b60648310612374576064830492506002015b600a83106108955760010192915050565b6000838152600260205260409020548015610e445760008481526002602052604090206123b36001836131e3565b815481106123c3576123c3613172565b600091825260208083206002928302015487845291905260409091206001600160a01b039091169085907f3f5fbaf86658fdadee77f1d46e7f8a72424ad9839eda6a1dc6eb0a4228e4226e9061241a6001866131e3565b8154811061242a5761242a613172565b90600052602060002090600202016001015460405161244b91815260200190565b60405180910390a3600084815260026020526040902061246c6001836131e3565b8154811061247c5761247c613172565b600091825260208083206002928302015487845291905260409091206001600160a01b039091169085907fb162210da7d23d82c18cff5af46d3562661d26b42a6848fa28d64a6bdc70386a906124d36001866131e3565b815481106124e3576124e3613172565b90600052602060002090600202016001015460405161250491815260200190565b60405180910390a350505050565b6000828152600f60205260409020546bffffffffffffffffffffffff82111561254e57604051633f2cd0e360e21b815260040160405180910390fd5b6000928352600f60205260409092206001600160a01b039290921660a09190911b6001600160a01b031916019055565b6004546001600160801b03808216600160801b9092041614612620576000806125a7600461186f565b90505b8082101561261d5760006125bf6004846120cb565b60008181526003602052604090205490915084811480156125e457506125e482612913565b15612609576125f360046129cd565b506125fd82612a42565b610fd560008784611ef0565b83612613816132e0565b94505050506125aa565b50505b610b3c82825b60006126527f0000000000000000000000000000000000000000000000000000000000000000836132a8565b905060005b81811015610e4457600061267f600454600160801b81046001600160801b0390811691161490565b6127dc57600080612690600461186f565b90505b80821080156126a0575082155b156127d95760006126b26004846120cb565b6000818152600360205260409020549091507f00000000000000000000000000000000000000000000000000000000000000001480156126f657506126f681612913565b156127c657826000036127135761270d60046129cd565b506127ac565b600161271f600461186f565b61272991906131e3565b83036127395761270d6004612bbe565b6000612745600461186f565b9050835b6127546001836131e3565b81101561279e57600061277361276b8360016131f6565b6004906120cb565b905061277f6004612bbe565b5061278b6004826128a9565b5080612796816132e0565b915050612749565b506127a96004612bbe565b50505b6127b581612a42565b6127c160008983611ef0565b600193505b826127d0816132e0565b93505050612693565b50505b8061283b576009600081546127f0906132e0565b909155506009546001016128175760405163303b682f60e01b815260040160405180910390fd5b6000600954600160ff1b61282b91906131f6565b905061283960008783611ef0565b505b50600101612657565b60008181526002602052604090205415610bd2576000818152600260205260408120805490919061287757612877613172565b6000918252602080832060029283020160010154848452600382526040808520919091559190528120610bd291612c2e565b81546001600160801b038082166000190191600160801b90048116908216036128e557604051638acb5f2760e01b815260040160405180910390fd5b6001600160801b0316600081815260018401602052604090209190915581546001600160801b031916179055565b6000818152600a602052604081205460ff16158061293d5750600082815260016020526040902054155b1561294a57506001919050565b6000828152600160209081526040808320600290925282208054919290919003612978575060009392505050565b8160008154811061298b5761298b613172565b906000526020600020906002020160010154816000815481106129b0576129b0613172565b906000526020600020906002020160010154101592505050919050565b80546000906001600160801b0380821691600160801b9004168103612a05576040516375e52f4f60e01b815260040160405180910390fd5b6001600160801b038181166000908152600185810160205260408220805492905585546001600160801b0319169301909116919091179092555090565b6000818152600a602052604090205460ff168015612a6d575060008181526001602052604090205415155b15610bd257612a7b81612913565b612ad35760405162461bcd60e51b8152602060048201526024808201527f496e73756666696369656e74206465706f7369747320746f20726573746f72656044820152630813919560e21b6064820152608401610755565b6000818152600260205260408120612aea91612c2e565b60005b600082815260016020526040902054811015612b8e5760008281526002602090815260408083206001909252909120805483908110612b2e57612b2e613172565b6000918252602080832084546001818101875595855291909320600292830290930180549190920290920180546001600160a01b0319166001600160a01b0390931692909217825582015491015580612b86816132e0565b915050612aed565b506000818152600160205260408120612ba691612c2e565b6000908152600a60205260409020805460ff19169055565b80546000906001600160801b03600160801b8204811691168103612bf5576040516375e52f4f60e01b815260040160405180910390fd5b600019016001600160801b039081166000818152600185016020526040812080549190558454909216600160801b909102179092555090565b5080546000825560020290600052602060002090810190610bd291905b80821115612c705780546001600160a01b031916815560006001820155600201612c4b565b5090565b80356001600160a01b0381168114610b1157600080fd5b600080600060608486031215612ca057600080fd5b83359250612cb060208501612c74565b9150604084013590509250925092565b6001600160e01b031981168114610bd257600080fd5b600060208284031215612ce857600080fd5b8135610a2f81612cc0565b600060208284031215612d0557600080fd5b610a2f82612c74565b60005b83811015612d29578181015183820152602001612d11565b50506000910152565b60008151808452612d4a816020860160208601612d0e565b601f01601f19169290920160200192915050565b602081526000610a2f6020830184612d32565b600060208284031215612d8357600080fd5b5035919050565b60008060408385031215612d9d57600080fd5b612da683612c74565b946020939093013593505050565b600080600060608486031215612dc957600080fd5b612dd284612c74565b9250612cb060208501612c74565b602080825282518282018190526000919060409081850190868401855b82811015612e2b57815180516001600160a01b03168552860151868501529284019290850190600101612dfd565b5091979650505050505050565b8015158114610bd257600080fd5b600060208284031215612e5857600080fd5b8135610a2f81612e38565b60008060408385031215612e7657600080fd5b612e7f83612c74565b91506020830135612e8f81612e38565b809150509250929050565b6020808252825182820181905260009190848201906040850190845b81811015612ed257835183529284019291840191600101612eb6565b50909695505050505050565b60008060408385031215612ef157600080fd5b50508035926020909101359150565b634e487b7160e01b600052604160045260246000fd5b60008060008060808587031215612f2c57600080fd5b612f3585612c74565b9350612f4360208601612c74565b925060408501359150606085013567ffffffffffffffff80821115612f6757600080fd5b818701915087601f830112612f7b57600080fd5b813581811115612f8d57612f8d612f00565b604051601f8201601f19908116603f01168101908382118183101715612fb557612fb5612f00565b816040528281528a6020848701011115612fce57600080fd5b82602086016020830137600060208483010152809550505050505092959194509250565b600080600080600080600060e0888a03121561300d57600080fd5b61301688612c74565b965061302460208901612c74565b95506040880135945060608801359350608088013560ff8116811461304857600080fd5b9699959850939692959460a0840135945060c09093013592915050565b6000806040838503121561307857600080fd5b61308183612c74565b915061308f60208401612c74565b90509250929050565b6000602082840312156130aa57600080fd5b8151610a2f81612e38565b6020808252600f908201526e151c985b9cd9995c8819985a5b1959608a1b604082015260600190565b600181811c908216806130f257607f821691505b60208210810361311257634e487b7160e01b600052602260045260246000fd5b50919050565b6001600160a01b038581168252841660208201526040810183905260806060820181905260009061314b90830184612d32565b9695505050505050565b60006020828403121561316757600080fd5b8151610a2f81612cc0565b634e487b7160e01b600052603260045260246000fd5b7f68747470733a2f2f6578616d706c652e636f6d2f746f6b656e2f0000000000008152600082516131c081601a850160208701612d0e565b91909101601a0192915050565b634e487b7160e01b600052601160045260246000fd5b81810381811115610895576108956131cd565b80820180821115610895576108956131cd565b600080835481600182811c91508083168061322557607f831692505b6020808410820361324457634e487b7160e01b86526022600452602486fd5b818015613258576001811461326d5761329a565b60ff198616895284151585028901965061329a565b60008a81526020902060005b868110156132925781548b820152908501908301613279565b505084890196505b509498975050505050505050565b6000826132c557634e487b7160e01b600052601260045260246000fd5b500490565b634e487b7160e01b600052603160045260246000fd5b6000600182016132f2576132f26131cd565b506001019056fea264697066735822122080e33066e994c02812dadcd164c31063d67c93c1f2657802d8b1347f305dbc4364736f6c63430008140033","linkReferences":{}},"methodIdentifiers":{"DOMAIN_SEPARATOR()":"3644e515","ID_ENCODING_PREFIX()":"6e8f624b","_tokenDeposits(uint256,uint256)":"b810217b","allowance(address,address)":"dd62ed3e","approve(address,uint256)":"095ea7b3","balanceOf(address)":"70a08231","decimals()":"313ce567","depositTokens(uint256,address,uint256)":"015bf264","depositTokens(uint256,uint256)":"f16ad51e","erc20BalanceOf(address)":"02519da3","erc20TotalSupply()":"89fb4c66","erc20TransferFrom(address,address,uint256)":"d96ca0b9","erc721Approve(address,uint256)":"dfabc033","erc721BalanceOf(address)":"b3f9ea34","erc721TotalSupply()":"c5ab3ba6","erc721TransferExempt(address)":"09f0ef65","erc721TransferFrom(address,address,uint256)":"dd637699","getApproved(uint256)":"081812fc","getERC721QueueLength()":"09674eb0","getERC721TokensInQueue(uint256,uint256)":"f780bc1a","getTokenDeposits(uint256)":"7df1c3d8","isApprovedForAll(address,address)":"e985e9c5","mintERC20(address,uint256)":"7c4ca9cc","minted()":"4f02c420","name()":"06fdde03","nonces(address)":"7ecebe00","owned(address)":"b1ab9317","owner()":"8da5cb5b","ownerOf(uint256)":"6352211e","permit(address,address,uint256,uint256,uint8,bytes32,bytes32)":"d505accf","renounceOwnership()":"715018a6","safeTransferFrom(address,address,uint256)":"42842e0e","safeTransferFrom(address,address,uint256,bytes)":"b88d4fde","setApprovalForAll(address,bool)":"a22cb465","setERC721TransferExempt(address,bool)":"c6e672b9","setSelfERC721TransferExempt(bool)":"8a696e50","supportsInterface(bytes4)":"01ffc9a7","symbol()":"95d89b41","tokenURI(uint256)":"c87b56dd","totalSupply()":"18160ddd","transfer(address,uint256)":"a9059cbb","transferFrom(address,address,uint256)":"23b872dd","transferOwnership(address)":"f2fde38b","units()":"976a8435","withdrawTokens(uint256,uint256)":"ba7bd2aa"},"id":11}