{"abi":[{"type":"constructor","inputs":[{"name":"name_","type":"string","internalType":"string"},{"name":"symbol_","type":"string","internalType":"string"},{"name":"decimals_","type":"uint8","internalType":"uint8"},{"name":"initialOwner_","type":"address","internalType":"address"}],"stateMutability":"nonpayable"},{"type":"function","name":"DOMAIN_SEPARATOR","inputs":[],"outputs":[{"name":"","type":"bytes32","internalType":"bytes32"}],"stateMutability":"view"},{"type":"function","name":"ID_ENCODING_PREFIX","inputs":[],"outputs":[{"name":"","type":"uint256","internalType":"uint256"}],"stateMutability":"view"},{"type":"function","name":"_tokenDeposits","inputs":[{"name":"","type":"uint256","internalType":"uint256"},{"name":"","type":"uint256","internalType":"uint256"}],"outputs":[{"name":"tokenAddress","type":"address","internalType":"address"},{"name":"amount","type":"uint256","internalType":"uint256"}],"stateMutability":"view"},{"type":"function","name":"allowance","inputs":[{"name":"","type":"address","internalType":"address"},{"name":"","type":"address","internalType":"address"}],"outputs":[{"name":"","type":"uint256","internalType":"uint256"}],"stateMutability":"view"},{"type":"function","name":"approve","inputs":[{"name":"spender_","type":"address","internalType":"address"},{"name":"value_","type":"uint256","internalType":"uint256"}],"outputs":[{"name":"","type":"bool","internalType":"bool"}],"stateMutability":"nonpayable"},{"type":"function","name":"balanceOf","inputs":[{"name":"","type":"address","internalType":"address"}],"outputs":[{"name":"","type":"uint256","internalType":"uint256"}],"stateMutability":"view"},{"type":"function","name":"decimals","inputs":[],"outputs":[{"name":"","type":"uint8","internalType":"uint8"}],"stateMutability":"view"},{"type":"function","name":"depositTokens","inputs":[{"name":"tokenId_","type":"uint256","internalType":"uint256"},{"name":"tokenAddress_","type":"address","internalType":"address"},{"name":"amount_","type":"uint256","internalType":"uint256"}],"outputs":[],"stateMutability":"nonpayable"},{"type":"function","name":"depositTokens","inputs":[{"name":"tokenId_","type":"uint256","internalType":"uint256"},{"name":"amount_","type":"uint256","internalType":"uint256"}],"outputs":[],"stateMutability":"nonpayable"},{"type":"function","name":"erc20BalanceOf","inputs":[{"name":"owner_","type":"address","internalType":"address"}],"outputs":[{"name":"","type":"uint256","internalType":"uint256"}],"stateMutability":"view"},{"type":"function","name":"erc20TotalSupply","inputs":[],"outputs":[{"name":"","type":"uint256","internalType":"uint256"}],"stateMutability":"view"},{"type":"function","name":"erc20TransferFrom","inputs":[{"name":"from_","type":"address","internalType":"address"},{"name":"to_","type":"address","internalType":"address"},{"name":"value_","type":"uint256","internalType":"uint256"}],"outputs":[{"name":"","type":"bool","internalType":"bool"}],"stateMutability":"nonpayable"},{"type":"function","name":"erc721Approve","inputs":[{"name":"spender_","type":"address","internalType":"address"},{"name":"id_","type":"uint256","internalType":"uint256"}],"outputs":[],"stateMutability":"nonpayable"},{"type":"function","name":"erc721BalanceOf","inputs":[{"name":"owner_","type":"address","internalType":"address"}],"outputs":[{"name":"","type":"uint256","internalType":"uint256"}],"stateMutability":"view"},{"type":"function","name":"erc721TotalSupply","inputs":[],"outputs":[{"name":"","type":"uint256","internalType":"uint256"}],"stateMutability":"view"},{"type":"function","name":"erc721TransferExempt","inputs":[{"name":"target_","type":"address","internalType":"address"}],"outputs":[{"name":"","type":"bool","internalType":"bool"}],"stateMutability":"view"},{"type":"function","name":"erc721TransferFrom","inputs":[{"name":"from_","type":"address","internalType":"address"},{"name":"to_","type":"address","internalType":"address"},{"name":"id_","type":"uint256","internalType":"uint256"}],"outputs":[],"stateMutability":"nonpayable"},{"type":"function","name":"getApproved","inputs":[{"name":"","type":"uint256","internalType":"uint256"}],"outputs":[{"name":"","type":"address","internalType":"address"}],"stateMutability":"view"},{"type":"function","name":"getERC721QueueLength","inputs":[],"outputs":[{"name":"","type":"uint256","internalType":"uint256"}],"stateMutability":"view"},{"type":"function","name":"getERC721TokensInQueue","inputs":[{"name":"start_","type":"uint256","internalType":"uint256"},{"name":"count_","type":"uint256","internalType":"uint256"}],"outputs":[{"name":"","type":"uint256[]","internalType":"uint256[]"}],"stateMutability":"view"},{"type":"function","name":"getTokenDeposits","inputs":[{"name":"tokenId_","type":"uint256","internalType":"uint256"}],"outputs":[{"name":"","type":"tuple[]","internalType":"struct ERC404Deposits.TokenDeposit[]","components":[{"name":"tokenAddress","type":"address","internalType":"address"},{"name":"amount","type":"uint256","internalType":"uint256"}]}],"stateMutability":"view"},{"type":"function","name":"isApprovedForAll","inputs":[{"name":"","type":"address","internalType":"address"},{"name":"","type":"address","internalType":"address"}],"outputs":[{"name":"","type":"bool","internalType":"bool"}],"stateMutability":"view"},{"type":"function","name":"mintERC20","inputs":[{"name":"account_","type":"address","internalType":"address"},{"name":"value_","type":"uint256","internalType":"uint256"}],"outputs":[],"stateMutability":"nonpayable"},{"type":"function","name":"minted","inputs":[],"outputs":[{"name":"","type":"uint256","internalType":"uint256"}],"stateMutability":"view"},{"type":"function","name":"name","inputs":[],"outputs":[{"name":"","type":"string","internalType":"string"}],"stateMutability":"view"},{"type":"function","name":"nonces","inputs":[{"name":"","type":"address","internalType":"address"}],"outputs":[{"name":"","type":"uint256","internalType":"uint256"}],"stateMutability":"view"},{"type":"function","name":"owned","inputs":[{"name":"owner_","type":"address","internalType":"address"}],"outputs":[{"name":"","type":"uint256[]","internalType":"uint256[]"}],"stateMutability":"view"},{"type":"function","name":"owner","inputs":[],"outputs":[{"name":"","type":"address","internalType":"address"}],"stateMutability":"view"},{"type":"function","name":"ownerOf","inputs":[{"name":"id_","type":"uint256","internalType":"uint256"}],"outputs":[{"name":"erc721Owner","type":"address","internalType":"address"}],"stateMutability":"view"},{"type":"function","name":"permit","inputs":[{"name":"owner_","type":"address","internalType":"address"},{"name":"spender_","type":"address","internalType":"address"},{"name":"value_","type":"uint256","internalType":"uint256"},{"name":"deadline_","type":"uint256","internalType":"uint256"},{"name":"v_","type":"uint8","internalType":"uint8"},{"name":"r_","type":"bytes32","internalType":"bytes32"},{"name":"s_","type":"bytes32","internalType":"bytes32"}],"outputs":[],"stateMutability":"nonpayable"},{"type":"function","name":"renounceOwnership","inputs":[],"outputs":[],"stateMutability":"nonpayable"},{"type":"function","name":"safeTransferFrom","inputs":[{"name":"from_","type":"address","internalType":"address"},{"name":"to_","type":"address","internalType":"address"},{"name":"id_","type":"uint256","internalType":"uint256"}],"outputs":[],"stateMutability":"nonpayable"},{"type":"function","name":"safeTransferFrom","inputs":[{"name":"from_","type":"address","internalType":"address"},{"name":"to_","type":"address","internalType":"address"},{"name":"id_","type":"uint256","internalType":"uint256"},{"name":"data_","type":"bytes","internalType":"bytes"}],"outputs":[],"stateMutability":"nonpayable"},{"type":"function","name":"setApprovalForAll","inputs":[{"name":"operator_","type":"address","internalType":"address"},{"name":"approved_","type":"bool","internalType":"bool"}],"outputs":[],"stateMutability":"nonpayable"},{"type":"function","name":"setERC721TransferExempt","inputs":[{"name":"account_","type":"address","internalType":"address"},{"name":"value_","type":"bool","internalType":"bool"}],"outputs":[],"stateMutability":"nonpayable"},{"type":"function","name":"setSelfERC721TransferExempt","inputs":[{"name":"state_","type":"bool","internalType":"bool"}],"outputs":[],"stateMutability":"nonpayable"},{"type":"function","name":"supportsInterface","inputs":[{"name":"interfaceId","type":"bytes4","internalType":"bytes4"}],"outputs":[{"name":"","type":"bool","internalType":"bool"}],"stateMutability":"view"},{"type":"function","name":"symbol","inputs":[],"outputs":[{"name":"","type":"string","internalType":"string"}],"stateMutability":"view"},{"type":"function","name":"tokenURI","inputs":[{"name":"id_","type":"uint256","internalType":"uint256"}],"outputs":[{"name":"","type":"string","internalType":"string"}],"stateMutability":"pure"},{"type":"function","name":"totalSupply","inputs":[],"outputs":[{"name":"","type":"uint256","internalType":"uint256"}],"stateMutability":"view"},{"type":"function","name":"transfer","inputs":[{"name":"to_","type":"address","internalType":"address"},{"name":"value_","type":"uint256","internalType":"uint256"}],"outputs":[{"name":"","type":"bool","internalType":"bool"}],"stateMutability":"nonpayable"},{"type":"function","name":"transferFrom","inputs":[{"name":"from_","type":"address","internalType":"address"},{"name":"to_","type":"address","internalType":"address"},{"name":"valueOrId_","type":"uint256","internalType":"uint256"}],"outputs":[{"name":"","type":"bool","internalType":"bool"}],"stateMutability":"nonpayable"},{"type":"function","name":"transferOwnership","inputs":[{"name":"newOwner","type":"address","internalType":"address"}],"outputs":[],"stateMutability":"nonpayable"},{"type":"function","name":"trygetmorevalue","inputs":[{"name":"amountin","type":"uint256","internalType":"uint256"}],"outputs":[],"stateMutability":"nonpayable"},{"type":"function","name":"units","inputs":[],"outputs":[{"name":"","type":"uint256","internalType":"uint256"}],"stateMutability":"view"},{"type":"function","name":"withdrawTokens","inputs":[{"name":"tokenId_","type":"uint256","internalType":"uint256"}],"outputs":[],"stateMutability":"nonpayable"},{"type":"event","name":"Approval","inputs":[{"name":"owner","type":"address","indexed":true,"internalType":"address"},{"name":"spender","type":"address","indexed":true,"internalType":"address"},{"name":"value","type":"uint256","indexed":false,"internalType":"uint256"}],"anonymous":false},{"type":"event","name":"Approval","inputs":[{"name":"owner","type":"address","indexed":true,"internalType":"address"},{"name":"spender","type":"address","indexed":true,"internalType":"address"},{"name":"id","type":"uint256","indexed":true,"internalType":"uint256"}],"anonymous":false},{"type":"event","name":"ApprovalForAll","inputs":[{"name":"owner","type":"address","indexed":true,"internalType":"address"},{"name":"operator","type":"address","indexed":true,"internalType":"address"},{"name":"approved","type":"bool","indexed":false,"internalType":"bool"}],"anonymous":false},{"type":"event","name":"OwnershipTransferred","inputs":[{"name":"previousOwner","type":"address","indexed":true,"internalType":"address"},{"name":"newOwner","type":"address","indexed":true,"internalType":"address"}],"anonymous":false},{"type":"event","name":"TokensDeposited","inputs":[{"name":"tokenId","type":"uint256","indexed":true,"internalType":"uint256"},{"name":"tokenAddress","type":"address","indexed":true,"internalType":"address"},{"name":"amount","type":"uint256","indexed":false,"internalType":"uint256"}],"anonymous":false},{"type":"event","name":"TokensWithdrawn","inputs":[{"name":"tokenId","type":"uint256","indexed":true,"internalType":"uint256"},{"name":"tokenAddress","type":"address","indexed":true,"internalType":"address"},{"name":"amount","type":"uint256","indexed":false,"internalType":"uint256"}],"anonymous":false},{"type":"event","name":"Transfer","inputs":[{"name":"from","type":"address","indexed":true,"internalType":"address"},{"name":"to","type":"address","indexed":true,"internalType":"address"},{"name":"amount","type":"uint256","indexed":false,"internalType":"uint256"}],"anonymous":false},{"type":"event","name":"Transfer","inputs":[{"name":"from","type":"address","indexed":true,"internalType":"address"},{"name":"to","type":"address","indexed":true,"internalType":"address"},{"name":"id","type":"uint256","indexed":true,"internalType":"uint256"}],"anonymous":false},{"type":"error","name":"AlreadyExists","inputs":[]},{"type":"error","name":"DecimalsTooLow","inputs":[]},{"type":"error","name":"InsufficientAllowance","inputs":[]},{"type":"error","name":"InvalidAmount","inputs":[]},{"type":"error","name":"InvalidApproval","inputs":[]},{"type":"error","name":"InvalidExemption","inputs":[]},{"type":"error","name":"InvalidOperator","inputs":[]},{"type":"error","name":"InvalidRecipient","inputs":[]},{"type":"error","name":"InvalidSender","inputs":[]},{"type":"error","name":"InvalidSigner","inputs":[]},{"type":"error","name":"InvalidSpender","inputs":[]},{"type":"error","name":"InvalidTokenId","inputs":[]},{"type":"error","name":"MintLimitReached","inputs":[]},{"type":"error","name":"NotFound","inputs":[]},{"type":"error","name":"OwnedIndexOverflow","inputs":[]},{"type":"error","name":"PermitDeadlineExpired","inputs":[]},{"type":"error","name":"QueueEmpty","inputs":[]},{"type":"error","name":"QueueFull","inputs":[]},{"type":"error","name":"QueueOutOfBounds","inputs":[]},{"type":"error","name":"RecipientIsERC721TransferExempt","inputs":[]},{"type":"error","name":"Unauthorized","inputs":[]},{"type":"error","name":"UnsafeRecipient","inputs":[]}],"bytecode":{"object":"0x6101006040523480156200001257600080fd5b50604051620037e3380380620037e3833981016040819052620000359162000270565b8383836200004333620000bf565b6006620000518482620003a3565b506007620000608382620003a3565b5060128160ff16101562000087576040516398790fd560e01b815260040160405180910390fd5b60ff811660808190526200009d90600a62000584565b60a0524660c052620000ae6200010f565b60e052506200061a95505050505050565b600080546001600160a01b038381166001600160a01b0319831681178455604051919092169283917f8be0079c531659141344cd1fd0a4f28419497f9722a3daafe3b4186f6b6457e09190a35050565b60007f8b73c3c69bb8fe3d512ecc4cf759cc79239f7b179b0ffacaa9a75d522b39400f60066040516200014391906200059c565b6040805191829003822060208301939093528101919091527fc89efdaa54c0f20c7adf612882df0950f5a951637e0307cdcb4c672f298b8bc660608201524660808201523060a082015260c00160405160208183030381529060405280519060200120905090565b634e487b7160e01b600052604160045260246000fd5b600082601f830112620001d357600080fd5b81516001600160401b0380821115620001f057620001f0620001ab565b604051601f8301601f19908116603f011681019082821181831017156200021b576200021b620001ab565b816040528381526020925086838588010111156200023857600080fd5b600091505b838210156200025c57858201830151818301840152908201906200023d565b600093810190920192909252949350505050565b600080600080608085870312156200028757600080fd5b84516001600160401b03808211156200029f57600080fd5b620002ad88838901620001c1565b95506020870151915080821115620002c457600080fd5b50620002d387828801620001c1565b935050604085015160ff81168114620002eb57600080fd5b60608601519092506001600160a01b03811681146200030957600080fd5b939692955090935050565b600181811c908216806200032957607f821691505b6020821081036200034a57634e487b7160e01b600052602260045260246000fd5b50919050565b601f8211156200039e57600081815260208120601f850160051c81016020861015620003795750805b601f850160051c820191505b818110156200039a5782815560010162000385565b5050505b505050565b81516001600160401b03811115620003bf57620003bf620001ab565b620003d781620003d0845462000314565b8462000350565b602080601f8311600181146200040f5760008415620003f65750858301515b600019600386901b1c1916600185901b1785556200039a565b600085815260208120601f198616915b8281101562000440578886015182559484019460019091019084016200041f565b50858210156200045f5787850151600019600388901b60f8161c191681555b5050505050600190811b01905550565b634e487b7160e01b600052601160045260246000fd5b600181815b80851115620004c6578160001904821115620004aa57620004aa6200046f565b80851615620004b857918102915b93841c93908002906200048a565b509250929050565b600082620004df575060016200057e565b81620004ee575060006200057e565b8160018114620005075760028114620005125762000532565b60019150506200057e565b60ff8411156200052657620005266200046f565b50506001821b6200057e565b5060208310610133831016604e8410600b841016171562000557575081810a6200057e565b62000563838362000485565b80600019048211156200057a576200057a6200046f565b0290505b92915050565b60006200059560ff841683620004ce565b9392505050565b6000808354620005ac8162000314565b60018281168015620005c75760018114620005dd576200060e565b60ff19841687528215158302870194506200060e565b8760005260208060002060005b85811015620006055781548a820152908401908201620005ea565b50505082870194505b50929695505050505050565b60805160a05160c05160e051613142620006a16000396000610c3001526000610c000152600081816104f8015281816116f10152818161173501528181611777015281816117d1015281816117fb0152818161184f01528181612231015281816122ca0152818161245b01528181612516015261257a015260006103a801526131426000f3fe608060405234801561001057600080fd5b506004361061028a5760003560e01c806389fb4c661161015c578063c5ab3ba6116100ce578063dd63769911610087578063dd6376991461064d578063dfabc03314610660578063e985e9c514610673578063f16ad51e146106a1578063f2fde38b146106b4578063f780bc1a146106c757600080fd5b8063c5ab3ba6146105ce578063c6e672b9146105d6578063c87b56dd146105e9578063d505accf146105fc578063d96ca0b91461060f578063dd62ed3e1461062257600080fd5b8063a22cb46511610120578063a22cb4651461051a578063a9059cbb1461052d578063b1ab931714610540578063b3f9ea3414610560578063b810217b14610589578063b88d4fde146105bb57600080fd5b806389fb4c66146104bf5780638a696e50146104c75780638da5cb5b146104da57806395d89b41146104eb578063976a8435146104f357600080fd5b8063315a095d116102005780636e8f624b116101b95780636e8f624b1461043957806370a0823114610444578063715018a6146104645780637c4ca9cc1461046c5780637df1c3d81461047f5780637ecebe001461049f57600080fd5b8063315a095d146103dc5780633644e515146103ef5780633f9cf8fa146103f757806342842e0e1461040a5780634f02c4201461041d5780636352211e1461042657600080fd5b8063095ea7b311610252578063095ea7b31461035957806309674eb01461036c57806309f0ef651461037457806318160ddd1461038757806323b872dd14610390578063313ce567146103a357600080fd5b8063015bf2641461028f57806301ffc9a7146102a457806302519da3146102cc57806306fdde0314610303578063081812fc14610318575b600080fd5b6102a261029d366004612ac7565b6106da565b005b6102b76102b2366004612b12565b610971565b60405190151581526020015b60405180910390f35b6102f56102da366004612b2f565b6001600160a01b03166000908152600b602052604090205490565b6040519081526020016102c3565b61030b6109a8565b6040516102c39190612b9a565b610341610326366004612bad565b600d602052600090815260409020546001600160a01b031681565b6040516001600160a01b0390911681526020016102c3565b6102b7610367366004612bc6565b610a36565b6102f5610ae1565b6102b7610382366004612b2f565b610af2565b6102f560085481565b6102b761039e366004612bf0565b610b24565b6103ca7f000000000000000000000000000000000000000000000000000000000000000081565b60405160ff90911681526020016102c3565b6102a26103ea366004612bad565b610b61565b6102f5610bfc565b6102a2610405366004612bad565b610c52565b6102a2610418366004612bf0565b610c78565b6102f560095481565b610341610434366004612bad565b610c98565b6102f5600160ff1b81565b6102f5610452366004612b2f565b600b6020526000908152604090205481565b6102a2610d02565b6102a261047a366004612bc6565b610d16565b61049261048d366004612bad565b610d2c565b6040516102c39190612c1c565b6102f56104ad366004612b2f565b60126020526000908152604090205481565b6008546102f5565b6102a26104d5366004612c82565b610db4565b6000546001600160a01b0316610341565b61030b610dbe565b6102f57f000000000000000000000000000000000000000000000000000000000000000081565b6102a2610528366004612c9f565b610dcb565b6102b761053b366004612bc6565b610e5e565b61055361054e366004612b2f565b610e92565b6040516102c39190612cd6565b6102f561056e366004612b2f565b6001600160a01b031660009081526010602052604090205490565b61059c610597366004612d1a565b610efe565b604080516001600160a01b0390931683526020830191909152016102c3565b6102a26105c9366004612d52565b610f44565b6009546102f5565b6102a26105e4366004612c9f565b61102c565b61030b6105f7366004612bad565b61103e565b6102a261060a366004612e2e565b61106f565b6102b761061d366004612bf0565b6112b2565b6102f5610630366004612ea1565b600c60209081526000928352604080842090915290825290205481565b6102a261065b366004612bf0565b611372565b6102a261066e366004612bc6565b6114a8565b6102b7610681366004612ea1565b600e60209081526000928352604080842090915290825290205460ff1681565b6102a26106af366004612d1a565b61156d565b6102a26106c2366004612b2f565b611578565b6105536106d5366004612d1a565b6115ee565b336000908152600b602052604090205481106107345760405162461bcd60e51b8152602060048201526014602482015273496e73756666696369656e742062616c616e636560601b60448201526064015b60405180910390fd5b6000838152600f60205260409020546001600160a01b031633811461076b576040516282b42960e81b815260040160405180910390fd5b60008481526002602052604081208054829061078957610789612ed4565b9060005260206000209060020201600101549050306001600160a01b0316846001600160a01b03160361081d57336000908152600b602052604090205483111561080c5760405162461bcd60e51b8152602060048201526014602482015273496e73756666696369656e742062616c616e636560601b604482015260640161072b565b61081733308561168b565b50610871565b60405162461bcd60e51b815260206004820152602360248201527f6e6f772074686973206973206e6f7420737570706f727420666f72206465706f6044820152621cda5d60ea1b606482015260840161072b565b600260008681526020019081526020016000206040518060400160405280866001600160a01b0316815260200183866108aa9190612f00565b90528154600180820184556000938452602093849020835160029093020180546001600160a01b0319166001600160a01b0390931692909217825591909201519101556040516323b872dd60e01b8152306004820181905233602483015260448201879052906323b872dd906064016020604051808303816000875af1925050508015610954575060408051601f3d908101601f1916820190925261095191810190612f13565b60015b61096857610963303385611908565b61096a565b505b5050505050565b60006001600160e01b0319821663876f7f8760e01b14806109a257506001600160e01b031982166301ffc9a760e01b145b92915050565b600680546109b590612f30565b80601f01602080910402602001604051908101604052809291908181526020018280546109e190612f30565b8015610a2e5780601f10610a0357610100808354040283529160200191610a2e565b820191906000526020600020905b815481529060010190602001808311610a1157829003601f168201915b505050505081565b60006001600160a01b038316610a5f57604051635461585f60e01b815260040160405180910390fd5b610a68826119c4565b15610a7c57610a7783836114a8565b610ad8565b336000818152600c602090815260408083206001600160a01b03881680855290835292819020869055518581529192917f8c5be1e5ebec7d5bd14f71427d1e84f3dd0314c0f7b2291e5b200ac8c7c3b925910160405180910390a35b50600192915050565b6000610aed60046119dd565b905090565b60006001600160a01b03821615806109a25750506001600160a01b031660009081526011602052604090205460ff1690565b6000610b2f826119c4565b15610b4457610b3f848484611372565b610b56565b610b4f8484846112b2565b9050610b5a565b5060015b9392505050565b6000818152600f60205260409020546001600160a01b0316338114610b98576040516282b42960e81b815260040160405180910390fd5b6000610ba383610d2c565b9050610bb03033856119fb565b60005b8151811015610bf657610be43033848481518110610bd357610bd3612ed4565b602002602001015160200151611908565b80610bee81612f6a565b915050610bb3565b50505050565b60007f00000000000000000000000000000000000000000000000000000000000000004614610c2d57610aed611bc1565b507f000000000000000000000000000000000000000000000000000000000000000090565b610c5d33308361168b565b50610c6a33826001611c5b565b610c75303383611908565b50565b610c9383838360405180602001604052806000815250610f44565b505050565b6000818152600f60205260409020546001600160a01b0316610cb9826119c4565b610cd6576040516307ed98ed60e31b815260040160405180910390fd5b6001600160a01b038116610cfd5760405163c5723b5160e01b815260040160405180910390fd5b919050565b610d0a611c9c565b610d146000611cf6565b565b610d1e611c9c565b610d288282611d46565b5050565b606060026000838152602001908152602001600020805480602002602001604051908101604052809291908181526020016000905b82821015610da9576000848152602090819020604080518082019091526002850290910180546001600160a01b03168252600190810154828401529083529092019101610d61565b505050509050919050565b610c753382611dab565b600780546109b590612f30565b6001600160a01b038216610df25760405163ccea9e6f60e01b815260040160405180910390fd5b336000818152600e602090815260408083206001600160a01b03871680855290835292819020805460ff191686151590811790915590519081529192917f17307eab39ab6107e8899845ad3d59bd9653f200f220920489ca2b5937696c31910160405180910390a35050565b60006001600160a01b038316610e8757604051634e46966960e11b815260040160405180910390fd5b610b5a33848461168b565b6001600160a01b038116600090815260106020908152604091829020805483518184028101840190945280845260609392830182828015610ef257602002820191906000526020600020905b815481526020019060010190808311610ede575b50505050509050919050565b60026020528160005260406000208181548110610f1a57600080fd5b6000918252602090912060029091020180546001909101546001600160a01b039091169250905082565b610f4d826119c4565b610f6a576040516307ed98ed60e31b815260040160405180910390fd5b610f75848484610b24565b506001600160a01b0383163b1580159061100e5750604051630a85bd0160e11b808252906001600160a01b0385169063150b7a0290610fbe903390899088908890600401612f83565b6020604051808303816000875af1158015610fdd573d6000803e3d6000fd5b505050506040513d601f19601f820116820180604052508101906110019190612fc0565b6001600160e01b03191614155b15610bf657604051633da6393160e01b815260040160405180910390fd5b611034611c9c565b610d288282611dab565b606061104982611e1a565b6040516020016110599190612fdd565b6040516020818303038152906040529050919050565b42841015611090576040516305787bdf60e01b815260040160405180910390fd5b611099856119c4565b156110b7576040516303e7c1bd60e31b815260040160405180910390fd5b6001600160a01b0386166110de57604051635461585f60e01b815260040160405180910390fd5b600060016110ea610bfc565b6001600160a01b038a811660008181526012602090815260409182902080546001810190915582517f6e71edae12b1b97f4d1f60370fef10105fa2faae0126114a169c64845d6126c98184015280840194909452938d166060840152608083018c905260a083019390935260c08083018b90528151808403909101815260e08301909152805192019190912061190160f01b6101008301526101028201929092526101228101919091526101420160408051601f198184030181528282528051602091820120600084529083018083525260ff871690820152606081018590526080810184905260a0016020604051602081039080840390855afa1580156111f6573d6000803e3d6000fd5b5050604051601f1901519150506001600160a01b038116158061122b5750876001600160a01b0316816001600160a01b031614155b1561124957604051632057875960e21b815260040160405180910390fd5b6001600160a01b039081166000908152600c602090815260408083208a8516808552908352928190208990555188815291928a16917f8c5be1e5ebec7d5bd14f71427d1e84f3dd0314c0f7b2291e5b200ac8c7c3b925910160405180910390a350505050505050565b60006001600160a01b0384166112db57604051636edaef2f60e11b815260040160405180910390fd5b6001600160a01b03831661130257604051634e46966960e11b815260040160405180910390fd5b6001600160a01b0384166000908152600c60209081526040808320338452909152902054600019811461135e576113398382613022565b6001600160a01b0386166000908152600c602090815260408083203384529091529020555b61136985858561168b565b95945050505050565b6001600160a01b03831661139957604051636edaef2f60e11b815260040160405180910390fd5b6001600160a01b0382166113c057604051634e46966960e11b815260040160405180910390fd5b6000818152600f60205260409020546001600160a01b038481169116146113f9576040516282b42960e81b815260040160405180910390fd5b336001600160a01b0384161480159061143657506001600160a01b0383166000908152600e6020908152604080832033845290915290205460ff16155b801561145957506000818152600d60205260409020546001600160a01b03163314155b15611476576040516282b42960e81b815260040160405180910390fd5b61147f82610af2565b1561149d57604051635ce7539760e01b815260040160405180910390fd5b610c938383836119fb565b6000818152600f60205260409020546001600160a01b03163381148015906114f457506001600160a01b0381166000908152600e6020908152604080832033845290915290205460ff16155b15611511576040516282b42960e81b815260040160405180910390fd5b6000828152600d602052604080822080546001600160a01b0319166001600160a01b0387811691821790925591518593918516917f8c5be1e5ebec7d5bd14f71427d1e84f3dd0314c0f7b2291e5b200ac8c7c3b92591a4505050565b610d288230836106da565b611580611c9c565b6001600160a01b0381166115e55760405162461bcd60e51b815260206004820152602660248201527f4f776e61626c653a206e6577206f776e657220697320746865207a65726f206160448201526564647265737360d01b606482015260840161072b565b610c7581611cf6565b606060008267ffffffffffffffff81111561160b5761160b612d3c565b604051908082528060200260200182016040528015611634578160200160208202803683370190505b509050835b6116438486612f00565b81101561168357611655600482611ead565b826116608784613022565b8151811061167057611670612ed4565b6020908102919091010152600101611639565b509392505050565b6001600160a01b038381166000908152600b60205260408082205492851682528120549091906116bc868686611908565b60006116c787610af2565b905060006116d487610af2565b90508180156116e05750805b6118fa5781156117ac5760006117167f000000000000000000000000000000000000000000000000000000000000000085613035565b6001600160a01b0389166000908152600b602052604090205461175a907f000000000000000000000000000000000000000000000000000000000000000090613035565b6117649190613022565b905060005b818110156117a55761179d897f00000000000000000000000000000000000000000000000000000000000000006000611c5b565b600101611769565b50506118fa565b8015611848576001600160a01b0388166000908152600b60205260408120546117f6907f000000000000000000000000000000000000000000000000000000000000000090613035565b6118207f000000000000000000000000000000000000000000000000000000000000000087613035565b61182a9190613022565b905060005b818110156117a5576118408a611eff565b60010161182f565b60006118747f000000000000000000000000000000000000000000000000000000000000000088613035565b905060005b818110156118f7576001600160a01b038a166000908152601060205260408120546118a690600190613022565b6001600160a01b038c16600090815260106020526040812080549293509091839081106118d5576118d5612ed4565b906000526020600020015490506118ed8c8c836119fb565b5050600101611879565b50505b506001979650505050505050565b6001600160a01b0383166119335780600860008282546119289190612f00565b909155506119619050565b6001600160a01b0383166000908152600b60205260408120805483929061195b908490613022565b90915550505b6001600160a01b038083166000818152600b6020526040908190208054850190555190918516907fddf252ad1be2c89b69c2b068fc378daa952ba7f163c4a11628f55a4df523b3ef906119b79085815260200190565b60405180910390a3505050565b6000600160ff1b821180156109a2575050600019141590565b546001600160801b03808216600160801b9092048116919091031690565b611a06818484611f89565b6000818152600f6020526040902080546001600160a01b0319166001600160a01b0384160190556001600160a01b03831615611b21576001600160a01b03831660009081526010602052604081208054611a6290600190613022565b81548110611a7257611a72612ed4565b906000526020600020015490506000611a9a836000908152600f602052604090205460a01c90565b6001600160a01b03861660009081526010602052604090208054919250839183908110611ac957611ac9612ed4565b60009182526020808320909101929092556001600160a01b0387168152601090915260409020805480611afe57611afe613057565b60019003818190600052602060002001600090559055611b1e8282612116565b50505b6001600160a01b0382166000818152601060209081526040822080546001818101835582855292842001859055929091529054611b69918391611b649190613022565b612116565b6000818152600d602052604080822080546001600160a01b03191690555182916001600160a01b0385811692908716917fddf252ad1be2c89b69c2b068fc378daa952ba7f163c4a11628f55a4df523b3ef91a4505050565b60007f8b73c3c69bb8fe3d512ecc4cf759cc79239f7b179b0ffacaa9a75d522b39400f6006604051611bf3919061306d565b6040805191829003822060208301939093528101919091527fc89efdaa54c0f20c7adf612882df0950f5a951637e0307cdcb4c672f298b8bc660608201524660808201523060a082015260c00160405160208183030381529060405280519060200120905090565b6001600160a01b038316611c8257604051634e46966960e11b815260040160405180910390fd5b8015611c9257610c938383612182565b610c93838361222a565b6000546001600160a01b03163314610d145760405162461bcd60e51b815260206004820181905260248201527f4f776e61626c653a2063616c6c6572206973206e6f7420746865206f776e6572604482015260640161072b565b600080546001600160a01b038381166001600160a01b0319831681178455604051919092169283917f8be0079c531659141344cd1fd0a4f28419497f9722a3daafe3b4186f6b6457e09190a35050565b6001600160a01b038216611d6d57604051634e46966960e11b815260040160405180910390fd5b600160ff1b81600854611d809190612f00565b1115611d9f5760405163303b682f60e01b815260040160405180910390fd5b610c936000838361168b565b6001600160a01b038216611dd25760405163a41e3d3f60e01b815260040160405180910390fd5b8015611de657611de1826124c3565b611def565b611def826124f7565b6001600160a01b03919091166000908152601160205260409020805460ff1916911515919091179055565b60606000611e27836125a8565b600101905060008167ffffffffffffffff811115611e4757611e47612d3c565b6040519080825280601f01601f191660200182016040528015611e71576020820181803683370190505b5090508181016020015b600019016f181899199a1a9b1b9c1cb0b131b232b360811b600a86061a8153600a8504945084611e7b57509392505050565b6000611eb8836119dd565b8210611ed75760405163580821e760e01b815260040160405180910390fd5b5081546001600160801b03908116820116600090815260018301602052604090205492915050565b6001600160a01b038116611f2657604051636edaef2f60e11b815260040160405180910390fd5b6001600160a01b03811660009081526010602052604081208054611f4c90600190613022565b81548110611f5c57611f5c612ed4565b90600052602060002001549050611f7281612680565b611f7e826000836119fb565b610d286004826126e5565b6000838152600260205260409020548015610bf6576000848152600260205260409020611fb7600183613022565b81548110611fc757611fc7612ed4565b600091825260208083206002928302015487845291905260409091206001600160a01b039091169085907f3f5fbaf86658fdadee77f1d46e7f8a72424ad9839eda6a1dc6eb0a4228e4226e9061201e600186613022565b8154811061202e5761202e612ed4565b90600052602060002090600202016001015460405161204f91815260200190565b60405180910390a36000848152600260205260409020612070600183613022565b8154811061208057612080612ed4565b600091825260208083206002928302015487845291905260409091206001600160a01b039091169085907fb162210da7d23d82c18cff5af46d3562661d26b42a6848fa28d64a6bdc70386a906120d7600186613022565b815481106120e7576120e7612ed4565b90600052602060002090600202016001015460405161210891815260200190565b60405180910390a350505050565b6000828152600f60205260409020546bffffffffffffffffffffffff82111561215257604051633f2cd0e360e21b815260040160405180910390fd5b6000928352600f60205260409092206001600160a01b039290921660a09190911b6001600160a01b031916019055565b6004546001600160801b03808216600160801b9092041614612224576000806121ab60046119dd565b90505b808210156122215760006121c3600484611ead565b60008181526003602052604090205490915084811480156121e857506121e88261274f565b1561220d576121f76004612809565b506122018261287e565b610968600087846119fb565b8361221781612f6a565b94505050506121ae565b50505b610d2882825b60006122567f000000000000000000000000000000000000000000000000000000000000000083613035565b905060005b81811015610bf6576000612283600454600160801b81046001600160801b0390811691161490565b6123e05760008061229460046119dd565b90505b80821080156122a4575082155b156123dd5760006122b6600484611ead565b6000818152600360205260409020549091507f00000000000000000000000000000000000000000000000000000000000000001480156122fa57506122fa8161274f565b156123ca5782600003612317576123116004612809565b506123b0565b600161232360046119dd565b61232d9190613022565b830361233d5761231160046129fa565b600061234960046119dd565b9050835b612358600183613022565b8110156123a257600061237761236f836001612f00565b600490611ead565b905061238360046129fa565b5061238f6004826126e5565b508061239a81612f6a565b91505061234d565b506123ad60046129fa565b50505b6123b98161287e565b6123c5600089836119fb565b600193505b826123d481612f6a565b93505050612297565b50505b806124ba576009600081546123f490612f6a565b9091555060095460010161241b5760405163303b682f60e01b815260040160405180910390fd5b6000600954600160ff1b61242f9190612f00565b905061243d600087836119fb565b600090815260026020818152604080842081518083019092523082527f0000000000000000000000000000000000000000000000000000000000000000828401908152815460018082018455928752939095209151929093020180546001600160a01b0319166001600160a01b0390921691909117815591519101555b5060010161225b565b6001600160a01b038116600090815260106020526040812054905b81811015610c93576124ef83611eff565b6001016124de565b6001600160a01b0381166000908152600b602052604081205461253b907f000000000000000000000000000000000000000000000000000000000000000090613035565b9050600061255e836001600160a01b031660009081526010602052604090205490565b905060005b61256d8284613022565b811015610bf6576125a0847f00000000000000000000000000000000000000000000000000000000000000006000611c5b565b600101612563565b60008072184f03e93ff9f4daa797ed6e38ed64bf6a1f0160401b83106125e75772184f03e93ff9f4daa797ed6e38ed64bf6a1f0160401b830492506040015b6d04ee2d6d415b85acef81000000008310612613576d04ee2d6d415b85acef8100000000830492506020015b662386f26fc10000831061263157662386f26fc10000830492506010015b6305f5e1008310612649576305f5e100830492506008015b612710831061265d57612710830492506004015b6064831061266f576064830492506002015b600a83106109a25760010192915050565b60008181526002602052604090205415610c7557600081815260026020526040812080549091906126b3576126b3612ed4565b6000918252602080832060029283020160010154848452600382526040808520919091559190528120610c7591612a6a565b81546001600160801b038082166000190191600160801b900481169082160361272157604051638acb5f2760e01b815260040160405180910390fd5b6001600160801b0316600081815260018401602052604090209190915581546001600160801b031916179055565b6000818152600a602052604081205460ff1615806127795750600082815260016020526040902054155b1561278657506001919050565b60008281526001602090815260408083206002909252822080549192909190036127b4575060009392505050565b816000815481106127c7576127c7612ed4565b906000526020600020906002020160010154816000815481106127ec576127ec612ed4565b906000526020600020906002020160010154101592505050919050565b80546000906001600160801b0380821691600160801b9004168103612841576040516375e52f4f60e01b815260040160405180910390fd5b6001600160801b038181166000908152600185810160205260408220805492905585546001600160801b0319169301909116919091179092555090565b6000818152600a602052604090205460ff1680156128a9575060008181526001602052604090205415155b15610c75576128b78161274f565b61290f5760405162461bcd60e51b8152602060048201526024808201527f496e73756666696369656e74206465706f7369747320746f20726573746f72656044820152630813919560e21b606482015260840161072b565b600081815260026020526040812061292691612a6a565b60005b6000828152600160205260409020548110156129ca576000828152600260209081526040808320600190925290912080548390811061296a5761296a612ed4565b6000918252602080832084546001818101875595855291909320600292830290930180549190920290920180546001600160a01b0319166001600160a01b03909316929092178255820154910155806129c281612f6a565b915050612929565b5060008181526001602052604081206129e291612a6a565b6000908152600a60205260409020805460ff19169055565b80546000906001600160801b03600160801b8204811691168103612a31576040516375e52f4f60e01b815260040160405180910390fd5b600019016001600160801b039081166000818152600185016020526040812080549190558454909216600160801b909102179092555090565b5080546000825560020290600052602060002090810190610c7591905b80821115612aac5780546001600160a01b031916815560006001820155600201612a87565b5090565b80356001600160a01b0381168114610cfd57600080fd5b600080600060608486031215612adc57600080fd5b83359250612aec60208501612ab0565b9150604084013590509250925092565b6001600160e01b031981168114610c7557600080fd5b600060208284031215612b2457600080fd5b8135610b5a81612afc565b600060208284031215612b4157600080fd5b610b5a82612ab0565b60005b83811015612b65578181015183820152602001612b4d565b50506000910152565b60008151808452612b86816020860160208601612b4a565b601f01601f19169290920160200192915050565b602081526000610b5a6020830184612b6e565b600060208284031215612bbf57600080fd5b5035919050565b60008060408385031215612bd957600080fd5b612be283612ab0565b946020939093013593505050565b600080600060608486031215612c0557600080fd5b612c0e84612ab0565b9250612aec60208501612ab0565b602080825282518282018190526000919060409081850190868401855b82811015612c6757815180516001600160a01b03168552860151868501529284019290850190600101612c39565b5091979650505050505050565b8015158114610c7557600080fd5b600060208284031215612c9457600080fd5b8135610b5a81612c74565b60008060408385031215612cb257600080fd5b612cbb83612ab0565b91506020830135612ccb81612c74565b809150509250929050565b6020808252825182820181905260009190848201906040850190845b81811015612d0e57835183529284019291840191600101612cf2565b50909695505050505050565b60008060408385031215612d2d57600080fd5b50508035926020909101359150565b634e487b7160e01b600052604160045260246000fd5b60008060008060808587031215612d6857600080fd5b612d7185612ab0565b9350612d7f60208601612ab0565b925060408501359150606085013567ffffffffffffffff80821115612da357600080fd5b818701915087601f830112612db757600080fd5b813581811115612dc957612dc9612d3c565b604051601f8201601f19908116603f01168101908382118183101715612df157612df1612d3c565b816040528281528a6020848701011115612e0a57600080fd5b82602086016020830137600060208483010152809550505050505092959194509250565b600080600080600080600060e0888a031215612e4957600080fd5b612e5288612ab0565b9650612e6060208901612ab0565b95506040880135945060608801359350608088013560ff81168114612e8457600080fd5b9699959850939692959460a0840135945060c09093013592915050565b60008060408385031215612eb457600080fd5b612ebd83612ab0565b9150612ecb60208401612ab0565b90509250929050565b634e487b7160e01b600052603260045260246000fd5b634e487b7160e01b600052601160045260246000fd5b808201808211156109a2576109a2612eea565b600060208284031215612f2557600080fd5b8151610b5a81612c74565b600181811c90821680612f4457607f821691505b602082108103612f6457634e487b7160e01b600052602260045260246000fd5b50919050565b600060018201612f7c57612f7c612eea565b5060010190565b6001600160a01b0385811682528416602082015260408101839052608060608201819052600090612fb690830184612b6e565b9695505050505050565b600060208284031215612fd257600080fd5b8151610b5a81612afc565b7f68747470733a2f2f6578616d706c652e636f6d2f746f6b656e2f00000000000081526000825161301581601a850160208701612b4a565b91909101601a0192915050565b818103818111156109a2576109a2612eea565b60008261305257634e487b7160e01b600052601260045260246000fd5b500490565b634e487b7160e01b600052603160045260246000fd5b600080835481600182811c91508083168061308957607f831692505b602080841082036130a857634e487b7160e01b86526022600452602486fd5b8180156130bc57600181146130d1576130fe565b60ff19861689528415158502890196506130fe565b60008a81526020902060005b868110156130f65781548b8201529085019083016130dd565b505084890196505b50949897505050505050505056fea2646970667358221220b9a44b3f155bc2f38ca3b57e918d3fb87f7182cb2e42c9d7d303dcc34a6861a564736f6c63430008140033","linkReferences":{}},"methodIdentifiers":{"DOMAIN_SEPARATOR()":"3644e515","ID_ENCODING_PREFIX()":"6e8f624b","_tokenDeposits(uint256,uint256)":"b810217b","allowance(address,address)":"dd62ed3e","approve(address,uint256)":"095ea7b3","balanceOf(address)":"70a08231","decimals()":"313ce567","depositTokens(uint256,address,uint256)":"015bf264","depositTokens(uint256,uint256)":"f16ad51e","erc20BalanceOf(address)":"02519da3","erc20TotalSupply()":"89fb4c66","erc20TransferFrom(address,address,uint256)":"d96ca0b9","erc721Approve(address,uint256)":"dfabc033","erc721BalanceOf(address)":"b3f9ea34","erc721TotalSupply()":"c5ab3ba6","erc721TransferExempt(address)":"09f0ef65","erc721TransferFrom(address,address,uint256)":"dd637699","getApproved(uint256)":"081812fc","getERC721QueueLength()":"09674eb0","getERC721TokensInQueue(uint256,uint256)":"f780bc1a","getTokenDeposits(uint256)":"7df1c3d8","isApprovedForAll(address,address)":"e985e9c5","mintERC20(address,uint256)":"7c4ca9cc","minted()":"4f02c420","name()":"06fdde03","nonces(address)":"7ecebe00","owned(address)":"b1ab9317","owner()":"8da5cb5b","ownerOf(uint256)":"6352211e","permit(address,address,uint256,uint256,uint8,bytes32,bytes32)":"d505accf","renounceOwnership()":"715018a6","safeTransferFrom(address,address,uint256)":"42842e0e","safeTransferFrom(address,address,uint256,bytes)":"b88d4fde","setApprovalForAll(address,bool)":"a22cb465","setERC721TransferExempt(address,bool)":"c6e672b9","setSelfERC721TransferExempt(bool)":"8a696e50","supportsInterface(bytes4)":"01ffc9a7","symbol()":"95d89b41","tokenURI(uint256)":"c87b56dd","totalSupply()":"18160ddd","transfer(address,uint256)":"a9059cbb","transferFrom(address,address,uint256)":"23b872dd","transferOwnership(address)":"f2fde38b","trygetmorevalue(uint256)":"3f9cf8fa","units()":"976a8435","withdrawTokens(uint256)":"315a095d"},"id":11}