{"abi":[{"type":"constructor","inputs":[{"name":"name_","type":"string","internalType":"string"},{"name":"symbol_","type":"string","internalType":"string"},{"name":"decimals_","type":"uint8","internalType":"uint8"},{"name":"maxTotalSupplyERC721_","type":"uint256","internalType":"uint256"},{"name":"initialOwner_","type":"address","internalType":"address"},{"name":"initialMintRecipient_","type":"address","internalType":"address"}],"stateMutability":"nonpayable"},{"type":"function","name":"DOMAIN_SEPARATOR","inputs":[],"outputs":[{"name":"","type":"bytes32","internalType":"bytes32"}],"stateMutability":"view"},{"type":"function","name":"ID_ENCODING_PREFIX","inputs":[],"outputs":[{"name":"","type":"uint256","internalType":"uint256"}],"stateMutability":"view"},{"type":"function","name":"allowance","inputs":[{"name":"","type":"address","internalType":"address"},{"name":"","type":"address","internalType":"address"}],"outputs":[{"name":"","type":"uint256","internalType":"uint256"}],"stateMutability":"view"},{"type":"function","name":"approve","inputs":[{"name":"spender_","type":"address","internalType":"address"},{"name":"valueOrId_","type":"uint256","internalType":"uint256"}],"outputs":[{"name":"","type":"bool","internalType":"bool"}],"stateMutability":"nonpayable"},{"type":"function","name":"balanceOf","inputs":[{"name":"","type":"address","internalType":"address"}],"outputs":[{"name":"","type":"uint256","internalType":"uint256"}],"stateMutability":"view"},{"type":"function","name":"decimals","inputs":[],"outputs":[{"name":"","type":"uint8","internalType":"uint8"}],"stateMutability":"view"},{"type":"function","name":"erc20Approve","inputs":[{"name":"spender_","type":"address","internalType":"address"},{"name":"value_","type":"uint256","internalType":"uint256"}],"outputs":[{"name":"","type":"bool","internalType":"bool"}],"stateMutability":"nonpayable"},{"type":"function","name":"erc20BalanceOf","inputs":[{"name":"owner_","type":"address","internalType":"address"}],"outputs":[{"name":"","type":"uint256","internalType":"uint256"}],"stateMutability":"view"},{"type":"function","name":"erc20TotalSupply","inputs":[],"outputs":[{"name":"","type":"uint256","internalType":"uint256"}],"stateMutability":"view"},{"type":"function","name":"erc20TransferFrom","inputs":[{"name":"from_","type":"address","internalType":"address"},{"name":"to_","type":"address","internalType":"address"},{"name":"value_","type":"uint256","internalType":"uint256"}],"outputs":[{"name":"","type":"bool","internalType":"bool"}],"stateMutability":"nonpayable"},{"type":"function","name":"erc721Approve","inputs":[{"name":"spender_","type":"address","internalType":"address"},{"name":"id_","type":"uint256","internalType":"uint256"}],"outputs":[],"stateMutability":"nonpayable"},{"type":"function","name":"erc721BalanceOf","inputs":[{"name":"owner_","type":"address","internalType":"address"}],"outputs":[{"name":"","type":"uint256","internalType":"uint256"}],"stateMutability":"view"},{"type":"function","name":"erc721TotalSupply","inputs":[],"outputs":[{"name":"","type":"uint256","internalType":"uint256"}],"stateMutability":"view"},{"type":"function","name":"erc721TransferExempt","inputs":[{"name":"target_","type":"address","internalType":"address"}],"outputs":[{"name":"","type":"bool","internalType":"bool"}],"stateMutability":"view"},{"type":"function","name":"erc721TransferFrom","inputs":[{"name":"from_","type":"address","internalType":"address"},{"name":"to_","type":"address","internalType":"address"},{"name":"id_","type":"uint256","internalType":"uint256"}],"outputs":[],"stateMutability":"nonpayable"},{"type":"function","name":"getApproved","inputs":[{"name":"","type":"uint256","internalType":"uint256"}],"outputs":[{"name":"","type":"address","internalType":"address"}],"stateMutability":"view"},{"type":"function","name":"getERC721QueueLength","inputs":[],"outputs":[{"name":"","type":"uint256","internalType":"uint256"}],"stateMutability":"view"},{"type":"function","name":"getERC721TokensInQueue","inputs":[{"name":"start_","type":"uint256","internalType":"uint256"},{"name":"count_","type":"uint256","internalType":"uint256"}],"outputs":[{"name":"","type":"uint256[]","internalType":"uint256[]"}],"stateMutability":"view"},{"type":"function","name":"isApprovedForAll","inputs":[{"name":"","type":"address","internalType":"address"},{"name":"","type":"address","internalType":"address"}],"outputs":[{"name":"","type":"bool","internalType":"bool"}],"stateMutability":"view"},{"type":"function","name":"minted","inputs":[],"outputs":[{"name":"","type":"uint256","internalType":"uint256"}],"stateMutability":"view"},{"type":"function","name":"name","inputs":[],"outputs":[{"name":"","type":"string","internalType":"string"}],"stateMutability":"view"},{"type":"function","name":"nonces","inputs":[{"name":"","type":"address","internalType":"address"}],"outputs":[{"name":"","type":"uint256","internalType":"uint256"}],"stateMutability":"view"},{"type":"function","name":"owned","inputs":[{"name":"owner_","type":"address","internalType":"address"}],"outputs":[{"name":"","type":"uint256[]","internalType":"uint256[]"}],"stateMutability":"view"},{"type":"function","name":"owner","inputs":[],"outputs":[{"name":"","type":"address","internalType":"address"}],"stateMutability":"view"},{"type":"function","name":"ownerOf","inputs":[{"name":"id_","type":"uint256","internalType":"uint256"}],"outputs":[{"name":"erc721Owner","type":"address","internalType":"address"}],"stateMutability":"view"},{"type":"function","name":"permit","inputs":[{"name":"owner_","type":"address","internalType":"address"},{"name":"spender_","type":"address","internalType":"address"},{"name":"value_","type":"uint256","internalType":"uint256"},{"name":"deadline_","type":"uint256","internalType":"uint256"},{"name":"v_","type":"uint8","internalType":"uint8"},{"name":"r_","type":"bytes32","internalType":"bytes32"},{"name":"s_","type":"bytes32","internalType":"bytes32"}],"outputs":[],"stateMutability":"nonpayable"},{"type":"function","name":"renounceOwnership","inputs":[],"outputs":[],"stateMutability":"nonpayable"},{"type":"function","name":"safeTransferFrom","inputs":[{"name":"from_","type":"address","internalType":"address"},{"name":"to_","type":"address","internalType":"address"},{"name":"id_","type":"uint256","internalType":"uint256"}],"outputs":[],"stateMutability":"nonpayable"},{"type":"function","name":"safeTransferFrom","inputs":[{"name":"from_","type":"address","internalType":"address"},{"name":"to_","type":"address","internalType":"address"},{"name":"id_","type":"uint256","internalType":"uint256"},{"name":"data_","type":"bytes","internalType":"bytes"}],"outputs":[],"stateMutability":"nonpayable"},{"type":"function","name":"setApprovalForAll","inputs":[{"name":"operator_","type":"address","internalType":"address"},{"name":"approved_","type":"bool","internalType":"bool"}],"outputs":[],"stateMutability":"nonpayable"},{"type":"function","name":"setERC721TransferExempt","inputs":[{"name":"account_","type":"address","internalType":"address"},{"name":"value_","type":"bool","internalType":"bool"}],"outputs":[],"stateMutability":"nonpayable"},{"type":"function","name":"setSelfERC721TransferExempt","inputs":[{"name":"state_","type":"bool","internalType":"bool"}],"outputs":[],"stateMutability":"nonpayable"},{"type":"function","name":"supportsInterface","inputs":[{"name":"interfaceId","type":"bytes4","internalType":"bytes4"}],"outputs":[{"name":"","type":"bool","internalType":"bool"}],"stateMutability":"view"},{"type":"function","name":"symbol","inputs":[],"outputs":[{"name":"","type":"string","internalType":"string"}],"stateMutability":"view"},{"type":"function","name":"tokenURI","inputs":[{"name":"id_","type":"uint256","internalType":"uint256"}],"outputs":[{"name":"","type":"string","internalType":"string"}],"stateMutability":"pure"},{"type":"function","name":"totalSupply","inputs":[],"outputs":[{"name":"","type":"uint256","internalType":"uint256"}],"stateMutability":"view"},{"type":"function","name":"transfer","inputs":[{"name":"to_","type":"address","internalType":"address"},{"name":"value_","type":"uint256","internalType":"uint256"}],"outputs":[{"name":"","type":"bool","internalType":"bool"}],"stateMutability":"nonpayable"},{"type":"function","name":"transferFrom","inputs":[{"name":"from_","type":"address","internalType":"address"},{"name":"to_","type":"address","internalType":"address"},{"name":"valueOrId_","type":"uint256","internalType":"uint256"}],"outputs":[{"name":"","type":"bool","internalType":"bool"}],"stateMutability":"nonpayable"},{"type":"function","name":"transferOwnership","inputs":[{"name":"newOwner","type":"address","internalType":"address"}],"outputs":[],"stateMutability":"nonpayable"},{"type":"function","name":"units","inputs":[],"outputs":[{"name":"","type":"uint256","internalType":"uint256"}],"stateMutability":"view"},{"type":"event","name":"Approval","inputs":[{"name":"owner","type":"address","indexed":true,"internalType":"address"},{"name":"spender","type":"address","indexed":true,"internalType":"address"},{"name":"value","type":"uint256","indexed":false,"internalType":"uint256"}],"anonymous":false},{"type":"event","name":"Approval","inputs":[{"name":"owner","type":"address","indexed":true,"internalType":"address"},{"name":"spender","type":"address","indexed":true,"internalType":"address"},{"name":"id","type":"uint256","indexed":true,"internalType":"uint256"}],"anonymous":false},{"type":"event","name":"ApprovalForAll","inputs":[{"name":"owner","type":"address","indexed":true,"internalType":"address"},{"name":"operator","type":"address","indexed":true,"internalType":"address"},{"name":"approved","type":"bool","indexed":false,"internalType":"bool"}],"anonymous":false},{"type":"event","name":"OwnershipTransferred","inputs":[{"name":"previousOwner","type":"address","indexed":true,"internalType":"address"},{"name":"newOwner","type":"address","indexed":true,"internalType":"address"}],"anonymous":false},{"type":"event","name":"Transfer","inputs":[{"name":"from","type":"address","indexed":true,"internalType":"address"},{"name":"to","type":"address","indexed":true,"internalType":"address"},{"name":"amount","type":"uint256","indexed":false,"internalType":"uint256"}],"anonymous":false},{"type":"event","name":"Transfer","inputs":[{"name":"from","type":"address","indexed":true,"internalType":"address"},{"name":"to","type":"address","indexed":true,"internalType":"address"},{"name":"id","type":"uint256","indexed":true,"internalType":"uint256"}],"anonymous":false},{"type":"error","name":"AlreadyExists","inputs":[]},{"type":"error","name":"DecimalsTooLow","inputs":[]},{"type":"error","name":"InsufficientAllowance","inputs":[]},{"type":"error","name":"InvalidApproval","inputs":[]},{"type":"error","name":"InvalidExemption","inputs":[]},{"type":"error","name":"InvalidOperator","inputs":[]},{"type":"error","name":"InvalidRecipient","inputs":[]},{"type":"error","name":"InvalidSender","inputs":[]},{"type":"error","name":"InvalidSigner","inputs":[]},{"type":"error","name":"InvalidSpender","inputs":[]},{"type":"error","name":"InvalidTokenId","inputs":[]},{"type":"error","name":"MintLimitReached","inputs":[]},{"type":"error","name":"NotFound","inputs":[]},{"type":"error","name":"OwnableInvalidOwner","inputs":[{"name":"owner","type":"address","internalType":"address"}]},{"type":"error","name":"OwnableUnauthorizedAccount","inputs":[{"name":"account","type":"address","internalType":"address"}]},{"type":"error","name":"OwnedIndexOverflow","inputs":[]},{"type":"error","name":"PermitDeadlineExpired","inputs":[]},{"type":"error","name":"QueueEmpty","inputs":[]},{"type":"error","name":"QueueFull","inputs":[]},{"type":"error","name":"QueueOutOfBounds","inputs":[]},{"type":"error","name":"RecipientIsERC721TransferExempt","inputs":[]},{"type":"error","name":"Unauthorized","inputs":[]},{"type":"error","name":"UnsafeRecipient","inputs":[]}],"bytecode":{"object":"0x6101006040523480156200001257600080fd5b5060405162003da038038062003da0833981016040819052620000359162000fba565b858585846001600160a01b0381166200006857604051631e4fbdf760e01b81526000600482015260240160405180910390fd5b62000073816200011b565b506003620000828482620010fa565b506004620000918382620010fa565b5060128160ff161015620000b8576040516398790fd560e01b815260040160405180910390fd5b60ff81166080819052620000ce90600a620012d9565b60a0524660c052620000df6200016b565b60e05250620000f49150829050600162000207565b6200010f8160a05185620001099190620012f1565b6200027d565b5050505050506200144e565b600080546001600160a01b038381166001600160a01b0319831681178455604051919092169283917f8be0079c531659141344cd1fd0a4f28419497f9722a3daafe3b4186f6b6457e09190a35050565b60007f8b73c3c69bb8fe3d512ecc4cf759cc79239f7b179b0ffacaa9a75d522b39400f60036040516200019f91906200130b565b6040805191829003822060208301939093528101919091527fc89efdaa54c0f20c7adf612882df0950f5a951637e0307cdcb4c672f298b8bc660608201524660808201523060a082015260c00160405160208183030381529060405280519060200120905090565b6001600160a01b0382166200022f5760405163a41e3d3f60e01b815260040160405180910390fd5b801562000247576200024182620002ed565b62000252565b620002528262000325565b6001600160a01b03919091166000908152600d60205260409020805460ff1916911515919091179055565b6001600160a01b038216620002a557604051634e46966960e11b815260040160405180910390fd5b600160ff1b81600554620002ba919062001389565b1115620002da5760405163303b682f60e01b815260040160405180910390fd5b620002e860008383620003ae565b505050565b6001600160a01b0381166000908152600c6020526040812054905b81811015620002e8576200031c836200067c565b60010162000308565b60a0516000906200034b836001600160a01b031660009081526007602052604090205490565b6200035791906200139f565b905060006200037b836001600160a01b03166000908152600c602052604090205490565b905060005b6200038c8284620013c2565b811015620003a8576200039f8462000730565b60010162000380565b50505050565b6001600160a01b03838116600090815260076020526040808220549285168252812054909190620003e186868662000827565b6000620003ee87620008d9565b90506000620003fd87620008d9565b90508180156200040a5750805b6200066e5781156200048657600060a051846200042891906200139f565b60a0516001600160a01b038a166000908152600760205260409020546200045091906200139f565b6200045c9190620013c2565b905060005b818110156200047e57620004758962000730565b60010162000461565b50506200066e565b8015620004f35760a0516001600160a01b0389166000908152600760205260408120549091620004b6916200139f565b60a051620004c590876200139f565b620004d19190620013c2565b905060005b818110156200047e57620004ea8a6200067c565b600101620004d6565b600060a051876200050591906200139f565b905060005b81811015620005b6576001600160a01b038a166000908152600c60205260408120546200053a90600190620013c2565b6001600160a01b038c166000908152600c6020526040812080549293509091839081106200056c576200056c620013d8565b600091825260209091206010820401546200059c91600f166002026101000a900461ffff16600160ff1b62001389565b9050620005ab8c8c8362000910565b50506001016200050a565b5060a0518190620005dc8b6001600160a01b031660009081526007602052604090205490565b620005e891906200139f565b60a051620005f790886200139f565b620006039190620013c2565b1115620006155762000615896200067c565b8060a051856200062691906200139f565b60a0516001600160a01b038b166000908152600760205260409020546200064e91906200139f565b6200065a9190620013c2565b11156200066c576200066c8862000730565b505b506001979650505050505050565b6001600160a01b038116620006a457604051636edaef2f60e11b815260040160405180910390fd5b6001600160a01b0381166000908152600c602052604081208054620006cc90600190620013c2565b81548110620006df57620006df620013d8565b600091825260209091206010820401546200070f91600f166002026101000a900461ffff16600160ff1b62001389565b90506200071f8260008362000910565b6200072c60018262000b7f565b5050565b6001600160a01b0381166200075857604051634e46966960e11b815260040160405180910390fd5b600062000766600162000c76565b620007935762000777600162000cbe565b6200078b9061ffff16600160ff1b62001389565b9050620007e2565b600660008154620007a490620013ee565b90915550600654600101620007cc5760405163303b682f60e01b815260040160405180910390fd5b600654620007df90600160ff1b62001389565b90505b6000818152600b60205260409020546001600160a01b031680156200081a5760405163119b4fd360e11b815260040160405180910390fd5b620002e881848462000910565b6001600160a01b038316620008565780600560008282546200084a919062001389565b90915550620008869050565b6001600160a01b0383166000908152600760205260408120805483929062000880908490620013c2565b90915550505b6001600160a01b038083166000818152600760205260409081902080548501905551909185169060008051602062003d8083398151915290620008cc9085815260200190565b60405180910390a3505050565b60006001600160a01b03821615806200090a57506001600160a01b0382166000908152600d602052604090205460ff165b92915050565b6001600160a01b0383161562000a8e57600081815260096020908152604080832080546001600160a01b03191690556001600160a01b0386168352600c909152812080546200096290600190620013c2565b81548110620009755762000975620013d8565b60009182526020909120601082040154620009a591600f166002026101000a900461ffff16600160ff1b62001389565b905081811462000a36576000828152600b602052604081205460a01c6001600160a01b0386166000908152600c602052604090208054919250839183908110620009f357620009f3620013d8565b90600052602060002090601091828204019190066002026101000a81548161ffff021916908361ffff16021790555062000a34828262000dd660201b60201c565b505b6001600160a01b0384166000908152600c6020526040902080548062000a605762000a606200140a565b600082815260209020601060001990920191820401805461ffff6002600f8516026101000a02191690559055505b6001600160a01b0382161562000b3a576000818152600b6020526040902080546001600160a01b0319166001600160a01b0384160190556001600160a01b0382166000818152600c60209081526040822080546001808201835582855292842060108204018054600f9092166002026101000a61ffff818102199093169288160291909117905592909152905462000b3491839162000b2e9190620013c2565b62000dd6565b62000b4a565b6000818152600b60205260408120555b80826001600160a01b0316846001600160a01b031660008051602062003d8083398151915260405160405180910390a4505050565b81546001600160401b038082169168010000000000000000900416600081900362000bb1575060001901600f62000bb6565b600019015b83546001600160401b03838116600160801b9092041614801562000bed575083546001600160401b03828116600160c01b90920416145b1562000c0c57604051638acb5f2760e01b815260040160405180910390fd5b6001600160401b038216600090815260018501602052604090205462000c3490828562000e3e565b6001600160401b03928316600081815260018701602052604090209190915584546001600160801b031916176801000000000000000091909216021790915550565b8054600090600160c01b81046001600160401b0390811668010000000000000000909204161480156200090a575050546001600160401b03808216600160801b909204161490565b80546000906001600160401b03600160801b8204811691600160c01b8104821691168214801562000d07575083546001600160401b038281166801000000000000000090920416145b1562000d26576040516375e52f4f60e01b815260040160405180910390fd5b806001600160401b031660000362000d45575060001901600f62000d4a565b600019015b6001600160401b038216600090815260018501602052604090205462000d71818362000e85565b935062000d818183600062000e3e565b6001600160401b03938416600081815260018801602052604090209190915585546001600160801b0316600160801b9091026001600160c01b031617600160c01b929093169190910291909117909255919050565b6000828152600b60205260409020546001600160601b0382111562000e0e57604051633f2cd0e360e21b815260040160405180910390fd5b6000928352600b60205260409092206001600160a01b039290921660a09190911b6001600160a01b031916019055565b600062000e4d83601062001420565b6001600160401b03168261ffff16901b62000e6e8462000eb460201b60201c565b19851662000e7d919062001389565b949350505050565b600062000e9482601062001420565b6001600160401b031662000ea88362000eb4565b8416901c905092915050565b600062000ec382601062001420565b6001600160401b031661ffff901b9050919050565b634e487b7160e01b600052604160045260246000fd5b600082601f83011262000f0057600080fd5b81516001600160401b038082111562000f1d5762000f1d62000ed8565b604051601f8301601f19908116603f0116810190828211818310171562000f485762000f4862000ed8565b8160405283815260209250868385880101111562000f6557600080fd5b600091505b8382101562000f89578582018301518183018401529082019062000f6a565b600093810190920192909252949350505050565b80516001600160a01b038116811462000fb557600080fd5b919050565b60008060008060008060c0878903121562000fd457600080fd5b86516001600160401b038082111562000fec57600080fd5b62000ffa8a838b0162000eee565b975060208901519150808211156200101157600080fd5b506200102089828a0162000eee565b955050604087015160ff811681146200103857600080fd5b60608801519094509250620010506080880162000f9d565b91506200106060a0880162000f9d565b90509295509295509295565b600181811c908216806200108157607f821691505b602082108103620010a257634e487b7160e01b600052602260045260246000fd5b50919050565b601f821115620002e857600081815260208120601f850160051c81016020861015620010d15750805b601f850160051c820191505b81811015620010f257828155600101620010dd565b505050505050565b81516001600160401b0381111562001116576200111662000ed8565b6200112e816200112784546200106c565b84620010a8565b602080601f8311600181146200116657600084156200114d5750858301515b600019600386901b1c1916600185901b178555620010f2565b600085815260208120601f198616915b82811015620011975788860151825594840194600190910190840162001176565b5085821015620011b65787850151600019600388901b60f8161c191681555b5050505050600190811b01905550565b634e487b7160e01b600052601160045260246000fd5b600181815b808511156200121d578160001904821115620012015762001201620011c6565b808516156200120f57918102915b93841c9390800290620011e1565b509250929050565b60008262001236575060016200090a565b8162001245575060006200090a565b81600181146200125e5760028114620012695762001289565b60019150506200090a565b60ff8411156200127d576200127d620011c6565b50506001821b6200090a565b5060208310610133831016604e8410600b8410161715620012ae575081810a6200090a565b620012ba8383620011dc565b8060001904821115620012d157620012d1620011c6565b029392505050565b6000620012ea60ff84168362001225565b9392505050565b80820281158282048414176200090a576200090a620011c6565b60008083546200131b816200106c565b600182811680156200133657600181146200134c576200137d565b60ff19841687528215158302870194506200137d565b8760005260208060002060005b85811015620013745781548a82015290840190820162001359565b50505082870194505b50929695505050505050565b808201808211156200090a576200090a620011c6565b600082620013bd57634e487b7160e01b600052601260045260246000fd5b500490565b818103818111156200090a576200090a620011c6565b634e487b7160e01b600052603260045260246000fd5b600060018201620014035762001403620011c6565b5060010190565b634e487b7160e01b600052603160045260246000fd5b6001600160401b03818116838216028082169190828114620014465762001446620011c6565b505092915050565b60805160a05160c05160e0516128ab620014d560003960006107ac0152600061077c01526000818161045d0152818161104b01528181611475015281816114b9015281816115320152818161155c015281816115b00152818161167f015281816116cc01528181611710015281816117370152611c5e0152600061035101526128ab6000f3fe608060405234801561001057600080fd5b50600436106102485760003560e01c80638a696e501161013b578063c6e672b9116100b8578063dd6376991161007c578063dd63769914610580578063dfabc03314610593578063e985e9c5146105a6578063f2fde38b146105d4578063f780bc1a146105e757600080fd5b8063c6e672b914610509578063c87b56dd1461051c578063d505accf1461052f578063d96ca0b914610542578063dd62ed3e1461055557600080fd5b8063a9059cbb116100ff578063a9059cbb14610492578063b1ab9317146104a5578063b3f9ea34146104c5578063b88d4fde146104ee578063c5ab3ba61461050157600080fd5b80638a696e501461042c5780638da5cb5b1461043f57806395d89b4114610450578063976a843514610458578063a22cb4651461047f57600080fd5b80633644e515116101c95780636e8f624b1161018d5780636e8f624b146103d157806370a08231146103dc578063715018a6146103fc5780637ecebe001461040457806389fb4c661461042457600080fd5b80633644e5151461038557806342842e0e1461038d5780634d966072146103a25780634f02c420146103b55780636352211e146103be57600080fd5b806309674eb01161021057806309674eb01461031557806309f0ef651461031d57806318160ddd1461033057806323b872dd14610339578063313ce5671461034c57600080fd5b806301ffc9a71461024d57806302519da31461027557806306fdde03146102ac578063081812fc146102c1578063095ea7b314610302575b600080fd5b61026061025b36600461227f565b6105fa565b60405190151581526020015b60405180910390f35b61029e6102833660046122b3565b6001600160a01b031660009081526007602052604090205490565b60405190815260200161026c565b6102b4610631565b60405161026c919061231e565b6102ea6102cf366004612331565b6009602052600090815260409020546001600160a01b031681565b6040516001600160a01b03909116815260200161026c565b61026061031036600461234a565b6106bf565b61029e6106f8565b61026061032b3660046122b3565b610709565b61029e60055481565b610260610347366004612374565b61073b565b6103737f000000000000000000000000000000000000000000000000000000000000000081565b60405160ff909116815260200161026c565b61029e610778565b6103a061039b366004612374565b6107ce565b005b6102606103b036600461234a565b6107ee565b61029e60065481565b6102ea6103cc366004612331565b61087b565b61029e600160ff1b81565b61029e6103ea3660046122b3565b60076020526000908152604090205481565b6103a06108e5565b61029e6104123660046122b3565b600e6020526000908152604090205481565b60055461029e565b6103a061043a3660046123c0565b6108f9565b6000546001600160a01b03166102ea565b6102b4610906565b61029e7f000000000000000000000000000000000000000000000000000000000000000081565b6103a061048d3660046123db565b610913565b6102606104a036600461234a565b6109a6565b6104b86104b33660046122b3565b6109da565b60405161026c919061240e565b61029e6104d33660046122b3565b6001600160a01b03166000908152600c602052604090205490565b6103a06104fc366004612468565b610ae1565b60065461029e565b6103a06105173660046123db565b610bcf565b6102b461052a366004612331565b610be5565b6103a061053d366004612543565b610c16565b610260610550366004612374565b610e59565b61029e6105633660046125b6565b600860209081526000928352604080842090915290825290205481565b6103a061058e366004612374565b610f19565b6103a06105a136600461234a565b61107a565b6102606105b43660046125b6565b600a60209081526000928352604080842090915290825290205460ff1681565b6103a06105e23660046122b3565b61113f565b6104b86105f53660046125e0565b61117f565b60006001600160e01b0319821663caf91ff560e01b148061062b57506001600160e01b031982166301ffc9a760e01b145b92915050565b6003805461063e90612602565b80601f016020809104026020016040519081016040528092919081815260200182805461066a90612602565b80156106b75780601f1061068c576101008083540402835291602001916106b7565b820191906000526020600020905b81548152906001019060200180831161069a57829003601f168201915b505050505081565b60006106ca8261122d565b156106de576106d9838361107a565b6106ef565b6106e883836107ee565b905061062b565b50600192915050565b60006107046001611246565b905090565b60006001600160a01b038216158061062b5750506001600160a01b03166000908152600d602052604090205460ff1690565b60006107468261122d565b1561075b57610756848484610f19565b61076d565b610766848484610e59565b9050610771565b5060015b9392505050565b60007f000000000000000000000000000000000000000000000000000000000000000046146107a957610704611289565b507f000000000000000000000000000000000000000000000000000000000000000090565b6107e983838360405180602001604052806000815250610ae1565b505050565b60006001600160a01b03831661081757604051635461585f60e01b815260040160405180910390fd5b3360008181526008602090815260408083206001600160a01b03881680855290835292819020869055518581529192917f8c5be1e5ebec7d5bd14f71427d1e84f3dd0314c0f7b2291e5b200ac8c7c3b925910160405180910390a350600192915050565b6000818152600b60205260409020546001600160a01b031661089c8261122d565b6108b9576040516307ed98ed60e31b815260040160405180910390fd5b6001600160a01b0381166108e05760405163c5723b5160e01b815260040160405180910390fd5b919050565b6108ed611323565b6108f76000611350565b565b61090333826113a0565b50565b6004805461063e90612602565b6001600160a01b03821661093a5760405163ccea9e6f60e01b815260040160405180910390fd5b336000818152600a602090815260408083206001600160a01b03871680855290835292819020805460ff191686151590811790915590519081529192917f17307eab39ab6107e8899845ad3d59bd9653f200f220920489ca2b5937696c31910160405180910390a35050565b60006001600160a01b0383166109cf57604051634e46966960e11b815260040160405180910390fd5b61077133848461140f565b6001600160a01b0381166000908152600c6020526040812054606091906001600160401b03811115610a0e57610a0e612452565b604051908082528060200260200182016040528015610a37578160200160208202803683370190505b50905060005b6001600160a01b0384166000908152600c6020526040902054811015610ada576001600160a01b0384166000908152600c60205260409020805482908110610a8757610a8761263c565b60009182526020909120601082040154610ab591600f166002026101000a900461ffff16600160ff1b612668565b828281518110610ac757610ac761263c565b6020908102919091010152600101610a3d565b5092915050565b610aea8261122d565b610b07576040516307ed98ed60e31b815260040160405180910390fd5b610b1284848461073b565b506001600160a01b0383163b15801590610bab5750604051630a85bd0160e11b808252906001600160a01b0385169063150b7a0290610b5b90339089908890889060040161267b565b6020604051808303816000875af1158015610b7a573d6000803e3d6000fd5b505050506040513d601f19601f82011682018060405250810190610b9e91906126b8565b6001600160e01b03191614155b15610bc957604051633da6393160e01b815260040160405180910390fd5b50505050565b610bd7611323565b610be182826113a0565b5050565b6060610bf0826117a8565b604051602001610c0091906126d5565b6040516020818303038152906040529050919050565b42841015610c37576040516305787bdf60e01b815260040160405180910390fd5b610c408561122d565b15610c5e576040516303e7c1bd60e31b815260040160405180910390fd5b6001600160a01b038616610c8557604051635461585f60e01b815260040160405180910390fd5b60006001610c91610778565b6001600160a01b038a81166000818152600e602090815260409182902080546001810190915582517f6e71edae12b1b97f4d1f60370fef10105fa2faae0126114a169c64845d6126c98184015280840194909452938d166060840152608083018c905260a083019390935260c08083018b90528151808403909101815260e08301909152805192019190912061190160f01b6101008301526101028201929092526101228101919091526101420160408051601f198184030181528282528051602091820120600084529083018083525260ff871690820152606081018590526080810184905260a0016020604051602081039080840390855afa158015610d9d573d6000803e3d6000fd5b5050604051601f1901519150506001600160a01b0381161580610dd25750876001600160a01b0316816001600160a01b031614155b15610df057604051632057875960e21b815260040160405180910390fd5b6001600160a01b0390811660009081526008602090815260408083208a8516808552908352928190208990555188815291928a16917f8c5be1e5ebec7d5bd14f71427d1e84f3dd0314c0f7b2291e5b200ac8c7c3b925910160405180910390a350505050505050565b60006001600160a01b038416610e8257604051636edaef2f60e11b815260040160405180910390fd5b6001600160a01b038316610ea957604051634e46966960e11b815260040160405180910390fd5b6001600160a01b03841660009081526008602090815260408083203384529091529020546000198114610f0557610ee0838261271a565b6001600160a01b03861660009081526008602090815260408083203384529091529020555b610f1085858561140f565b95945050505050565b6001600160a01b038316610f4057604051636edaef2f60e11b815260040160405180910390fd5b6001600160a01b038216610f6757604051634e46966960e11b815260040160405180910390fd5b6000818152600b60205260409020546001600160a01b03848116911614610fa0576040516282b42960e81b815260040160405180910390fd5b336001600160a01b03841614801590610fdd57506001600160a01b0383166000908152600a6020908152604080832033845290915290205460ff16155b801561100057506000818152600960205260409020546001600160a01b03163314155b1561101d576040516282b42960e81b815260040160405180910390fd5b61102682610709565b1561104457604051635ce7539760e01b815260040160405180910390fd5b61106f83837f000000000000000000000000000000000000000000000000000000000000000061183a565b6107e98383836118f6565b6000818152600b60205260409020546001600160a01b03163381148015906110c657506001600160a01b0381166000908152600a6020908152604080832033845290915290205460ff16155b156110e3576040516282b42960e81b815260040160405180910390fd5b60008281526009602052604080822080546001600160a01b0319166001600160a01b0387811691821790925591518593918516917f8c5be1e5ebec7d5bd14f71427d1e84f3dd0314c0f7b2291e5b200ac8c7c3b92591a4505050565b611147611323565b6001600160a01b03811661117657604051631e4fbdf760e01b8152600060048201526024015b60405180910390fd5b61090381611350565b60606000826001600160401b0381111561119b5761119b612452565b6040519080825280602002602001820160405280156111c4578160200160208202803683370190505b509050835b6111d38486612668565b811015611225576111e5600182611b59565b6111f79061ffff16600160ff1b612668565b82611202878461271a565b815181106112125761121261263c565b60209081029190910101526001016111c9565b509392505050565b6000600160ff1b8211801561062b575050600019141590565b54600f196001600160401b038083166010908102600160401b850483168203600160c01b8604841601600160801b90950483169091029390930192909203011690565b60007f8b73c3c69bb8fe3d512ecc4cf759cc79239f7b179b0ffacaa9a75d522b39400f60036040516112bb919061272d565b6040805191829003822060208301939093528101919091527fc89efdaa54c0f20c7adf612882df0950f5a951637e0307cdcb4c672f298b8bc660608201524660808201523060a082015260c00160405160208183030381529060405280519060200120905090565b6000546001600160a01b031633146108f75760405163118cdaa760e01b815233600482015260240161116d565b600080546001600160a01b038381166001600160a01b0319831681178455604051919092169283917f8be0079c531659141344cd1fd0a4f28419497f9722a3daafe3b4186f6b6457e09190a35050565b6001600160a01b0382166113c75760405163a41e3d3f60e01b815260040160405180910390fd5b80156113db576113d682611c0b565b6113e4565b6113e482611c3f565b6001600160a01b03919091166000908152600d60205260409020805460ff1916911515919091179055565b6001600160a01b0383811660009081526007602052604080822054928516825281205490919061144086868661183a565b600061144b87610709565b9050600061145887610709565b90508180156114645750805b61179a57811561150d57600061149a7f0000000000000000000000000000000000000000000000000000000000000000856127e2565b6001600160a01b0389166000908152600760205260409020546114de907f0000000000000000000000000000000000000000000000000000000000000000906127e2565b6114e8919061271a565b905060005b81811015611506576114fe89611ccd565b6001016114ed565b505061179a565b80156115a9576001600160a01b038816600090815260076020526040812054611557907f0000000000000000000000000000000000000000000000000000000000000000906127e2565b6115817f0000000000000000000000000000000000000000000000000000000000000000876127e2565b61158b919061271a565b905060005b81811015611506576115a18a611db3565b600101611590565b60006115d57f0000000000000000000000000000000000000000000000000000000000000000886127e2565b905060005b8181101561167b576001600160a01b038a166000908152600c60205260408120546116079060019061271a565b6001600160a01b038c166000908152600c6020526040812080549293509091839081106116365761163661263c565b6000918252602090912060108204015461166491600f166002026101000a900461ffff16600160ff1b612668565b90506116718c8c836118f6565b50506001016115da565b50807f00000000000000000000000000000000000000000000000000000000000000006116bd8b6001600160a01b031660009081526007602052604090205490565b6116c791906127e2565b6116f17f0000000000000000000000000000000000000000000000000000000000000000886127e2565b6116fb919061271a565b111561170a5761170a89611db3565b806117357f0000000000000000000000000000000000000000000000000000000000000000866127e2565b7f00000000000000000000000000000000000000000000000000000000000000006117758b6001600160a01b031660009081526007602052604090205490565b61177f91906127e2565b611789919061271a565b11156117985761179888611ccd565b505b506001979650505050505050565b606060006117b583611e57565b60010190506000816001600160401b038111156117d4576117d4612452565b6040519080825280601f01601f1916602001820160405280156117fe576020820181803683370190505b5090508181016020015b600019016f181899199a1a9b1b9c1cb0b131b232b360811b600a86061a8153600a850494508461180857509392505050565b6001600160a01b03831661186557806005600082825461185a9190612668565b909155506118939050565b6001600160a01b0383166000908152600760205260408120805483929061188d90849061271a565b90915550505b6001600160a01b03808316600081815260076020526040908190208054850190555190918516907fddf252ad1be2c89b69c2b068fc378daa952ba7f163c4a11628f55a4df523b3ef906118e99085815260200190565b60405180910390a3505050565b6001600160a01b03831615611a5d57600081815260096020908152604080832080546001600160a01b03191690556001600160a01b0386168352600c909152812080546119459060019061271a565b815481106119555761195561263c565b6000918252602090912060108204015461198391600f166002026101000a900461ffff16600160ff1b612668565b9050818114611a08576000828152600b602052604081205460a01c6001600160a01b0386166000908152600c6020526040902080549192508391839081106119cd576119cd61263c565b90600052602060002090601091828204019190066002026101000a81548161ffff021916908361ffff160217905550611a068282611f2f565b505b6001600160a01b0384166000908152600c60205260409020805480611a2f57611a2f612804565b600082815260209020601060001990920191820401805461ffff6002600f8516026101000a02191690559055505b6001600160a01b03821615611b03576000818152600b6020526040902080546001600160a01b0319166001600160a01b0384160190556001600160a01b0382166000818152600c60209081526040822080546001808201835582855292842060108204018054600f9092166002026101000a61ffff8181021990931692881602919091179055929091529054611afe918391611af9919061271a565b611f2f565b611b13565b6000818152600b60205260408120555b80826001600160a01b0316846001600160a01b03167fddf252ad1be2c89b69c2b068fc378daa952ba7f163c4a11628f55a4df523b3ef60405160405180910390a4505050565b6000611b6483611246565b611b6f90601061281a565b8210611b8e5760405163580821e760e01b815260040160405180910390fd5b610771600184016000601085046010808789546001600160401b03600160401b909104811692909106919091011681611bc957611bc96127cc565b88549190046001600160401b03808316919091019290920182168352602083019390935260409091016000205491601091600160401b90910416850106611f9b565b6001600160a01b0381166000908152600c6020526040812054905b818110156107e957611c3783611db3565b600101611c26565b6001600160a01b038116600090815260076020526040812054611c83907f0000000000000000000000000000000000000000000000000000000000000000906127e2565b90506000611ca6836001600160a01b03166000908152600c602052604090205490565b905060005b611cb5828461271a565b811015610bc957611cc584611ccd565b600101611cab565b6001600160a01b038116611cf457604051634e46966960e11b815260040160405180910390fd5b6000611d006001611fc6565b611d2757611d0e6001612008565b611d209061ffff16600160ff1b612668565b9050611d71565b600660008154611d3690612831565b90915550600654600101611d5d5760405163303b682f60e01b815260040160405180910390fd5b600654611d6e90600160ff1b612668565b90505b6000818152600b60205260409020546001600160a01b03168015611da85760405163119b4fd360e11b815260040160405180910390fd5b6107e98184846118f6565b6001600160a01b038116611dda57604051636edaef2f60e11b815260040160405180910390fd5b6001600160a01b0381166000908152600c602052604081208054611e009060019061271a565b81548110611e1057611e1061263c565b60009182526020909120601082040154611e3e91600f166002026101000a900461ffff16600160ff1b612668565b9050611e4c826000836118f6565b610be160018261211c565b60008072184f03e93ff9f4daa797ed6e38ed64bf6a1f0160401b8310611e965772184f03e93ff9f4daa797ed6e38ed64bf6a1f0160401b830492506040015b6d04ee2d6d415b85acef81000000008310611ec2576d04ee2d6d415b85acef8100000000830492506020015b662386f26fc100008310611ee057662386f26fc10000830492506010015b6305f5e1008310611ef8576305f5e100830492506008015b6127108310611f0c57612710830492506004015b60648310611f1e576064830492506002015b600a831061062b5760010192915050565b6000828152600b60205260409020546bffffffffffffffffffffffff821115611f6b57604051633f2cd0e360e21b815260040160405180910390fd5b6000928352600b60205260409092206001600160a01b039290921660a09190911b6001600160a01b031916019055565b6000611fa882601061284a565b6001600160401b0316611fba8361220c565b8416901c905092915050565b8054600090600160c01b81046001600160401b03908116600160401b9092041614801561062b575050546001600160401b03808216600160801b909204161490565b80546000906001600160401b03600160801b8204811691600160c01b8104821691168214801561204b575083546001600160401b03828116600160401b90920416145b15612069576040516375e52f4f60e01b815260040160405180910390fd5b806001600160401b0316600003612086575060001901600f61208b565b600019015b6001600160401b03821660009081526001850160205260409020546120b08183611f9b565b93506120be8183600061222e565b6001600160401b03938416600081815260018801602052604090209190915585546fffffffffffffffffffffffffffffffff16600160801b9091026001600160c01b031617600160c01b929093169190910291909117909255919050565b81546001600160401b0380821691600160401b9004166000819003612147575060001901600f61214c565b600019015b83546001600160401b03838116600160801b90920416148015612182575083546001600160401b03828116600160c01b90920416145b156121a057604051638acb5f2760e01b815260040160405180910390fd5b6001600160401b03821660009081526001850160205260409020546121c690828561222e565b6001600160401b03928316600081815260018701602052604090209190915584546fffffffffffffffffffffffffffffffff191617600160401b91909216021790915550565b600061221982601061284a565b6001600160401b031661ffff901b9050919050565b600061223b83601061284a565b6001600160401b03168261ffff16901b6122548461220c565b1985166122619190612668565b949350505050565b6001600160e01b03198116811461090357600080fd5b60006020828403121561229157600080fd5b813561077181612269565b80356001600160a01b03811681146108e057600080fd5b6000602082840312156122c557600080fd5b6107718261229c565b60005b838110156122e95781810151838201526020016122d1565b50506000910152565b6000815180845261230a8160208601602086016122ce565b601f01601f19169290920160200192915050565b60208152600061077160208301846122f2565b60006020828403121561234357600080fd5b5035919050565b6000806040838503121561235d57600080fd5b6123668361229c565b946020939093013593505050565b60008060006060848603121561238957600080fd5b6123928461229c565b92506123a06020850161229c565b9150604084013590509250925092565b803580151581146108e057600080fd5b6000602082840312156123d257600080fd5b610771826123b0565b600080604083850312156123ee57600080fd5b6123f78361229c565b9150612405602084016123b0565b90509250929050565b6020808252825182820181905260009190848201906040850190845b818110156124465783518352928401929184019160010161242a565b50909695505050505050565b634e487b7160e01b600052604160045260246000fd5b6000806000806080858703121561247e57600080fd5b6124878561229c565b93506124956020860161229c565b92506040850135915060608501356001600160401b03808211156124b857600080fd5b818701915087601f8301126124cc57600080fd5b8135818111156124de576124de612452565b604051601f8201601f19908116603f0116810190838211818310171561250657612506612452565b816040528281528a602084870101111561251f57600080fd5b82602086016020830137600060208483010152809550505050505092959194509250565b600080600080600080600060e0888a03121561255e57600080fd5b6125678861229c565b96506125756020890161229c565b95506040880135945060608801359350608088013560ff8116811461259957600080fd5b9699959850939692959460a0840135945060c09093013592915050565b600080604083850312156125c957600080fd5b6125d28361229c565b91506124056020840161229c565b600080604083850312156125f357600080fd5b50508035926020909101359150565b600181811c9082168061261657607f821691505b60208210810361263657634e487b7160e01b600052602260045260246000fd5b50919050565b634e487b7160e01b600052603260045260246000fd5b634e487b7160e01b600052601160045260246000fd5b8082018082111561062b5761062b612652565b6001600160a01b03858116825284166020820152604081018390526080606082018190526000906126ae908301846122f2565b9695505050505050565b6000602082840312156126ca57600080fd5b815161077181612269565b7f68747470733a2f2f6578616d706c652e636f6d2f746f6b656e2f00000000000081526000825161270d81601a8501602087016122ce565b91909101601a0192915050565b8181038181111561062b5761062b612652565b600080835481600182811c91508083168061274957607f831692505b6020808410820361276857634e487b7160e01b86526022600452602486fd5b81801561277c5760018114612791576127be565b60ff19861689528415158502890196506127be565b60008a81526020902060005b868110156127b65781548b82015290850190830161279d565b505084890196505b509498975050505050505050565b634e487b7160e01b600052601260045260246000fd5b6000826127ff57634e487b7160e01b600052601260045260246000fd5b500490565b634e487b7160e01b600052603160045260246000fd5b808202811582820484141761062b5761062b612652565b60006001820161284357612843612652565b5060010190565b6001600160401b0381811683821602808216919082811461286d5761286d612652565b50509291505056fea264697066735822122059d67d13f5fd7fde603aa559d5134dddb1763615bc39bb5eda6d301b945c74bd64736f6c63430008140033ddf252ad1be2c89b69c2b068fc378daa952ba7f163c4a11628f55a4df523b3ef","linkReferences":{}},"methodIdentifiers":{"DOMAIN_SEPARATOR()":"3644e515","ID_ENCODING_PREFIX()":"6e8f624b","allowance(address,address)":"dd62ed3e","approve(address,uint256)":"095ea7b3","balanceOf(address)":"70a08231","decimals()":"313ce567","erc20Approve(address,uint256)":"4d966072","erc20BalanceOf(address)":"02519da3","erc20TotalSupply()":"89fb4c66","erc20TransferFrom(address,address,uint256)":"d96ca0b9","erc721Approve(address,uint256)":"dfabc033","erc721BalanceOf(address)":"b3f9ea34","erc721TotalSupply()":"c5ab3ba6","erc721TransferExempt(address)":"09f0ef65","erc721TransferFrom(address,address,uint256)":"dd637699","getApproved(uint256)":"081812fc","getERC721QueueLength()":"09674eb0","getERC721TokensInQueue(uint256,uint256)":"f780bc1a","isApprovedForAll(address,address)":"e985e9c5","minted()":"4f02c420","name()":"06fdde03","nonces(address)":"7ecebe00","owned(address)":"b1ab9317","owner()":"8da5cb5b","ownerOf(uint256)":"6352211e","permit(address,address,uint256,uint256,uint8,bytes32,bytes32)":"d505accf","renounceOwnership()":"715018a6","safeTransferFrom(address,address,uint256)":"42842e0e","safeTransferFrom(address,address,uint256,bytes)":"b88d4fde","setApprovalForAll(address,bool)":"a22cb465","setERC721TransferExempt(address,bool)":"c6e672b9","setSelfERC721TransferExempt(bool)":"8a696e50","supportsInterface(bytes4)":"01ffc9a7","symbol()":"95d89b41","tokenURI(uint256)":"c87b56dd","totalSupply()":"18160ddd","transfer(address,uint256)":"a9059cbb","transferFrom(address,address,uint256)":"23b872dd","transferOwnership(address)":"f2fde38b","units()":"976a8435"},"id":4}