{"abi":[{"type":"constructor","inputs":[{"name":"name_","type":"string","internalType":"string"},{"name":"symbol_","type":"string","internalType":"string"},{"name":"decimals_","type":"uint8","internalType":"uint8"},{"name":"maxTotalSupplyERC721_","type":"uint256","internalType":"uint256"},{"name":"initialOwner_","type":"address","internalType":"address"},{"name":"initialMintRecipient_","type":"address","internalType":"address"}],"stateMutability":"nonpayable"},{"type":"function","name":"DOMAIN_SEPARATOR","inputs":[],"outputs":[{"name":"","type":"bytes32","internalType":"bytes32"}],"stateMutability":"view"},{"type":"function","name":"ID_ENCODING_PREFIX","inputs":[],"outputs":[{"name":"","type":"uint256","internalType":"uint256"}],"stateMutability":"view"},{"type":"function","name":"allowance","inputs":[{"name":"","type":"address","internalType":"address"},{"name":"","type":"address","internalType":"address"}],"outputs":[{"name":"","type":"uint256","internalType":"uint256"}],"stateMutability":"view"},{"type":"function","name":"approve","inputs":[{"name":"spender_","type":"address","internalType":"address"},{"name":"valueOrId_","type":"uint256","internalType":"uint256"}],"outputs":[{"name":"","type":"bool","internalType":"bool"}],"stateMutability":"nonpayable"},{"type":"function","name":"balanceOf","inputs":[{"name":"","type":"address","internalType":"address"}],"outputs":[{"name":"","type":"uint256","internalType":"uint256"}],"stateMutability":"view"},{"type":"function","name":"decimals","inputs":[],"outputs":[{"name":"","type":"uint8","internalType":"uint8"}],"stateMutability":"view"},{"type":"function","name":"erc20Approve","inputs":[{"name":"spender_","type":"address","internalType":"address"},{"name":"value_","type":"uint256","internalType":"uint256"}],"outputs":[{"name":"","type":"bool","internalType":"bool"}],"stateMutability":"nonpayable"},{"type":"function","name":"erc20BalanceOf","inputs":[{"name":"owner_","type":"address","internalType":"address"}],"outputs":[{"name":"","type":"uint256","internalType":"uint256"}],"stateMutability":"view"},{"type":"function","name":"erc20TotalSupply","inputs":[],"outputs":[{"name":"","type":"uint256","internalType":"uint256"}],"stateMutability":"view"},{"type":"function","name":"erc20TransferFrom","inputs":[{"name":"from_","type":"address","internalType":"address"},{"name":"to_","type":"address","internalType":"address"},{"name":"value_","type":"uint256","internalType":"uint256"}],"outputs":[{"name":"","type":"bool","internalType":"bool"}],"stateMutability":"nonpayable"},{"type":"function","name":"erc721Approve","inputs":[{"name":"spender_","type":"address","internalType":"address"},{"name":"id_","type":"uint256","internalType":"uint256"}],"outputs":[],"stateMutability":"nonpayable"},{"type":"function","name":"erc721BalanceOf","inputs":[{"name":"owner_","type":"address","internalType":"address"}],"outputs":[{"name":"","type":"uint256","internalType":"uint256"}],"stateMutability":"view"},{"type":"function","name":"erc721TotalSupply","inputs":[],"outputs":[{"name":"","type":"uint256","internalType":"uint256"}],"stateMutability":"view"},{"type":"function","name":"erc721TransferExempt","inputs":[{"name":"target_","type":"address","internalType":"address"}],"outputs":[{"name":"","type":"bool","internalType":"bool"}],"stateMutability":"view"},{"type":"function","name":"erc721TransferFrom","inputs":[{"name":"from_","type":"address","internalType":"address"},{"name":"to_","type":"address","internalType":"address"},{"name":"id_","type":"uint256","internalType":"uint256"}],"outputs":[],"stateMutability":"nonpayable"},{"type":"function","name":"getApproved","inputs":[{"name":"","type":"uint256","internalType":"uint256"}],"outputs":[{"name":"","type":"address","internalType":"address"}],"stateMutability":"view"},{"type":"function","name":"getERC721QueueLength","inputs":[],"outputs":[{"name":"","type":"uint256","internalType":"uint256"}],"stateMutability":"view"},{"type":"function","name":"getERC721TokensInQueue","inputs":[{"name":"start_","type":"uint256","internalType":"uint256"},{"name":"count_","type":"uint256","internalType":"uint256"}],"outputs":[{"name":"","type":"uint256[]","internalType":"uint256[]"}],"stateMutability":"view"},{"type":"function","name":"isApprovedForAll","inputs":[{"name":"","type":"address","internalType":"address"},{"name":"","type":"address","internalType":"address"}],"outputs":[{"name":"","type":"bool","internalType":"bool"}],"stateMutability":"view"},{"type":"function","name":"minted","inputs":[],"outputs":[{"name":"","type":"uint256","internalType":"uint256"}],"stateMutability":"view"},{"type":"function","name":"name","inputs":[],"outputs":[{"name":"","type":"string","internalType":"string"}],"stateMutability":"view"},{"type":"function","name":"nonces","inputs":[{"name":"","type":"address","internalType":"address"}],"outputs":[{"name":"","type":"uint256","internalType":"uint256"}],"stateMutability":"view"},{"type":"function","name":"owned","inputs":[{"name":"owner_","type":"address","internalType":"address"}],"outputs":[{"name":"","type":"uint256[]","internalType":"uint256[]"}],"stateMutability":"view"},{"type":"function","name":"owner","inputs":[],"outputs":[{"name":"","type":"address","internalType":"address"}],"stateMutability":"view"},{"type":"function","name":"ownerOf","inputs":[{"name":"id_","type":"uint256","internalType":"uint256"}],"outputs":[{"name":"erc721Owner","type":"address","internalType":"address"}],"stateMutability":"view"},{"type":"function","name":"permit","inputs":[{"name":"owner_","type":"address","internalType":"address"},{"name":"spender_","type":"address","internalType":"address"},{"name":"value_","type":"uint256","internalType":"uint256"},{"name":"deadline_","type":"uint256","internalType":"uint256"},{"name":"v_","type":"uint8","internalType":"uint8"},{"name":"r_","type":"bytes32","internalType":"bytes32"},{"name":"s_","type":"bytes32","internalType":"bytes32"}],"outputs":[],"stateMutability":"nonpayable"},{"type":"function","name":"renounceOwnership","inputs":[],"outputs":[],"stateMutability":"nonpayable"},{"type":"function","name":"safeTransferFrom","inputs":[{"name":"from_","type":"address","internalType":"address"},{"name":"to_","type":"address","internalType":"address"},{"name":"id_","type":"uint256","internalType":"uint256"}],"outputs":[],"stateMutability":"nonpayable"},{"type":"function","name":"safeTransferFrom","inputs":[{"name":"from_","type":"address","internalType":"address"},{"name":"to_","type":"address","internalType":"address"},{"name":"id_","type":"uint256","internalType":"uint256"},{"name":"data_","type":"bytes","internalType":"bytes"}],"outputs":[],"stateMutability":"nonpayable"},{"type":"function","name":"setApprovalForAll","inputs":[{"name":"operator_","type":"address","internalType":"address"},{"name":"approved_","type":"bool","internalType":"bool"}],"outputs":[],"stateMutability":"nonpayable"},{"type":"function","name":"setERC721TransferExempt","inputs":[{"name":"account_","type":"address","internalType":"address"},{"name":"value_","type":"bool","internalType":"bool"}],"outputs":[],"stateMutability":"nonpayable"},{"type":"function","name":"setSelfERC721TransferExempt","inputs":[{"name":"state_","type":"bool","internalType":"bool"}],"outputs":[],"stateMutability":"nonpayable"},{"type":"function","name":"supportsInterface","inputs":[{"name":"interfaceId","type":"bytes4","internalType":"bytes4"}],"outputs":[{"name":"","type":"bool","internalType":"bool"}],"stateMutability":"view"},{"type":"function","name":"symbol","inputs":[],"outputs":[{"name":"","type":"string","internalType":"string"}],"stateMutability":"view"},{"type":"function","name":"tokenURI","inputs":[{"name":"id_","type":"uint256","internalType":"uint256"}],"outputs":[{"name":"","type":"string","internalType":"string"}],"stateMutability":"pure"},{"type":"function","name":"totalSupply","inputs":[],"outputs":[{"name":"","type":"uint256","internalType":"uint256"}],"stateMutability":"view"},{"type":"function","name":"transfer","inputs":[{"name":"to_","type":"address","internalType":"address"},{"name":"value_","type":"uint256","internalType":"uint256"}],"outputs":[{"name":"","type":"bool","internalType":"bool"}],"stateMutability":"nonpayable"},{"type":"function","name":"transferFrom","inputs":[{"name":"from_","type":"address","internalType":"address"},{"name":"to_","type":"address","internalType":"address"},{"name":"valueOrId_","type":"uint256","internalType":"uint256"}],"outputs":[{"name":"","type":"bool","internalType":"bool"}],"stateMutability":"nonpayable"},{"type":"function","name":"transferOwnership","inputs":[{"name":"newOwner","type":"address","internalType":"address"}],"outputs":[],"stateMutability":"nonpayable"},{"type":"function","name":"units","inputs":[],"outputs":[{"name":"","type":"uint256","internalType":"uint256"}],"stateMutability":"view"},{"type":"event","name":"Approval","inputs":[{"name":"owner","type":"address","indexed":true,"internalType":"address"},{"name":"spender","type":"address","indexed":true,"internalType":"address"},{"name":"value","type":"uint256","indexed":false,"internalType":"uint256"}],"anonymous":false},{"type":"event","name":"Approval","inputs":[{"name":"owner","type":"address","indexed":true,"internalType":"address"},{"name":"spender","type":"address","indexed":true,"internalType":"address"},{"name":"id","type":"uint256","indexed":true,"internalType":"uint256"}],"anonymous":false},{"type":"event","name":"ApprovalForAll","inputs":[{"name":"owner","type":"address","indexed":true,"internalType":"address"},{"name":"operator","type":"address","indexed":true,"internalType":"address"},{"name":"approved","type":"bool","indexed":false,"internalType":"bool"}],"anonymous":false},{"type":"event","name":"OwnershipTransferred","inputs":[{"name":"previousOwner","type":"address","indexed":true,"internalType":"address"},{"name":"newOwner","type":"address","indexed":true,"internalType":"address"}],"anonymous":false},{"type":"event","name":"Transfer","inputs":[{"name":"from","type":"address","indexed":true,"internalType":"address"},{"name":"to","type":"address","indexed":true,"internalType":"address"},{"name":"amount","type":"uint256","indexed":false,"internalType":"uint256"}],"anonymous":false},{"type":"event","name":"Transfer","inputs":[{"name":"from","type":"address","indexed":true,"internalType":"address"},{"name":"to","type":"address","indexed":true,"internalType":"address"},{"name":"id","type":"uint256","indexed":true,"internalType":"uint256"}],"anonymous":false},{"type":"error","name":"AlreadyExists","inputs":[]},{"type":"error","name":"DecimalsTooLow","inputs":[]},{"type":"error","name":"InsufficientAllowance","inputs":[]},{"type":"error","name":"InvalidApproval","inputs":[]},{"type":"error","name":"InvalidExemption","inputs":[]},{"type":"error","name":"InvalidOperator","inputs":[]},{"type":"error","name":"InvalidRecipient","inputs":[]},{"type":"error","name":"InvalidSender","inputs":[]},{"type":"error","name":"InvalidSigner","inputs":[]},{"type":"error","name":"InvalidSpender","inputs":[]},{"type":"error","name":"InvalidTokenId","inputs":[]},{"type":"error","name":"MintLimitReached","inputs":[]},{"type":"error","name":"NotFound","inputs":[]},{"type":"error","name":"OwnedIndexOverflow","inputs":[]},{"type":"error","name":"PermitDeadlineExpired","inputs":[]},{"type":"error","name":"QueueEmpty","inputs":[]},{"type":"error","name":"QueueFull","inputs":[]},{"type":"error","name":"QueueOutOfBounds","inputs":[]},{"type":"error","name":"RecipientIsERC721TransferExempt","inputs":[]},{"type":"error","name":"Unauthorized","inputs":[]},{"type":"error","name":"UnsafeRecipient","inputs":[]}],"bytecode":{"object":"0x6101006040523480156200001257600080fd5b5060405162003dd738038062003dd7833981016040819052620000359162000f89565b8585856200004333620000ea565b6003620000518482620010c9565b506004620000608382620010c9565b5060128160ff16101562000087576040516398790fd560e01b815260040160405180910390fd5b60ff811660808190526200009d90600a620012a8565b60a0524660c052620000ae6200013a565b60e05250620000c391508290506001620001d6565b620000de8160a05185620000d89190620012c0565b6200024c565b5050505050506200141d565b600080546001600160a01b038381166001600160a01b0319831681178455604051919092169283917f8be0079c531659141344cd1fd0a4f28419497f9722a3daafe3b4186f6b6457e09190a35050565b60007f8b73c3c69bb8fe3d512ecc4cf759cc79239f7b179b0ffacaa9a75d522b39400f60036040516200016e9190620012da565b6040805191829003822060208301939093528101919091527fc89efdaa54c0f20c7adf612882df0950f5a951637e0307cdcb4c672f298b8bc660608201524660808201523060a082015260c00160405160208183030381529060405280519060200120905090565b6001600160a01b038216620001fe5760405163a41e3d3f60e01b815260040160405180910390fd5b801562000216576200021082620002bc565b62000221565b6200022182620002f4565b6001600160a01b03919091166000908152600d60205260409020805460ff1916911515919091179055565b6001600160a01b0382166200027457604051634e46966960e11b815260040160405180910390fd5b600160ff1b8160055462000289919062001358565b1115620002a95760405163303b682f60e01b815260040160405180910390fd5b620002b7600083836200037d565b505050565b6001600160a01b0381166000908152600c6020526040812054905b81811015620002b757620002eb836200064b565b600101620002d7565b60a0516000906200031a836001600160a01b031660009081526007602052604090205490565b6200032691906200136e565b905060006200034a836001600160a01b03166000908152600c602052604090205490565b905060005b6200035b828462001391565b81101562000377576200036e84620006ff565b6001016200034f565b50505050565b6001600160a01b03838116600090815260076020526040808220549285168252812054909190620003b0868686620007f6565b6000620003bd87620008a8565b90506000620003cc87620008a8565b9050818015620003d95750805b6200063d5781156200045557600060a05184620003f791906200136e565b60a0516001600160a01b038a166000908152600760205260409020546200041f91906200136e565b6200042b919062001391565b905060005b818110156200044d576200044489620006ff565b60010162000430565b50506200063d565b8015620004c25760a0516001600160a01b038916600090815260076020526040812054909162000485916200136e565b60a0516200049490876200136e565b620004a0919062001391565b905060005b818110156200044d57620004b98a6200064b565b600101620004a5565b600060a05187620004d491906200136e565b905060005b8181101562000585576001600160a01b038a166000908152600c6020526040812054620005099060019062001391565b6001600160a01b038c166000908152600c6020526040812080549293509091839081106200053b576200053b620013a7565b600091825260209091206010820401546200056b91600f166002026101000a900461ffff16600160ff1b62001358565b90506200057a8c8c83620008df565b5050600101620004d9565b5060a0518190620005ab8b6001600160a01b031660009081526007602052604090205490565b620005b791906200136e565b60a051620005c690886200136e565b620005d2919062001391565b1115620005e457620005e4896200064b565b8060a05185620005f591906200136e565b60a0516001600160a01b038b166000908152600760205260409020546200061d91906200136e565b62000629919062001391565b11156200063b576200063b88620006ff565b505b506001979650505050505050565b6001600160a01b0381166200067357604051636edaef2f60e11b815260040160405180910390fd5b6001600160a01b0381166000908152600c6020526040812080546200069b9060019062001391565b81548110620006ae57620006ae620013a7565b60009182526020909120601082040154620006de91600f166002026101000a900461ffff16600160ff1b62001358565b9050620006ee82600083620008df565b620006fb60018262000b4e565b5050565b6001600160a01b0381166200072757604051634e46966960e11b815260040160405180910390fd5b600062000735600162000c45565b620007625762000746600162000c8d565b6200075a9061ffff16600160ff1b62001358565b9050620007b1565b6006600081546200077390620013bd565b909155506006546001016200079b5760405163303b682f60e01b815260040160405180910390fd5b600654620007ae90600160ff1b62001358565b90505b6000818152600b60205260409020546001600160a01b03168015620007e95760405163119b4fd360e11b815260040160405180910390fd5b620002b7818484620008df565b6001600160a01b0383166200082557806005600082825462000819919062001358565b90915550620008559050565b6001600160a01b038316600090815260076020526040812080548392906200084f90849062001391565b90915550505b6001600160a01b038083166000818152600760205260409081902080548501905551909185169060008051602062003db7833981519152906200089b9085815260200190565b60405180910390a3505050565b60006001600160a01b0382161580620008d957506001600160a01b0382166000908152600d602052604090205460ff165b92915050565b6001600160a01b0383161562000a5d57600081815260096020908152604080832080546001600160a01b03191690556001600160a01b0386168352600c90915281208054620009319060019062001391565b81548110620009445762000944620013a7565b600091825260209091206010820401546200097491600f166002026101000a900461ffff16600160ff1b62001358565b905081811462000a05576000828152600b602052604081205460a01c6001600160a01b0386166000908152600c602052604090208054919250839183908110620009c257620009c2620013a7565b90600052602060002090601091828204019190066002026101000a81548161ffff021916908361ffff16021790555062000a03828262000da560201b60201c565b505b6001600160a01b0384166000908152600c6020526040902080548062000a2f5762000a2f620013d9565b600082815260209020601060001990920191820401805461ffff6002600f8516026101000a02191690559055505b6001600160a01b0382161562000b09576000818152600b6020526040902080546001600160a01b0319166001600160a01b0384160190556001600160a01b0382166000818152600c60209081526040822080546001808201835582855292842060108204018054600f9092166002026101000a61ffff818102199093169288160291909117905592909152905462000b0391839162000afd919062001391565b62000da5565b62000b19565b6000818152600b60205260408120555b80826001600160a01b0316846001600160a01b031660008051602062003db783398151915260405160405180910390a4505050565b81546001600160401b038082169168010000000000000000900416600081900362000b80575060001901600f62000b85565b600019015b83546001600160401b03838116600160801b9092041614801562000bbc575083546001600160401b03828116600160c01b90920416145b1562000bdb57604051638acb5f2760e01b815260040160405180910390fd5b6001600160401b038216600090815260018501602052604090205462000c0390828562000e0d565b6001600160401b03928316600081815260018701602052604090209190915584546001600160801b031916176801000000000000000091909216021790915550565b8054600090600160c01b81046001600160401b039081166801000000000000000090920416148015620008d9575050546001600160401b03808216600160801b909204161490565b80546000906001600160401b03600160801b8204811691600160c01b8104821691168214801562000cd6575083546001600160401b038281166801000000000000000090920416145b1562000cf5576040516375e52f4f60e01b815260040160405180910390fd5b806001600160401b031660000362000d14575060001901600f62000d19565b600019015b6001600160401b038216600090815260018501602052604090205462000d40818362000e54565b935062000d508183600062000e0d565b6001600160401b03938416600081815260018801602052604090209190915585546001600160801b0316600160801b9091026001600160c01b031617600160c01b929093169190910291909117909255919050565b6000828152600b60205260409020546001600160601b0382111562000ddd57604051633f2cd0e360e21b815260040160405180910390fd5b6000928352600b60205260409092206001600160a01b039290921660a09190911b6001600160a01b031916019055565b600062000e1c836010620013ef565b6001600160401b03168261ffff16901b62000e3d8462000e8360201b60201c565b19851662000e4c919062001358565b949350505050565b600062000e63826010620013ef565b6001600160401b031662000e778362000e83565b8416901c905092915050565b600062000e92826010620013ef565b6001600160401b031661ffff901b9050919050565b634e487b7160e01b600052604160045260246000fd5b600082601f83011262000ecf57600080fd5b81516001600160401b038082111562000eec5762000eec62000ea7565b604051601f8301601f19908116603f0116810190828211818310171562000f175762000f1762000ea7565b8160405283815260209250868385880101111562000f3457600080fd5b600091505b8382101562000f58578582018301518183018401529082019062000f39565b600093810190920192909252949350505050565b80516001600160a01b038116811462000f8457600080fd5b919050565b60008060008060008060c0878903121562000fa357600080fd5b86516001600160401b038082111562000fbb57600080fd5b62000fc98a838b0162000ebd565b9750602089015191508082111562000fe057600080fd5b5062000fef89828a0162000ebd565b955050604087015160ff811681146200100757600080fd5b606088015190945092506200101f6080880162000f6c565b91506200102f60a0880162000f6c565b90509295509295509295565b600181811c908216806200105057607f821691505b6020821081036200107157634e487b7160e01b600052602260045260246000fd5b50919050565b601f821115620002b757600081815260208120601f850160051c81016020861015620010a05750805b601f850160051c820191505b81811015620010c157828155600101620010ac565b505050505050565b81516001600160401b03811115620010e557620010e562000ea7565b620010fd81620010f684546200103b565b8462001077565b602080601f8311600181146200113557600084156200111c5750858301515b600019600386901b1c1916600185901b178555620010c1565b600085815260208120601f198616915b82811015620011665788860151825594840194600190910190840162001145565b5085821015620011855787850151600019600388901b60f8161c191681555b5050505050600190811b01905550565b634e487b7160e01b600052601160045260246000fd5b600181815b80851115620011ec578160001904821115620011d057620011d062001195565b80851615620011de57918102915b93841c9390800290620011b0565b509250929050565b6000826200120557506001620008d9565b816200121457506000620008d9565b81600181146200122d5760028114620012385762001258565b6001915050620008d9565b60ff8411156200124c576200124c62001195565b50506001821b620008d9565b5060208310610133831016604e8410600b84101617156200127d575081810a620008d9565b620012898383620011ab565b8060001904821115620012a057620012a062001195565b029392505050565b6000620012b960ff841683620011f4565b9392505050565b8082028115828204841417620008d957620008d962001195565b6000808354620012ea816200103b565b600182811680156200130557600181146200131b576200134c565b60ff19841687528215158302870194506200134c565b8760005260208060002060005b85811015620013435781548a82015290840190820162001328565b50505082870194505b50929695505050505050565b80820180821115620008d957620008d962001195565b6000826200138c57634e487b7160e01b600052601260045260246000fd5b500490565b81810381811115620008d957620008d962001195565b634e487b7160e01b600052603260045260246000fd5b600060018201620013d257620013d262001195565b5060010190565b634e487b7160e01b600052603160045260246000fd5b6001600160401b0381811683821602808216919082811462001415576200141562001195565b505092915050565b60805160a05160c05160e051612913620014a460003960006107ac0152600061077c01526000818161045d0152818161104b015281816114dd015281816115210152818161159a015281816115c401528181611618015281816116e701528181611734015281816117780152818161179f0152611cc60152600061035101526129136000f3fe608060405234801561001057600080fd5b50600436106102485760003560e01c80638a696e501161013b578063c6e672b9116100b8578063dd6376991161007c578063dd63769914610580578063dfabc03314610593578063e985e9c5146105a6578063f2fde38b146105d4578063f780bc1a146105e757600080fd5b8063c6e672b914610509578063c87b56dd1461051c578063d505accf1461052f578063d96ca0b914610542578063dd62ed3e1461055557600080fd5b8063a9059cbb116100ff578063a9059cbb14610492578063b1ab9317146104a5578063b3f9ea34146104c5578063b88d4fde146104ee578063c5ab3ba61461050157600080fd5b80638a696e501461042c5780638da5cb5b1461043f57806395d89b4114610450578063976a843514610458578063a22cb4651461047f57600080fd5b80633644e515116101c95780636e8f624b1161018d5780636e8f624b146103d157806370a08231146103dc578063715018a6146103fc5780637ecebe001461040457806389fb4c661461042457600080fd5b80633644e5151461038557806342842e0e1461038d5780634d966072146103a25780634f02c420146103b55780636352211e146103be57600080fd5b806309674eb01161021057806309674eb01461031557806309f0ef651461031d57806318160ddd1461033057806323b872dd14610339578063313ce5671461034c57600080fd5b806301ffc9a71461024d57806302519da31461027557806306fdde03146102ac578063081812fc146102c1578063095ea7b314610302575b600080fd5b61026061025b3660046122e7565b6105fa565b60405190151581526020015b60405180910390f35b61029e61028336600461231b565b6001600160a01b031660009081526007602052604090205490565b60405190815260200161026c565b6102b4610631565b60405161026c9190612386565b6102ea6102cf366004612399565b6009602052600090815260409020546001600160a01b031681565b6040516001600160a01b03909116815260200161026c565b6102606103103660046123b2565b6106bf565b61029e6106f8565b61026061032b36600461231b565b610709565b61029e60055481565b6102606103473660046123dc565b61073b565b6103737f000000000000000000000000000000000000000000000000000000000000000081565b60405160ff909116815260200161026c565b61029e610778565b6103a061039b3660046123dc565b6107ce565b005b6102606103b03660046123b2565b6107ee565b61029e60065481565b6102ea6103cc366004612399565b61087b565b61029e600160ff1b81565b61029e6103ea36600461231b565b60076020526000908152604090205481565b6103a06108e5565b61029e61041236600461231b565b600e6020526000908152604090205481565b60055461029e565b6103a061043a366004612428565b6108f9565b6000546001600160a01b03166102ea565b6102b4610906565b61029e7f000000000000000000000000000000000000000000000000000000000000000081565b6103a061048d366004612443565b610913565b6102606104a03660046123b2565b6109a6565b6104b86104b336600461231b565b6109da565b60405161026c9190612476565b61029e6104d336600461231b565b6001600160a01b03166000908152600c602052604090205490565b6103a06104fc3660046124d0565b610ae1565b60065461029e565b6103a0610517366004612443565b610bcf565b6102b461052a366004612399565b610be5565b6103a061053d3660046125ab565b610c16565b6102606105503660046123dc565b610e59565b61029e61056336600461261e565b600860209081526000928352604080842090915290825290205481565b6103a061058e3660046123dc565b610f19565b6103a06105a13660046123b2565b61107a565b6102606105b436600461261e565b600a60209081526000928352604080842090915290825290205460ff1681565b6103a06105e236600461231b565b61113f565b6104b86105f5366004612648565b6111ba565b60006001600160e01b0319821663876f7f8760e01b148061062b57506001600160e01b031982166301ffc9a760e01b145b92915050565b6003805461063e9061266a565b80601f016020809104026020016040519081016040528092919081815260200182805461066a9061266a565b80156106b75780601f1061068c576101008083540402835291602001916106b7565b820191906000526020600020905b81548152906001019060200180831161069a57829003601f168201915b505050505081565b60006106ca82611268565b156106de576106d9838361107a565b6106ef565b6106e883836107ee565b905061062b565b50600192915050565b60006107046001611281565b905090565b60006001600160a01b038216158061062b5750506001600160a01b03166000908152600d602052604090205460ff1690565b600061074682611268565b1561075b57610756848484610f19565b61076d565b610766848484610e59565b9050610771565b5060015b9392505050565b60007f000000000000000000000000000000000000000000000000000000000000000046146107a9576107046112c4565b507f000000000000000000000000000000000000000000000000000000000000000090565b6107e983838360405180602001604052806000815250610ae1565b505050565b60006001600160a01b03831661081757604051635461585f60e01b815260040160405180910390fd5b3360008181526008602090815260408083206001600160a01b03881680855290835292819020869055518581529192917f8c5be1e5ebec7d5bd14f71427d1e84f3dd0314c0f7b2291e5b200ac8c7c3b925910160405180910390a350600192915050565b6000818152600b60205260409020546001600160a01b031661089c82611268565b6108b9576040516307ed98ed60e31b815260040160405180910390fd5b6001600160a01b0381166108e05760405163c5723b5160e01b815260040160405180910390fd5b919050565b6108ed61135e565b6108f760006113b8565b565b6109033382611408565b50565b6004805461063e9061266a565b6001600160a01b03821661093a5760405163ccea9e6f60e01b815260040160405180910390fd5b336000818152600a602090815260408083206001600160a01b03871680855290835292819020805460ff191686151590811790915590519081529192917f17307eab39ab6107e8899845ad3d59bd9653f200f220920489ca2b5937696c31910160405180910390a35050565b60006001600160a01b0383166109cf57604051634e46966960e11b815260040160405180910390fd5b610771338484611477565b6001600160a01b0381166000908152600c6020526040812054606091906001600160401b03811115610a0e57610a0e6124ba565b604051908082528060200260200182016040528015610a37578160200160208202803683370190505b50905060005b6001600160a01b0384166000908152600c6020526040902054811015610ada576001600160a01b0384166000908152600c60205260409020805482908110610a8757610a876126a4565b60009182526020909120601082040154610ab591600f166002026101000a900461ffff16600160ff1b6126d0565b828281518110610ac757610ac76126a4565b6020908102919091010152600101610a3d565b5092915050565b610aea82611268565b610b07576040516307ed98ed60e31b815260040160405180910390fd5b610b1284848461073b565b506001600160a01b0383163b15801590610bab5750604051630a85bd0160e11b808252906001600160a01b0385169063150b7a0290610b5b9033908990889088906004016126e3565b6020604051808303816000875af1158015610b7a573d6000803e3d6000fd5b505050506040513d601f19601f82011682018060405250810190610b9e9190612720565b6001600160e01b03191614155b15610bc957604051633da6393160e01b815260040160405180910390fd5b50505050565b610bd761135e565b610be18282611408565b5050565b6060610bf082611810565b604051602001610c00919061273d565b6040516020818303038152906040529050919050565b42841015610c37576040516305787bdf60e01b815260040160405180910390fd5b610c4085611268565b15610c5e576040516303e7c1bd60e31b815260040160405180910390fd5b6001600160a01b038616610c8557604051635461585f60e01b815260040160405180910390fd5b60006001610c91610778565b6001600160a01b038a81166000818152600e602090815260409182902080546001810190915582517f6e71edae12b1b97f4d1f60370fef10105fa2faae0126114a169c64845d6126c98184015280840194909452938d166060840152608083018c905260a083019390935260c08083018b90528151808403909101815260e08301909152805192019190912061190160f01b6101008301526101028201929092526101228101919091526101420160408051601f198184030181528282528051602091820120600084529083018083525260ff871690820152606081018590526080810184905260a0016020604051602081039080840390855afa158015610d9d573d6000803e3d6000fd5b5050604051601f1901519150506001600160a01b0381161580610dd25750876001600160a01b0316816001600160a01b031614155b15610df057604051632057875960e21b815260040160405180910390fd5b6001600160a01b0390811660009081526008602090815260408083208a8516808552908352928190208990555188815291928a16917f8c5be1e5ebec7d5bd14f71427d1e84f3dd0314c0f7b2291e5b200ac8c7c3b925910160405180910390a350505050505050565b60006001600160a01b038416610e8257604051636edaef2f60e11b815260040160405180910390fd5b6001600160a01b038316610ea957604051634e46966960e11b815260040160405180910390fd5b6001600160a01b03841660009081526008602090815260408083203384529091529020546000198114610f0557610ee08382612782565b6001600160a01b03861660009081526008602090815260408083203384529091529020555b610f10858585611477565b95945050505050565b6001600160a01b038316610f4057604051636edaef2f60e11b815260040160405180910390fd5b6001600160a01b038216610f6757604051634e46966960e11b815260040160405180910390fd5b6000818152600b60205260409020546001600160a01b03848116911614610fa0576040516282b42960e81b815260040160405180910390fd5b336001600160a01b03841614801590610fdd57506001600160a01b0383166000908152600a6020908152604080832033845290915290205460ff16155b801561100057506000818152600960205260409020546001600160a01b03163314155b1561101d576040516282b42960e81b815260040160405180910390fd5b61102682610709565b1561104457604051635ce7539760e01b815260040160405180910390fd5b61106f83837f00000000000000000000000000000000000000000000000000000000000000006118a2565b6107e983838361195e565b6000818152600b60205260409020546001600160a01b03163381148015906110c657506001600160a01b0381166000908152600a6020908152604080832033845290915290205460ff16155b156110e3576040516282b42960e81b815260040160405180910390fd5b60008281526009602052604080822080546001600160a01b0319166001600160a01b0387811691821790925591518593918516917f8c5be1e5ebec7d5bd14f71427d1e84f3dd0314c0f7b2291e5b200ac8c7c3b92591a4505050565b61114761135e565b6001600160a01b0381166111b15760405162461bcd60e51b815260206004820152602660248201527f4f776e61626c653a206e6577206f776e657220697320746865207a65726f206160448201526564647265737360d01b60648201526084015b60405180910390fd5b610903816113b8565b60606000826001600160401b038111156111d6576111d66124ba565b6040519080825280602002602001820160405280156111ff578160200160208202803683370190505b509050835b61120e84866126d0565b81101561126057611220600182611bc1565b6112329061ffff16600160ff1b6126d0565b8261123d8784612782565b8151811061124d5761124d6126a4565b6020908102919091010152600101611204565b509392505050565b6000600160ff1b8211801561062b575050600019141590565b54600f196001600160401b038083166010908102600160401b850483168203600160c01b8604841601600160801b90950483169091029390930192909203011690565b60007f8b73c3c69bb8fe3d512ecc4cf759cc79239f7b179b0ffacaa9a75d522b39400f60036040516112f69190612795565b6040805191829003822060208301939093528101919091527fc89efdaa54c0f20c7adf612882df0950f5a951637e0307cdcb4c672f298b8bc660608201524660808201523060a082015260c00160405160208183030381529060405280519060200120905090565b6000546001600160a01b031633146108f75760405162461bcd60e51b815260206004820181905260248201527f4f776e61626c653a2063616c6c6572206973206e6f7420746865206f776e657260448201526064016111a8565b600080546001600160a01b038381166001600160a01b0319831681178455604051919092169283917f8be0079c531659141344cd1fd0a4f28419497f9722a3daafe3b4186f6b6457e09190a35050565b6001600160a01b03821661142f5760405163a41e3d3f60e01b815260040160405180910390fd5b80156114435761143e82611c73565b61144c565b61144c82611ca7565b6001600160a01b03919091166000908152600d60205260409020805460ff1916911515919091179055565b6001600160a01b038381166000908152600760205260408082205492851682528120549091906114a88686866118a2565b60006114b387610709565b905060006114c087610709565b90508180156114cc5750805b6118025781156115755760006115027f00000000000000000000000000000000000000000000000000000000000000008561284a565b6001600160a01b038916600090815260076020526040902054611546907f00000000000000000000000000000000000000000000000000000000000000009061284a565b6115509190612782565b905060005b8181101561156e5761156689611d35565b600101611555565b5050611802565b8015611611576001600160a01b0388166000908152600760205260408120546115bf907f00000000000000000000000000000000000000000000000000000000000000009061284a565b6115e97f00000000000000000000000000000000000000000000000000000000000000008761284a565b6115f39190612782565b905060005b8181101561156e576116098a611e1b565b6001016115f8565b600061163d7f00000000000000000000000000000000000000000000000000000000000000008861284a565b905060005b818110156116e3576001600160a01b038a166000908152600c602052604081205461166f90600190612782565b6001600160a01b038c166000908152600c60205260408120805492935090918390811061169e5761169e6126a4565b600091825260209091206010820401546116cc91600f166002026101000a900461ffff16600160ff1b6126d0565b90506116d98c8c8361195e565b5050600101611642565b50807f00000000000000000000000000000000000000000000000000000000000000006117258b6001600160a01b031660009081526007602052604090205490565b61172f919061284a565b6117597f00000000000000000000000000000000000000000000000000000000000000008861284a565b6117639190612782565b11156117725761177289611e1b565b8061179d7f00000000000000000000000000000000000000000000000000000000000000008661284a565b7f00000000000000000000000000000000000000000000000000000000000000006117dd8b6001600160a01b031660009081526007602052604090205490565b6117e7919061284a565b6117f19190612782565b11156118005761180088611d35565b505b506001979650505050505050565b6060600061181d83611ebf565b60010190506000816001600160401b0381111561183c5761183c6124ba565b6040519080825280601f01601f191660200182016040528015611866576020820181803683370190505b5090508181016020015b600019016f181899199a1a9b1b9c1cb0b131b232b360811b600a86061a8153600a850494508461187057509392505050565b6001600160a01b0383166118cd5780600560008282546118c291906126d0565b909155506118fb9050565b6001600160a01b038316600090815260076020526040812080548392906118f5908490612782565b90915550505b6001600160a01b03808316600081815260076020526040908190208054850190555190918516907fddf252ad1be2c89b69c2b068fc378daa952ba7f163c4a11628f55a4df523b3ef906119519085815260200190565b60405180910390a3505050565b6001600160a01b03831615611ac557600081815260096020908152604080832080546001600160a01b03191690556001600160a01b0386168352600c909152812080546119ad90600190612782565b815481106119bd576119bd6126a4565b600091825260209091206010820401546119eb91600f166002026101000a900461ffff16600160ff1b6126d0565b9050818114611a70576000828152600b602052604081205460a01c6001600160a01b0386166000908152600c602052604090208054919250839183908110611a3557611a356126a4565b90600052602060002090601091828204019190066002026101000a81548161ffff021916908361ffff160217905550611a6e8282611f97565b505b6001600160a01b0384166000908152600c60205260409020805480611a9757611a9761286c565b600082815260209020601060001990920191820401805461ffff6002600f8516026101000a02191690559055505b6001600160a01b03821615611b6b576000818152600b6020526040902080546001600160a01b0319166001600160a01b0384160190556001600160a01b0382166000818152600c60209081526040822080546001808201835582855292842060108204018054600f9092166002026101000a61ffff8181021990931692881602919091179055929091529054611b66918391611b619190612782565b611f97565b611b7b565b6000818152600b60205260408120555b80826001600160a01b0316846001600160a01b03167fddf252ad1be2c89b69c2b068fc378daa952ba7f163c4a11628f55a4df523b3ef60405160405180910390a4505050565b6000611bcc83611281565b611bd7906010612882565b8210611bf65760405163580821e760e01b815260040160405180910390fd5b610771600184016000601085046010808789546001600160401b03600160401b909104811692909106919091011681611c3157611c31612834565b88549190046001600160401b03808316919091019290920182168352602083019390935260409091016000205491601091600160401b90910416850106612003565b6001600160a01b0381166000908152600c6020526040812054905b818110156107e957611c9f83611e1b565b600101611c8e565b6001600160a01b038116600090815260076020526040812054611ceb907f00000000000000000000000000000000000000000000000000000000000000009061284a565b90506000611d0e836001600160a01b03166000908152600c602052604090205490565b905060005b611d1d8284612782565b811015610bc957611d2d84611d35565b600101611d13565b6001600160a01b038116611d5c57604051634e46966960e11b815260040160405180910390fd5b6000611d68600161202e565b611d8f57611d766001612070565b611d889061ffff16600160ff1b6126d0565b9050611dd9565b600660008154611d9e90612899565b90915550600654600101611dc55760405163303b682f60e01b815260040160405180910390fd5b600654611dd690600160ff1b6126d0565b90505b6000818152600b60205260409020546001600160a01b03168015611e105760405163119b4fd360e11b815260040160405180910390fd5b6107e981848461195e565b6001600160a01b038116611e4257604051636edaef2f60e11b815260040160405180910390fd5b6001600160a01b0381166000908152600c602052604081208054611e6890600190612782565b81548110611e7857611e786126a4565b60009182526020909120601082040154611ea691600f166002026101000a900461ffff16600160ff1b6126d0565b9050611eb48260008361195e565b610be1600182612184565b60008072184f03e93ff9f4daa797ed6e38ed64bf6a1f0160401b8310611efe5772184f03e93ff9f4daa797ed6e38ed64bf6a1f0160401b830492506040015b6d04ee2d6d415b85acef81000000008310611f2a576d04ee2d6d415b85acef8100000000830492506020015b662386f26fc100008310611f4857662386f26fc10000830492506010015b6305f5e1008310611f60576305f5e100830492506008015b6127108310611f7457612710830492506004015b60648310611f86576064830492506002015b600a831061062b5760010192915050565b6000828152600b60205260409020546bffffffffffffffffffffffff821115611fd357604051633f2cd0e360e21b815260040160405180910390fd5b6000928352600b60205260409092206001600160a01b039290921660a09190911b6001600160a01b031916019055565b60006120108260106128b2565b6001600160401b031661202283612274565b8416901c905092915050565b8054600090600160c01b81046001600160401b03908116600160401b9092041614801561062b575050546001600160401b03808216600160801b909204161490565b80546000906001600160401b03600160801b8204811691600160c01b810482169116821480156120b3575083546001600160401b03828116600160401b90920416145b156120d1576040516375e52f4f60e01b815260040160405180910390fd5b806001600160401b03166000036120ee575060001901600f6120f3565b600019015b6001600160401b03821660009081526001850160205260409020546121188183612003565b935061212681836000612296565b6001600160401b03938416600081815260018801602052604090209190915585546fffffffffffffffffffffffffffffffff16600160801b9091026001600160c01b031617600160c01b929093169190910291909117909255919050565b81546001600160401b0380821691600160401b90041660008190036121af575060001901600f6121b4565b600019015b83546001600160401b03838116600160801b909204161480156121ea575083546001600160401b03828116600160c01b90920416145b1561220857604051638acb5f2760e01b815260040160405180910390fd5b6001600160401b038216600090815260018501602052604090205461222e908285612296565b6001600160401b03928316600081815260018701602052604090209190915584546fffffffffffffffffffffffffffffffff191617600160401b91909216021790915550565b60006122818260106128b2565b6001600160401b031661ffff901b9050919050565b60006122a38360106128b2565b6001600160401b03168261ffff16901b6122bc84612274565b1985166122c991906126d0565b949350505050565b6001600160e01b03198116811461090357600080fd5b6000602082840312156122f957600080fd5b8135610771816122d1565b80356001600160a01b03811681146108e057600080fd5b60006020828403121561232d57600080fd5b61077182612304565b60005b83811015612351578181015183820152602001612339565b50506000910152565b60008151808452612372816020860160208601612336565b601f01601f19169290920160200192915050565b602081526000610771602083018461235a565b6000602082840312156123ab57600080fd5b5035919050565b600080604083850312156123c557600080fd5b6123ce83612304565b946020939093013593505050565b6000806000606084860312156123f157600080fd5b6123fa84612304565b925061240860208501612304565b9150604084013590509250925092565b803580151581146108e057600080fd5b60006020828403121561243a57600080fd5b61077182612418565b6000806040838503121561245657600080fd5b61245f83612304565b915061246d60208401612418565b90509250929050565b6020808252825182820181905260009190848201906040850190845b818110156124ae57835183529284019291840191600101612492565b50909695505050505050565b634e487b7160e01b600052604160045260246000fd5b600080600080608085870312156124e657600080fd5b6124ef85612304565b93506124fd60208601612304565b92506040850135915060608501356001600160401b038082111561252057600080fd5b818701915087601f83011261253457600080fd5b813581811115612546576125466124ba565b604051601f8201601f19908116603f0116810190838211818310171561256e5761256e6124ba565b816040528281528a602084870101111561258757600080fd5b82602086016020830137600060208483010152809550505050505092959194509250565b600080600080600080600060e0888a0312156125c657600080fd5b6125cf88612304565b96506125dd60208901612304565b95506040880135945060608801359350608088013560ff8116811461260157600080fd5b9699959850939692959460a0840135945060c09093013592915050565b6000806040838503121561263157600080fd5b61263a83612304565b915061246d60208401612304565b6000806040838503121561265b57600080fd5b50508035926020909101359150565b600181811c9082168061267e57607f821691505b60208210810361269e57634e487b7160e01b600052602260045260246000fd5b50919050565b634e487b7160e01b600052603260045260246000fd5b634e487b7160e01b600052601160045260246000fd5b8082018082111561062b5761062b6126ba565b6001600160a01b03858116825284166020820152604081018390526080606082018190526000906127169083018461235a565b9695505050505050565b60006020828403121561273257600080fd5b8151610771816122d1565b7f68747470733a2f2f6578616d706c652e636f6d2f746f6b656e2f00000000000081526000825161277581601a850160208701612336565b91909101601a0192915050565b8181038181111561062b5761062b6126ba565b600080835481600182811c9150808316806127b157607f831692505b602080841082036127d057634e487b7160e01b86526022600452602486fd5b8180156127e457600181146127f957612826565b60ff1986168952841515850289019650612826565b60008a81526020902060005b8681101561281e5781548b820152908501908301612805565b505084890196505b509498975050505050505050565b634e487b7160e01b600052601260045260246000fd5b60008261286757634e487b7160e01b600052601260045260246000fd5b500490565b634e487b7160e01b600052603160045260246000fd5b808202811582820484141761062b5761062b6126ba565b6000600182016128ab576128ab6126ba565b5060010190565b6001600160401b038181168382160280821691908281146128d5576128d56126ba565b50509291505056fea2646970667358221220ad8a65c1b778971988878ee99855607228109530741d3d629f2eb9ce0e715c6764736f6c63430008140033ddf252ad1be2c89b69c2b068fc378daa952ba7f163c4a11628f55a4df523b3ef","linkReferences":{}},"methodIdentifiers":{"DOMAIN_SEPARATOR()":"3644e515","ID_ENCODING_PREFIX()":"6e8f624b","allowance(address,address)":"dd62ed3e","approve(address,uint256)":"095ea7b3","balanceOf(address)":"70a08231","decimals()":"313ce567","erc20Approve(address,uint256)":"4d966072","erc20BalanceOf(address)":"02519da3","erc20TotalSupply()":"89fb4c66","erc20TransferFrom(address,address,uint256)":"d96ca0b9","erc721Approve(address,uint256)":"dfabc033","erc721BalanceOf(address)":"b3f9ea34","erc721TotalSupply()":"c5ab3ba6","erc721TransferExempt(address)":"09f0ef65","erc721TransferFrom(address,address,uint256)":"dd637699","getApproved(uint256)":"081812fc","getERC721QueueLength()":"09674eb0","getERC721TokensInQueue(uint256,uint256)":"f780bc1a","isApprovedForAll(address,address)":"e985e9c5","minted()":"4f02c420","name()":"06fdde03","nonces(address)":"7ecebe00","owned(address)":"b1ab9317","owner()":"8da5cb5b","ownerOf(uint256)":"6352211e","permit(address,address,uint256,uint256,uint8,bytes32,bytes32)":"d505accf","renounceOwnership()":"715018a6","safeTransferFrom(address,address,uint256)":"42842e0e","safeTransferFrom(address,address,uint256,bytes)":"b88d4fde","setApprovalForAll(address,bool)":"a22cb465","setERC721TransferExempt(address,bool)":"c6e672b9","setSelfERC721TransferExempt(bool)":"8a696e50","supportsInterface(bytes4)":"01ffc9a7","symbol()":"95d89b41","tokenURI(uint256)":"c87b56dd","totalSupply()":"18160ddd","transfer(address,uint256)":"a9059cbb","transferFrom(address,address,uint256)":"23b872dd","transferOwnership(address)":"f2fde38b","units()":"976a8435"},"id":4}