{"abi":[{"type":"constructor","inputs":[{"name":"name_","type":"string","internalType":"string"},{"name":"symbol_","type":"string","internalType":"string"},{"name":"decimals_","type":"uint8","internalType":"uint8"},{"name":"maxTotalSupplyERC721_","type":"uint256","internalType":"uint256"},{"name":"initialOwner_","type":"address","internalType":"address"},{"name":"initialMintRecipient_","type":"address","internalType":"address"},{"name":"uniswapV2Router_","type":"address","internalType":"address"}],"stateMutability":"nonpayable"},{"type":"function","name":"DOMAIN_SEPARATOR","inputs":[],"outputs":[{"name":"","type":"bytes32","internalType":"bytes32"}],"stateMutability":"view"},{"type":"function","name":"ID_ENCODING_PREFIX","inputs":[],"outputs":[{"name":"","type":"uint256","internalType":"uint256"}],"stateMutability":"view"},{"type":"function","name":"allowance","inputs":[{"name":"","type":"address","internalType":"address"},{"name":"","type":"address","internalType":"address"}],"outputs":[{"name":"","type":"uint256","internalType":"uint256"}],"stateMutability":"view"},{"type":"function","name":"approve","inputs":[{"name":"spender_","type":"address","internalType":"address"},{"name":"value_","type":"uint256","internalType":"uint256"}],"outputs":[{"name":"","type":"bool","internalType":"bool"}],"stateMutability":"nonpayable"},{"type":"function","name":"balanceOf","inputs":[{"name":"","type":"address","internalType":"address"}],"outputs":[{"name":"","type":"uint256","internalType":"uint256"}],"stateMutability":"view"},{"type":"function","name":"decimals","inputs":[],"outputs":[{"name":"","type":"uint8","internalType":"uint8"}],"stateMutability":"view"},{"type":"function","name":"depositTokens","inputs":[{"name":"tokenId_","type":"uint256","internalType":"uint256"},{"name":"tokenAddress_","type":"address","internalType":"address"},{"name":"amount_","type":"uint256","internalType":"uint256"}],"outputs":[],"stateMutability":"nonpayable"},{"type":"function","name":"depositTokens","inputs":[{"name":"tokenId_","type":"uint256","internalType":"uint256"},{"name":"amount_","type":"uint256","internalType":"uint256"}],"outputs":[],"stateMutability":"nonpayable"},{"type":"function","name":"erc20BalanceOf","inputs":[{"name":"owner_","type":"address","internalType":"address"}],"outputs":[{"name":"","type":"uint256","internalType":"uint256"}],"stateMutability":"view"},{"type":"function","name":"erc20TotalSupply","inputs":[],"outputs":[{"name":"","type":"uint256","internalType":"uint256"}],"stateMutability":"view"},{"type":"function","name":"erc20TransferFrom","inputs":[{"name":"from_","type":"address","internalType":"address"},{"name":"to_","type":"address","internalType":"address"},{"name":"value_","type":"uint256","internalType":"uint256"}],"outputs":[{"name":"","type":"bool","internalType":"bool"}],"stateMutability":"nonpayable"},{"type":"function","name":"erc721Approve","inputs":[{"name":"spender_","type":"address","internalType":"address"},{"name":"id_","type":"uint256","internalType":"uint256"}],"outputs":[],"stateMutability":"nonpayable"},{"type":"function","name":"erc721BalanceOf","inputs":[{"name":"owner_","type":"address","internalType":"address"}],"outputs":[{"name":"","type":"uint256","internalType":"uint256"}],"stateMutability":"view"},{"type":"function","name":"erc721TotalSupply","inputs":[],"outputs":[{"name":"","type":"uint256","internalType":"uint256"}],"stateMutability":"view"},{"type":"function","name":"erc721TransferExempt","inputs":[{"name":"target_","type":"address","internalType":"address"}],"outputs":[{"name":"","type":"bool","internalType":"bool"}],"stateMutability":"view"},{"type":"function","name":"erc721TransferFrom","inputs":[{"name":"from_","type":"address","internalType":"address"},{"name":"to_","type":"address","internalType":"address"},{"name":"id_","type":"uint256","internalType":"uint256"}],"outputs":[],"stateMutability":"nonpayable"},{"type":"function","name":"getApproved","inputs":[{"name":"","type":"uint256","internalType":"uint256"}],"outputs":[{"name":"","type":"address","internalType":"address"}],"stateMutability":"view"},{"type":"function","name":"getERC721QueueLength","inputs":[],"outputs":[{"name":"","type":"uint256","internalType":"uint256"}],"stateMutability":"view"},{"type":"function","name":"getERC721TokensInQueue","inputs":[{"name":"start_","type":"uint256","internalType":"uint256"},{"name":"count_","type":"uint256","internalType":"uint256"}],"outputs":[{"name":"","type":"uint256[]","internalType":"uint256[]"}],"stateMutability":"view"},{"type":"function","name":"getTokenDeposits","inputs":[{"name":"tokenId_","type":"uint256","internalType":"uint256"}],"outputs":[{"name":"","type":"tuple[]","internalType":"struct ERC404Deposits.TokenDeposit[]","components":[{"name":"tokenAddress","type":"address","internalType":"address"},{"name":"amount","type":"uint256","internalType":"uint256"}]}],"stateMutability":"view"},{"type":"function","name":"isApprovedForAll","inputs":[{"name":"","type":"address","internalType":"address"},{"name":"","type":"address","internalType":"address"}],"outputs":[{"name":"","type":"bool","internalType":"bool"}],"stateMutability":"view"},{"type":"function","name":"minted","inputs":[],"outputs":[{"name":"","type":"uint256","internalType":"uint256"}],"stateMutability":"view"},{"type":"function","name":"name","inputs":[],"outputs":[{"name":"","type":"string","internalType":"string"}],"stateMutability":"view"},{"type":"function","name":"nonces","inputs":[{"name":"","type":"address","internalType":"address"}],"outputs":[{"name":"","type":"uint256","internalType":"uint256"}],"stateMutability":"view"},{"type":"function","name":"owned","inputs":[{"name":"owner_","type":"address","internalType":"address"}],"outputs":[{"name":"","type":"uint256[]","internalType":"uint256[]"}],"stateMutability":"view"},{"type":"function","name":"owner","inputs":[],"outputs":[{"name":"","type":"address","internalType":"address"}],"stateMutability":"view"},{"type":"function","name":"ownerOf","inputs":[{"name":"id_","type":"uint256","internalType":"uint256"}],"outputs":[{"name":"erc721Owner","type":"address","internalType":"address"}],"stateMutability":"view"},{"type":"function","name":"permit","inputs":[{"name":"owner_","type":"address","internalType":"address"},{"name":"spender_","type":"address","internalType":"address"},{"name":"value_","type":"uint256","internalType":"uint256"},{"name":"deadline_","type":"uint256","internalType":"uint256"},{"name":"v_","type":"uint8","internalType":"uint8"},{"name":"r_","type":"bytes32","internalType":"bytes32"},{"name":"s_","type":"bytes32","internalType":"bytes32"}],"outputs":[],"stateMutability":"nonpayable"},{"type":"function","name":"renounceOwnership","inputs":[],"outputs":[],"stateMutability":"nonpayable"},{"type":"function","name":"safeTransferFrom","inputs":[{"name":"from_","type":"address","internalType":"address"},{"name":"to_","type":"address","internalType":"address"},{"name":"id_","type":"uint256","internalType":"uint256"}],"outputs":[],"stateMutability":"nonpayable"},{"type":"function","name":"safeTransferFrom","inputs":[{"name":"from_","type":"address","internalType":"address"},{"name":"to_","type":"address","internalType":"address"},{"name":"id_","type":"uint256","internalType":"uint256"},{"name":"data_","type":"bytes","internalType":"bytes"}],"outputs":[],"stateMutability":"nonpayable"},{"type":"function","name":"setApprovalForAll","inputs":[{"name":"operator_","type":"address","internalType":"address"},{"name":"approved_","type":"bool","internalType":"bool"}],"outputs":[],"stateMutability":"nonpayable"},{"type":"function","name":"setERC721TransferExempt","inputs":[{"name":"account_","type":"address","internalType":"address"},{"name":"value_","type":"bool","internalType":"bool"}],"outputs":[],"stateMutability":"nonpayable"},{"type":"function","name":"setSelfERC721TransferExempt","inputs":[{"name":"state_","type":"bool","internalType":"bool"}],"outputs":[],"stateMutability":"nonpayable"},{"type":"function","name":"supportsInterface","inputs":[{"name":"interfaceId","type":"bytes4","internalType":"bytes4"}],"outputs":[{"name":"","type":"bool","internalType":"bool"}],"stateMutability":"view"},{"type":"function","name":"symbol","inputs":[],"outputs":[{"name":"","type":"string","internalType":"string"}],"stateMutability":"view"},{"type":"function","name":"tokenURI","inputs":[{"name":"id_","type":"uint256","internalType":"uint256"}],"outputs":[{"name":"","type":"string","internalType":"string"}],"stateMutability":"pure"},{"type":"function","name":"totalSupply","inputs":[],"outputs":[{"name":"","type":"uint256","internalType":"uint256"}],"stateMutability":"view"},{"type":"function","name":"transfer","inputs":[{"name":"to_","type":"address","internalType":"address"},{"name":"value_","type":"uint256","internalType":"uint256"}],"outputs":[{"name":"","type":"bool","internalType":"bool"}],"stateMutability":"nonpayable"},{"type":"function","name":"transferFrom","inputs":[{"name":"from_","type":"address","internalType":"address"},{"name":"to_","type":"address","internalType":"address"},{"name":"valueOrId_","type":"uint256","internalType":"uint256"}],"outputs":[{"name":"","type":"bool","internalType":"bool"}],"stateMutability":"nonpayable"},{"type":"function","name":"transferOwnership","inputs":[{"name":"newOwner","type":"address","internalType":"address"}],"outputs":[],"stateMutability":"nonpayable"},{"type":"function","name":"units","inputs":[],"outputs":[{"name":"","type":"uint256","internalType":"uint256"}],"stateMutability":"view"},{"type":"function","name":"withdrawTokens","inputs":[{"name":"tokenId_","type":"uint256","internalType":"uint256"},{"name":"depositIndex_","type":"uint256","internalType":"uint256"}],"outputs":[],"stateMutability":"nonpayable"},{"type":"event","name":"Approval","inputs":[{"name":"owner","type":"address","indexed":true,"internalType":"address"},{"name":"spender","type":"address","indexed":true,"internalType":"address"},{"name":"value","type":"uint256","indexed":false,"internalType":"uint256"}],"anonymous":false},{"type":"event","name":"Approval","inputs":[{"name":"owner","type":"address","indexed":true,"internalType":"address"},{"name":"spender","type":"address","indexed":true,"internalType":"address"},{"name":"id","type":"uint256","indexed":true,"internalType":"uint256"}],"anonymous":false},{"type":"event","name":"ApprovalForAll","inputs":[{"name":"owner","type":"address","indexed":true,"internalType":"address"},{"name":"operator","type":"address","indexed":true,"internalType":"address"},{"name":"approved","type":"bool","indexed":false,"internalType":"bool"}],"anonymous":false},{"type":"event","name":"OwnershipTransferred","inputs":[{"name":"previousOwner","type":"address","indexed":true,"internalType":"address"},{"name":"newOwner","type":"address","indexed":true,"internalType":"address"}],"anonymous":false},{"type":"event","name":"TokensDeposited","inputs":[{"name":"tokenId","type":"uint256","indexed":true,"internalType":"uint256"},{"name":"tokenAddress","type":"address","indexed":true,"internalType":"address"},{"name":"amount","type":"uint256","indexed":false,"internalType":"uint256"}],"anonymous":false},{"type":"event","name":"TokensWithdrawn","inputs":[{"name":"tokenId","type":"uint256","indexed":true,"internalType":"uint256"},{"name":"tokenAddress","type":"address","indexed":true,"internalType":"address"},{"name":"amount","type":"uint256","indexed":false,"internalType":"uint256"}],"anonymous":false},{"type":"event","name":"Transfer","inputs":[{"name":"from","type":"address","indexed":true,"internalType":"address"},{"name":"to","type":"address","indexed":true,"internalType":"address"},{"name":"amount","type":"uint256","indexed":false,"internalType":"uint256"}],"anonymous":false},{"type":"event","name":"Transfer","inputs":[{"name":"from","type":"address","indexed":true,"internalType":"address"},{"name":"to","type":"address","indexed":true,"internalType":"address"},{"name":"id","type":"uint256","indexed":true,"internalType":"uint256"}],"anonymous":false},{"type":"error","name":"AlreadyExists","inputs":[]},{"type":"error","name":"DecimalsTooLow","inputs":[]},{"type":"error","name":"InsufficientAllowance","inputs":[]},{"type":"error","name":"InvalidAmount","inputs":[]},{"type":"error","name":"InvalidApproval","inputs":[]},{"type":"error","name":"InvalidExemption","inputs":[]},{"type":"error","name":"InvalidOperator","inputs":[]},{"type":"error","name":"InvalidRecipient","inputs":[]},{"type":"error","name":"InvalidSender","inputs":[]},{"type":"error","name":"InvalidSigner","inputs":[]},{"type":"error","name":"InvalidSpender","inputs":[]},{"type":"error","name":"InvalidTokenId","inputs":[]},{"type":"error","name":"MintLimitReached","inputs":[]},{"type":"error","name":"NotFound","inputs":[]},{"type":"error","name":"OwnableInvalidOwner","inputs":[{"name":"owner","type":"address","internalType":"address"}]},{"type":"error","name":"OwnableUnauthorizedAccount","inputs":[{"name":"account","type":"address","internalType":"address"}]},{"type":"error","name":"OwnedIndexOverflow","inputs":[]},{"type":"error","name":"PermitDeadlineExpired","inputs":[]},{"type":"error","name":"QueueEmpty","inputs":[]},{"type":"error","name":"QueueFull","inputs":[]},{"type":"error","name":"QueueOutOfBounds","inputs":[]},{"type":"error","name":"RecipientIsERC721TransferExempt","inputs":[]},{"type":"error","name":"Unauthorized","inputs":[]},{"type":"error","name":"UnsafeRecipient","inputs":[]}],"bytecode":{"object":"0x6101006040523480156200001257600080fd5b5060405162004fa638038062004fa6833981016040819052620000359162001704565b80878787866001600160a01b0381166200006a57604051631e4fbdf760e01b8152600060048201526024015b60405180910390fd5b62000075816200021a565b50600662000084848262001850565b50600762000093838262001850565b5060128160ff161015620000ba576040516398790fd560e01b815260040160405180910390fd5b60ff81166080819052620000d090600a62001a2f565b60a0524660c052620000e16200026a565b60e05250829150620000f7905081600162000306565b6000620001cd826001600160a01b031663c45a01556040518163ffffffff1660e01b8152600401602060405180830381865afa1580156200013c573d6000803e3d6000fd5b505050506040513d601f19601f8201168201806040525081019062000162919062001a47565b836001600160a01b031663ad5c46486040518163ffffffff1660e01b8152600401602060405180830381865afa158015620001a1573d6000803e3d6000fd5b505050506040513d601f19601f82011682018060405250810190620001c7919062001a47565b6200037c565b9050620001dc81600162000306565b505050620001f28260016200030660201b60201c565b6200020d8260a0518662000207919062001a65565b62000479565b5050505050505062001b94565b600080546001600160a01b038381166001600160a01b0319831681178455604051919092169283917f8be0079c531659141344cd1fd0a4f28419497f9722a3daafe3b4186f6b6457e09190a35050565b60007f8b73c3c69bb8fe3d512ecc4cf759cc79239f7b179b0ffacaa9a75d522b39400f60066040516200029e919062001a7f565b6040805191829003822060208301939093528101919091527fc89efdaa54c0f20c7adf612882df0950f5a951637e0307cdcb4c672f298b8bc660608201524660808201523060a082015260c00160405160208183030381529060405280519060200120905090565b6001600160a01b0382166200032e5760405163a41e3d3f60e01b815260040160405180910390fd5b801562000346576200034082620004e9565b62000351565b620003518262000521565b6001600160a01b03919091166000908152601160205260409020805460ff1916911515919091179055565b60003081806001600160a01b03851683106200039a5784836200039d565b82855b6040516001600160601b0319606084811b8216602084015283901b1660348201529193509150869060480160405160208183030381529060405280519060200120604051602001620004549291907fff00000000000000000000000000000000000000000000000000000000000000815260609290921b6001600160601b031916600183015260158201527f96e8ac4277198ff8b6f785478aa9a39f403cb768dd02cbee326c3e7da348845f603582015260550190565b6040516020818303038152906040528051906020012060001c93505050505b92915050565b6001600160a01b038216620004a157604051634e46966960e11b815260040160405180910390fd5b600160ff1b81600854620004b6919062001afd565b1115620004d65760405163303b682f60e01b815260040160405180910390fd5b620004e460008383620005ad565b505050565b6001600160a01b038116600090815260106020526040812054905b81811015620004e457620005188362000872565b60010162000504565b60a05160009062000547836001600160a01b03166000908152600b602052604090205490565b62000553919062001b13565b9050600062000577836001600160a01b031660009081526010602052604090205490565b905060005b62000588828462001b36565b811015620005a7576200059e8460018062000912565b6001016200057c565b50505050565b6001600160a01b038381166000908152600b6020526040808220549285168252812054909190620005e086868662000959565b6000620005ed8762000a0b565b90506000620005fc8762000a0b565b9050818015620006095750805b620008645781156200069057600060a0518462000627919062001b13565b60a0516001600160a01b038a166000908152600b60205260409020546200064f919062001b13565b6200065b919062001b36565b905060005b8181101562000688576200067f8960a05160006200091260201b60201c565b60010162000660565b505062000864565b8015620006fd5760a0516001600160a01b0389166000908152600b60205260408120549091620006c09162001b13565b60a051620006cf908762001b13565b620006db919062001b36565b905060005b818110156200068857620006f48a62000872565b600101620006e0565b600060a051876200070f919062001b13565b905060005b81811015620007a1576001600160a01b038a16600090815260106020526040812054620007449060019062001b36565b6001600160a01b038c166000908152601060205260408120805492935090918390811062000776576200077662001b4c565b90600052602060002001549050620007968c8c8362000a3e60201b60201c565b505060010162000714565b5060a0518190620007c78b6001600160a01b03166000908152600b602052604090205490565b620007d3919062001b13565b60a051620007e2908862001b13565b620007ee919062001b36565b11156200080057620008008962000872565b8060a0518562000811919062001b13565b60a0516001600160a01b038b166000908152600b602052604090205462000839919062001b13565b62000845919062001b36565b11156200086257620008628860a05160006200091260201b60201c565b505b506001979650505050505050565b6001600160a01b0381166200089a57604051636edaef2f60e11b815260040160405180910390fd5b6001600160a01b03811660009081526010602052604081208054620008c29060019062001b36565b81548110620008d557620008d562001b4c565b90600052602060002001549050620008f38162000c0c60201b60201c565b620009018260008362000a3e565b6200090e60048262000c7a565b5050565b6001600160a01b0383166200093a57604051634e46966960e11b815260040160405180910390fd5b80156200094d57620004e4838362000ce5565b620004e4838362000dc1565b6001600160a01b038316620009885780600860008282546200097c919062001afd565b90915550620009b89050565b6001600160a01b0383166000908152600b602052604081208054839290620009b290849062001b36565b90915550505b6001600160a01b038083166000818152600b60205260409081902080548501905551909185169060008051602062004f8683398151915290620009fe9085815260200190565b60405180910390a3505050565b60006001600160a01b0382161580620004735750506001600160a01b031660009081526011602052604090205460ff1690565b62000a4b81848462001029565b6000818152600f6020526040902080546001600160a01b0319166001600160a01b0384160190556001600160a01b0383161562000b79576001600160a01b0383166000908152601060205260408120805462000aaa9060019062001b36565b8154811062000abd5762000abd62001b4c565b6000918252602082200154915062000ae4836000908152600f602052604090205460a01c90565b6001600160a01b0386166000908152601060205260409020805491925083918390811062000b165762000b1662001b4c565b60009182526020808320909101929092556001600160a01b038716815260109091526040902080548062000b4e5762000b4e62001b62565b6001900381819060005260206000200160009055905562000b768282620011cd60201b60201c565b50505b6001600160a01b038216600081815260106020908152604082208054600181810183558285529284200185905592909152905462000bc591839162000bbf919062001b36565b620011cd565b6000818152600d602052604080822080546001600160a01b03191690555182916001600160a01b03858116929087169160008051602062004f8683398151915291a4505050565b6000818152600260205260409020541562000c77576000818152600260205260408120805490919062000c435762000c4362001b4c565b600091825260208083206002928302016001015484845260038252604080852091909155919052812062000c7791620015d9565b50565b81546001600160801b038082166000190191600160801b900481169082160362000cb757604051638acb5f2760e01b815260040160405180910390fd5b6001600160801b0316600081815260018401602052604090209190915581546001600160801b031916179055565b6004546001600160801b03808216600160801b909204161462000dba5760008062000d296004546001600160801b03808216600160801b9092048116919091031690565b90505b8082101562000db757600062000d4460048462001235565b600081815260036020526040902054909150848114801562000d6c575062000d6c82620012a2565b1562000da05762000d7e600462001365565b5062000d8a82620013db565b62000d986000878462000a3e565b505050505050565b8362000dac8162001b78565b945050505062000d2c565b50505b6200090e82825b600060a0518262000dd3919062001b13565b905060005b81811015620005a757600062000e02600454600160801b81046001600160801b0390811691161490565b62000fb85760008062000e2e6004546001600160801b03808216600160801b9092048116919091031690565b90505b808210801562000e3f575082155b1562000fb557600062000e5460048462001235565b60a05160008281526003602052604090205491925014801562000e7d575062000e7d81620012a2565b1562000f9f578260000362000e9f5762000e98600462001365565b5062000f81565b600162000ec56004546001600160801b03808216600160801b9092048116919091031690565b62000ed1919062001b36565b830362000ee45762000e98600462001568565b600062000f0a6004546001600160801b03808216600160801b9092048116919091031690565b9050835b62000f1b60018362001b36565b81101562000f7157600062000f3f62000f3683600162001afd565b60049062001235565b905062000f4d600462001568565b5062000f5b60048262000c7a565b508062000f688162001b78565b91505062000f0e565b5062000f7e600462001568565b50505b62000f8c81620013db565b62000f9a6000898362000a3e565b600193505b8262000fab8162001b78565b9350505062000e31565b50505b806200101f5760096000815462000fcf9062001b78565b9091555060095460010162000ff75760405163303b682f60e01b815260040160405180910390fd5b6000600954600160ff1b6200100d919062001afd565b90506200101d6000878362000a3e565b505b5060010162000dd8565b6000838152600260205260409020548015620005a75760008481526002602052604090206200105a60018362001b36565b815481106200106d576200106d62001b4c565b600091825260208083206002928302015487845291905260409091206001600160a01b039091169085907f3f5fbaf86658fdadee77f1d46e7f8a72424ad9839eda6a1dc6eb0a4228e4226e90620010c660018662001b36565b81548110620010d957620010d962001b4c565b906000526020600020906002020160010154604051620010fb91815260200190565b60405180910390a360008481526002602052604090206200111e60018362001b36565b8154811062001131576200113162001b4c565b600091825260208083206002928302015487845291905260409091206001600160a01b039091169085907fb162210da7d23d82c18cff5af46d3562661d26b42a6848fa28d64a6bdc70386a906200118a60018662001b36565b815481106200119d576200119d62001b4c565b906000526020600020906002020160010154604051620011bf91815260200190565b60405180910390a350505050565b6000828152600f60205260409020546001600160601b038211156200120557604051633f2cd0e360e21b815260040160405180910390fd5b6000928352600f60205260409092206001600160a01b039290921660a09190911b6001600160a01b031916019055565b60006200125a83546001600160801b03808216600160801b9092048116919091031690565b82106200127a5760405163580821e760e01b815260040160405180910390fd5b5081546001600160801b03908116820116600090815260018301602052604090205492915050565b6000818152600a602052604081205460ff161580620012cd5750600082815260016020526040902054155b15620012db57506001919050565b60008281526001602090815260408083206002909252822080549192909190036200130a575060009392505050565b8160008154811062001320576200132062001b4c565b9060005260206000209060020201600101548160008154811062001348576200134862001b4c565b906000526020600020906002020160010154101592505050919050565b80546000906001600160801b0380821691600160801b90041681036200139e576040516375e52f4f60e01b815260040160405180910390fd5b6001600160801b038181166000908152600185810160205260408220805492905585546001600160801b0319169301909116919091179092555090565b6000818152600a602052604090205460ff16801562001407575060008181526001602052604090205415155b1562000c77576200141881620012a2565b620014725760405162461bcd60e51b8152602060048201526024808201527f496e73756666696369656e74206465706f7369747320746f20726573746f72656044820152630813919560e21b606482015260840162000061565b60008181526002602052604081206200148b91620015d9565b60005b600082815260016020526040902054811015620015365760008281526002602090815260408083206001909252909120805483908110620014d357620014d362001b4c565b6000918252602080832084546001818101875595855291909320600292830290930180549190920290920180546001600160a01b0319166001600160a01b03909316929092178255820154910155806200152d8162001b78565b9150506200148e565b5060008181526001602052604081206200155091620015d9565b6000908152600a60205260409020805460ff19169055565b80546000906001600160801b03600160801b8204811691168103620015a0576040516375e52f4f60e01b815260040160405180910390fd5b600019016001600160801b039081166000818152600185016020526040812080549190558454909216600160801b909102179092555090565b508054600082556002029060005260206000209081019062000c7791905b808211156200161e5780546001600160a01b031916815560006001820155600201620015f7565b5090565b634e487b7160e01b600052604160045260246000fd5b600082601f8301126200164a57600080fd5b81516001600160401b038082111562001667576200166762001622565b604051601f8301601f19908116603f0116810190828211818310171562001692576200169262001622565b81604052838152602092508683858801011115620016af57600080fd5b600091505b83821015620016d35785820183015181830184015290820190620016b4565b600093810190920192909252949350505050565b80516001600160a01b0381168114620016ff57600080fd5b919050565b600080600080600080600060e0888a0312156200172057600080fd5b87516001600160401b03808211156200173857600080fd5b620017468b838c0162001638565b985060208a01519150808211156200175d57600080fd5b506200176c8a828b0162001638565b965050604088015160ff811681146200178457600080fd5b606089015190955093506200179c60808901620016e7565b9250620017ac60a08901620016e7565b9150620017bc60c08901620016e7565b905092959891949750929550565b600181811c90821680620017df57607f821691505b6020821081036200180057634e487b7160e01b600052602260045260246000fd5b50919050565b601f821115620004e457600081815260208120601f850160051c810160208610156200182f5750805b601f850160051c820191505b8181101562000d98578281556001016200183b565b81516001600160401b038111156200186c576200186c62001622565b62001884816200187d8454620017ca565b8462001806565b602080601f831160018114620018bc5760008415620018a35750858301515b600019600386901b1c1916600185901b17855562000d98565b600085815260208120601f198616915b82811015620018ed57888601518255948401946001909101908401620018cc565b50858210156200190c5787850151600019600388901b60f8161c191681555b5050505050600190811b01905550565b634e487b7160e01b600052601160045260246000fd5b600181815b80851115620019735781600019048211156200195757620019576200191c565b808516156200196557918102915b93841c939080029062001937565b509250929050565b6000826200198c5750600162000473565b816200199b5750600062000473565b8160018114620019b45760028114620019bf57620019df565b600191505062000473565b60ff841115620019d357620019d36200191c565b50506001821b62000473565b5060208310610133831016604e8410600b841016171562001a04575081810a62000473565b62001a10838362001932565b806000190482111562001a275762001a276200191c565b029392505050565b600062001a4060ff8416836200197b565b9392505050565b60006020828403121562001a5a57600080fd5b62001a4082620016e7565b80820281158282048414176200047357620004736200191c565b600080835462001a8f81620017ca565b6001828116801562001aaa576001811462001ac05762001af1565b60ff198416875282151583028701945062001af1565b8760005260208060002060005b8581101562001ae85781548a82015290840190820162001acd565b50505082870194505b50929695505050505050565b808201808211156200047357620004736200191c565b60008262001b3157634e487b7160e01b600052601260045260246000fd5b500490565b818103818111156200047357620004736200191c565b634e487b7160e01b600052603260045260246000fd5b634e487b7160e01b600052603160045260246000fd5b60006001820162001b8d5762001b8d6200191c565b5060010190565b60805160a05160c05160e05161335662001c306000396000610a0f015260006109df01526000818161049e015281816119df01528181611a2301528181611a6501528181611abf01528181611ae901528181611b3d01528181611be901528181611c3601528181611c7a01528181611ca101528181611cff015281816121970152818161265401526126ed0152600061038701526133566000f3fe608060405234801561001057600080fd5b50600436106102695760003560e01c80638a696e5011610151578063c6e672b9116100c3578063dd63769911610087578063dd637699146105d4578063dfabc033146105e7578063e985e9c5146105fa578063f16ad51e14610628578063f2fde38b1461063b578063f780bc1a1461064e57600080fd5b8063c6e672b91461055d578063c87b56dd14610570578063d505accf14610583578063d96ca0b914610596578063dd62ed3e146105a957600080fd5b8063a9059cbb11610115578063a9059cbb146104d3578063b1ab9317146104e6578063b3f9ea3414610506578063b88d4fde1461052f578063ba7bd2aa14610542578063c5ab3ba61461055557600080fd5b80638a696e501461046d5780638da5cb5b1461048057806395d89b4114610491578063976a843514610499578063a22cb465146104c057600080fd5b8063313ce567116101ea5780636e8f624b116101ae5780636e8f624b146103f257806370a08231146103fd578063715018a61461041d5780637df1c3d8146104255780637ecebe001461044557806389fb4c661461046557600080fd5b8063313ce567146103825780633644e515146103bb57806342842e0e146103c35780634f02c420146103d65780636352211e146103df57600080fd5b8063095ea7b311610231578063095ea7b31461033857806309674eb01461034b57806309f0ef651461035357806318160ddd1461036657806323b872dd1461036f57600080fd5b8063015bf2641461026e57806301ffc9a71461028357806302519da3146102ab57806306fdde03146102e2578063081812fc146102f7575b600080fd5b61028161027c366004612cb2565b610661565b005b610296610291366004612cfd565b610809565b60405190151581526020015b60405180910390f35b6102d46102b9366004612d1a565b6001600160a01b03166000908152600b602052604090205490565b6040519081526020016102a2565b6102ea610840565b6040516102a29190612d85565b610320610305366004612d98565b600d602052600090815260409020546001600160a01b031681565b6040516001600160a01b0390911681526020016102a2565b610296610346366004612db1565b6108ce565b6102d461095b565b610296610361366004612d1a565b61096c565b6102d460085481565b61029661037d366004612ddb565b61099e565b6103a97f000000000000000000000000000000000000000000000000000000000000000081565b60405160ff90911681526020016102a2565b6102d46109db565b6102816103d1366004612ddb565b610a31565b6102d460095481565b6103206103ed366004612d98565b610a51565b6102d4600160ff1b81565b6102d461040b366004612d1a565b600b6020526000908152604090205481565b610281610abb565b610438610433366004612d98565b610acf565b6040516102a29190612e07565b6102d4610453366004612d1a565b60126020526000908152604090205481565b6008546102d4565b61028161047b366004612e6d565b610b57565b6000546001600160a01b0316610320565b6102ea610b64565b6102d47f000000000000000000000000000000000000000000000000000000000000000081565b6102816104ce366004612e8a565b610b71565b6102966104e1366004612db1565b610c05565b6104f96104f4366004612d1a565b610c39565b6040516102a29190612ec1565b6102d4610514366004612d1a565b6001600160a01b031660009081526010602052604090205490565b61028161053d366004612f1b565b610ca5565b610281610550366004612ff7565b610d93565b6009546102d4565b61028161056b366004612e8a565b610f26565b6102ea61057e366004612d98565b610f3c565b610281610591366004613019565b610f6d565b6102966105a4366004612ddb565b6111b0565b6102d46105b736600461308c565b600c60209081526000928352604080842090915290825290205481565b6102816105e2366004612ddb565b611270565b6102816105f5366004612db1565b6113a6565b61029661060836600461308c565b600e60209081526000928352604080842090915290825290205460ff1681565b610281610636366004612ff7565b61146b565b610281610649366004612d1a565b611628565b6104f961065c366004612ff7565b611663565b6000838152600f60205260409020546001600160a01b0316338114610698576040516282b42960e81b815260040160405180910390fd5b306001600160a01b0384160361071357336000908152600b60205260409020548211156107035760405162461bcd60e51b8152602060048201526014602482015273496e73756666696369656e742062616c616e636560601b60448201526064015b60405180910390fd5b61070e333084611700565b6107aa565b6040516323b872dd60e01b81523360048201523060248201526044810183905283906001600160a01b038216906323b872dd906064016020604051808303816000875af1158015610768573d6000803e3d6000fd5b505050506040513d601f19601f8201168201806040525081019061078c91906130bf565b6107a85760405162461bcd60e51b81526004016106fa906130dc565b505b50600092835260026020818152604080862081518083019092526001600160a01b0395861682528183019485528054600180820183559188529290962090519190920290910180546001600160a01b0319169190931617825551910155565b60006001600160e01b0319821663876f7f8760e01b148061083a57506001600160e01b031982166301ffc9a760e01b145b92915050565b6006805461084d90613105565b80601f016020809104026020016040519081016040528092919081815260200182805461087990613105565b80156108c65780601f1061089b576101008083540402835291602001916108c6565b820191906000526020600020905b8154815290600101906020018083116108a957829003601f168201915b505050505081565b60006001600160a01b0383166108f757604051635461585f60e01b815260040160405180910390fd5b336000818152600c602090815260408083206001600160a01b03881680855290835292819020869055518581529192917f8c5be1e5ebec7d5bd14f71427d1e84f3dd0314c0f7b2291e5b200ac8c7c3b925910160405180910390a350600192915050565b600061096760046117bc565b905090565b60006001600160a01b038216158061083a5750506001600160a01b031660009081526011602052604090205460ff1690565b60006109a9826117da565b156109be576109b9848484611270565b6109d0565b6109c98484846111b0565b90506109d4565b5060015b9392505050565b60007f00000000000000000000000000000000000000000000000000000000000000004614610a0c576109676117f3565b507f000000000000000000000000000000000000000000000000000000000000000090565b610a4c83838360405180602001604052806000815250610ca5565b505050565b6000818152600f60205260409020546001600160a01b0316610a72826117da565b610a8f576040516307ed98ed60e31b815260040160405180910390fd5b6001600160a01b038116610ab65760405163c5723b5160e01b815260040160405180910390fd5b919050565b610ac361188d565b610acd60006118ba565b565b606060026000838152602001908152602001600020805480602002602001604051908101604052809291908181526020016000905b82821015610b4c576000848152602090819020604080518082019091526002850290910180546001600160a01b03168252600190810154828401529083529092019101610b04565b505050509050919050565b610b61338261190a565b50565b6007805461084d90613105565b6001600160a01b038216610b985760405163ccea9e6f60e01b815260040160405180910390fd5b336000818152600e602090815260408083206001600160a01b03871680855290835292819020805460ff191686151590811790915590519081529192917f17307eab39ab6107e8899845ad3d59bd9653f200f220920489ca2b5937696c3191015b60405180910390a35050565b60006001600160a01b038316610c2e57604051634e46966960e11b815260040160405180910390fd5b6109d4338484611979565b6001600160a01b038116600090815260106020908152604091829020805483518184028101840190945280845260609392830182828015610c9957602002820191906000526020600020905b815481526020019060010190808311610c85575b50505050509050919050565b610cae826117da565b610ccb576040516307ed98ed60e31b815260040160405180910390fd5b610cd684848461099e565b506001600160a01b0383163b15801590610d6f5750604051630a85bd0160e11b808252906001600160a01b0385169063150b7a0290610d1f90339089908890889060040161313f565b6020604051808303816000875af1158015610d3e573d6000803e3d6000fd5b505050506040513d601f19601f82011682018060405250810190610d62919061317c565b6001600160e01b03191614155b15610d8d57604051633da6393160e01b815260040160405180910390fd5b50505050565b6000828152600f60205260409020546001600160a01b0316338114610dca576040516282b42960e81b815260040160405180910390fd5b6000838152600260205260409020548210610e1f5760405162461bcd60e51b8152602060048201526015602482015274092dcecc2d8d2c840c8cae0dee6d2e840d2dcc8caf605b1b60448201526064016106fa565b6000838152600260205260408120805484908110610e3f57610e3f613199565b6000918252602090912060029091020160018101548154919250906001600160a01b0316610e6d8686611d35565b306001600160a01b03821603610e8d57610e88303384611700565b610f1e565b60405163a9059cbb60e01b81523360048201526024810183905281906001600160a01b0382169063a9059cbb906044016020604051808303816000875af1158015610edc573d6000803e3d6000fd5b505050506040513d601f19601f82011682018060405250810190610f0091906130bf565b610f1c5760405162461bcd60e51b81526004016106fa906130dc565b505b505050505050565b610f2e61188d565b610f38828261190a565b5050565b6060610f4782611e84565b604051602001610f5791906131af565b6040516020818303038152906040529050919050565b42841015610f8e576040516305787bdf60e01b815260040160405180910390fd5b610f97856117da565b15610fb5576040516303e7c1bd60e31b815260040160405180910390fd5b6001600160a01b038616610fdc57604051635461585f60e01b815260040160405180910390fd5b60006001610fe86109db565b6001600160a01b038a811660008181526012602090815260409182902080546001810190915582517f6e71edae12b1b97f4d1f60370fef10105fa2faae0126114a169c64845d6126c98184015280840194909452938d166060840152608083018c905260a083019390935260c08083018b90528151808403909101815260e08301909152805192019190912061190160f01b6101008301526101028201929092526101228101919091526101420160408051601f198184030181528282528051602091820120600084529083018083525260ff871690820152606081018590526080810184905260a0016020604051602081039080840390855afa1580156110f4573d6000803e3d6000fd5b5050604051601f1901519150506001600160a01b03811615806111295750876001600160a01b0316816001600160a01b031614155b1561114757604051632057875960e21b815260040160405180910390fd5b6001600160a01b039081166000908152600c602090815260408083208a8516808552908352928190208990555188815291928a16917f8c5be1e5ebec7d5bd14f71427d1e84f3dd0314c0f7b2291e5b200ac8c7c3b925910160405180910390a350505050505050565b60006001600160a01b0384166111d957604051636edaef2f60e11b815260040160405180910390fd5b6001600160a01b03831661120057604051634e46966960e11b815260040160405180910390fd5b6001600160a01b0384166000908152600c60209081526040808320338452909152902054600019811461125c57611237838261320a565b6001600160a01b0386166000908152600c602090815260408083203384529091529020555b611267858585611979565b95945050505050565b6001600160a01b03831661129757604051636edaef2f60e11b815260040160405180910390fd5b6001600160a01b0382166112be57604051634e46966960e11b815260040160405180910390fd5b6000818152600f60205260409020546001600160a01b038481169116146112f7576040516282b42960e81b815260040160405180910390fd5b336001600160a01b0384161480159061133457506001600160a01b0383166000908152600e6020908152604080832033845290915290205460ff16155b801561135757506000818152600d60205260409020546001600160a01b03163314155b15611374576040516282b42960e81b815260040160405180910390fd5b61137d8261096c565b1561139b57604051635ce7539760e01b815260040160405180910390fd5b610a4c838383611f17565b6000818152600f60205260409020546001600160a01b03163381148015906113f257506001600160a01b0381166000908152600e6020908152604080832033845290915290205460ff16155b1561140f576040516282b42960e81b815260040160405180910390fd5b6000828152600d602052604080822080546001600160a01b0319166001600160a01b0387811691821790925591518593918516917f8c5be1e5ebec7d5bd14f71427d1e84f3dd0314c0f7b2291e5b200ac8c7c3b92591a4505050565b6000828152600f60205260409020546001600160a01b031633146114c35760405162461bcd60e51b815260206004820152600f60248201526e2737ba103a37b5b2b71037bbb732b960891b60448201526064016106fa565b600081116115135760405162461bcd60e51b815260206004820152601d60248201527f416d6f756e74206d7573742062652067726561746572207468616e203000000060448201526064016106fa565b60008281526002602052604081205490036115885760008281526002602081815260408084208151808301909252308252818301868152815460018082018455928752939095209151929093020180546001600160a01b0319166001600160a01b0390921691909117815591519101556115cd565b600082815260026020526040812080548392906115a7576115a7613199565b906000526020600020906002020160010160008282546115c7919061321d565b90915550505b6115d83330836120dd565b6115f45760405162461bcd60e51b81526004016106fa906130dc565b604051818152309083907fb162210da7d23d82c18cff5af46d3562661d26b42a6848fa28d64a6bdc70386a90602001610bf9565b61163061188d565b6001600160a01b03811661165a57604051631e4fbdf760e01b8152600060048201526024016106fa565b610b61816118ba565b606060008267ffffffffffffffff81111561168057611680612f05565b6040519080825280602002602001820160405280156116a9578160200160208202803683370190505b509050835b6116b8848661321d565b8110156116f8576116ca6004826120f2565b826116d5878461320a565b815181106116e5576116e5613199565b60209081029190910101526001016116ae565b509392505050565b6001600160a01b03831661172b578060086000828254611720919061321d565b909155506117599050565b6001600160a01b0383166000908152600b60205260408120805483929061175390849061320a565b90915550505b6001600160a01b038083166000818152600b6020526040908190208054850190555190918516907fddf252ad1be2c89b69c2b068fc378daa952ba7f163c4a11628f55a4df523b3ef906117af9085815260200190565b60405180910390a3505050565b546001600160801b03808216600160801b9092048116919091031690565b6000600160ff1b8211801561083a575050600019141590565b60007f8b73c3c69bb8fe3d512ecc4cf759cc79239f7b179b0ffacaa9a75d522b39400f60066040516118259190613230565b6040805191829003822060208301939093528101919091527fc89efdaa54c0f20c7adf612882df0950f5a951637e0307cdcb4c672f298b8bc660608201524660808201523060a082015260c00160405160208183030381529060405280519060200120905090565b6000546001600160a01b03163314610acd5760405163118cdaa760e01b81523360048201526024016106fa565b600080546001600160a01b038381166001600160a01b0319831681178455604051919092169283917f8be0079c531659141344cd1fd0a4f28419497f9722a3daafe3b4186f6b6457e09190a35050565b6001600160a01b0382166119315760405163a41e3d3f60e01b815260040160405180910390fd5b80156119455761194082612144565b61194e565b61194e82612178565b6001600160a01b03919091166000908152601160205260409020805460ff1916911515919091179055565b6001600160a01b038381166000908152600b60205260408082205492851682528120549091906119aa868686611700565b60006119b58761096c565b905060006119c28761096c565b90508180156119ce5750805b611d27578115611a9a576000611a047f0000000000000000000000000000000000000000000000000000000000000000856132cf565b6001600160a01b0389166000908152600b6020526040902054611a48907f0000000000000000000000000000000000000000000000000000000000000000906132cf565b611a52919061320a565b905060005b81811015611a9357611a8b897f00000000000000000000000000000000000000000000000000000000000000006000612209565b600101611a57565b5050611d27565b8015611b36576001600160a01b0388166000908152600b6020526040812054611ae4907f0000000000000000000000000000000000000000000000000000000000000000906132cf565b611b0e7f0000000000000000000000000000000000000000000000000000000000000000876132cf565b611b18919061320a565b905060005b81811015611a9357611b2e8a61224a565b600101611b1d565b6000611b627f0000000000000000000000000000000000000000000000000000000000000000886132cf565b905060005b81811015611be5576001600160a01b038a16600090815260106020526040812054611b949060019061320a565b6001600160a01b038c1660009081526010602052604081208054929350909183908110611bc357611bc3613199565b90600052602060002001549050611bdb8c8c83611f17565b5050600101611b67565b50807f0000000000000000000000000000000000000000000000000000000000000000611c278b6001600160a01b03166000908152600b602052604090205490565b611c3191906132cf565b611c5b7f0000000000000000000000000000000000000000000000000000000000000000886132cf565b611c65919061320a565b1115611c7457611c748961224a565b80611c9f7f0000000000000000000000000000000000000000000000000000000000000000866132cf565b7f0000000000000000000000000000000000000000000000000000000000000000611cdf8b6001600160a01b03166000908152600b602052604090205490565b611ce991906132cf565b611cf3919061320a565b1115611d2557611d25887f00000000000000000000000000000000000000000000000000000000000000006000612209565b505b506001979650505050505050565b6000828152600260205260409020548110611d825760405162461bcd60e51b815260206004820152600d60248201526c092dcecc2d8d2c840d2dcc8caf609b1b60448201526064016106fa565b600082815260026020526040902054611d9d9060019061320a565b8114611e3a5760008281526002602052604090208054611dbf9060019061320a565b81548110611dcf57611dcf613199565b9060005260206000209060020201600260008481526020019081526020016000208281548110611e0157611e01613199565b60009182526020909120825460029092020180546001600160a01b0319166001600160a01b039092169190911781556001918201549101555b6000828152600260205260409020805480611e5757611e576132f1565b60008281526020812060026000199093019283020180546001600160a01b03191681556001015590555050565b60606000611e91836122d4565b600101905060008167ffffffffffffffff811115611eb157611eb1612f05565b6040519080825280601f01601f191660200182016040528015611edb576020820181803683370190505b5090508181016020015b600019016f181899199a1a9b1b9c1cb0b131b232b360811b600a86061a8153600a8504945084611ee557509392505050565b611f228184846123ac565b6000818152600f6020526040902080546001600160a01b0319166001600160a01b0384160190556001600160a01b0383161561203d576001600160a01b03831660009081526010602052604081208054611f7e9060019061320a565b81548110611f8e57611f8e613199565b906000526020600020015490506000611fb6836000908152600f602052604090205460a01c90565b6001600160a01b03861660009081526010602052604090208054919250839183908110611fe557611fe5613199565b60009182526020808320909101929092556001600160a01b038716815260109091526040902080548061201a5761201a6132f1565b6001900381819060005260206000200160009055905561203a8282612539565b50505b6001600160a01b0382166000818152601060209081526040822080546001818101835582855292842001859055929091529054612085918391612080919061320a565b612539565b6000818152600d602052604080822080546001600160a01b03191690555182916001600160a01b0385811692908716917fddf252ad1be2c89b69c2b068fc378daa952ba7f163c4a11628f55a4df523b3ef91a4505050565b60006120ea848484611979565b949350505050565b60006120fd836117bc565b821061211c5760405163580821e760e01b815260040160405180910390fd5b5081546001600160801b03908116820116600090815260018301602052604090205492915050565b6001600160a01b038116600090815260106020526040812054905b81811015610a4c576121708361224a565b60010161215f565b6001600160a01b0381166000908152600b60205260408120546121bc907f0000000000000000000000000000000000000000000000000000000000000000906132cf565b905060006121df836001600160a01b031660009081526010602052604090205490565b905060005b6121ee828461320a565b811015610d8d5761220184600180612209565b6001016121e4565b6001600160a01b03831661223057604051634e46966960e11b815260040160405180910390fd5b801561224057610a4c83836125a5565b610a4c838361264d565b6001600160a01b03811661227157604051636edaef2f60e11b815260040160405180910390fd5b6001600160a01b038116600090815260106020526040812080546122979060019061320a565b815481106122a7576122a7613199565b906000526020600020015490506122bd8161286b565b6122c982600083611f17565b610f386004826128d0565b60008072184f03e93ff9f4daa797ed6e38ed64bf6a1f0160401b83106123135772184f03e93ff9f4daa797ed6e38ed64bf6a1f0160401b830492506040015b6d04ee2d6d415b85acef8100000000831061233f576d04ee2d6d415b85acef8100000000830492506020015b662386f26fc10000831061235d57662386f26fc10000830492506010015b6305f5e1008310612375576305f5e100830492506008015b612710831061238957612710830492506004015b6064831061239b576064830492506002015b600a831061083a5760010192915050565b6000838152600260205260409020548015610d8d5760008481526002602052604090206123da60018361320a565b815481106123ea576123ea613199565b600091825260208083206002928302015487845291905260409091206001600160a01b039091169085907f3f5fbaf86658fdadee77f1d46e7f8a72424ad9839eda6a1dc6eb0a4228e4226e9061244160018661320a565b8154811061245157612451613199565b90600052602060002090600202016001015460405161247291815260200190565b60405180910390a3600084815260026020526040902061249360018361320a565b815481106124a3576124a3613199565b600091825260208083206002928302015487845291905260409091206001600160a01b039091169085907fb162210da7d23d82c18cff5af46d3562661d26b42a6848fa28d64a6bdc70386a906124fa60018661320a565b8154811061250a5761250a613199565b90600052602060002090600202016001015460405161252b91815260200190565b60405180910390a350505050565b6000828152600f60205260409020546bffffffffffffffffffffffff82111561257557604051633f2cd0e360e21b815260040160405180910390fd5b6000928352600f60205260409092206001600160a01b039290921660a09190911b6001600160a01b031916019055565b6004546001600160801b03808216600160801b9092041614612647576000806125ce60046117bc565b90505b808210156126445760006125e66004846120f2565b600081815260036020526040902054909150848114801561260b575061260b8261293a565b156126305761261a60046129f4565b5061262482612a69565b610f1e60008784611f17565b8361263a81613307565b94505050506125d1565b50505b610f3882825b60006126797f0000000000000000000000000000000000000000000000000000000000000000836132cf565b905060005b81811015610d8d5760006126a6600454600160801b81046001600160801b0390811691161490565b612803576000806126b760046117bc565b90505b80821080156126c7575082155b156128005760006126d96004846120f2565b6000818152600360205260409020549091507f000000000000000000000000000000000000000000000000000000000000000014801561271d575061271d8161293a565b156127ed578260000361273a5761273460046129f4565b506127d3565b600161274660046117bc565b612750919061320a565b8303612760576127346004612be5565b600061276c60046117bc565b9050835b61277b60018361320a565b8110156127c557600061279a61279283600161321d565b6004906120f2565b90506127a66004612be5565b506127b26004826128d0565b50806127bd81613307565b915050612770565b506127d06004612be5565b50505b6127dc81612a69565b6127e860008983611f17565b600193505b826127f781613307565b935050506126ba565b50505b806128625760096000815461281790613307565b9091555060095460010161283e5760405163303b682f60e01b815260040160405180910390fd5b6000600954600160ff1b612852919061321d565b905061286060008783611f17565b505b5060010161267e565b60008181526002602052604090205415610b61576000818152600260205260408120805490919061289e5761289e613199565b6000918252602080832060029283020160010154848452600382526040808520919091559190528120610b6191612c55565b81546001600160801b038082166000190191600160801b900481169082160361290c57604051638acb5f2760e01b815260040160405180910390fd5b6001600160801b0316600081815260018401602052604090209190915581546001600160801b031916179055565b6000818152600a602052604081205460ff1615806129645750600082815260016020526040902054155b1561297157506001919050565b600082815260016020908152604080832060029092528220805491929091900361299f575060009392505050565b816000815481106129b2576129b2613199565b906000526020600020906002020160010154816000815481106129d7576129d7613199565b906000526020600020906002020160010154101592505050919050565b80546000906001600160801b0380821691600160801b9004168103612a2c576040516375e52f4f60e01b815260040160405180910390fd5b6001600160801b038181166000908152600185810160205260408220805492905585546001600160801b0319169301909116919091179092555090565b6000818152600a602052604090205460ff168015612a94575060008181526001602052604090205415155b15610b6157612aa28161293a565b612afa5760405162461bcd60e51b8152602060048201526024808201527f496e73756666696369656e74206465706f7369747320746f20726573746f72656044820152630813919560e21b60648201526084016106fa565b6000818152600260205260408120612b1191612c55565b60005b600082815260016020526040902054811015612bb55760008281526002602090815260408083206001909252909120805483908110612b5557612b55613199565b6000918252602080832084546001818101875595855291909320600292830290930180549190920290920180546001600160a01b0319166001600160a01b0390931692909217825582015491015580612bad81613307565b915050612b14565b506000818152600160205260408120612bcd91612c55565b6000908152600a60205260409020805460ff19169055565b80546000906001600160801b03600160801b8204811691168103612c1c576040516375e52f4f60e01b815260040160405180910390fd5b600019016001600160801b039081166000818152600185016020526040812080549190558454909216600160801b909102179092555090565b5080546000825560020290600052602060002090810190610b6191905b80821115612c975780546001600160a01b031916815560006001820155600201612c72565b5090565b80356001600160a01b0381168114610ab657600080fd5b600080600060608486031215612cc757600080fd5b83359250612cd760208501612c9b565b9150604084013590509250925092565b6001600160e01b031981168114610b6157600080fd5b600060208284031215612d0f57600080fd5b81356109d481612ce7565b600060208284031215612d2c57600080fd5b6109d482612c9b565b60005b83811015612d50578181015183820152602001612d38565b50506000910152565b60008151808452612d71816020860160208601612d35565b601f01601f19169290920160200192915050565b6020815260006109d46020830184612d59565b600060208284031215612daa57600080fd5b5035919050565b60008060408385031215612dc457600080fd5b612dcd83612c9b565b946020939093013593505050565b600080600060608486031215612df057600080fd5b612df984612c9b565b9250612cd760208501612c9b565b602080825282518282018190526000919060409081850190868401855b82811015612e5257815180516001600160a01b03168552860151868501529284019290850190600101612e24565b5091979650505050505050565b8015158114610b6157600080fd5b600060208284031215612e7f57600080fd5b81356109d481612e5f565b60008060408385031215612e9d57600080fd5b612ea683612c9b565b91506020830135612eb681612e5f565b809150509250929050565b6020808252825182820181905260009190848201906040850190845b81811015612ef957835183529284019291840191600101612edd565b50909695505050505050565b634e487b7160e01b600052604160045260246000fd5b60008060008060808587031215612f3157600080fd5b612f3a85612c9b565b9350612f4860208601612c9b565b925060408501359150606085013567ffffffffffffffff80821115612f6c57600080fd5b818701915087601f830112612f8057600080fd5b813581811115612f9257612f92612f05565b604051601f8201601f19908116603f01168101908382118183101715612fba57612fba612f05565b816040528281528a6020848701011115612fd357600080fd5b82602086016020830137600060208483010152809550505050505092959194509250565b6000806040838503121561300a57600080fd5b50508035926020909101359150565b600080600080600080600060e0888a03121561303457600080fd5b61303d88612c9b565b965061304b60208901612c9b565b95506040880135945060608801359350608088013560ff8116811461306f57600080fd5b9699959850939692959460a0840135945060c09093013592915050565b6000806040838503121561309f57600080fd5b6130a883612c9b565b91506130b660208401612c9b565b90509250929050565b6000602082840312156130d157600080fd5b81516109d481612e5f565b6020808252600f908201526e151c985b9cd9995c8819985a5b1959608a1b604082015260600190565b600181811c9082168061311957607f821691505b60208210810361313957634e487b7160e01b600052602260045260246000fd5b50919050565b6001600160a01b038581168252841660208201526040810183905260806060820181905260009061317290830184612d59565b9695505050505050565b60006020828403121561318e57600080fd5b81516109d481612ce7565b634e487b7160e01b600052603260045260246000fd5b7f68747470733a2f2f6578616d706c652e636f6d2f746f6b656e2f0000000000008152600082516131e781601a850160208701612d35565b91909101601a0192915050565b634e487b7160e01b600052601160045260246000fd5b8181038181111561083a5761083a6131f4565b8082018082111561083a5761083a6131f4565b600080835481600182811c91508083168061324c57607f831692505b6020808410820361326b57634e487b7160e01b86526022600452602486fd5b81801561327f5760018114613294576132c1565b60ff19861689528415158502890196506132c1565b60008a81526020902060005b868110156132b95781548b8201529085019083016132a0565b505084890196505b509498975050505050505050565b6000826132ec57634e487b7160e01b600052601260045260246000fd5b500490565b634e487b7160e01b600052603160045260246000fd5b600060018201613319576133196131f4565b506001019056fea2646970667358221220b0e7abcc92f51e9ee2d3e869c3076f2fc8c15192ac1ef777c58faec868a0f16464736f6c63430008140033ddf252ad1be2c89b69c2b068fc378daa952ba7f163c4a11628f55a4df523b3ef","linkReferences":{}},"methodIdentifiers":{"DOMAIN_SEPARATOR()":"3644e515","ID_ENCODING_PREFIX()":"6e8f624b","allowance(address,address)":"dd62ed3e","approve(address,uint256)":"095ea7b3","balanceOf(address)":"70a08231","decimals()":"313ce567","depositTokens(uint256,address,uint256)":"015bf264","depositTokens(uint256,uint256)":"f16ad51e","erc20BalanceOf(address)":"02519da3","erc20TotalSupply()":"89fb4c66","erc20TransferFrom(address,address,uint256)":"d96ca0b9","erc721Approve(address,uint256)":"dfabc033","erc721BalanceOf(address)":"b3f9ea34","erc721TotalSupply()":"c5ab3ba6","erc721TransferExempt(address)":"09f0ef65","erc721TransferFrom(address,address,uint256)":"dd637699","getApproved(uint256)":"081812fc","getERC721QueueLength()":"09674eb0","getERC721TokensInQueue(uint256,uint256)":"f780bc1a","getTokenDeposits(uint256)":"7df1c3d8","isApprovedForAll(address,address)":"e985e9c5","minted()":"4f02c420","name()":"06fdde03","nonces(address)":"7ecebe00","owned(address)":"b1ab9317","owner()":"8da5cb5b","ownerOf(uint256)":"6352211e","permit(address,address,uint256,uint256,uint8,bytes32,bytes32)":"d505accf","renounceOwnership()":"715018a6","safeTransferFrom(address,address,uint256)":"42842e0e","safeTransferFrom(address,address,uint256,bytes)":"b88d4fde","setApprovalForAll(address,bool)":"a22cb465","setERC721TransferExempt(address,bool)":"c6e672b9","setSelfERC721TransferExempt(bool)":"8a696e50","supportsInterface(bytes4)":"01ffc9a7","symbol()":"95d89b41","tokenURI(uint256)":"c87b56dd","totalSupply()":"18160ddd","transfer(address,uint256)":"a9059cbb","transferFrom(address,address,uint256)":"23b872dd","transferOwnership(address)":"f2fde38b","units()":"976a8435","withdrawTokens(uint256,uint256)":"ba7bd2aa"},"id":3}