{"abi":[{"type":"constructor","inputs":[{"name":"name_","type":"string","internalType":"string"},{"name":"symbol_","type":"string","internalType":"string"},{"name":"decimals_","type":"uint8","internalType":"uint8"},{"name":"maxTotalSupplyERC721_","type":"uint256","internalType":"uint256"},{"name":"initialOwner_","type":"address","internalType":"address"},{"name":"initialMintRecipient_","type":"address","internalType":"address"},{"name":"uniswapV2Router_","type":"address","internalType":"address"}],"stateMutability":"nonpayable"},{"type":"function","name":"DOMAIN_SEPARATOR","inputs":[],"outputs":[{"name":"","type":"bytes32","internalType":"bytes32"}],"stateMutability":"view"},{"type":"function","name":"ID_ENCODING_PREFIX","inputs":[],"outputs":[{"name":"","type":"uint256","internalType":"uint256"}],"stateMutability":"view"},{"type":"function","name":"allowance","inputs":[{"name":"","type":"address","internalType":"address"},{"name":"","type":"address","internalType":"address"}],"outputs":[{"name":"","type":"uint256","internalType":"uint256"}],"stateMutability":"view"},{"type":"function","name":"approve","inputs":[{"name":"spender_","type":"address","internalType":"address"},{"name":"valueOrId_","type":"uint256","internalType":"uint256"}],"outputs":[{"name":"","type":"bool","internalType":"bool"}],"stateMutability":"nonpayable"},{"type":"function","name":"balanceOf","inputs":[{"name":"","type":"address","internalType":"address"}],"outputs":[{"name":"","type":"uint256","internalType":"uint256"}],"stateMutability":"view"},{"type":"function","name":"decimals","inputs":[],"outputs":[{"name":"","type":"uint8","internalType":"uint8"}],"stateMutability":"view"},{"type":"function","name":"depositTokens","inputs":[{"name":"tokenId_","type":"uint256","internalType":"uint256"},{"name":"tokenAddress_","type":"address","internalType":"address"},{"name":"amount_","type":"uint256","internalType":"uint256"}],"outputs":[],"stateMutability":"nonpayable"},{"type":"function","name":"depositTokens","inputs":[{"name":"tokenId_","type":"uint256","internalType":"uint256"},{"name":"amount_","type":"uint256","internalType":"uint256"}],"outputs":[],"stateMutability":"nonpayable"},{"type":"function","name":"erc20Approve","inputs":[{"name":"spender_","type":"address","internalType":"address"},{"name":"value_","type":"uint256","internalType":"uint256"}],"outputs":[{"name":"","type":"bool","internalType":"bool"}],"stateMutability":"nonpayable"},{"type":"function","name":"erc20BalanceOf","inputs":[{"name":"owner_","type":"address","internalType":"address"}],"outputs":[{"name":"","type":"uint256","internalType":"uint256"}],"stateMutability":"view"},{"type":"function","name":"erc20TotalSupply","inputs":[],"outputs":[{"name":"","type":"uint256","internalType":"uint256"}],"stateMutability":"view"},{"type":"function","name":"erc20TransferFrom","inputs":[{"name":"from_","type":"address","internalType":"address"},{"name":"to_","type":"address","internalType":"address"},{"name":"value_","type":"uint256","internalType":"uint256"}],"outputs":[{"name":"","type":"bool","internalType":"bool"}],"stateMutability":"nonpayable"},{"type":"function","name":"erc721Approve","inputs":[{"name":"spender_","type":"address","internalType":"address"},{"name":"id_","type":"uint256","internalType":"uint256"}],"outputs":[],"stateMutability":"nonpayable"},{"type":"function","name":"erc721BalanceOf","inputs":[{"name":"owner_","type":"address","internalType":"address"}],"outputs":[{"name":"","type":"uint256","internalType":"uint256"}],"stateMutability":"view"},{"type":"function","name":"erc721TotalSupply","inputs":[],"outputs":[{"name":"","type":"uint256","internalType":"uint256"}],"stateMutability":"view"},{"type":"function","name":"erc721TransferExempt","inputs":[{"name":"target_","type":"address","internalType":"address"}],"outputs":[{"name":"","type":"bool","internalType":"bool"}],"stateMutability":"view"},{"type":"function","name":"erc721TransferFrom","inputs":[{"name":"from_","type":"address","internalType":"address"},{"name":"to_","type":"address","internalType":"address"},{"name":"id_","type":"uint256","internalType":"uint256"}],"outputs":[],"stateMutability":"nonpayable"},{"type":"function","name":"getApproved","inputs":[{"name":"","type":"uint256","internalType":"uint256"}],"outputs":[{"name":"","type":"address","internalType":"address"}],"stateMutability":"view"},{"type":"function","name":"getERC721QueueLength","inputs":[],"outputs":[{"name":"","type":"uint256","internalType":"uint256"}],"stateMutability":"view"},{"type":"function","name":"getERC721TokensInQueue","inputs":[{"name":"start_","type":"uint256","internalType":"uint256"},{"name":"count_","type":"uint256","internalType":"uint256"}],"outputs":[{"name":"","type":"uint256[]","internalType":"uint256[]"}],"stateMutability":"view"},{"type":"function","name":"getTokenDeposits","inputs":[{"name":"tokenId_","type":"uint256","internalType":"uint256"}],"outputs":[{"name":"","type":"tuple[]","internalType":"struct ERC404Deposits.TokenDeposit[]","components":[{"name":"tokenAddress","type":"address","internalType":"address"},{"name":"amount","type":"uint256","internalType":"uint256"}]}],"stateMutability":"view"},{"type":"function","name":"isApprovedForAll","inputs":[{"name":"","type":"address","internalType":"address"},{"name":"","type":"address","internalType":"address"}],"outputs":[{"name":"","type":"bool","internalType":"bool"}],"stateMutability":"view"},{"type":"function","name":"minted","inputs":[],"outputs":[{"name":"","type":"uint256","internalType":"uint256"}],"stateMutability":"view"},{"type":"function","name":"name","inputs":[],"outputs":[{"name":"","type":"string","internalType":"string"}],"stateMutability":"view"},{"type":"function","name":"nonces","inputs":[{"name":"","type":"address","internalType":"address"}],"outputs":[{"name":"","type":"uint256","internalType":"uint256"}],"stateMutability":"view"},{"type":"function","name":"owned","inputs":[{"name":"owner_","type":"address","internalType":"address"}],"outputs":[{"name":"","type":"uint256[]","internalType":"uint256[]"}],"stateMutability":"view"},{"type":"function","name":"owner","inputs":[],"outputs":[{"name":"","type":"address","internalType":"address"}],"stateMutability":"view"},{"type":"function","name":"ownerOf","inputs":[{"name":"id_","type":"uint256","internalType":"uint256"}],"outputs":[{"name":"erc721Owner","type":"address","internalType":"address"}],"stateMutability":"view"},{"type":"function","name":"permit","inputs":[{"name":"owner_","type":"address","internalType":"address"},{"name":"spender_","type":"address","internalType":"address"},{"name":"value_","type":"uint256","internalType":"uint256"},{"name":"deadline_","type":"uint256","internalType":"uint256"},{"name":"v_","type":"uint8","internalType":"uint8"},{"name":"r_","type":"bytes32","internalType":"bytes32"},{"name":"s_","type":"bytes32","internalType":"bytes32"}],"outputs":[],"stateMutability":"nonpayable"},{"type":"function","name":"renounceOwnership","inputs":[],"outputs":[],"stateMutability":"nonpayable"},{"type":"function","name":"safeTransferFrom","inputs":[{"name":"from_","type":"address","internalType":"address"},{"name":"to_","type":"address","internalType":"address"},{"name":"id_","type":"uint256","internalType":"uint256"}],"outputs":[],"stateMutability":"nonpayable"},{"type":"function","name":"safeTransferFrom","inputs":[{"name":"from_","type":"address","internalType":"address"},{"name":"to_","type":"address","internalType":"address"},{"name":"id_","type":"uint256","internalType":"uint256"},{"name":"data_","type":"bytes","internalType":"bytes"}],"outputs":[],"stateMutability":"nonpayable"},{"type":"function","name":"setApprovalForAll","inputs":[{"name":"operator_","type":"address","internalType":"address"},{"name":"approved_","type":"bool","internalType":"bool"}],"outputs":[],"stateMutability":"nonpayable"},{"type":"function","name":"setERC721TransferExempt","inputs":[{"name":"account_","type":"address","internalType":"address"},{"name":"value_","type":"bool","internalType":"bool"}],"outputs":[],"stateMutability":"nonpayable"},{"type":"function","name":"setSelfERC721TransferExempt","inputs":[{"name":"state_","type":"bool","internalType":"bool"}],"outputs":[],"stateMutability":"nonpayable"},{"type":"function","name":"supportsInterface","inputs":[{"name":"interfaceId","type":"bytes4","internalType":"bytes4"}],"outputs":[{"name":"","type":"bool","internalType":"bool"}],"stateMutability":"view"},{"type":"function","name":"symbol","inputs":[],"outputs":[{"name":"","type":"string","internalType":"string"}],"stateMutability":"view"},{"type":"function","name":"tokenURI","inputs":[{"name":"id_","type":"uint256","internalType":"uint256"}],"outputs":[{"name":"","type":"string","internalType":"string"}],"stateMutability":"pure"},{"type":"function","name":"totalSupply","inputs":[],"outputs":[{"name":"","type":"uint256","internalType":"uint256"}],"stateMutability":"view"},{"type":"function","name":"transfer","inputs":[{"name":"to_","type":"address","internalType":"address"},{"name":"value_","type":"uint256","internalType":"uint256"}],"outputs":[{"name":"","type":"bool","internalType":"bool"}],"stateMutability":"nonpayable"},{"type":"function","name":"transferFrom","inputs":[{"name":"from_","type":"address","internalType":"address"},{"name":"to_","type":"address","internalType":"address"},{"name":"valueOrId_","type":"uint256","internalType":"uint256"}],"outputs":[{"name":"","type":"bool","internalType":"bool"}],"stateMutability":"nonpayable"},{"type":"function","name":"transferOwnership","inputs":[{"name":"newOwner","type":"address","internalType":"address"}],"outputs":[],"stateMutability":"nonpayable"},{"type":"function","name":"units","inputs":[],"outputs":[{"name":"","type":"uint256","internalType":"uint256"}],"stateMutability":"view"},{"type":"function","name":"withdrawTokens","inputs":[{"name":"tokenId_","type":"uint256","internalType":"uint256"},{"name":"depositIndex_","type":"uint256","internalType":"uint256"}],"outputs":[],"stateMutability":"nonpayable"},{"type":"event","name":"Approval","inputs":[{"name":"owner","type":"address","indexed":true,"internalType":"address"},{"name":"spender","type":"address","indexed":true,"internalType":"address"},{"name":"value","type":"uint256","indexed":false,"internalType":"uint256"}],"anonymous":false},{"type":"event","name":"Approval","inputs":[{"name":"owner","type":"address","indexed":true,"internalType":"address"},{"name":"spender","type":"address","indexed":true,"internalType":"address"},{"name":"id","type":"uint256","indexed":true,"internalType":"uint256"}],"anonymous":false},{"type":"event","name":"ApprovalForAll","inputs":[{"name":"owner","type":"address","indexed":true,"internalType":"address"},{"name":"operator","type":"address","indexed":true,"internalType":"address"},{"name":"approved","type":"bool","indexed":false,"internalType":"bool"}],"anonymous":false},{"type":"event","name":"OwnershipTransferred","inputs":[{"name":"previousOwner","type":"address","indexed":true,"internalType":"address"},{"name":"newOwner","type":"address","indexed":true,"internalType":"address"}],"anonymous":false},{"type":"event","name":"TokensDeposited","inputs":[{"name":"tokenId","type":"uint256","indexed":true,"internalType":"uint256"},{"name":"tokenAddress","type":"address","indexed":true,"internalType":"address"},{"name":"amount","type":"uint256","indexed":false,"internalType":"uint256"}],"anonymous":false},{"type":"event","name":"TokensWithdrawn","inputs":[{"name":"tokenId","type":"uint256","indexed":true,"internalType":"uint256"},{"name":"tokenAddress","type":"address","indexed":true,"internalType":"address"},{"name":"amount","type":"uint256","indexed":false,"internalType":"uint256"}],"anonymous":false},{"type":"event","name":"Transfer","inputs":[{"name":"from","type":"address","indexed":true,"internalType":"address"},{"name":"to","type":"address","indexed":true,"internalType":"address"},{"name":"amount","type":"uint256","indexed":false,"internalType":"uint256"}],"anonymous":false},{"type":"event","name":"Transfer","inputs":[{"name":"from","type":"address","indexed":true,"internalType":"address"},{"name":"to","type":"address","indexed":true,"internalType":"address"},{"name":"id","type":"uint256","indexed":true,"internalType":"uint256"}],"anonymous":false},{"type":"error","name":"AlreadyExists","inputs":[]},{"type":"error","name":"DecimalsTooLow","inputs":[]},{"type":"error","name":"InsufficientAllowance","inputs":[]},{"type":"error","name":"InvalidAmount","inputs":[]},{"type":"error","name":"InvalidApproval","inputs":[]},{"type":"error","name":"InvalidExemption","inputs":[]},{"type":"error","name":"InvalidOperator","inputs":[]},{"type":"error","name":"InvalidRecipient","inputs":[]},{"type":"error","name":"InvalidSender","inputs":[]},{"type":"error","name":"InvalidSigner","inputs":[]},{"type":"error","name":"InvalidSpender","inputs":[]},{"type":"error","name":"InvalidTokenId","inputs":[]},{"type":"error","name":"MintLimitReached","inputs":[]},{"type":"error","name":"NotFound","inputs":[]},{"type":"error","name":"OwnableInvalidOwner","inputs":[{"name":"owner","type":"address","internalType":"address"}]},{"type":"error","name":"OwnableUnauthorizedAccount","inputs":[{"name":"account","type":"address","internalType":"address"}]},{"type":"error","name":"OwnedIndexOverflow","inputs":[]},{"type":"error","name":"PermitDeadlineExpired","inputs":[]},{"type":"error","name":"QueueEmpty","inputs":[]},{"type":"error","name":"QueueFull","inputs":[]},{"type":"error","name":"QueueOutOfBounds","inputs":[]},{"type":"error","name":"RecipientIsERC721TransferExempt","inputs":[]},{"type":"error","name":"Unauthorized","inputs":[]},{"type":"error","name":"UnsafeRecipient","inputs":[]}],"bytecode":{"object":"0x6101006040523480156200001257600080fd5b506040516200502238038062005022833981016040819052620000359162001716565b80878787866001600160a01b0381166200006a57604051631e4fbdf760e01b8152600060048201526024015b60405180910390fd5b62000075816200021a565b50600662000084848262001862565b50600762000093838262001862565b5060128160ff161015620000ba576040516398790fd560e01b815260040160405180910390fd5b60ff81166080819052620000d090600a62001a41565b60a0524660c052620000e16200026a565b60e05250829150620000f7905081600162000306565b6000620001cd826001600160a01b031663c45a01556040518163ffffffff1660e01b8152600401602060405180830381865afa1580156200013c573d6000803e3d6000fd5b505050506040513d601f19601f8201168201806040525081019062000162919062001a59565b836001600160a01b031663ad5c46486040518163ffffffff1660e01b8152600401602060405180830381865afa158015620001a1573d6000803e3d6000fd5b505050506040513d601f19601f82011682018060405250810190620001c7919062001a59565b6200037c565b9050620001dc81600162000306565b505050620001f28260016200030660201b60201c565b6200020d8260a0518662000207919062001a77565b62000479565b5050505050505062001ba6565b600080546001600160a01b038381166001600160a01b0319831681178455604051919092169283917f8be0079c531659141344cd1fd0a4f28419497f9722a3daafe3b4186f6b6457e09190a35050565b60007f8b73c3c69bb8fe3d512ecc4cf759cc79239f7b179b0ffacaa9a75d522b39400f60066040516200029e919062001a91565b6040805191829003822060208301939093528101919091527fc89efdaa54c0f20c7adf612882df0950f5a951637e0307cdcb4c672f298b8bc660608201524660808201523060a082015260c00160405160208183030381529060405280519060200120905090565b6001600160a01b0382166200032e5760405163a41e3d3f60e01b815260040160405180910390fd5b801562000346576200034082620004e9565b62000351565b620003518262000521565b6001600160a01b03919091166000908152601160205260409020805460ff1916911515919091179055565b60003081806001600160a01b03851683106200039a5784836200039d565b82855b6040516001600160601b0319606084811b8216602084015283901b1660348201529193509150869060480160405160208183030381529060405280519060200120604051602001620004549291907fff00000000000000000000000000000000000000000000000000000000000000815260609290921b6001600160601b031916600183015260158201527f96e8ac4277198ff8b6f785478aa9a39f403cb768dd02cbee326c3e7da348845f603582015260550190565b6040516020818303038152906040528051906020012060001c93505050505b92915050565b6001600160a01b038216620004a157604051634e46966960e11b815260040160405180910390fd5b600160ff1b81600854620004b6919062001b0f565b1115620004d65760405163303b682f60e01b815260040160405180910390fd5b620004e460008383620005ad565b505050565b6001600160a01b038116600090815260106020526040812054905b81811015620004e457620005188362000872565b60010162000504565b60a05160009062000547836001600160a01b03166000908152600b602052604090205490565b62000553919062001b25565b9050600062000577836001600160a01b031660009081526010602052604090205490565b905060005b62000588828462001b48565b811015620005a7576200059e8460018062000912565b6001016200057c565b50505050565b6001600160a01b038381166000908152600b6020526040808220549285168252812054909190620005e086868662000959565b6000620005ed8762000a0b565b90506000620005fc8762000a0b565b9050818015620006095750805b620008645781156200069057600060a0518462000627919062001b25565b60a0516001600160a01b038a166000908152600b60205260409020546200064f919062001b25565b6200065b919062001b48565b905060005b8181101562000688576200067f8960a05160006200091260201b60201c565b60010162000660565b505062000864565b8015620006fd5760a0516001600160a01b0389166000908152600b60205260408120549091620006c09162001b25565b60a051620006cf908762001b25565b620006db919062001b48565b905060005b818110156200068857620006f48a62000872565b600101620006e0565b600060a051876200070f919062001b25565b905060005b81811015620007a1576001600160a01b038a16600090815260106020526040812054620007449060019062001b48565b6001600160a01b038c166000908152601060205260408120805492935090918390811062000776576200077662001b5e565b90600052602060002001549050620007968c8c8362000a3e60201b60201c565b505060010162000714565b5060a0518190620007c78b6001600160a01b03166000908152600b602052604090205490565b620007d3919062001b25565b60a051620007e2908862001b25565b620007ee919062001b48565b11156200080057620008008962000872565b8060a0518562000811919062001b25565b60a0516001600160a01b038b166000908152600b602052604090205462000839919062001b25565b62000845919062001b48565b11156200086257620008628860a05160006200091260201b60201c565b505b506001979650505050505050565b6001600160a01b0381166200089a57604051636edaef2f60e11b815260040160405180910390fd5b6001600160a01b03811660009081526010602052604081208054620008c29060019062001b48565b81548110620008d557620008d562001b5e565b90600052602060002001549050620008f38162000c0c60201b60201c565b620009018260008362000a3e565b6200090e60048262000c7a565b5050565b6001600160a01b0383166200093a57604051634e46966960e11b815260040160405180910390fd5b80156200094d57620004e4838362000ce5565b620004e4838362000dd3565b6001600160a01b038316620009885780600860008282546200097c919062001b0f565b90915550620009b89050565b6001600160a01b0383166000908152600b602052604081208054839290620009b290849062001b48565b90915550505b6001600160a01b038083166000818152600b6020526040908190208054850190555190918516906000805160206200500283398151915290620009fe9085815260200190565b60405180910390a3505050565b60006001600160a01b0382161580620004735750506001600160a01b031660009081526011602052604090205460ff1690565b62000a4b8184846200103b565b6000818152600f6020526040902080546001600160a01b0319166001600160a01b0384160190556001600160a01b0383161562000b79576001600160a01b0383166000908152601060205260408120805462000aaa9060019062001b48565b8154811062000abd5762000abd62001b5e565b6000918252602082200154915062000ae4836000908152600f602052604090205460a01c90565b6001600160a01b0386166000908152601060205260409020805491925083918390811062000b165762000b1662001b5e565b60009182526020808320909101929092556001600160a01b038716815260109091526040902080548062000b4e5762000b4e62001b74565b6001900381819060005260206000200160009055905562000b768282620011df60201b60201c565b50505b6001600160a01b038216600081815260106020908152604082208054600181810183558285529284200185905592909152905462000bc591839162000bbf919062001b48565b620011df565b6000818152600d602052604080822080546001600160a01b03191690555182916001600160a01b0385811692908716916000805160206200500283398151915291a4505050565b6000818152600260205260409020541562000c77576000818152600260205260408120805490919062000c435762000c4362001b5e565b600091825260208083206002928302016001015484845260038252604080852091909155919052812062000c7791620015eb565b50565b81546001600160801b038082166000190191600160801b900481169082160362000cb757604051638acb5f2760e01b815260040160405180910390fd5b6001600160801b0316600081815260018401602052604090209190915581546001600160801b031916179055565b6004546001600160801b03808216600160801b909204161462000dba5760008062000d296004546001600160801b03808216600160801b9092048116919091031690565b90505b8082101562000db757600062000d4460048462001247565b600081815260036020526040902054909150848114801562000d6c575062000d6c82620012b4565b1562000da05762000d7e600462001377565b5062000d8a82620013ed565b62000d986000878462000a3e565b505050505050565b8362000dac8162001b8a565b945050505062000d2c565b50505b60405163162908e360e11b815260040160405180910390fd5b600060a0518262000de5919062001b25565b905060005b81811015620005a757600062000e14600454600160801b81046001600160801b0390811691161490565b62000fca5760008062000e406004546001600160801b03808216600160801b9092048116919091031690565b90505b808210801562000e51575082155b1562000fc757600062000e6660048462001247565b60a05160008281526003602052604090205491925014801562000e8f575062000e8f81620012b4565b1562000fb1578260000362000eb15762000eaa600462001377565b5062000f93565b600162000ed76004546001600160801b03808216600160801b9092048116919091031690565b62000ee3919062001b48565b830362000ef65762000eaa60046200157a565b600062000f1c6004546001600160801b03808216600160801b9092048116919091031690565b9050835b62000f2d60018362001b48565b81101562000f8357600062000f5162000f4883600162001b0f565b60049062001247565b905062000f5f60046200157a565b5062000f6d60048262000c7a565b508062000f7a8162001b8a565b91505062000f20565b5062000f9060046200157a565b50505b62000f9e81620013ed565b62000fac6000898362000a3e565b600193505b8262000fbd8162001b8a565b9350505062000e43565b50505b80620010315760096000815462000fe19062001b8a565b90915550600954600101620010095760405163303b682f60e01b815260040160405180910390fd5b6000600954600160ff1b6200101f919062001b0f565b90506200102f6000878362000a3e565b505b5060010162000dea565b6000838152600260205260409020548015620005a75760008481526002602052604090206200106c60018362001b48565b815481106200107f576200107f62001b5e565b600091825260208083206002928302015487845291905260409091206001600160a01b039091169085907f3f5fbaf86658fdadee77f1d46e7f8a72424ad9839eda6a1dc6eb0a4228e4226e90620010d860018662001b48565b81548110620010eb57620010eb62001b5e565b9060005260206000209060020201600101546040516200110d91815260200190565b60405180910390a360008481526002602052604090206200113060018362001b48565b8154811062001143576200114362001b5e565b600091825260208083206002928302015487845291905260409091206001600160a01b039091169085907fb162210da7d23d82c18cff5af46d3562661d26b42a6848fa28d64a6bdc70386a906200119c60018662001b48565b81548110620011af57620011af62001b5e565b906000526020600020906002020160010154604051620011d191815260200190565b60405180910390a350505050565b6000828152600f60205260409020546001600160601b038211156200121757604051633f2cd0e360e21b815260040160405180910390fd5b6000928352600f60205260409092206001600160a01b039290921660a09190911b6001600160a01b031916019055565b60006200126c83546001600160801b03808216600160801b9092048116919091031690565b82106200128c5760405163580821e760e01b815260040160405180910390fd5b5081546001600160801b03908116820116600090815260018301602052604090205492915050565b6000818152600a602052604081205460ff161580620012df5750600082815260016020526040902054155b15620012ed57506001919050565b60008281526001602090815260408083206002909252822080549192909190036200131c575060009392505050565b8160008154811062001332576200133262001b5e565b906000526020600020906002020160010154816000815481106200135a576200135a62001b5e565b906000526020600020906002020160010154101592505050919050565b80546000906001600160801b0380821691600160801b9004168103620013b0576040516375e52f4f60e01b815260040160405180910390fd5b6001600160801b038181166000908152600185810160205260408220805492905585546001600160801b0319169301909116919091179092555090565b6000818152600a602052604090205460ff16801562001419575060008181526001602052604090205415155b1562000c77576200142a81620012b4565b620014845760405162461bcd60e51b8152602060048201526024808201527f496e73756666696369656e74206465706f7369747320746f20726573746f72656044820152630813919560e21b606482015260840162000061565b60008181526002602052604081206200149d91620015eb565b60005b600082815260016020526040902054811015620015485760008281526002602090815260408083206001909252909120805483908110620014e557620014e562001b5e565b6000918252602080832084546001818101875595855291909320600292830290930180549190920290920180546001600160a01b0319166001600160a01b03909316929092178255820154910155806200153f8162001b8a565b915050620014a0565b5060008181526001602052604081206200156291620015eb565b6000908152600a60205260409020805460ff19169055565b80546000906001600160801b03600160801b8204811691168103620015b2576040516375e52f4f60e01b815260040160405180910390fd5b600019016001600160801b039081166000818152600185016020526040812080549190558454909216600160801b909102179092555090565b508054600082556002029060005260206000209081019062000c7791905b80821115620016305780546001600160a01b03191681556000600182015560020162001609565b5090565b634e487b7160e01b600052604160045260246000fd5b600082601f8301126200165c57600080fd5b81516001600160401b038082111562001679576200167962001634565b604051601f8301601f19908116603f01168101908282118183101715620016a457620016a462001634565b81604052838152602092508683858801011115620016c157600080fd5b600091505b83821015620016e55785820183015181830184015290820190620016c6565b600093810190920192909252949350505050565b80516001600160a01b03811681146200171157600080fd5b919050565b600080600080600080600060e0888a0312156200173257600080fd5b87516001600160401b03808211156200174a57600080fd5b620017588b838c016200164a565b985060208a01519150808211156200176f57600080fd5b506200177e8a828b016200164a565b965050604088015160ff811681146200179657600080fd5b60608901519095509350620017ae60808901620016f9565b9250620017be60a08901620016f9565b9150620017ce60c08901620016f9565b905092959891949750929550565b600181811c90821680620017f157607f821691505b6020821081036200181257634e487b7160e01b600052602260045260246000fd5b50919050565b601f821115620004e457600081815260208120601f850160051c81016020861015620018415750805b601f850160051c820191505b8181101562000d98578281556001016200184d565b81516001600160401b038111156200187e576200187e62001634565b62001896816200188f8454620017dc565b8462001818565b602080601f831160018114620018ce5760008415620018b55750858301515b600019600386901b1c1916600185901b17855562000d98565b600085815260208120601f198616915b82811015620018ff57888601518255948401946001909101908401620018de565b50858210156200191e5787850151600019600388901b60f8161c191681555b5050505050600190811b01905550565b634e487b7160e01b600052601160045260246000fd5b600181815b80851115620019855781600019048211156200196957620019696200192e565b808516156200197757918102915b93841c939080029062001949565b509250929050565b6000826200199e5750600162000473565b81620019ad5750600062000473565b8160018114620019c65760028114620019d157620019f1565b600191505062000473565b60ff841115620019e557620019e56200192e565b50506001821b62000473565b5060208310610133831016604e8410600b841016171562001a16575081810a62000473565b62001a22838362001944565b806000190482111562001a395762001a396200192e565b029392505050565b600062001a5260ff8416836200198d565b9392505050565b60006020828403121562001a6c57600080fd5b62001a5282620016f9565b80820281158282048414176200047357620004736200192e565b600080835462001aa181620017dc565b6001828116801562001abc576001811462001ad25762001b03565b60ff198416875282151583028701945062001b03565b8760005260208060002060005b8581101562001afa5781548a82015290840190820162001adf565b50505082870194505b50929695505050505050565b808201808211156200047357620004736200192e565b60008262001b4357634e487b7160e01b600052601260045260246000fd5b500490565b818103818111156200047357620004736200192e565b634e487b7160e01b600052603260045260246000fd5b634e487b7160e01b600052603160045260246000fd5b60006001820162001b9f5762001b9f6200192e565b5060010190565b60805160a05160c05160e0516133c062001c4260003960006109d9015260006109a90152600081816104bc01528181611a3601528181611a7a01528181611abc01528181611b1601528181611b4001528181611b9401528181611c4001528181611c8d01528181611cd101528181611cf801528181611d56015281816121ee015281816126be01526127570152600061039201526133c06000f3fe608060405234801561001057600080fd5b50600436106102745760003560e01c80638a696e5011610151578063c6e672b9116100c3578063dd63769911610087578063dd637699146105f2578063dfabc03314610605578063e985e9c514610618578063f16ad51e14610646578063f2fde38b14610659578063f780bc1a1461066c57600080fd5b8063c6e672b91461057b578063c87b56dd1461058e578063d505accf146105a1578063d96ca0b9146105b4578063dd62ed3e146105c757600080fd5b8063a9059cbb11610115578063a9059cbb146104f1578063b1ab931714610504578063b3f9ea3414610524578063b88d4fde1461054d578063ba7bd2aa14610560578063c5ab3ba61461057357600080fd5b80638a696e501461048b5780638da5cb5b1461049e57806395d89b41146104af578063976a8435146104b7578063a22cb465146104de57600080fd5b80633644e515116101ea5780636e8f624b116101ae5780636e8f624b1461041057806370a082311461041b578063715018a61461043b5780637df1c3d8146104435780637ecebe001461046357806389fb4c661461048357600080fd5b80633644e515146103c657806342842e0e146103ce5780634d966072146103e15780634f02c420146103f45780636352211e146103fd57600080fd5b8063095ea7b31161023c578063095ea7b31461034357806309674eb01461035657806309f0ef651461035e57806318160ddd1461037157806323b872dd1461037a578063313ce5671461038d57600080fd5b8063015bf2641461027957806301ffc9a71461028e57806302519da3146102b657806306fdde03146102ed578063081812fc14610302575b600080fd5b61028c610287366004612d1c565b61067f565b005b6102a161029c366004612d67565b610827565b60405190151581526020015b60405180910390f35b6102df6102c4366004612d84565b6001600160a01b03166000908152600b602052604090205490565b6040519081526020016102ad565b6102f561085e565b6040516102ad9190612def565b61032b610310366004612e02565b600d602052600090815260409020546001600160a01b031681565b6040516001600160a01b0390911681526020016102ad565b6102a1610351366004612e1b565b6108ec565b6102df610925565b6102a161036c366004612d84565b610936565b6102df60085481565b6102a1610388366004612e45565b610968565b6103b47f000000000000000000000000000000000000000000000000000000000000000081565b60405160ff90911681526020016102ad565b6102df6109a5565b61028c6103dc366004612e45565b6109fb565b6102a16103ef366004612e1b565b610a1b565b6102df60095481565b61032b61040b366004612e02565b610aa8565b6102df600160ff1b81565b6102df610429366004612d84565b600b6020526000908152604090205481565b61028c610b12565b610456610451366004612e02565b610b26565b6040516102ad9190612e71565b6102df610471366004612d84565b60126020526000908152604090205481565b6008546102df565b61028c610499366004612ed7565b610bae565b6000546001600160a01b031661032b565b6102f5610bbb565b6102df7f000000000000000000000000000000000000000000000000000000000000000081565b61028c6104ec366004612ef4565b610bc8565b6102a16104ff366004612e1b565b610c5c565b610517610512366004612d84565b610c90565b6040516102ad9190612f2b565b6102df610532366004612d84565b6001600160a01b031660009081526010602052604090205490565b61028c61055b366004612f85565b610cfc565b61028c61056e366004613061565b610dea565b6009546102df565b61028c610589366004612ef4565b610f7d565b6102f561059c366004612e02565b610f93565b61028c6105af366004613083565b610fc4565b6102a16105c2366004612e45565b611207565b6102df6105d53660046130f6565b600c60209081526000928352604080842090915290825290205481565b61028c610600366004612e45565b6112c7565b61028c610613366004612e1b565b6113fd565b6102a16106263660046130f6565b600e60209081526000928352604080842090915290825290205460ff1681565b61028c610654366004613061565b6114c2565b61028c610667366004612d84565b61167f565b61051761067a366004613061565b6116ba565b6000838152600f60205260409020546001600160a01b03163381146106b6576040516282b42960e81b815260040160405180910390fd5b306001600160a01b0384160361073157336000908152600b60205260409020548211156107215760405162461bcd60e51b8152602060048201526014602482015273496e73756666696369656e742062616c616e636560601b60448201526064015b60405180910390fd5b61072c333084611757565b6107c8565b6040516323b872dd60e01b81523360048201523060248201526044810183905283906001600160a01b038216906323b872dd906064016020604051808303816000875af1158015610786573d6000803e3d6000fd5b505050506040513d601f19601f820116820180604052508101906107aa9190613129565b6107c65760405162461bcd60e51b815260040161071890613146565b505b50600092835260026020818152604080862081518083019092526001600160a01b0395861682528183019485528054600180820183559188529290962090519190920290910180546001600160a01b0319169190931617825551910155565b60006001600160e01b0319821663caf91ff560e01b148061085857506001600160e01b031982166301ffc9a760e01b145b92915050565b6006805461086b9061316f565b80601f01602080910402602001604051908101604052809291908181526020018280546108979061316f565b80156108e45780601f106108b9576101008083540402835291602001916108e4565b820191906000526020600020905b8154815290600101906020018083116108c757829003601f168201915b505050505081565b60006108f782611813565b1561090b5761090683836113fd565b61091c565b6109158383610a1b565b9050610858565b50600192915050565b6000610931600461182c565b905090565b60006001600160a01b03821615806108585750506001600160a01b031660009081526011602052604090205460ff1690565b600061097382611813565b15610988576109838484846112c7565b61099a565b610993848484611207565b905061099e565b5060015b9392505050565b60007f000000000000000000000000000000000000000000000000000000000000000046146109d65761093161184a565b507f000000000000000000000000000000000000000000000000000000000000000090565b610a1683838360405180602001604052806000815250610cfc565b505050565b60006001600160a01b038316610a4457604051635461585f60e01b815260040160405180910390fd5b336000818152600c602090815260408083206001600160a01b03881680855290835292819020869055518581529192917f8c5be1e5ebec7d5bd14f71427d1e84f3dd0314c0f7b2291e5b200ac8c7c3b925910160405180910390a350600192915050565b6000818152600f60205260409020546001600160a01b0316610ac982611813565b610ae6576040516307ed98ed60e31b815260040160405180910390fd5b6001600160a01b038116610b0d5760405163c5723b5160e01b815260040160405180910390fd5b919050565b610b1a6118e4565b610b246000611911565b565b606060026000838152602001908152602001600020805480602002602001604051908101604052809291908181526020016000905b82821015610ba3576000848152602090819020604080518082019091526002850290910180546001600160a01b03168252600190810154828401529083529092019101610b5b565b505050509050919050565b610bb83382611961565b50565b6007805461086b9061316f565b6001600160a01b038216610bef5760405163ccea9e6f60e01b815260040160405180910390fd5b336000818152600e602090815260408083206001600160a01b03871680855290835292819020805460ff191686151590811790915590519081529192917f17307eab39ab6107e8899845ad3d59bd9653f200f220920489ca2b5937696c3191015b60405180910390a35050565b60006001600160a01b038316610c8557604051634e46966960e11b815260040160405180910390fd5b61099e3384846119d0565b6001600160a01b038116600090815260106020908152604091829020805483518184028101840190945280845260609392830182828015610cf057602002820191906000526020600020905b815481526020019060010190808311610cdc575b50505050509050919050565b610d0582611813565b610d22576040516307ed98ed60e31b815260040160405180910390fd5b610d2d848484610968565b506001600160a01b0383163b15801590610dc65750604051630a85bd0160e11b808252906001600160a01b0385169063150b7a0290610d769033908990889088906004016131a9565b6020604051808303816000875af1158015610d95573d6000803e3d6000fd5b505050506040513d601f19601f82011682018060405250810190610db991906131e6565b6001600160e01b03191614155b15610de457604051633da6393160e01b815260040160405180910390fd5b50505050565b6000828152600f60205260409020546001600160a01b0316338114610e21576040516282b42960e81b815260040160405180910390fd5b6000838152600260205260409020548210610e765760405162461bcd60e51b8152602060048201526015602482015274092dcecc2d8d2c840c8cae0dee6d2e840d2dcc8caf605b1b6044820152606401610718565b6000838152600260205260408120805484908110610e9657610e96613203565b6000918252602090912060029091020160018101548154919250906001600160a01b0316610ec48686611d8c565b306001600160a01b03821603610ee457610edf303384611757565b610f75565b60405163a9059cbb60e01b81523360048201526024810183905281906001600160a01b0382169063a9059cbb906044016020604051808303816000875af1158015610f33573d6000803e3d6000fd5b505050506040513d601f19601f82011682018060405250810190610f579190613129565b610f735760405162461bcd60e51b815260040161071890613146565b505b505050505050565b610f856118e4565b610f8f8282611961565b5050565b6060610f9e82611edb565b604051602001610fae9190613219565b6040516020818303038152906040529050919050565b42841015610fe5576040516305787bdf60e01b815260040160405180910390fd5b610fee85611813565b1561100c576040516303e7c1bd60e31b815260040160405180910390fd5b6001600160a01b03861661103357604051635461585f60e01b815260040160405180910390fd5b6000600161103f6109a5565b6001600160a01b038a811660008181526012602090815260409182902080546001810190915582517f6e71edae12b1b97f4d1f60370fef10105fa2faae0126114a169c64845d6126c98184015280840194909452938d166060840152608083018c905260a083019390935260c08083018b90528151808403909101815260e08301909152805192019190912061190160f01b6101008301526101028201929092526101228101919091526101420160408051601f198184030181528282528051602091820120600084529083018083525260ff871690820152606081018590526080810184905260a0016020604051602081039080840390855afa15801561114b573d6000803e3d6000fd5b5050604051601f1901519150506001600160a01b03811615806111805750876001600160a01b0316816001600160a01b031614155b1561119e57604051632057875960e21b815260040160405180910390fd5b6001600160a01b039081166000908152600c602090815260408083208a8516808552908352928190208990555188815291928a16917f8c5be1e5ebec7d5bd14f71427d1e84f3dd0314c0f7b2291e5b200ac8c7c3b925910160405180910390a350505050505050565b60006001600160a01b03841661123057604051636edaef2f60e11b815260040160405180910390fd5b6001600160a01b03831661125757604051634e46966960e11b815260040160405180910390fd5b6001600160a01b0384166000908152600c6020908152604080832033845290915290205460001981146112b35761128e8382613274565b6001600160a01b0386166000908152600c602090815260408083203384529091529020555b6112be8585856119d0565b95945050505050565b6001600160a01b0383166112ee57604051636edaef2f60e11b815260040160405180910390fd5b6001600160a01b03821661131557604051634e46966960e11b815260040160405180910390fd5b6000818152600f60205260409020546001600160a01b0384811691161461134e576040516282b42960e81b815260040160405180910390fd5b336001600160a01b0384161480159061138b57506001600160a01b0383166000908152600e6020908152604080832033845290915290205460ff16155b80156113ae57506000818152600d60205260409020546001600160a01b03163314155b156113cb576040516282b42960e81b815260040160405180910390fd5b6113d482610936565b156113f257604051635ce7539760e01b815260040160405180910390fd5b610a16838383611f6e565b6000818152600f60205260409020546001600160a01b031633811480159061144957506001600160a01b0381166000908152600e6020908152604080832033845290915290205460ff16155b15611466576040516282b42960e81b815260040160405180910390fd5b6000828152600d602052604080822080546001600160a01b0319166001600160a01b0387811691821790925591518593918516917f8c5be1e5ebec7d5bd14f71427d1e84f3dd0314c0f7b2291e5b200ac8c7c3b92591a4505050565b6000828152600f60205260409020546001600160a01b0316331461151a5760405162461bcd60e51b815260206004820152600f60248201526e2737ba103a37b5b2b71037bbb732b960891b6044820152606401610718565b6000811161156a5760405162461bcd60e51b815260206004820152601d60248201527f416d6f756e74206d7573742062652067726561746572207468616e20300000006044820152606401610718565b60008281526002602052604081205490036115df5760008281526002602081815260408084208151808301909252308252818301868152815460018082018455928752939095209151929093020180546001600160a01b0319166001600160a01b039092169190911781559151910155611624565b600082815260026020526040812080548392906115fe576115fe613203565b9060005260206000209060020201600101600082825461161e9190613287565b90915550505b61162f333083612134565b61164b5760405162461bcd60e51b815260040161071890613146565b604051818152309083907fb162210da7d23d82c18cff5af46d3562661d26b42a6848fa28d64a6bdc70386a90602001610c50565b6116876118e4565b6001600160a01b0381166116b157604051631e4fbdf760e01b815260006004820152602401610718565b610bb881611911565b606060008267ffffffffffffffff8111156116d7576116d7612f6f565b604051908082528060200260200182016040528015611700578160200160208202803683370190505b509050835b61170f8486613287565b81101561174f57611721600482612149565b8261172c8784613274565b8151811061173c5761173c613203565b6020908102919091010152600101611705565b509392505050565b6001600160a01b0383166117825780600860008282546117779190613287565b909155506117b09050565b6001600160a01b0383166000908152600b6020526040812080548392906117aa908490613274565b90915550505b6001600160a01b038083166000818152600b6020526040908190208054850190555190918516907fddf252ad1be2c89b69c2b068fc378daa952ba7f163c4a11628f55a4df523b3ef906118069085815260200190565b60405180910390a3505050565b6000600160ff1b82118015610858575050600019141590565b546001600160801b03808216600160801b9092048116919091031690565b60007f8b73c3c69bb8fe3d512ecc4cf759cc79239f7b179b0ffacaa9a75d522b39400f600660405161187c919061329a565b6040805191829003822060208301939093528101919091527fc89efdaa54c0f20c7adf612882df0950f5a951637e0307cdcb4c672f298b8bc660608201524660808201523060a082015260c00160405160208183030381529060405280519060200120905090565b6000546001600160a01b03163314610b245760405163118cdaa760e01b8152336004820152602401610718565b600080546001600160a01b038381166001600160a01b0319831681178455604051919092169283917f8be0079c531659141344cd1fd0a4f28419497f9722a3daafe3b4186f6b6457e09190a35050565b6001600160a01b0382166119885760405163a41e3d3f60e01b815260040160405180910390fd5b801561199c576119978261219b565b6119a5565b6119a5826121cf565b6001600160a01b03919091166000908152601160205260409020805460ff1916911515919091179055565b6001600160a01b038381166000908152600b6020526040808220549285168252812054909190611a01868686611757565b6000611a0c87610936565b90506000611a1987610936565b9050818015611a255750805b611d7e578115611af1576000611a5b7f000000000000000000000000000000000000000000000000000000000000000085613339565b6001600160a01b0389166000908152600b6020526040902054611a9f907f000000000000000000000000000000000000000000000000000000000000000090613339565b611aa99190613274565b905060005b81811015611aea57611ae2897f00000000000000000000000000000000000000000000000000000000000000006000612260565b600101611aae565b5050611d7e565b8015611b8d576001600160a01b0388166000908152600b6020526040812054611b3b907f000000000000000000000000000000000000000000000000000000000000000090613339565b611b657f000000000000000000000000000000000000000000000000000000000000000087613339565b611b6f9190613274565b905060005b81811015611aea57611b858a6122a1565b600101611b74565b6000611bb97f000000000000000000000000000000000000000000000000000000000000000088613339565b905060005b81811015611c3c576001600160a01b038a16600090815260106020526040812054611beb90600190613274565b6001600160a01b038c1660009081526010602052604081208054929350909183908110611c1a57611c1a613203565b90600052602060002001549050611c328c8c83611f6e565b5050600101611bbe565b50807f0000000000000000000000000000000000000000000000000000000000000000611c7e8b6001600160a01b03166000908152600b602052604090205490565b611c889190613339565b611cb27f000000000000000000000000000000000000000000000000000000000000000088613339565b611cbc9190613274565b1115611ccb57611ccb896122a1565b80611cf67f000000000000000000000000000000000000000000000000000000000000000086613339565b7f0000000000000000000000000000000000000000000000000000000000000000611d368b6001600160a01b03166000908152600b602052604090205490565b611d409190613339565b611d4a9190613274565b1115611d7c57611d7c887f00000000000000000000000000000000000000000000000000000000000000006000612260565b505b506001979650505050505050565b6000828152600260205260409020548110611dd95760405162461bcd60e51b815260206004820152600d60248201526c092dcecc2d8d2c840d2dcc8caf609b1b6044820152606401610718565b600082815260026020526040902054611df490600190613274565b8114611e915760008281526002602052604090208054611e1690600190613274565b81548110611e2657611e26613203565b9060005260206000209060020201600260008481526020019081526020016000208281548110611e5857611e58613203565b60009182526020909120825460029092020180546001600160a01b0319166001600160a01b039092169190911781556001918201549101555b6000828152600260205260409020805480611eae57611eae61335b565b60008281526020812060026000199093019283020180546001600160a01b03191681556001015590555050565b60606000611ee88361232b565b600101905060008167ffffffffffffffff811115611f0857611f08612f6f565b6040519080825280601f01601f191660200182016040528015611f32576020820181803683370190505b5090508181016020015b600019016f181899199a1a9b1b9c1cb0b131b232b360811b600a86061a8153600a8504945084611f3c57509392505050565b611f79818484612403565b6000818152600f6020526040902080546001600160a01b0319166001600160a01b0384160190556001600160a01b03831615612094576001600160a01b03831660009081526010602052604081208054611fd590600190613274565b81548110611fe557611fe5613203565b90600052602060002001549050600061200d836000908152600f602052604090205460a01c90565b6001600160a01b0386166000908152601060205260409020805491925083918390811061203c5761203c613203565b60009182526020808320909101929092556001600160a01b03871681526010909152604090208054806120715761207161335b565b600190038181906000526020600020016000905590556120918282612590565b50505b6001600160a01b03821660008181526010602090815260408220805460018181018355828552928420018590559290915290546120dc9183916120d79190613274565b612590565b6000818152600d602052604080822080546001600160a01b03191690555182916001600160a01b0385811692908716917fddf252ad1be2c89b69c2b068fc378daa952ba7f163c4a11628f55a4df523b3ef91a4505050565b60006121418484846119d0565b949350505050565b60006121548361182c565b82106121735760405163580821e760e01b815260040160405180910390fd5b5081546001600160801b03908116820116600090815260018301602052604090205492915050565b6001600160a01b038116600090815260106020526040812054905b81811015610a16576121c7836122a1565b6001016121b6565b6001600160a01b0381166000908152600b6020526040812054612213907f000000000000000000000000000000000000000000000000000000000000000090613339565b90506000612236836001600160a01b031660009081526010602052604090205490565b905060005b6122458284613274565b811015610de45761225884600180612260565b60010161223b565b6001600160a01b03831661228757604051634e46966960e11b815260040160405180910390fd5b801561229757610a1683836125fc565b610a1683836126b7565b6001600160a01b0381166122c857604051636edaef2f60e11b815260040160405180910390fd5b6001600160a01b038116600090815260106020526040812080546122ee90600190613274565b815481106122fe576122fe613203565b90600052602060002001549050612314816128d5565b61232082600083611f6e565b610f8f60048261293a565b60008072184f03e93ff9f4daa797ed6e38ed64bf6a1f0160401b831061236a5772184f03e93ff9f4daa797ed6e38ed64bf6a1f0160401b830492506040015b6d04ee2d6d415b85acef81000000008310612396576d04ee2d6d415b85acef8100000000830492506020015b662386f26fc1000083106123b457662386f26fc10000830492506010015b6305f5e10083106123cc576305f5e100830492506008015b61271083106123e057612710830492506004015b606483106123f2576064830492506002015b600a83106108585760010192915050565b6000838152600260205260409020548015610de4576000848152600260205260409020612431600183613274565b8154811061244157612441613203565b600091825260208083206002928302015487845291905260409091206001600160a01b039091169085907f3f5fbaf86658fdadee77f1d46e7f8a72424ad9839eda6a1dc6eb0a4228e4226e90612498600186613274565b815481106124a8576124a8613203565b9060005260206000209060020201600101546040516124c991815260200190565b60405180910390a360008481526002602052604090206124ea600183613274565b815481106124fa576124fa613203565b600091825260208083206002928302015487845291905260409091206001600160a01b039091169085907fb162210da7d23d82c18cff5af46d3562661d26b42a6848fa28d64a6bdc70386a90612551600186613274565b8154811061256157612561613203565b90600052602060002090600202016001015460405161258291815260200190565b60405180910390a350505050565b6000828152600f60205260409020546bffffffffffffffffffffffff8211156125cc57604051633f2cd0e360e21b815260040160405180910390fd5b6000928352600f60205260409092206001600160a01b039290921660a09190911b6001600160a01b031916019055565b6004546001600160801b03808216600160801b909204161461269e57600080612625600461182c565b90505b8082101561269b57600061263d600484612149565b60008181526003602052604090205490915084811480156126625750612662826129a4565b15612687576126716004612a5e565b5061267b82612ad3565b610f7560008784611f6e565b8361269181613371565b9450505050612628565b50505b60405163162908e360e11b815260040160405180910390fd5b60006126e37f000000000000000000000000000000000000000000000000000000000000000083613339565b905060005b81811015610de4576000612710600454600160801b81046001600160801b0390811691161490565b61286d57600080612721600461182c565b90505b8082108015612731575082155b1561286a576000612743600484612149565b6000818152600360205260409020549091507f00000000000000000000000000000000000000000000000000000000000000001480156127875750612787816129a4565b1561285757826000036127a45761279e6004612a5e565b5061283d565b60016127b0600461182c565b6127ba9190613274565b83036127ca5761279e6004612c4f565b60006127d6600461182c565b9050835b6127e5600183613274565b81101561282f5760006128046127fc836001613287565b600490612149565b90506128106004612c4f565b5061281c60048261293a565b508061282781613371565b9150506127da565b5061283a6004612c4f565b50505b61284681612ad3565b61285260008983611f6e565b600193505b8261286181613371565b93505050612724565b50505b806128cc5760096000815461288190613371565b909155506009546001016128a85760405163303b682f60e01b815260040160405180910390fd5b6000600954600160ff1b6128bc9190613287565b90506128ca60008783611f6e565b505b506001016126e8565b60008181526002602052604090205415610bb8576000818152600260205260408120805490919061290857612908613203565b6000918252602080832060029283020160010154848452600382526040808520919091559190528120610bb891612cbf565b81546001600160801b038082166000190191600160801b900481169082160361297657604051638acb5f2760e01b815260040160405180910390fd5b6001600160801b0316600081815260018401602052604090209190915581546001600160801b031916179055565b6000818152600a602052604081205460ff1615806129ce5750600082815260016020526040902054155b156129db57506001919050565b6000828152600160209081526040808320600290925282208054919290919003612a09575060009392505050565b81600081548110612a1c57612a1c613203565b90600052602060002090600202016001015481600081548110612a4157612a41613203565b906000526020600020906002020160010154101592505050919050565b80546000906001600160801b0380821691600160801b9004168103612a96576040516375e52f4f60e01b815260040160405180910390fd5b6001600160801b038181166000908152600185810160205260408220805492905585546001600160801b0319169301909116919091179092555090565b6000818152600a602052604090205460ff168015612afe575060008181526001602052604090205415155b15610bb857612b0c816129a4565b612b645760405162461bcd60e51b8152602060048201526024808201527f496e73756666696369656e74206465706f7369747320746f20726573746f72656044820152630813919560e21b6064820152608401610718565b6000818152600260205260408120612b7b91612cbf565b60005b600082815260016020526040902054811015612c1f5760008281526002602090815260408083206001909252909120805483908110612bbf57612bbf613203565b6000918252602080832084546001818101875595855291909320600292830290930180549190920290920180546001600160a01b0319166001600160a01b0390931692909217825582015491015580612c1781613371565b915050612b7e565b506000818152600160205260408120612c3791612cbf565b6000908152600a60205260409020805460ff19169055565b80546000906001600160801b03600160801b8204811691168103612c86576040516375e52f4f60e01b815260040160405180910390fd5b600019016001600160801b039081166000818152600185016020526040812080549190558454909216600160801b909102179092555090565b5080546000825560020290600052602060002090810190610bb891905b80821115612d015780546001600160a01b031916815560006001820155600201612cdc565b5090565b80356001600160a01b0381168114610b0d57600080fd5b600080600060608486031215612d3157600080fd5b83359250612d4160208501612d05565b9150604084013590509250925092565b6001600160e01b031981168114610bb857600080fd5b600060208284031215612d7957600080fd5b813561099e81612d51565b600060208284031215612d9657600080fd5b61099e82612d05565b60005b83811015612dba578181015183820152602001612da2565b50506000910152565b60008151808452612ddb816020860160208601612d9f565b601f01601f19169290920160200192915050565b60208152600061099e6020830184612dc3565b600060208284031215612e1457600080fd5b5035919050565b60008060408385031215612e2e57600080fd5b612e3783612d05565b946020939093013593505050565b600080600060608486031215612e5a57600080fd5b612e6384612d05565b9250612d4160208501612d05565b602080825282518282018190526000919060409081850190868401855b82811015612ebc57815180516001600160a01b03168552860151868501529284019290850190600101612e8e565b5091979650505050505050565b8015158114610bb857600080fd5b600060208284031215612ee957600080fd5b813561099e81612ec9565b60008060408385031215612f0757600080fd5b612f1083612d05565b91506020830135612f2081612ec9565b809150509250929050565b6020808252825182820181905260009190848201906040850190845b81811015612f6357835183529284019291840191600101612f47565b50909695505050505050565b634e487b7160e01b600052604160045260246000fd5b60008060008060808587031215612f9b57600080fd5b612fa485612d05565b9350612fb260208601612d05565b925060408501359150606085013567ffffffffffffffff80821115612fd657600080fd5b818701915087601f830112612fea57600080fd5b813581811115612ffc57612ffc612f6f565b604051601f8201601f19908116603f0116810190838211818310171561302457613024612f6f565b816040528281528a602084870101111561303d57600080fd5b82602086016020830137600060208483010152809550505050505092959194509250565b6000806040838503121561307457600080fd5b50508035926020909101359150565b600080600080600080600060e0888a03121561309e57600080fd5b6130a788612d05565b96506130b560208901612d05565b95506040880135945060608801359350608088013560ff811681146130d957600080fd5b9699959850939692959460a0840135945060c09093013592915050565b6000806040838503121561310957600080fd5b61311283612d05565b915061312060208401612d05565b90509250929050565b60006020828403121561313b57600080fd5b815161099e81612ec9565b6020808252600f908201526e151c985b9cd9995c8819985a5b1959608a1b604082015260600190565b600181811c9082168061318357607f821691505b6020821081036131a357634e487b7160e01b600052602260045260246000fd5b50919050565b6001600160a01b03858116825284166020820152604081018390526080606082018190526000906131dc90830184612dc3565b9695505050505050565b6000602082840312156131f857600080fd5b815161099e81612d51565b634e487b7160e01b600052603260045260246000fd5b7f68747470733a2f2f6578616d706c652e636f6d2f746f6b656e2f00000000000081526000825161325181601a850160208701612d9f565b91909101601a0192915050565b634e487b7160e01b600052601160045260246000fd5b818103818111156108585761085861325e565b808201808211156108585761085861325e565b600080835481600182811c9150808316806132b657607f831692505b602080841082036132d557634e487b7160e01b86526022600452602486fd5b8180156132e957600181146132fe5761332b565b60ff198616895284151585028901965061332b565b60008a81526020902060005b868110156133235781548b82015290850190830161330a565b505084890196505b509498975050505050505050565b60008261335657634e487b7160e01b600052601260045260246000fd5b500490565b634e487b7160e01b600052603160045260246000fd5b6000600182016133835761338361325e565b506001019056fea26469706673582212202258ee218855542b8d0e18f2a0233c996a204825b0b3c67ed38fd868de3fa89564736f6c63430008140033ddf252ad1be2c89b69c2b068fc378daa952ba7f163c4a11628f55a4df523b3ef","linkReferences":{}},"methodIdentifiers":{"DOMAIN_SEPARATOR()":"3644e515","ID_ENCODING_PREFIX()":"6e8f624b","allowance(address,address)":"dd62ed3e","approve(address,uint256)":"095ea7b3","balanceOf(address)":"70a08231","decimals()":"313ce567","depositTokens(uint256,address,uint256)":"015bf264","depositTokens(uint256,uint256)":"f16ad51e","erc20Approve(address,uint256)":"4d966072","erc20BalanceOf(address)":"02519da3","erc20TotalSupply()":"89fb4c66","erc20TransferFrom(address,address,uint256)":"d96ca0b9","erc721Approve(address,uint256)":"dfabc033","erc721BalanceOf(address)":"b3f9ea34","erc721TotalSupply()":"c5ab3ba6","erc721TransferExempt(address)":"09f0ef65","erc721TransferFrom(address,address,uint256)":"dd637699","getApproved(uint256)":"081812fc","getERC721QueueLength()":"09674eb0","getERC721TokensInQueue(uint256,uint256)":"f780bc1a","getTokenDeposits(uint256)":"7df1c3d8","isApprovedForAll(address,address)":"e985e9c5","minted()":"4f02c420","name()":"06fdde03","nonces(address)":"7ecebe00","owned(address)":"b1ab9317","owner()":"8da5cb5b","ownerOf(uint256)":"6352211e","permit(address,address,uint256,uint256,uint8,bytes32,bytes32)":"d505accf","renounceOwnership()":"715018a6","safeTransferFrom(address,address,uint256)":"42842e0e","safeTransferFrom(address,address,uint256,bytes)":"b88d4fde","setApprovalForAll(address,bool)":"a22cb465","setERC721TransferExempt(address,bool)":"c6e672b9","setSelfERC721TransferExempt(bool)":"8a696e50","supportsInterface(bytes4)":"01ffc9a7","symbol()":"95d89b41","tokenURI(uint256)":"c87b56dd","totalSupply()":"18160ddd","transfer(address,uint256)":"a9059cbb","transferFrom(address,address,uint256)":"23b872dd","transferOwnership(address)":"f2fde38b","units()":"976a8435","withdrawTokens(uint256,uint256)":"ba7bd2aa"},"id":3}