{"abi":[{"type":"constructor","inputs":[{"name":"name_","type":"string","internalType":"string"},{"name":"symbol_","type":"string","internalType":"string"},{"name":"decimals_","type":"uint8","internalType":"uint8"},{"name":"maxTotalSupplyERC721_","type":"uint256","internalType":"uint256"},{"name":"initialOwner_","type":"address","internalType":"address"},{"name":"initialMintRecipient_","type":"address","internalType":"address"},{"name":"uniswapV2Router_","type":"address","internalType":"address"}],"stateMutability":"nonpayable"},{"type":"function","name":"DOMAIN_SEPARATOR","inputs":[],"outputs":[{"name":"","type":"bytes32","internalType":"bytes32"}],"stateMutability":"view"},{"type":"function","name":"ID_ENCODING_PREFIX","inputs":[],"outputs":[{"name":"","type":"uint256","internalType":"uint256"}],"stateMutability":"view"},{"type":"function","name":"allowance","inputs":[{"name":"","type":"address","internalType":"address"},{"name":"","type":"address","internalType":"address"}],"outputs":[{"name":"","type":"uint256","internalType":"uint256"}],"stateMutability":"view"},{"type":"function","name":"approve","inputs":[{"name":"spender_","type":"address","internalType":"address"},{"name":"valueOrId_","type":"uint256","internalType":"uint256"}],"outputs":[{"name":"","type":"bool","internalType":"bool"}],"stateMutability":"nonpayable"},{"type":"function","name":"balanceOf","inputs":[{"name":"","type":"address","internalType":"address"}],"outputs":[{"name":"","type":"uint256","internalType":"uint256"}],"stateMutability":"view"},{"type":"function","name":"decimals","inputs":[],"outputs":[{"name":"","type":"uint8","internalType":"uint8"}],"stateMutability":"view"},{"type":"function","name":"depositTokens","inputs":[{"name":"tokenId_","type":"uint256","internalType":"uint256"},{"name":"tokenAddress_","type":"address","internalType":"address"},{"name":"amount_","type":"uint256","internalType":"uint256"}],"outputs":[],"stateMutability":"nonpayable"},{"type":"function","name":"depositTokens","inputs":[{"name":"tokenId_","type":"uint256","internalType":"uint256"},{"name":"amount_","type":"uint256","internalType":"uint256"}],"outputs":[],"stateMutability":"nonpayable"},{"type":"function","name":"erc20Approve","inputs":[{"name":"spender_","type":"address","internalType":"address"},{"name":"value_","type":"uint256","internalType":"uint256"}],"outputs":[{"name":"","type":"bool","internalType":"bool"}],"stateMutability":"nonpayable"},{"type":"function","name":"erc20BalanceOf","inputs":[{"name":"owner_","type":"address","internalType":"address"}],"outputs":[{"name":"","type":"uint256","internalType":"uint256"}],"stateMutability":"view"},{"type":"function","name":"erc20TotalSupply","inputs":[],"outputs":[{"name":"","type":"uint256","internalType":"uint256"}],"stateMutability":"view"},{"type":"function","name":"erc20TransferFrom","inputs":[{"name":"from_","type":"address","internalType":"address"},{"name":"to_","type":"address","internalType":"address"},{"name":"value_","type":"uint256","internalType":"uint256"}],"outputs":[{"name":"","type":"bool","internalType":"bool"}],"stateMutability":"nonpayable"},{"type":"function","name":"erc721Approve","inputs":[{"name":"spender_","type":"address","internalType":"address"},{"name":"id_","type":"uint256","internalType":"uint256"}],"outputs":[],"stateMutability":"nonpayable"},{"type":"function","name":"erc721BalanceOf","inputs":[{"name":"owner_","type":"address","internalType":"address"}],"outputs":[{"name":"","type":"uint256","internalType":"uint256"}],"stateMutability":"view"},{"type":"function","name":"erc721TotalSupply","inputs":[],"outputs":[{"name":"","type":"uint256","internalType":"uint256"}],"stateMutability":"view"},{"type":"function","name":"erc721TransferExempt","inputs":[{"name":"target_","type":"address","internalType":"address"}],"outputs":[{"name":"","type":"bool","internalType":"bool"}],"stateMutability":"view"},{"type":"function","name":"erc721TransferFrom","inputs":[{"name":"from_","type":"address","internalType":"address"},{"name":"to_","type":"address","internalType":"address"},{"name":"id_","type":"uint256","internalType":"uint256"}],"outputs":[],"stateMutability":"nonpayable"},{"type":"function","name":"getApproved","inputs":[{"name":"","type":"uint256","internalType":"uint256"}],"outputs":[{"name":"","type":"address","internalType":"address"}],"stateMutability":"view"},{"type":"function","name":"getERC721QueueLength","inputs":[],"outputs":[{"name":"","type":"uint256","internalType":"uint256"}],"stateMutability":"view"},{"type":"function","name":"getERC721TokensInQueue","inputs":[{"name":"start_","type":"uint256","internalType":"uint256"},{"name":"count_","type":"uint256","internalType":"uint256"}],"outputs":[{"name":"","type":"uint256[]","internalType":"uint256[]"}],"stateMutability":"view"},{"type":"function","name":"getTokenDeposits","inputs":[{"name":"tokenId_","type":"uint256","internalType":"uint256"}],"outputs":[{"name":"","type":"tuple[]","internalType":"struct ERC404Deposits.TokenDeposit[]","components":[{"name":"tokenAddress","type":"address","internalType":"address"},{"name":"amount","type":"uint256","internalType":"uint256"}]}],"stateMutability":"view"},{"type":"function","name":"isApprovedForAll","inputs":[{"name":"","type":"address","internalType":"address"},{"name":"","type":"address","internalType":"address"}],"outputs":[{"name":"","type":"bool","internalType":"bool"}],"stateMutability":"view"},{"type":"function","name":"minted","inputs":[],"outputs":[{"name":"","type":"uint256","internalType":"uint256"}],"stateMutability":"view"},{"type":"function","name":"name","inputs":[],"outputs":[{"name":"","type":"string","internalType":"string"}],"stateMutability":"view"},{"type":"function","name":"nonces","inputs":[{"name":"","type":"address","internalType":"address"}],"outputs":[{"name":"","type":"uint256","internalType":"uint256"}],"stateMutability":"view"},{"type":"function","name":"owned","inputs":[{"name":"owner_","type":"address","internalType":"address"}],"outputs":[{"name":"","type":"uint256[]","internalType":"uint256[]"}],"stateMutability":"view"},{"type":"function","name":"owner","inputs":[],"outputs":[{"name":"","type":"address","internalType":"address"}],"stateMutability":"view"},{"type":"function","name":"ownerOf","inputs":[{"name":"id_","type":"uint256","internalType":"uint256"}],"outputs":[{"name":"erc721Owner","type":"address","internalType":"address"}],"stateMutability":"view"},{"type":"function","name":"permit","inputs":[{"name":"owner_","type":"address","internalType":"address"},{"name":"spender_","type":"address","internalType":"address"},{"name":"value_","type":"uint256","internalType":"uint256"},{"name":"deadline_","type":"uint256","internalType":"uint256"},{"name":"v_","type":"uint8","internalType":"uint8"},{"name":"r_","type":"bytes32","internalType":"bytes32"},{"name":"s_","type":"bytes32","internalType":"bytes32"}],"outputs":[],"stateMutability":"nonpayable"},{"type":"function","name":"renounceOwnership","inputs":[],"outputs":[],"stateMutability":"nonpayable"},{"type":"function","name":"safeTransferFrom","inputs":[{"name":"from_","type":"address","internalType":"address"},{"name":"to_","type":"address","internalType":"address"},{"name":"id_","type":"uint256","internalType":"uint256"}],"outputs":[],"stateMutability":"nonpayable"},{"type":"function","name":"safeTransferFrom","inputs":[{"name":"from_","type":"address","internalType":"address"},{"name":"to_","type":"address","internalType":"address"},{"name":"id_","type":"uint256","internalType":"uint256"},{"name":"data_","type":"bytes","internalType":"bytes"}],"outputs":[],"stateMutability":"nonpayable"},{"type":"function","name":"setApprovalForAll","inputs":[{"name":"operator_","type":"address","internalType":"address"},{"name":"approved_","type":"bool","internalType":"bool"}],"outputs":[],"stateMutability":"nonpayable"},{"type":"function","name":"setERC721TransferExempt","inputs":[{"name":"account_","type":"address","internalType":"address"},{"name":"value_","type":"bool","internalType":"bool"}],"outputs":[],"stateMutability":"nonpayable"},{"type":"function","name":"setSelfERC721TransferExempt","inputs":[{"name":"state_","type":"bool","internalType":"bool"}],"outputs":[],"stateMutability":"nonpayable"},{"type":"function","name":"supportsInterface","inputs":[{"name":"interfaceId","type":"bytes4","internalType":"bytes4"}],"outputs":[{"name":"","type":"bool","internalType":"bool"}],"stateMutability":"view"},{"type":"function","name":"symbol","inputs":[],"outputs":[{"name":"","type":"string","internalType":"string"}],"stateMutability":"view"},{"type":"function","name":"tokenURI","inputs":[{"name":"id_","type":"uint256","internalType":"uint256"}],"outputs":[{"name":"","type":"string","internalType":"string"}],"stateMutability":"pure"},{"type":"function","name":"totalSupply","inputs":[],"outputs":[{"name":"","type":"uint256","internalType":"uint256"}],"stateMutability":"view"},{"type":"function","name":"transfer","inputs":[{"name":"to_","type":"address","internalType":"address"},{"name":"value_","type":"uint256","internalType":"uint256"}],"outputs":[{"name":"","type":"bool","internalType":"bool"}],"stateMutability":"nonpayable"},{"type":"function","name":"transferFrom","inputs":[{"name":"from_","type":"address","internalType":"address"},{"name":"to_","type":"address","internalType":"address"},{"name":"valueOrId_","type":"uint256","internalType":"uint256"}],"outputs":[{"name":"","type":"bool","internalType":"bool"}],"stateMutability":"nonpayable"},{"type":"function","name":"transferOwnership","inputs":[{"name":"newOwner","type":"address","internalType":"address"}],"outputs":[],"stateMutability":"nonpayable"},{"type":"function","name":"units","inputs":[],"outputs":[{"name":"","type":"uint256","internalType":"uint256"}],"stateMutability":"view"},{"type":"function","name":"withdrawTokens","inputs":[{"name":"tokenId_","type":"uint256","internalType":"uint256"},{"name":"depositIndex_","type":"uint256","internalType":"uint256"}],"outputs":[],"stateMutability":"nonpayable"},{"type":"event","name":"Approval","inputs":[{"name":"owner","type":"address","indexed":true,"internalType":"address"},{"name":"spender","type":"address","indexed":true,"internalType":"address"},{"name":"value","type":"uint256","indexed":false,"internalType":"uint256"}],"anonymous":false},{"type":"event","name":"Approval","inputs":[{"name":"owner","type":"address","indexed":true,"internalType":"address"},{"name":"spender","type":"address","indexed":true,"internalType":"address"},{"name":"id","type":"uint256","indexed":true,"internalType":"uint256"}],"anonymous":false},{"type":"event","name":"ApprovalForAll","inputs":[{"name":"owner","type":"address","indexed":true,"internalType":"address"},{"name":"operator","type":"address","indexed":true,"internalType":"address"},{"name":"approved","type":"bool","indexed":false,"internalType":"bool"}],"anonymous":false},{"type":"event","name":"OwnershipTransferred","inputs":[{"name":"previousOwner","type":"address","indexed":true,"internalType":"address"},{"name":"newOwner","type":"address","indexed":true,"internalType":"address"}],"anonymous":false},{"type":"event","name":"TokensDeposited","inputs":[{"name":"tokenId","type":"uint256","indexed":true,"internalType":"uint256"},{"name":"tokenAddress","type":"address","indexed":true,"internalType":"address"},{"name":"amount","type":"uint256","indexed":false,"internalType":"uint256"}],"anonymous":false},{"type":"event","name":"TokensWithdrawn","inputs":[{"name":"tokenId","type":"uint256","indexed":true,"internalType":"uint256"},{"name":"tokenAddress","type":"address","indexed":true,"internalType":"address"},{"name":"amount","type":"uint256","indexed":false,"internalType":"uint256"}],"anonymous":false},{"type":"event","name":"Transfer","inputs":[{"name":"from","type":"address","indexed":true,"internalType":"address"},{"name":"to","type":"address","indexed":true,"internalType":"address"},{"name":"amount","type":"uint256","indexed":false,"internalType":"uint256"}],"anonymous":false},{"type":"event","name":"Transfer","inputs":[{"name":"from","type":"address","indexed":true,"internalType":"address"},{"name":"to","type":"address","indexed":true,"internalType":"address"},{"name":"id","type":"uint256","indexed":true,"internalType":"uint256"}],"anonymous":false},{"type":"error","name":"AlreadyExists","inputs":[]},{"type":"error","name":"DecimalsTooLow","inputs":[]},{"type":"error","name":"InsufficientAllowance","inputs":[]},{"type":"error","name":"InvalidAmount","inputs":[]},{"type":"error","name":"InvalidApproval","inputs":[]},{"type":"error","name":"InvalidExemption","inputs":[]},{"type":"error","name":"InvalidOperator","inputs":[]},{"type":"error","name":"InvalidRecipient","inputs":[]},{"type":"error","name":"InvalidSender","inputs":[]},{"type":"error","name":"InvalidSigner","inputs":[]},{"type":"error","name":"InvalidSpender","inputs":[]},{"type":"error","name":"InvalidTokenId","inputs":[]},{"type":"error","name":"MintLimitReached","inputs":[]},{"type":"error","name":"NotFound","inputs":[]},{"type":"error","name":"OwnableInvalidOwner","inputs":[{"name":"owner","type":"address","internalType":"address"}]},{"type":"error","name":"OwnableUnauthorizedAccount","inputs":[{"name":"account","type":"address","internalType":"address"}]},{"type":"error","name":"OwnedIndexOverflow","inputs":[]},{"type":"error","name":"PermitDeadlineExpired","inputs":[]},{"type":"error","name":"QueueEmpty","inputs":[]},{"type":"error","name":"QueueFull","inputs":[]},{"type":"error","name":"QueueOutOfBounds","inputs":[]},{"type":"error","name":"RecipientIsERC721TransferExempt","inputs":[]},{"type":"error","name":"Unauthorized","inputs":[]},{"type":"error","name":"UnsafeRecipient","inputs":[]}],"bytecode":{"object":"0x6101006040523480156200001257600080fd5b506040516200502538038062005025833981016040819052620000359162001704565b80878787866001600160a01b0381166200006a57604051631e4fbdf760e01b8152600060048201526024015b60405180910390fd5b62000075816200021a565b50600662000084848262001850565b50600762000093838262001850565b5060128160ff161015620000ba576040516398790fd560e01b815260040160405180910390fd5b60ff81166080819052620000d090600a62001a2f565b60a0524660c052620000e16200026a565b60e05250829150620000f7905081600162000306565b6000620001cd826001600160a01b031663c45a01556040518163ffffffff1660e01b8152600401602060405180830381865afa1580156200013c573d6000803e3d6000fd5b505050506040513d601f19601f8201168201806040525081019062000162919062001a47565b836001600160a01b031663ad5c46486040518163ffffffff1660e01b8152600401602060405180830381865afa158015620001a1573d6000803e3d6000fd5b505050506040513d601f19601f82011682018060405250810190620001c7919062001a47565b6200037c565b9050620001dc81600162000306565b505050620001f28260016200030660201b60201c565b6200020d8260a0518662000207919062001a65565b62000479565b5050505050505062001b94565b600080546001600160a01b038381166001600160a01b0319831681178455604051919092169283917f8be0079c531659141344cd1fd0a4f28419497f9722a3daafe3b4186f6b6457e09190a35050565b60007f8b73c3c69bb8fe3d512ecc4cf759cc79239f7b179b0ffacaa9a75d522b39400f60066040516200029e919062001a7f565b6040805191829003822060208301939093528101919091527fc89efdaa54c0f20c7adf612882df0950f5a951637e0307cdcb4c672f298b8bc660608201524660808201523060a082015260c00160405160208183030381529060405280519060200120905090565b6001600160a01b0382166200032e5760405163a41e3d3f60e01b815260040160405180910390fd5b801562000346576200034082620004e9565b62000351565b620003518262000521565b6001600160a01b03919091166000908152601160205260409020805460ff1916911515919091179055565b60003081806001600160a01b03851683106200039a5784836200039d565b82855b6040516001600160601b0319606084811b8216602084015283901b1660348201529193509150869060480160405160208183030381529060405280519060200120604051602001620004549291907fff00000000000000000000000000000000000000000000000000000000000000815260609290921b6001600160601b031916600183015260158201527f96e8ac4277198ff8b6f785478aa9a39f403cb768dd02cbee326c3e7da348845f603582015260550190565b6040516020818303038152906040528051906020012060001c93505050505b92915050565b6001600160a01b038216620004a157604051634e46966960e11b815260040160405180910390fd5b600160ff1b81600854620004b6919062001afd565b1115620004d65760405163303b682f60e01b815260040160405180910390fd5b620004e460008383620005ad565b505050565b6001600160a01b038116600090815260106020526040812054905b81811015620004e457620005188362000872565b60010162000504565b60a05160009062000547836001600160a01b03166000908152600b602052604090205490565b62000553919062001b13565b9050600062000577836001600160a01b031660009081526010602052604090205490565b905060005b62000588828462001b36565b811015620005a7576200059e8460018062000912565b6001016200057c565b50505050565b6001600160a01b038381166000908152600b6020526040808220549285168252812054909190620005e086868662000959565b6000620005ed8762000a0b565b90506000620005fc8762000a0b565b9050818015620006095750805b620008645781156200069057600060a0518462000627919062001b13565b60a0516001600160a01b038a166000908152600b60205260409020546200064f919062001b13565b6200065b919062001b36565b905060005b8181101562000688576200067f8960a05160006200091260201b60201c565b60010162000660565b505062000864565b8015620006fd5760a0516001600160a01b0389166000908152600b60205260408120549091620006c09162001b13565b60a051620006cf908762001b13565b620006db919062001b36565b905060005b818110156200068857620006f48a62000872565b600101620006e0565b600060a051876200070f919062001b13565b905060005b81811015620007a1576001600160a01b038a16600090815260106020526040812054620007449060019062001b36565b6001600160a01b038c166000908152601060205260408120805492935090918390811062000776576200077662001b4c565b90600052602060002001549050620007968c8c8362000a3e60201b60201c565b505060010162000714565b5060a0518190620007c78b6001600160a01b03166000908152600b602052604090205490565b620007d3919062001b13565b60a051620007e2908862001b13565b620007ee919062001b36565b11156200080057620008008962000872565b8060a0518562000811919062001b13565b60a0516001600160a01b038b166000908152600b602052604090205462000839919062001b13565b62000845919062001b36565b11156200086257620008628860a05160006200091260201b60201c565b505b506001979650505050505050565b6001600160a01b0381166200089a57604051636edaef2f60e11b815260040160405180910390fd5b6001600160a01b03811660009081526010602052604081208054620008c29060019062001b36565b81548110620008d557620008d562001b4c565b90600052602060002001549050620008f38162000c0c60201b60201c565b620009018260008362000a3e565b6200090e60048262000c7a565b5050565b6001600160a01b0383166200093a57604051634e46966960e11b815260040160405180910390fd5b80156200094d57620004e4838362000ce5565b620004e4838362000dc1565b6001600160a01b038316620009885780600860008282546200097c919062001afd565b90915550620009b89050565b6001600160a01b0383166000908152600b602052604081208054839290620009b290849062001b36565b90915550505b6001600160a01b038083166000818152600b6020526040908190208054850190555190918516906000805160206200500583398151915290620009fe9085815260200190565b60405180910390a3505050565b60006001600160a01b0382161580620004735750506001600160a01b031660009081526011602052604090205460ff1690565b62000a4b81848462001029565b6000818152600f6020526040902080546001600160a01b0319166001600160a01b0384160190556001600160a01b0383161562000b79576001600160a01b0383166000908152601060205260408120805462000aaa9060019062001b36565b8154811062000abd5762000abd62001b4c565b6000918252602082200154915062000ae4836000908152600f602052604090205460a01c90565b6001600160a01b0386166000908152601060205260409020805491925083918390811062000b165762000b1662001b4c565b60009182526020808320909101929092556001600160a01b038716815260109091526040902080548062000b4e5762000b4e62001b62565b6001900381819060005260206000200160009055905562000b768282620011cd60201b60201c565b50505b6001600160a01b038216600081815260106020908152604082208054600181810183558285529284200185905592909152905462000bc591839162000bbf919062001b36565b620011cd565b6000818152600d602052604080822080546001600160a01b03191690555182916001600160a01b0385811692908716916000805160206200500583398151915291a4505050565b6000818152600260205260409020541562000c77576000818152600260205260408120805490919062000c435762000c4362001b4c565b600091825260208083206002928302016001015484845260038252604080852091909155919052812062000c7791620015d9565b50565b81546001600160801b038082166000190191600160801b900481169082160362000cb757604051638acb5f2760e01b815260040160405180910390fd5b6001600160801b0316600081815260018401602052604090209190915581546001600160801b031916179055565b6004546001600160801b03808216600160801b909204161462000dba5760008062000d296004546001600160801b03808216600160801b9092048116919091031690565b90505b8082101562000db757600062000d4460048462001235565b600081815260036020526040902054909150848114801562000d6c575062000d6c82620012a2565b1562000da05762000d7e600462001365565b5062000d8a82620013db565b62000d986000878462000a3e565b505050505050565b8362000dac8162001b78565b945050505062000d2c565b50505b6200090e82825b600060a0518262000dd3919062001b13565b905060005b81811015620005a757600062000e02600454600160801b81046001600160801b0390811691161490565b62000fb85760008062000e2e6004546001600160801b03808216600160801b9092048116919091031690565b90505b808210801562000e3f575082155b1562000fb557600062000e5460048462001235565b60a05160008281526003602052604090205491925014801562000e7d575062000e7d81620012a2565b1562000f9f578260000362000e9f5762000e98600462001365565b5062000f81565b600162000ec56004546001600160801b03808216600160801b9092048116919091031690565b62000ed1919062001b36565b830362000ee45762000e98600462001568565b600062000f0a6004546001600160801b03808216600160801b9092048116919091031690565b9050835b62000f1b60018362001b36565b81101562000f7157600062000f3f62000f3683600162001afd565b60049062001235565b905062000f4d600462001568565b5062000f5b60048262000c7a565b508062000f688162001b78565b91505062000f0e565b5062000f7e600462001568565b50505b62000f8c81620013db565b62000f9a6000898362000a3e565b600193505b8262000fab8162001b78565b9350505062000e31565b50505b806200101f5760096000815462000fcf9062001b78565b9091555060095460010162000ff75760405163303b682f60e01b815260040160405180910390fd5b6000600954600160ff1b6200100d919062001afd565b90506200101d6000878362000a3e565b505b5060010162000dd8565b6000838152600260205260409020548015620005a75760008481526002602052604090206200105a60018362001b36565b815481106200106d576200106d62001b4c565b600091825260208083206002928302015487845291905260409091206001600160a01b039091169085907f3f5fbaf86658fdadee77f1d46e7f8a72424ad9839eda6a1dc6eb0a4228e4226e90620010c660018662001b36565b81548110620010d957620010d962001b4c565b906000526020600020906002020160010154604051620010fb91815260200190565b60405180910390a360008481526002602052604090206200111e60018362001b36565b8154811062001131576200113162001b4c565b600091825260208083206002928302015487845291905260409091206001600160a01b039091169085907fb162210da7d23d82c18cff5af46d3562661d26b42a6848fa28d64a6bdc70386a906200118a60018662001b36565b815481106200119d576200119d62001b4c565b906000526020600020906002020160010154604051620011bf91815260200190565b60405180910390a350505050565b6000828152600f60205260409020546001600160601b038211156200120557604051633f2cd0e360e21b815260040160405180910390fd5b6000928352600f60205260409092206001600160a01b039290921660a09190911b6001600160a01b031916019055565b60006200125a83546001600160801b03808216600160801b9092048116919091031690565b82106200127a5760405163580821e760e01b815260040160405180910390fd5b5081546001600160801b03908116820116600090815260018301602052604090205492915050565b6000818152600a602052604081205460ff161580620012cd5750600082815260016020526040902054155b15620012db57506001919050565b60008281526001602090815260408083206002909252822080549192909190036200130a575060009392505050565b8160008154811062001320576200132062001b4c565b9060005260206000209060020201600101548160008154811062001348576200134862001b4c565b906000526020600020906002020160010154101592505050919050565b80546000906001600160801b0380821691600160801b90041681036200139e576040516375e52f4f60e01b815260040160405180910390fd5b6001600160801b038181166000908152600185810160205260408220805492905585546001600160801b0319169301909116919091179092555090565b6000818152600a602052604090205460ff16801562001407575060008181526001602052604090205415155b1562000c77576200141881620012a2565b620014725760405162461bcd60e51b8152602060048201526024808201527f496e73756666696369656e74206465706f7369747320746f20726573746f72656044820152630813919560e21b606482015260840162000061565b60008181526002602052604081206200148b91620015d9565b60005b600082815260016020526040902054811015620015365760008281526002602090815260408083206001909252909120805483908110620014d357620014d362001b4c565b6000918252602080832084546001818101875595855291909320600292830290930180549190920290920180546001600160a01b0319166001600160a01b03909316929092178255820154910155806200152d8162001b78565b9150506200148e565b5060008181526001602052604081206200155091620015d9565b6000908152600a60205260409020805460ff19169055565b80546000906001600160801b03600160801b8204811691168103620015a0576040516375e52f4f60e01b815260040160405180910390fd5b600019016001600160801b039081166000818152600185016020526040812080549190558454909216600160801b909102179092555090565b508054600082556002029060005260206000209081019062000c7791905b808211156200161e5780546001600160a01b031916815560006001820155600201620015f7565b5090565b634e487b7160e01b600052604160045260246000fd5b600082601f8301126200164a57600080fd5b81516001600160401b038082111562001667576200166762001622565b604051601f8301601f19908116603f0116810190828211818310171562001692576200169262001622565b81604052838152602092508683858801011115620016af57600080fd5b600091505b83821015620016d35785820183015181830184015290820190620016b4565b600093810190920192909252949350505050565b80516001600160a01b0381168114620016ff57600080fd5b919050565b600080600080600080600060e0888a0312156200172057600080fd5b87516001600160401b03808211156200173857600080fd5b620017468b838c0162001638565b985060208a01519150808211156200175d57600080fd5b506200176c8a828b0162001638565b965050604088015160ff811681146200178457600080fd5b606089015190955093506200179c60808901620016e7565b9250620017ac60a08901620016e7565b9150620017bc60c08901620016e7565b905092959891949750929550565b600181811c90821680620017df57607f821691505b6020821081036200180057634e487b7160e01b600052602260045260246000fd5b50919050565b601f821115620004e457600081815260208120601f850160051c810160208610156200182f5750805b601f850160051c820191505b8181101562000d98578281556001016200183b565b81516001600160401b038111156200186c576200186c62001622565b62001884816200187d8454620017ca565b8462001806565b602080601f831160018114620018bc5760008415620018a35750858301515b600019600386901b1c1916600185901b17855562000d98565b600085815260208120601f198616915b82811015620018ed57888601518255948401946001909101908401620018cc565b50858210156200190c5787850151600019600388901b60f8161c191681555b5050505050600190811b01905550565b634e487b7160e01b600052601160045260246000fd5b600181815b80851115620019735781600019048211156200195757620019576200191c565b808516156200196557918102915b93841c939080029062001937565b509250929050565b6000826200198c5750600162000473565b816200199b5750600062000473565b8160018114620019b45760028114620019bf57620019df565b600191505062000473565b60ff841115620019d357620019d36200191c565b50506001821b62000473565b5060208310610133831016604e8410600b841016171562001a04575081810a62000473565b62001a10838362001932565b806000190482111562001a275762001a276200191c565b029392505050565b600062001a4060ff8416836200197b565b9392505050565b60006020828403121562001a5a57600080fd5b62001a4082620016e7565b80820281158282048414176200047357620004736200191c565b600080835462001a8f81620017ca565b6001828116801562001aaa576001811462001ac05762001af1565b60ff198416875282151583028701945062001af1565b8760005260208060002060005b8581101562001ae85781548a82015290840190820162001acd565b50505082870194505b50929695505050505050565b808201808211156200047357620004736200191c565b60008262001b3157634e487b7160e01b600052601260045260246000fd5b500490565b818103818111156200047357620004736200191c565b634e487b7160e01b600052603260045260246000fd5b634e487b7160e01b600052603160045260246000fd5b60006001820162001b8d5762001b8d6200191c565b5060010190565b60805160a05160c05160e0516133d562001c306000396000610a01015260006109d10152600081816104bc01528181611a5e01528181611aa201528181611ae401528181611b3e01528181611b6801528181611bbc01528181611c6801528181611cb501528181611cf901528181611d2001528181611d7e01528181612216015281816126d3015261276c0152600061039201526133d56000f3fe608060405234801561001057600080fd5b50600436106102745760003560e01c80638a696e5011610151578063c6e672b9116100c3578063dd63769911610087578063dd637699146105f2578063dfabc03314610605578063e985e9c514610618578063f16ad51e14610646578063f2fde38b14610659578063f780bc1a1461066c57600080fd5b8063c6e672b91461057b578063c87b56dd1461058e578063d505accf146105a1578063d96ca0b9146105b4578063dd62ed3e146105c757600080fd5b8063a9059cbb11610115578063a9059cbb146104f1578063b1ab931714610504578063b3f9ea3414610524578063b88d4fde1461054d578063ba7bd2aa14610560578063c5ab3ba61461057357600080fd5b80638a696e501461048b5780638da5cb5b1461049e57806395d89b41146104af578063976a8435146104b7578063a22cb465146104de57600080fd5b80633644e515116101ea5780636e8f624b116101ae5780636e8f624b1461041057806370a082311461041b578063715018a61461043b5780637df1c3d8146104435780637ecebe001461046357806389fb4c661461048357600080fd5b80633644e515146103c657806342842e0e146103ce5780634d966072146103e15780634f02c420146103f45780636352211e146103fd57600080fd5b8063095ea7b31161023c578063095ea7b31461034357806309674eb01461035657806309f0ef651461035e57806318160ddd1461037157806323b872dd1461037a578063313ce5671461038d57600080fd5b8063015bf2641461027957806301ffc9a71461028e57806302519da3146102b657806306fdde03146102ed578063081812fc14610302575b600080fd5b61028c610287366004612d31565b61067f565b005b6102a161029c366004612d7c565b610827565b60405190151581526020015b60405180910390f35b6102df6102c4366004612d99565b6001600160a01b03166000908152600b602052604090205490565b6040519081526020016102ad565b6102f561085e565b6040516102ad9190612e04565b61032b610310366004612e17565b600d602052600090815260409020546001600160a01b031681565b6040516001600160a01b0390911681526020016102ad565b6102a1610351366004612e30565b6108ec565b6102df61094d565b6102a161036c366004612d99565b61095e565b6102df60085481565b6102a1610388366004612e5a565b610990565b6103b47f000000000000000000000000000000000000000000000000000000000000000081565b60405160ff90911681526020016102ad565b6102df6109cd565b61028c6103dc366004612e5a565b610a23565b6102a16103ef366004612e30565b610a43565b6102df60095481565b61032b61040b366004612e17565b610ad0565b6102df600160ff1b81565b6102df610429366004612d99565b600b6020526000908152604090205481565b61028c610b3a565b610456610451366004612e17565b610b4e565b6040516102ad9190612e86565b6102df610471366004612d99565b60126020526000908152604090205481565b6008546102df565b61028c610499366004612eec565b610bd6565b6000546001600160a01b031661032b565b6102f5610be3565b6102df7f000000000000000000000000000000000000000000000000000000000000000081565b61028c6104ec366004612f09565b610bf0565b6102a16104ff366004612e30565b610c84565b610517610512366004612d99565b610cb8565b6040516102ad9190612f40565b6102df610532366004612d99565b6001600160a01b031660009081526010602052604090205490565b61028c61055b366004612f9a565b610d24565b61028c61056e366004613076565b610e12565b6009546102df565b61028c610589366004612f09565b610fa5565b6102f561059c366004612e17565b610fbb565b61028c6105af366004613098565b610fec565b6102a16105c2366004612e5a565b61122f565b6102df6105d536600461310b565b600c60209081526000928352604080842090915290825290205481565b61028c610600366004612e5a565b6112ef565b61028c610613366004612e30565b611425565b6102a161062636600461310b565b600e60209081526000928352604080842090915290825290205460ff1681565b61028c610654366004613076565b6114ea565b61028c610667366004612d99565b6116a7565b61051761067a366004613076565b6116e2565b6000838152600f60205260409020546001600160a01b03163381146106b6576040516282b42960e81b815260040160405180910390fd5b306001600160a01b0384160361073157336000908152600b60205260409020548211156107215760405162461bcd60e51b8152602060048201526014602482015273496e73756666696369656e742062616c616e636560601b60448201526064015b60405180910390fd5b61072c33308461177f565b6107c8565b6040516323b872dd60e01b81523360048201523060248201526044810183905283906001600160a01b038216906323b872dd906064016020604051808303816000875af1158015610786573d6000803e3d6000fd5b505050506040513d601f19601f820116820180604052508101906107aa919061313e565b6107c65760405162461bcd60e51b81526004016107189061315b565b505b50600092835260026020818152604080862081518083019092526001600160a01b0395861682528183019485528054600180820183559188529290962090519190920290910180546001600160a01b0319169190931617825551910155565b60006001600160e01b0319821663caf91ff560e01b148061085857506001600160e01b031982166301ffc9a760e01b145b92915050565b6006805461086b90613184565b80601f016020809104026020016040519081016040528092919081815260200182805461089790613184565b80156108e45780601f106108b9576101008083540402835291602001916108e4565b820191906000526020600020905b8154815290600101906020018083116108c757829003601f168201915b505050505081565b60405162461bcd60e51b815260206004820152602d60248201527f557365206572633230417070726f76652829206f72206572633732314170707260448201526c1bdd994a0a481a5b9cdd195859609a1b6064820152600090608401610718565b6000610959600461183b565b905090565b60006001600160a01b03821615806108585750506001600160a01b031660009081526011602052604090205460ff1690565b600061099b82611859565b156109b0576109ab8484846112ef565b6109c2565b6109bb84848461122f565b90506109c6565b5060015b9392505050565b60007f000000000000000000000000000000000000000000000000000000000000000046146109fe57610959611872565b507f000000000000000000000000000000000000000000000000000000000000000090565b610a3e83838360405180602001604052806000815250610d24565b505050565b60006001600160a01b038316610a6c57604051635461585f60e01b815260040160405180910390fd5b336000818152600c602090815260408083206001600160a01b03881680855290835292819020869055518581529192917f8c5be1e5ebec7d5bd14f71427d1e84f3dd0314c0f7b2291e5b200ac8c7c3b925910160405180910390a350600192915050565b6000818152600f60205260409020546001600160a01b0316610af182611859565b610b0e576040516307ed98ed60e31b815260040160405180910390fd5b6001600160a01b038116610b355760405163c5723b5160e01b815260040160405180910390fd5b919050565b610b4261190c565b610b4c6000611939565b565b606060026000838152602001908152602001600020805480602002602001604051908101604052809291908181526020016000905b82821015610bcb576000848152602090819020604080518082019091526002850290910180546001600160a01b03168252600190810154828401529083529092019101610b83565b505050509050919050565b610be03382611989565b50565b6007805461086b90613184565b6001600160a01b038216610c175760405163ccea9e6f60e01b815260040160405180910390fd5b336000818152600e602090815260408083206001600160a01b03871680855290835292819020805460ff191686151590811790915590519081529192917f17307eab39ab6107e8899845ad3d59bd9653f200f220920489ca2b5937696c3191015b60405180910390a35050565b60006001600160a01b038316610cad57604051634e46966960e11b815260040160405180910390fd5b6109c63384846119f8565b6001600160a01b038116600090815260106020908152604091829020805483518184028101840190945280845260609392830182828015610d1857602002820191906000526020600020905b815481526020019060010190808311610d04575b50505050509050919050565b610d2d82611859565b610d4a576040516307ed98ed60e31b815260040160405180910390fd5b610d55848484610990565b506001600160a01b0383163b15801590610dee5750604051630a85bd0160e11b808252906001600160a01b0385169063150b7a0290610d9e9033908990889088906004016131be565b6020604051808303816000875af1158015610dbd573d6000803e3d6000fd5b505050506040513d601f19601f82011682018060405250810190610de191906131fb565b6001600160e01b03191614155b15610e0c57604051633da6393160e01b815260040160405180910390fd5b50505050565b6000828152600f60205260409020546001600160a01b0316338114610e49576040516282b42960e81b815260040160405180910390fd5b6000838152600260205260409020548210610e9e5760405162461bcd60e51b8152602060048201526015602482015274092dcecc2d8d2c840c8cae0dee6d2e840d2dcc8caf605b1b6044820152606401610718565b6000838152600260205260408120805484908110610ebe57610ebe613218565b6000918252602090912060029091020160018101548154919250906001600160a01b0316610eec8686611db4565b306001600160a01b03821603610f0c57610f0730338461177f565b610f9d565b60405163a9059cbb60e01b81523360048201526024810183905281906001600160a01b0382169063a9059cbb906044016020604051808303816000875af1158015610f5b573d6000803e3d6000fd5b505050506040513d601f19601f82011682018060405250810190610f7f919061313e565b610f9b5760405162461bcd60e51b81526004016107189061315b565b505b505050505050565b610fad61190c565b610fb78282611989565b5050565b6060610fc682611f03565b604051602001610fd6919061322e565b6040516020818303038152906040529050919050565b4284101561100d576040516305787bdf60e01b815260040160405180910390fd5b61101685611859565b15611034576040516303e7c1bd60e31b815260040160405180910390fd5b6001600160a01b03861661105b57604051635461585f60e01b815260040160405180910390fd5b600060016110676109cd565b6001600160a01b038a811660008181526012602090815260409182902080546001810190915582517f6e71edae12b1b97f4d1f60370fef10105fa2faae0126114a169c64845d6126c98184015280840194909452938d166060840152608083018c905260a083019390935260c08083018b90528151808403909101815260e08301909152805192019190912061190160f01b6101008301526101028201929092526101228101919091526101420160408051601f198184030181528282528051602091820120600084529083018083525260ff871690820152606081018590526080810184905260a0016020604051602081039080840390855afa158015611173573d6000803e3d6000fd5b5050604051601f1901519150506001600160a01b03811615806111a85750876001600160a01b0316816001600160a01b031614155b156111c657604051632057875960e21b815260040160405180910390fd5b6001600160a01b039081166000908152600c602090815260408083208a8516808552908352928190208990555188815291928a16917f8c5be1e5ebec7d5bd14f71427d1e84f3dd0314c0f7b2291e5b200ac8c7c3b925910160405180910390a350505050505050565b60006001600160a01b03841661125857604051636edaef2f60e11b815260040160405180910390fd5b6001600160a01b03831661127f57604051634e46966960e11b815260040160405180910390fd5b6001600160a01b0384166000908152600c6020908152604080832033845290915290205460001981146112db576112b68382613289565b6001600160a01b0386166000908152600c602090815260408083203384529091529020555b6112e68585856119f8565b95945050505050565b6001600160a01b03831661131657604051636edaef2f60e11b815260040160405180910390fd5b6001600160a01b03821661133d57604051634e46966960e11b815260040160405180910390fd5b6000818152600f60205260409020546001600160a01b03848116911614611376576040516282b42960e81b815260040160405180910390fd5b336001600160a01b038416148015906113b357506001600160a01b0383166000908152600e6020908152604080832033845290915290205460ff16155b80156113d657506000818152600d60205260409020546001600160a01b03163314155b156113f3576040516282b42960e81b815260040160405180910390fd5b6113fc8261095e565b1561141a57604051635ce7539760e01b815260040160405180910390fd5b610a3e838383611f96565b6000818152600f60205260409020546001600160a01b031633811480159061147157506001600160a01b0381166000908152600e6020908152604080832033845290915290205460ff16155b1561148e576040516282b42960e81b815260040160405180910390fd5b6000828152600d602052604080822080546001600160a01b0319166001600160a01b0387811691821790925591518593918516917f8c5be1e5ebec7d5bd14f71427d1e84f3dd0314c0f7b2291e5b200ac8c7c3b92591a4505050565b6000828152600f60205260409020546001600160a01b031633146115425760405162461bcd60e51b815260206004820152600f60248201526e2737ba103a37b5b2b71037bbb732b960891b6044820152606401610718565b600081116115925760405162461bcd60e51b815260206004820152601d60248201527f416d6f756e74206d7573742062652067726561746572207468616e20300000006044820152606401610718565b60008281526002602052604081205490036116075760008281526002602081815260408084208151808301909252308252818301868152815460018082018455928752939095209151929093020180546001600160a01b0319166001600160a01b03909216919091178155915191015561164c565b6000828152600260205260408120805483929061162657611626613218565b90600052602060002090600202016001016000828254611646919061329c565b90915550505b61165733308361215c565b6116735760405162461bcd60e51b81526004016107189061315b565b604051818152309083907fb162210da7d23d82c18cff5af46d3562661d26b42a6848fa28d64a6bdc70386a90602001610c78565b6116af61190c565b6001600160a01b0381166116d957604051631e4fbdf760e01b815260006004820152602401610718565b610be081611939565b606060008267ffffffffffffffff8111156116ff576116ff612f84565b604051908082528060200260200182016040528015611728578160200160208202803683370190505b509050835b611737848661329c565b81101561177757611749600482612171565b826117548784613289565b8151811061176457611764613218565b602090810291909101015260010161172d565b509392505050565b6001600160a01b0383166117aa57806008600082825461179f919061329c565b909155506117d89050565b6001600160a01b0383166000908152600b6020526040812080548392906117d2908490613289565b90915550505b6001600160a01b038083166000818152600b6020526040908190208054850190555190918516907fddf252ad1be2c89b69c2b068fc378daa952ba7f163c4a11628f55a4df523b3ef9061182e9085815260200190565b60405180910390a3505050565b546001600160801b03808216600160801b9092048116919091031690565b6000600160ff1b82118015610858575050600019141590565b60007f8b73c3c69bb8fe3d512ecc4cf759cc79239f7b179b0ffacaa9a75d522b39400f60066040516118a491906132af565b6040805191829003822060208301939093528101919091527fc89efdaa54c0f20c7adf612882df0950f5a951637e0307cdcb4c672f298b8bc660608201524660808201523060a082015260c00160405160208183030381529060405280519060200120905090565b6000546001600160a01b03163314610b4c5760405163118cdaa760e01b8152336004820152602401610718565b600080546001600160a01b038381166001600160a01b0319831681178455604051919092169283917f8be0079c531659141344cd1fd0a4f28419497f9722a3daafe3b4186f6b6457e09190a35050565b6001600160a01b0382166119b05760405163a41e3d3f60e01b815260040160405180910390fd5b80156119c4576119bf826121c3565b6119cd565b6119cd826121f7565b6001600160a01b03919091166000908152601160205260409020805460ff1916911515919091179055565b6001600160a01b038381166000908152600b6020526040808220549285168252812054909190611a2986868661177f565b6000611a348761095e565b90506000611a418761095e565b9050818015611a4d5750805b611da6578115611b19576000611a837f00000000000000000000000000000000000000000000000000000000000000008561334e565b6001600160a01b0389166000908152600b6020526040902054611ac7907f00000000000000000000000000000000000000000000000000000000000000009061334e565b611ad19190613289565b905060005b81811015611b1257611b0a897f00000000000000000000000000000000000000000000000000000000000000006000612288565b600101611ad6565b5050611da6565b8015611bb5576001600160a01b0388166000908152600b6020526040812054611b63907f00000000000000000000000000000000000000000000000000000000000000009061334e565b611b8d7f00000000000000000000000000000000000000000000000000000000000000008761334e565b611b979190613289565b905060005b81811015611b1257611bad8a6122c9565b600101611b9c565b6000611be17f00000000000000000000000000000000000000000000000000000000000000008861334e565b905060005b81811015611c64576001600160a01b038a16600090815260106020526040812054611c1390600190613289565b6001600160a01b038c1660009081526010602052604081208054929350909183908110611c4257611c42613218565b90600052602060002001549050611c5a8c8c83611f96565b5050600101611be6565b50807f0000000000000000000000000000000000000000000000000000000000000000611ca68b6001600160a01b03166000908152600b602052604090205490565b611cb0919061334e565b611cda7f00000000000000000000000000000000000000000000000000000000000000008861334e565b611ce49190613289565b1115611cf357611cf3896122c9565b80611d1e7f00000000000000000000000000000000000000000000000000000000000000008661334e565b7f0000000000000000000000000000000000000000000000000000000000000000611d5e8b6001600160a01b03166000908152600b602052604090205490565b611d68919061334e565b611d729190613289565b1115611da457611da4887f00000000000000000000000000000000000000000000000000000000000000006000612288565b505b506001979650505050505050565b6000828152600260205260409020548110611e015760405162461bcd60e51b815260206004820152600d60248201526c092dcecc2d8d2c840d2dcc8caf609b1b6044820152606401610718565b600082815260026020526040902054611e1c90600190613289565b8114611eb95760008281526002602052604090208054611e3e90600190613289565b81548110611e4e57611e4e613218565b9060005260206000209060020201600260008481526020019081526020016000208281548110611e8057611e80613218565b60009182526020909120825460029092020180546001600160a01b0319166001600160a01b039092169190911781556001918201549101555b6000828152600260205260409020805480611ed657611ed6613370565b60008281526020812060026000199093019283020180546001600160a01b03191681556001015590555050565b60606000611f1083612353565b600101905060008167ffffffffffffffff811115611f3057611f30612f84565b6040519080825280601f01601f191660200182016040528015611f5a576020820181803683370190505b5090508181016020015b600019016f181899199a1a9b1b9c1cb0b131b232b360811b600a86061a8153600a8504945084611f6457509392505050565b611fa181848461242b565b6000818152600f6020526040902080546001600160a01b0319166001600160a01b0384160190556001600160a01b038316156120bc576001600160a01b03831660009081526010602052604081208054611ffd90600190613289565b8154811061200d5761200d613218565b906000526020600020015490506000612035836000908152600f602052604090205460a01c90565b6001600160a01b0386166000908152601060205260409020805491925083918390811061206457612064613218565b60009182526020808320909101929092556001600160a01b038716815260109091526040902080548061209957612099613370565b600190038181906000526020600020016000905590556120b982826125b8565b50505b6001600160a01b03821660008181526010602090815260408220805460018181018355828552928420018590559290915290546121049183916120ff9190613289565b6125b8565b6000818152600d602052604080822080546001600160a01b03191690555182916001600160a01b0385811692908716917fddf252ad1be2c89b69c2b068fc378daa952ba7f163c4a11628f55a4df523b3ef91a4505050565b60006121698484846119f8565b949350505050565b600061217c8361183b565b821061219b5760405163580821e760e01b815260040160405180910390fd5b5081546001600160801b03908116820116600090815260018301602052604090205492915050565b6001600160a01b038116600090815260106020526040812054905b81811015610a3e576121ef836122c9565b6001016121de565b6001600160a01b0381166000908152600b602052604081205461223b907f00000000000000000000000000000000000000000000000000000000000000009061334e565b9050600061225e836001600160a01b031660009081526010602052604090205490565b905060005b61226d8284613289565b811015610e0c5761228084600180612288565b600101612263565b6001600160a01b0383166122af57604051634e46966960e11b815260040160405180910390fd5b80156122bf57610a3e8383612624565b610a3e83836126cc565b6001600160a01b0381166122f057604051636edaef2f60e11b815260040160405180910390fd5b6001600160a01b0381166000908152601060205260408120805461231690600190613289565b8154811061232657612326613218565b9060005260206000200154905061233c816128ea565b61234882600083611f96565b610fb760048261294f565b60008072184f03e93ff9f4daa797ed6e38ed64bf6a1f0160401b83106123925772184f03e93ff9f4daa797ed6e38ed64bf6a1f0160401b830492506040015b6d04ee2d6d415b85acef810000000083106123be576d04ee2d6d415b85acef8100000000830492506020015b662386f26fc1000083106123dc57662386f26fc10000830492506010015b6305f5e10083106123f4576305f5e100830492506008015b612710831061240857612710830492506004015b6064831061241a576064830492506002015b600a83106108585760010192915050565b6000838152600260205260409020548015610e0c576000848152600260205260409020612459600183613289565b8154811061246957612469613218565b600091825260208083206002928302015487845291905260409091206001600160a01b039091169085907f3f5fbaf86658fdadee77f1d46e7f8a72424ad9839eda6a1dc6eb0a4228e4226e906124c0600186613289565b815481106124d0576124d0613218565b9060005260206000209060020201600101546040516124f191815260200190565b60405180910390a36000848152600260205260409020612512600183613289565b8154811061252257612522613218565b600091825260208083206002928302015487845291905260409091206001600160a01b039091169085907fb162210da7d23d82c18cff5af46d3562661d26b42a6848fa28d64a6bdc70386a90612579600186613289565b8154811061258957612589613218565b9060005260206000209060020201600101546040516125aa91815260200190565b60405180910390a350505050565b6000828152600f60205260409020546bffffffffffffffffffffffff8211156125f457604051633f2cd0e360e21b815260040160405180910390fd5b6000928352600f60205260409092206001600160a01b039290921660a09190911b6001600160a01b031916019055565b6004546001600160801b03808216600160801b90920416146126c65760008061264d600461183b565b90505b808210156126c3576000612665600484612171565b600081815260036020526040902054909150848114801561268a575061268a826129b9565b156126af576126996004612a73565b506126a382612ae8565b610f9d60008784611f96565b836126b981613386565b9450505050612650565b50505b610fb782825b60006126f87f00000000000000000000000000000000000000000000000000000000000000008361334e565b905060005b81811015610e0c576000612725600454600160801b81046001600160801b0390811691161490565b61288257600080612736600461183b565b90505b8082108015612746575082155b1561287f576000612758600484612171565b6000818152600360205260409020549091507f000000000000000000000000000000000000000000000000000000000000000014801561279c575061279c816129b9565b1561286c57826000036127b9576127b36004612a73565b50612852565b60016127c5600461183b565b6127cf9190613289565b83036127df576127b36004612c64565b60006127eb600461183b565b9050835b6127fa600183613289565b81101561284457600061281961281183600161329c565b600490612171565b90506128256004612c64565b5061283160048261294f565b508061283c81613386565b9150506127ef565b5061284f6004612c64565b50505b61285b81612ae8565b61286760008983611f96565b600193505b8261287681613386565b93505050612739565b50505b806128e15760096000815461289690613386565b909155506009546001016128bd5760405163303b682f60e01b815260040160405180910390fd5b6000600954600160ff1b6128d1919061329c565b90506128df60008783611f96565b505b506001016126fd565b60008181526002602052604090205415610be0576000818152600260205260408120805490919061291d5761291d613218565b6000918252602080832060029283020160010154848452600382526040808520919091559190528120610be091612cd4565b81546001600160801b038082166000190191600160801b900481169082160361298b57604051638acb5f2760e01b815260040160405180910390fd5b6001600160801b0316600081815260018401602052604090209190915581546001600160801b031916179055565b6000818152600a602052604081205460ff1615806129e35750600082815260016020526040902054155b156129f057506001919050565b6000828152600160209081526040808320600290925282208054919290919003612a1e575060009392505050565b81600081548110612a3157612a31613218565b90600052602060002090600202016001015481600081548110612a5657612a56613218565b906000526020600020906002020160010154101592505050919050565b80546000906001600160801b0380821691600160801b9004168103612aab576040516375e52f4f60e01b815260040160405180910390fd5b6001600160801b038181166000908152600185810160205260408220805492905585546001600160801b0319169301909116919091179092555090565b6000818152600a602052604090205460ff168015612b13575060008181526001602052604090205415155b15610be057612b21816129b9565b612b795760405162461bcd60e51b8152602060048201526024808201527f496e73756666696369656e74206465706f7369747320746f20726573746f72656044820152630813919560e21b6064820152608401610718565b6000818152600260205260408120612b9091612cd4565b60005b600082815260016020526040902054811015612c345760008281526002602090815260408083206001909252909120805483908110612bd457612bd4613218565b6000918252602080832084546001818101875595855291909320600292830290930180549190920290920180546001600160a01b0319166001600160a01b0390931692909217825582015491015580612c2c81613386565b915050612b93565b506000818152600160205260408120612c4c91612cd4565b6000908152600a60205260409020805460ff19169055565b80546000906001600160801b03600160801b8204811691168103612c9b576040516375e52f4f60e01b815260040160405180910390fd5b600019016001600160801b039081166000818152600185016020526040812080549190558454909216600160801b909102179092555090565b5080546000825560020290600052602060002090810190610be091905b80821115612d165780546001600160a01b031916815560006001820155600201612cf1565b5090565b80356001600160a01b0381168114610b3557600080fd5b600080600060608486031215612d4657600080fd5b83359250612d5660208501612d1a565b9150604084013590509250925092565b6001600160e01b031981168114610be057600080fd5b600060208284031215612d8e57600080fd5b81356109c681612d66565b600060208284031215612dab57600080fd5b6109c682612d1a565b60005b83811015612dcf578181015183820152602001612db7565b50506000910152565b60008151808452612df0816020860160208601612db4565b601f01601f19169290920160200192915050565b6020815260006109c66020830184612dd8565b600060208284031215612e2957600080fd5b5035919050565b60008060408385031215612e4357600080fd5b612e4c83612d1a565b946020939093013593505050565b600080600060608486031215612e6f57600080fd5b612e7884612d1a565b9250612d5660208501612d1a565b602080825282518282018190526000919060409081850190868401855b82811015612ed157815180516001600160a01b03168552860151868501529284019290850190600101612ea3565b5091979650505050505050565b8015158114610be057600080fd5b600060208284031215612efe57600080fd5b81356109c681612ede565b60008060408385031215612f1c57600080fd5b612f2583612d1a565b91506020830135612f3581612ede565b809150509250929050565b6020808252825182820181905260009190848201906040850190845b81811015612f7857835183529284019291840191600101612f5c565b50909695505050505050565b634e487b7160e01b600052604160045260246000fd5b60008060008060808587031215612fb057600080fd5b612fb985612d1a565b9350612fc760208601612d1a565b925060408501359150606085013567ffffffffffffffff80821115612feb57600080fd5b818701915087601f830112612fff57600080fd5b81358181111561301157613011612f84565b604051601f8201601f19908116603f0116810190838211818310171561303957613039612f84565b816040528281528a602084870101111561305257600080fd5b82602086016020830137600060208483010152809550505050505092959194509250565b6000806040838503121561308957600080fd5b50508035926020909101359150565b600080600080600080600060e0888a0312156130b357600080fd5b6130bc88612d1a565b96506130ca60208901612d1a565b95506040880135945060608801359350608088013560ff811681146130ee57600080fd5b9699959850939692959460a0840135945060c09093013592915050565b6000806040838503121561311e57600080fd5b61312783612d1a565b915061313560208401612d1a565b90509250929050565b60006020828403121561315057600080fd5b81516109c681612ede565b6020808252600f908201526e151c985b9cd9995c8819985a5b1959608a1b604082015260600190565b600181811c9082168061319857607f821691505b6020821081036131b857634e487b7160e01b600052602260045260246000fd5b50919050565b6001600160a01b03858116825284166020820152604081018390526080606082018190526000906131f190830184612dd8565b9695505050505050565b60006020828403121561320d57600080fd5b81516109c681612d66565b634e487b7160e01b600052603260045260246000fd5b7f68747470733a2f2f6578616d706c652e636f6d2f746f6b656e2f00000000000081526000825161326681601a850160208701612db4565b91909101601a0192915050565b634e487b7160e01b600052601160045260246000fd5b8181038181111561085857610858613273565b8082018082111561085857610858613273565b600080835481600182811c9150808316806132cb57607f831692505b602080841082036132ea57634e487b7160e01b86526022600452602486fd5b8180156132fe576001811461331357613340565b60ff1986168952841515850289019650613340565b60008a81526020902060005b868110156133385781548b82015290850190830161331f565b505084890196505b509498975050505050505050565b60008261336b57634e487b7160e01b600052601260045260246000fd5b500490565b634e487b7160e01b600052603160045260246000fd5b60006001820161339857613398613273565b506001019056fea26469706673582212209f8ba0f689f3fd78e2f5d54e53fbd1004e656dbabb8a0ae27bc75ae84174813564736f6c63430008140033ddf252ad1be2c89b69c2b068fc378daa952ba7f163c4a11628f55a4df523b3ef","linkReferences":{}},"methodIdentifiers":{"DOMAIN_SEPARATOR()":"3644e515","ID_ENCODING_PREFIX()":"6e8f624b","allowance(address,address)":"dd62ed3e","approve(address,uint256)":"095ea7b3","balanceOf(address)":"70a08231","decimals()":"313ce567","depositTokens(uint256,address,uint256)":"015bf264","depositTokens(uint256,uint256)":"f16ad51e","erc20Approve(address,uint256)":"4d966072","erc20BalanceOf(address)":"02519da3","erc20TotalSupply()":"89fb4c66","erc20TransferFrom(address,address,uint256)":"d96ca0b9","erc721Approve(address,uint256)":"dfabc033","erc721BalanceOf(address)":"b3f9ea34","erc721TotalSupply()":"c5ab3ba6","erc721TransferExempt(address)":"09f0ef65","erc721TransferFrom(address,address,uint256)":"dd637699","getApproved(uint256)":"081812fc","getERC721QueueLength()":"09674eb0","getERC721TokensInQueue(uint256,uint256)":"f780bc1a","getTokenDeposits(uint256)":"7df1c3d8","isApprovedForAll(address,address)":"e985e9c5","minted()":"4f02c420","name()":"06fdde03","nonces(address)":"7ecebe00","owned(address)":"b1ab9317","owner()":"8da5cb5b","ownerOf(uint256)":"6352211e","permit(address,address,uint256,uint256,uint8,bytes32,bytes32)":"d505accf","renounceOwnership()":"715018a6","safeTransferFrom(address,address,uint256)":"42842e0e","safeTransferFrom(address,address,uint256,bytes)":"b88d4fde","setApprovalForAll(address,bool)":"a22cb465","setERC721TransferExempt(address,bool)":"c6e672b9","setSelfERC721TransferExempt(bool)":"8a696e50","supportsInterface(bytes4)":"01ffc9a7","symbol()":"95d89b41","tokenURI(uint256)":"c87b56dd","totalSupply()":"18160ddd","transfer(address,uint256)":"a9059cbb","transferFrom(address,address,uint256)":"23b872dd","transferOwnership(address)":"f2fde38b","units()":"976a8435","withdrawTokens(uint256,uint256)":"ba7bd2aa"},"id":3}