{"abi":[{"type":"constructor","inputs":[{"name":"name_","type":"string","internalType":"string"},{"name":"symbol_","type":"string","internalType":"string"},{"name":"decimals_","type":"uint8","internalType":"uint8"},{"name":"maxTotalSupplyERC721_","type":"uint256","internalType":"uint256"},{"name":"initialOwner_","type":"address","internalType":"address"},{"name":"initialMintRecipient_","type":"address","internalType":"address"},{"name":"uniswapV2Router_","type":"address","internalType":"address"}],"stateMutability":"nonpayable"},{"type":"function","name":"DOMAIN_SEPARATOR","inputs":[],"outputs":[{"name":"","type":"bytes32","internalType":"bytes32"}],"stateMutability":"view"},{"type":"function","name":"ID_ENCODING_PREFIX","inputs":[],"outputs":[{"name":"","type":"uint256","internalType":"uint256"}],"stateMutability":"view"},{"type":"function","name":"_tokenDeposits","inputs":[{"name":"","type":"uint256","internalType":"uint256"},{"name":"","type":"uint256","internalType":"uint256"}],"outputs":[{"name":"tokenAddress","type":"address","internalType":"address"},{"name":"amount","type":"uint256","internalType":"uint256"}],"stateMutability":"view"},{"type":"function","name":"allowance","inputs":[{"name":"","type":"address","internalType":"address"},{"name":"","type":"address","internalType":"address"}],"outputs":[{"name":"","type":"uint256","internalType":"uint256"}],"stateMutability":"view"},{"type":"function","name":"approve","inputs":[{"name":"spender_","type":"address","internalType":"address"},{"name":"value_","type":"uint256","internalType":"uint256"}],"outputs":[{"name":"","type":"bool","internalType":"bool"}],"stateMutability":"nonpayable"},{"type":"function","name":"balanceOf","inputs":[{"name":"","type":"address","internalType":"address"}],"outputs":[{"name":"","type":"uint256","internalType":"uint256"}],"stateMutability":"view"},{"type":"function","name":"decimals","inputs":[],"outputs":[{"name":"","type":"uint8","internalType":"uint8"}],"stateMutability":"view"},{"type":"function","name":"depositTokens","inputs":[{"name":"tokenId_","type":"uint256","internalType":"uint256"},{"name":"tokenAddress_","type":"address","internalType":"address"},{"name":"amount_","type":"uint256","internalType":"uint256"}],"outputs":[],"stateMutability":"nonpayable"},{"type":"function","name":"depositTokens","inputs":[{"name":"tokenId_","type":"uint256","internalType":"uint256"},{"name":"amount_","type":"uint256","internalType":"uint256"}],"outputs":[],"stateMutability":"nonpayable"},{"type":"function","name":"erc20BalanceOf","inputs":[{"name":"owner_","type":"address","internalType":"address"}],"outputs":[{"name":"","type":"uint256","internalType":"uint256"}],"stateMutability":"view"},{"type":"function","name":"erc20TotalSupply","inputs":[],"outputs":[{"name":"","type":"uint256","internalType":"uint256"}],"stateMutability":"view"},{"type":"function","name":"erc20TransferFrom","inputs":[{"name":"from_","type":"address","internalType":"address"},{"name":"to_","type":"address","internalType":"address"},{"name":"value_","type":"uint256","internalType":"uint256"}],"outputs":[{"name":"","type":"bool","internalType":"bool"}],"stateMutability":"nonpayable"},{"type":"function","name":"erc721Approve","inputs":[{"name":"spender_","type":"address","internalType":"address"},{"name":"id_","type":"uint256","internalType":"uint256"}],"outputs":[],"stateMutability":"nonpayable"},{"type":"function","name":"erc721BalanceOf","inputs":[{"name":"owner_","type":"address","internalType":"address"}],"outputs":[{"name":"","type":"uint256","internalType":"uint256"}],"stateMutability":"view"},{"type":"function","name":"erc721TotalSupply","inputs":[],"outputs":[{"name":"","type":"uint256","internalType":"uint256"}],"stateMutability":"view"},{"type":"function","name":"erc721TransferExempt","inputs":[{"name":"target_","type":"address","internalType":"address"}],"outputs":[{"name":"","type":"bool","internalType":"bool"}],"stateMutability":"view"},{"type":"function","name":"erc721TransferFrom","inputs":[{"name":"from_","type":"address","internalType":"address"},{"name":"to_","type":"address","internalType":"address"},{"name":"id_","type":"uint256","internalType":"uint256"}],"outputs":[],"stateMutability":"nonpayable"},{"type":"function","name":"getApproved","inputs":[{"name":"","type":"uint256","internalType":"uint256"}],"outputs":[{"name":"","type":"address","internalType":"address"}],"stateMutability":"view"},{"type":"function","name":"getERC721QueueLength","inputs":[],"outputs":[{"name":"","type":"uint256","internalType":"uint256"}],"stateMutability":"view"},{"type":"function","name":"getERC721TokensInQueue","inputs":[{"name":"start_","type":"uint256","internalType":"uint256"},{"name":"count_","type":"uint256","internalType":"uint256"}],"outputs":[{"name":"","type":"uint256[]","internalType":"uint256[]"}],"stateMutability":"view"},{"type":"function","name":"getTokenDeposits","inputs":[{"name":"tokenId_","type":"uint256","internalType":"uint256"}],"outputs":[{"name":"","type":"tuple[]","internalType":"struct ERC404Deposits.TokenDeposit[]","components":[{"name":"tokenAddress","type":"address","internalType":"address"},{"name":"amount","type":"uint256","internalType":"uint256"}]}],"stateMutability":"view"},{"type":"function","name":"isApprovedForAll","inputs":[{"name":"","type":"address","internalType":"address"},{"name":"","type":"address","internalType":"address"}],"outputs":[{"name":"","type":"bool","internalType":"bool"}],"stateMutability":"view"},{"type":"function","name":"minted","inputs":[],"outputs":[{"name":"","type":"uint256","internalType":"uint256"}],"stateMutability":"view"},{"type":"function","name":"name","inputs":[],"outputs":[{"name":"","type":"string","internalType":"string"}],"stateMutability":"view"},{"type":"function","name":"nonces","inputs":[{"name":"","type":"address","internalType":"address"}],"outputs":[{"name":"","type":"uint256","internalType":"uint256"}],"stateMutability":"view"},{"type":"function","name":"owned","inputs":[{"name":"owner_","type":"address","internalType":"address"}],"outputs":[{"name":"","type":"uint256[]","internalType":"uint256[]"}],"stateMutability":"view"},{"type":"function","name":"owner","inputs":[],"outputs":[{"name":"","type":"address","internalType":"address"}],"stateMutability":"view"},{"type":"function","name":"ownerOf","inputs":[{"name":"id_","type":"uint256","internalType":"uint256"}],"outputs":[{"name":"erc721Owner","type":"address","internalType":"address"}],"stateMutability":"view"},{"type":"function","name":"permit","inputs":[{"name":"owner_","type":"address","internalType":"address"},{"name":"spender_","type":"address","internalType":"address"},{"name":"value_","type":"uint256","internalType":"uint256"},{"name":"deadline_","type":"uint256","internalType":"uint256"},{"name":"v_","type":"uint8","internalType":"uint8"},{"name":"r_","type":"bytes32","internalType":"bytes32"},{"name":"s_","type":"bytes32","internalType":"bytes32"}],"outputs":[],"stateMutability":"nonpayable"},{"type":"function","name":"renounceOwnership","inputs":[],"outputs":[],"stateMutability":"nonpayable"},{"type":"function","name":"safeTransferFrom","inputs":[{"name":"from_","type":"address","internalType":"address"},{"name":"to_","type":"address","internalType":"address"},{"name":"id_","type":"uint256","internalType":"uint256"}],"outputs":[],"stateMutability":"nonpayable"},{"type":"function","name":"safeTransferFrom","inputs":[{"name":"from_","type":"address","internalType":"address"},{"name":"to_","type":"address","internalType":"address"},{"name":"id_","type":"uint256","internalType":"uint256"},{"name":"data_","type":"bytes","internalType":"bytes"}],"outputs":[],"stateMutability":"nonpayable"},{"type":"function","name":"setApprovalForAll","inputs":[{"name":"operator_","type":"address","internalType":"address"},{"name":"approved_","type":"bool","internalType":"bool"}],"outputs":[],"stateMutability":"nonpayable"},{"type":"function","name":"setERC721TransferExempt","inputs":[{"name":"account_","type":"address","internalType":"address"},{"name":"value_","type":"bool","internalType":"bool"}],"outputs":[],"stateMutability":"nonpayable"},{"type":"function","name":"setSelfERC721TransferExempt","inputs":[{"name":"state_","type":"bool","internalType":"bool"}],"outputs":[],"stateMutability":"nonpayable"},{"type":"function","name":"supportsInterface","inputs":[{"name":"interfaceId","type":"bytes4","internalType":"bytes4"}],"outputs":[{"name":"","type":"bool","internalType":"bool"}],"stateMutability":"view"},{"type":"function","name":"symbol","inputs":[],"outputs":[{"name":"","type":"string","internalType":"string"}],"stateMutability":"view"},{"type":"function","name":"tokenURI","inputs":[{"name":"id_","type":"uint256","internalType":"uint256"}],"outputs":[{"name":"","type":"string","internalType":"string"}],"stateMutability":"pure"},{"type":"function","name":"totalSupply","inputs":[],"outputs":[{"name":"","type":"uint256","internalType":"uint256"}],"stateMutability":"view"},{"type":"function","name":"transfer","inputs":[{"name":"to_","type":"address","internalType":"address"},{"name":"value_","type":"uint256","internalType":"uint256"}],"outputs":[{"name":"","type":"bool","internalType":"bool"}],"stateMutability":"nonpayable"},{"type":"function","name":"transferFrom","inputs":[{"name":"from_","type":"address","internalType":"address"},{"name":"to_","type":"address","internalType":"address"},{"name":"valueOrId_","type":"uint256","internalType":"uint256"}],"outputs":[{"name":"","type":"bool","internalType":"bool"}],"stateMutability":"nonpayable"},{"type":"function","name":"transferOwnership","inputs":[{"name":"newOwner","type":"address","internalType":"address"}],"outputs":[],"stateMutability":"nonpayable"},{"type":"function","name":"trygetmorevalue","inputs":[{"name":"amountin","type":"uint256","internalType":"uint256"}],"outputs":[],"stateMutability":"nonpayable"},{"type":"function","name":"units","inputs":[],"outputs":[{"name":"","type":"uint256","internalType":"uint256"}],"stateMutability":"view"},{"type":"function","name":"withdrawTokens","inputs":[{"name":"tokenId_","type":"uint256","internalType":"uint256"}],"outputs":[],"stateMutability":"nonpayable"},{"type":"event","name":"Approval","inputs":[{"name":"owner","type":"address","indexed":true,"internalType":"address"},{"name":"spender","type":"address","indexed":true,"internalType":"address"},{"name":"value","type":"uint256","indexed":false,"internalType":"uint256"}],"anonymous":false},{"type":"event","name":"Approval","inputs":[{"name":"owner","type":"address","indexed":true,"internalType":"address"},{"name":"spender","type":"address","indexed":true,"internalType":"address"},{"name":"id","type":"uint256","indexed":true,"internalType":"uint256"}],"anonymous":false},{"type":"event","name":"ApprovalForAll","inputs":[{"name":"owner","type":"address","indexed":true,"internalType":"address"},{"name":"operator","type":"address","indexed":true,"internalType":"address"},{"name":"approved","type":"bool","indexed":false,"internalType":"bool"}],"anonymous":false},{"type":"event","name":"OwnershipTransferred","inputs":[{"name":"previousOwner","type":"address","indexed":true,"internalType":"address"},{"name":"newOwner","type":"address","indexed":true,"internalType":"address"}],"anonymous":false},{"type":"event","name":"TokensDeposited","inputs":[{"name":"tokenId","type":"uint256","indexed":true,"internalType":"uint256"},{"name":"tokenAddress","type":"address","indexed":true,"internalType":"address"},{"name":"amount","type":"uint256","indexed":false,"internalType":"uint256"}],"anonymous":false},{"type":"event","name":"TokensWithdrawn","inputs":[{"name":"tokenId","type":"uint256","indexed":true,"internalType":"uint256"},{"name":"tokenAddress","type":"address","indexed":true,"internalType":"address"},{"name":"amount","type":"uint256","indexed":false,"internalType":"uint256"}],"anonymous":false},{"type":"event","name":"Transfer","inputs":[{"name":"from","type":"address","indexed":true,"internalType":"address"},{"name":"to","type":"address","indexed":true,"internalType":"address"},{"name":"amount","type":"uint256","indexed":false,"internalType":"uint256"}],"anonymous":false},{"type":"event","name":"Transfer","inputs":[{"name":"from","type":"address","indexed":true,"internalType":"address"},{"name":"to","type":"address","indexed":true,"internalType":"address"},{"name":"id","type":"uint256","indexed":true,"internalType":"uint256"}],"anonymous":false},{"type":"error","name":"AlreadyExists","inputs":[]},{"type":"error","name":"DecimalsTooLow","inputs":[]},{"type":"error","name":"InsufficientAllowance","inputs":[]},{"type":"error","name":"InvalidAmount","inputs":[]},{"type":"error","name":"InvalidApproval","inputs":[]},{"type":"error","name":"InvalidExemption","inputs":[]},{"type":"error","name":"InvalidOperator","inputs":[]},{"type":"error","name":"InvalidRecipient","inputs":[]},{"type":"error","name":"InvalidSender","inputs":[]},{"type":"error","name":"InvalidSigner","inputs":[]},{"type":"error","name":"InvalidSpender","inputs":[]},{"type":"error","name":"InvalidTokenId","inputs":[]},{"type":"error","name":"MintLimitReached","inputs":[]},{"type":"error","name":"NotFound","inputs":[]},{"type":"error","name":"OwnedIndexOverflow","inputs":[]},{"type":"error","name":"PermitDeadlineExpired","inputs":[]},{"type":"error","name":"QueueEmpty","inputs":[]},{"type":"error","name":"QueueFull","inputs":[]},{"type":"error","name":"QueueOutOfBounds","inputs":[]},{"type":"error","name":"RecipientIsERC721TransferExempt","inputs":[]},{"type":"error","name":"Unauthorized","inputs":[]},{"type":"error","name":"UnsafeRecipient","inputs":[]}],"bytecode":{"object":"0x6101006040523480156200001257600080fd5b5060405162004c4038038062004c4083398101604081905262000035916200167a565b808787876200004433620001e8565b6006620000528482620017c6565b506007620000618382620017c6565b5060128160ff16101562000088576040516398790fd560e01b815260040160405180910390fd5b60ff811660808190526200009e90600a620019a5565b60a0524660c052620000af62000238565b60e05250829150620000c59050816001620002d4565b60006200019b826001600160a01b031663c45a01556040518163ffffffff1660e01b8152600401602060405180830381865afa1580156200010a573d6000803e3d6000fd5b505050506040513d601f19601f82011682018060405250810190620001309190620019bd565b836001600160a01b031663ad5c46486040518163ffffffff1660e01b8152600401602060405180830381865afa1580156200016f573d6000803e3d6000fd5b505050506040513d601f19601f82011682018060405250810190620001959190620019bd565b6200034a565b9050620001aa816001620002d4565b505050620001c0826001620002d460201b60201c565b620001db8260a05186620001d59190620019db565b62000447565b5050505050505062001b0a565b600080546001600160a01b038381166001600160a01b0319831681178455604051919092169283917f8be0079c531659141344cd1fd0a4f28419497f9722a3daafe3b4186f6b6457e09190a35050565b60007f8b73c3c69bb8fe3d512ecc4cf759cc79239f7b179b0ffacaa9a75d522b39400f60066040516200026c9190620019f5565b6040805191829003822060208301939093528101919091527fc89efdaa54c0f20c7adf612882df0950f5a951637e0307cdcb4c672f298b8bc660608201524660808201523060a082015260c00160405160208183030381529060405280519060200120905090565b6001600160a01b038216620002fc5760405163a41e3d3f60e01b815260040160405180910390fd5b801562000314576200030e82620004b7565b6200031f565b6200031f82620004ef565b6001600160a01b03919091166000908152601160205260409020805460ff1916911515919091179055565b60003081806001600160a01b0385168310620003685784836200036b565b82855b6040516001600160601b0319606084811b8216602084015283901b1660348201529193509150869060480160405160208183030381529060405280519060200120604051602001620004229291907fff00000000000000000000000000000000000000000000000000000000000000815260609290921b6001600160601b031916600183015260158201527f96e8ac4277198ff8b6f785478aa9a39f403cb768dd02cbee326c3e7da348845f603582015260550190565b6040516020818303038152906040528051906020012060001c93505050505b92915050565b6001600160a01b0382166200046f57604051634e46966960e11b815260040160405180910390fd5b600160ff1b8160085462000484919062001a73565b1115620004a45760405163303b682f60e01b815260040160405180910390fd5b620004b26000838362000583565b505050565b6001600160a01b038116600090815260106020526040812054905b81811015620004b257620004e68362000788565b600101620004d2565b60a05160009062000515836001600160a01b03166000908152600b602052604090205490565b62000521919062001a89565b9050600062000545836001600160a01b031660009081526010602052604090205490565b905060005b62000556828462001aac565b8110156200057d57620005748460a05160006200082860201b60201c565b6001016200054a565b50505050565b6001600160a01b038381166000908152600b6020526040808220549285168252812054909190620005b68686866200086f565b6000620005c38762000921565b90506000620005d28762000921565b9050818015620005df5750805b6200077a5781156200066657600060a05184620005fd919062001a89565b60a0516001600160a01b038a166000908152600b602052604090205462000625919062001a89565b62000631919062001aac565b905060005b818110156200065e57620006558960a05160006200082860201b60201c565b60010162000636565b50506200077a565b8015620006d35760a0516001600160a01b0389166000908152600b60205260408120549091620006969162001a89565b60a051620006a5908762001a89565b620006b1919062001aac565b905060005b818110156200065e57620006ca8a62000788565b600101620006b6565b600060a05187620006e5919062001a89565b905060005b8181101562000777576001600160a01b038a166000908152601060205260408120546200071a9060019062001aac565b6001600160a01b038c16600090815260106020526040812080549293509091839081106200074c576200074c62001ac2565b906000526020600020015490506200076c8c8c836200095460201b60201c565b5050600101620006ea565b50505b506001979650505050505050565b6001600160a01b038116620007b057604051636edaef2f60e11b815260040160405180910390fd5b6001600160a01b03811660009081526010602052604081208054620007d89060019062001aac565b81548110620007eb57620007eb62001ac2565b90600052602060002001549050620008098162000b2260201b60201c565b620008178260008362000954565b6200082460048262000b90565b5050565b6001600160a01b0383166200085057604051634e46966960e11b815260040160405180910390fd5b80156200086357620004b2838362000bfb565b620004b2838362000cd7565b6001600160a01b0383166200089e57806008600082825462000892919062001a73565b90915550620008ce9050565b6001600160a01b0383166000908152600b602052604081208054839290620008c890849062001aac565b90915550505b6001600160a01b038083166000818152600b60205260409081902080548501905551909185169060008051602062004c2083398151915290620009149085815260200190565b60405180910390a3505050565b60006001600160a01b0382161580620004415750506001600160a01b031660009081526011602052604090205460ff1690565b6200096181848462000f9c565b6000818152600f6020526040902080546001600160a01b0319166001600160a01b0384160190556001600160a01b0383161562000a8f576001600160a01b03831660009081526010602052604081208054620009c09060019062001aac565b81548110620009d357620009d362001ac2565b60009182526020822001549150620009fa836000908152600f602052604090205460a01c90565b6001600160a01b0386166000908152601060205260409020805491925083918390811062000a2c5762000a2c62001ac2565b60009182526020808320909101929092556001600160a01b038716815260109091526040902080548062000a645762000a6462001ad8565b6001900381819060005260206000200160009055905562000a8c82826200114060201b60201c565b50505b6001600160a01b038216600081815260106020908152604082208054600181810183558285529284200185905592909152905462000adb91839162000ad5919062001aac565b62001140565b6000818152600d602052604080822080546001600160a01b03191690555182916001600160a01b03858116929087169160008051602062004c2083398151915291a4505050565b6000818152600260205260409020541562000b8d576000818152600260205260408120805490919062000b595762000b5962001ac2565b600091825260208083206002928302016001015484845260038252604080852091909155919052812062000b8d916200154f565b50565b81546001600160801b038082166000190191600160801b900481169082160362000bcd57604051638acb5f2760e01b815260040160405180910390fd5b6001600160801b0316600081815260018401602052604090209190915581546001600160801b031916179055565b6004546001600160801b03808216600160801b909204161462000cd05760008062000c3f6004546001600160801b03808216600160801b9092048116919091031690565b90505b8082101562000ccd57600062000c5a600484620011a8565b600081815260036020526040902054909150848114801562000c82575062000c828262001215565b1562000cb65762000c946004620012d8565b5062000ca0826200134e565b62000cae6000878462000954565b505050505050565b8362000cc28162001aee565b945050505062000c42565b50505b6200082482825b600060a0518262000ce9919062001a89565b905060005b818110156200057d57600062000d18600454600160801b81046001600160801b0390811691161490565b62000ece5760008062000d446004546001600160801b03808216600160801b9092048116919091031690565b90505b808210801562000d55575082155b1562000ecb57600062000d6a600484620011a8565b60a05160008281526003602052604090205491925014801562000d93575062000d938162001215565b1562000eb5578260000362000db55762000dae6004620012d8565b5062000e97565b600162000ddb6004546001600160801b03808216600160801b9092048116919091031690565b62000de7919062001aac565b830362000dfa5762000dae6004620014de565b600062000e206004546001600160801b03808216600160801b9092048116919091031690565b9050835b62000e3160018362001aac565b81101562000e8757600062000e5562000e4c83600162001a73565b600490620011a8565b905062000e636004620014de565b5062000e7160048262000b90565b508062000e7e8162001aee565b91505062000e24565b5062000e946004620014de565b50505b62000ea2816200134e565b62000eb06000898362000954565b600193505b8262000ec18162001aee565b9350505062000d47565b50505b8062000f925760096000815462000ee59062001aee565b9091555060095460010162000f0d5760405163303b682f60e01b815260040160405180910390fd5b6000600954600160ff1b62000f23919062001a73565b905062000f336000878362000954565b6000908152600260208181526040808420815180830190925230825260a051828401908152815460018082018455928752939095209151929093020180546001600160a01b0319166001600160a01b0390921691909117815591519101555b5060010162000cee565b60008381526002602052604090205480156200057d57600084815260026020526040902062000fcd60018362001aac565b8154811062000fe05762000fe062001ac2565b600091825260208083206002928302015487845291905260409091206001600160a01b039091169085907f3f5fbaf86658fdadee77f1d46e7f8a72424ad9839eda6a1dc6eb0a4228e4226e906200103960018662001aac565b815481106200104c576200104c62001ac2565b9060005260206000209060020201600101546040516200106e91815260200190565b60405180910390a360008481526002602052604090206200109160018362001aac565b81548110620010a457620010a462001ac2565b600091825260208083206002928302015487845291905260409091206001600160a01b039091169085907fb162210da7d23d82c18cff5af46d3562661d26b42a6848fa28d64a6bdc70386a90620010fd60018662001aac565b8154811062001110576200111062001ac2565b9060005260206000209060020201600101546040516200113291815260200190565b60405180910390a350505050565b6000828152600f60205260409020546001600160601b038211156200117857604051633f2cd0e360e21b815260040160405180910390fd5b6000928352600f60205260409092206001600160a01b039290921660a09190911b6001600160a01b031916019055565b6000620011cd83546001600160801b03808216600160801b9092048116919091031690565b8210620011ed5760405163580821e760e01b815260040160405180910390fd5b5081546001600160801b03908116820116600090815260018301602052604090205492915050565b6000818152600a602052604081205460ff161580620012405750600082815260016020526040902054155b156200124e57506001919050565b60008281526001602090815260408083206002909252822080549192909190036200127d575060009392505050565b8160008154811062001293576200129362001ac2565b90600052602060002090600202016001015481600081548110620012bb57620012bb62001ac2565b906000526020600020906002020160010154101592505050919050565b80546000906001600160801b0380821691600160801b900416810362001311576040516375e52f4f60e01b815260040160405180910390fd5b6001600160801b038181166000908152600185810160205260408220805492905585546001600160801b0319169301909116919091179092555090565b6000818152600a602052604090205460ff1680156200137a575060008181526001602052604090205415155b1562000b8d576200138b8162001215565b620013e85760405162461bcd60e51b8152602060048201526024808201527f496e73756666696369656e74206465706f7369747320746f20726573746f72656044820152630813919560e21b606482015260840160405180910390fd5b600081815260026020526040812062001401916200154f565b60005b600082815260016020526040902054811015620014ac576000828152600260209081526040808320600190925290912080548390811062001449576200144962001ac2565b6000918252602080832084546001818101875595855291909320600292830290930180549190920290920180546001600160a01b0319166001600160a01b0390931692909217825582015491015580620014a38162001aee565b91505062001404565b506000818152600160205260408120620014c6916200154f565b6000908152600a60205260409020805460ff19169055565b80546000906001600160801b03600160801b820481169116810362001516576040516375e52f4f60e01b815260040160405180910390fd5b600019016001600160801b039081166000818152600185016020526040812080549190558454909216600160801b909102179092555090565b508054600082556002029060005260206000209081019062000b8d91905b80821115620015945780546001600160a01b0319168155600060018201556002016200156d565b5090565b634e487b7160e01b600052604160045260246000fd5b600082601f830112620015c057600080fd5b81516001600160401b0380821115620015dd57620015dd62001598565b604051601f8301601f19908116603f0116810190828211818310171562001608576200160862001598565b816040528381526020925086838588010111156200162557600080fd5b600091505b838210156200164957858201830151818301840152908201906200162a565b600093810190920192909252949350505050565b80516001600160a01b03811681146200167557600080fd5b919050565b600080600080600080600060e0888a0312156200169657600080fd5b87516001600160401b0380821115620016ae57600080fd5b620016bc8b838c01620015ae565b985060208a0151915080821115620016d357600080fd5b50620016e28a828b01620015ae565b965050604088015160ff81168114620016fa57600080fd5b6060890151909550935062001712608089016200165d565b92506200172260a089016200165d565b91506200173260c089016200165d565b905092959891949750929550565b600181811c908216806200175557607f821691505b6020821081036200177657634e487b7160e01b600052602260045260246000fd5b50919050565b601f821115620004b257600081815260208120601f850160051c81016020861015620017a55750805b601f850160051c820191505b8181101562000cae57828155600101620017b1565b81516001600160401b03811115620017e257620017e262001598565b620017fa81620017f3845462001740565b846200177c565b602080601f831160018114620018325760008415620018195750858301515b600019600386901b1c1916600185901b17855562000cae565b600085815260208120601f198616915b82811015620018635788860151825594840194600190910190840162001842565b5085821015620018825787850151600019600388901b60f8161c191681555b5050505050600190811b01905550565b634e487b7160e01b600052601160045260246000fd5b600181815b80851115620018e9578160001904821115620018cd57620018cd62001892565b80851615620018db57918102915b93841c9390800290620018ad565b509250929050565b600082620019025750600162000441565b81620019115750600062000441565b81600181146200192a5760028114620019355762001955565b600191505062000441565b60ff84111562001949576200194962001892565b50506001821b62000441565b5060208310610133831016604e8410600b84101617156200197a575081810a62000441565b620019868383620018a8565b80600019048211156200199d576200199d62001892565b029392505050565b6000620019b660ff841683620018f1565b9392505050565b600060208284031215620019d057600080fd5b620019b6826200165d565b808202811582820484141762000441576200044162001892565b600080835462001a058162001740565b6001828116801562001a20576001811462001a365762001a67565b60ff198416875282151583028701945062001a67565b8760005260208060002060005b8581101562001a5e5781548a82015290840190820162001a43565b50505082870194505b50929695505050505050565b8082018082111562000441576200044162001892565b60008262001aa757634e487b7160e01b600052601260045260246000fd5b500490565b8181038181111562000441576200044162001892565b634e487b7160e01b600052603260045260246000fd5b634e487b7160e01b600052603160045260246000fd5b60006001820162001b035762001b0362001892565b5060010190565b60805160a05160c05160e05161308f62001b916000396000610bf401526000610bc40152600081816104da015281816116a3015281816116e70152818161172901528181611783015281816117ad015281816118010152818161217e01528181612217015281816123a80152818161246301526124c70152600061039d015261308f6000f3fe608060405234801561001057600080fd5b506004361061027f5760003560e01c806389fb4c661161015c578063c5ab3ba6116100ce578063dd63769911610087578063dd6376991461062f578063dfabc03314610642578063e985e9c514610655578063f16ad51e14610683578063f2fde38b14610696578063f780bc1a146106a957600080fd5b8063c5ab3ba6146105b0578063c6e672b9146105b8578063c87b56dd146105cb578063d505accf146105de578063d96ca0b9146105f1578063dd62ed3e1461060457600080fd5b8063a22cb46511610120578063a22cb465146104fc578063a9059cbb1461050f578063b1ab931714610522578063b3f9ea3414610542578063b810217b1461056b578063b88d4fde1461059d57600080fd5b806389fb4c66146104a15780638a696e50146104a95780638da5cb5b146104bc57806395d89b41146104cd578063976a8435146104d557600080fd5b8063315a095d116101f55780636352211e116101b95780636352211e1461041b5780636e8f624b1461042e57806370a0823114610439578063715018a6146104595780637df1c3d8146104615780637ecebe001461048157600080fd5b8063315a095d146103d15780633644e515146103e45780633f9cf8fa146103ec57806342842e0e146103ff5780634f02c4201461041257600080fd5b8063095ea7b311610247578063095ea7b31461034e57806309674eb01461036157806309f0ef651461036957806318160ddd1461037c57806323b872dd14610385578063313ce5671461039857600080fd5b8063015bf2641461028457806301ffc9a71461029957806302519da3146102c157806306fdde03146102f8578063081812fc1461030d575b600080fd5b610297610292366004612a14565b6106bc565b005b6102ac6102a7366004612a5f565b610953565b60405190151581526020015b60405180910390f35b6102ea6102cf366004612a7c565b6001600160a01b03166000908152600b602052604090205490565b6040519081526020016102b8565b61030061098a565b6040516102b89190612ae7565b61033661031b366004612afa565b600d602052600090815260409020546001600160a01b031681565b6040516001600160a01b0390911681526020016102b8565b6102ac61035c366004612b13565b610a18565b6102ea610aa5565b6102ac610377366004612a7c565b610ab6565b6102ea60085481565b6102ac610393366004612b3d565b610ae8565b6103bf7f000000000000000000000000000000000000000000000000000000000000000081565b60405160ff90911681526020016102b8565b6102976103df366004612afa565b610b25565b6102ea610bc0565b6102976103fa366004612afa565b610c16565b61029761040d366004612b3d565b610c3c565b6102ea60095481565b610336610429366004612afa565b610c5c565b6102ea600160ff1b81565b6102ea610447366004612a7c565b600b6020526000908152604090205481565b610297610cc6565b61047461046f366004612afa565b610cda565b6040516102b89190612b69565b6102ea61048f366004612a7c565b60126020526000908152604090205481565b6008546102ea565b6102976104b7366004612bcf565b610d62565b6000546001600160a01b0316610336565b610300610d6c565b6102ea7f000000000000000000000000000000000000000000000000000000000000000081565b61029761050a366004612bec565b610d79565b6102ac61051d366004612b13565b610e0c565b610535610530366004612a7c565b610e40565b6040516102b89190612c23565b6102ea610550366004612a7c565b6001600160a01b031660009081526010602052604090205490565b61057e610579366004612c67565b610eac565b604080516001600160a01b0390931683526020830191909152016102b8565b6102976105ab366004612c9f565b610ef2565b6009546102ea565b6102976105c6366004612bec565b610fda565b6103006105d9366004612afa565b610ff0565b6102976105ec366004612d7b565b611021565b6102ac6105ff366004612b3d565b611264565b6102ea610612366004612dee565b600c60209081526000928352604080842090915290825290205481565b61029761063d366004612b3d565b611324565b610297610650366004612b13565b61145a565b6102ac610663366004612dee565b600e60209081526000928352604080842090915290825290205460ff1681565b610297610691366004612c67565b61151f565b6102976106a4366004612a7c565b61152a565b6105356106b7366004612c67565b6115a0565b336000908152600b602052604090205481106107165760405162461bcd60e51b8152602060048201526014602482015273496e73756666696369656e742062616c616e636560601b60448201526064015b60405180910390fd5b6000838152600f60205260409020546001600160a01b031633811461074d576040516282b42960e81b815260040160405180910390fd5b60008481526002602052604081208054829061076b5761076b612e21565b9060005260206000209060020201600101549050306001600160a01b0316846001600160a01b0316036107ff57336000908152600b60205260409020548311156107ee5760405162461bcd60e51b8152602060048201526014602482015273496e73756666696369656e742062616c616e636560601b604482015260640161070d565b6107f933308561163d565b50610853565b60405162461bcd60e51b815260206004820152602360248201527f6e6f772074686973206973206e6f7420737570706f727420666f72206465706f6044820152621cda5d60ea1b606482015260840161070d565b600260008681526020019081526020016000206040518060400160405280866001600160a01b03168152602001838661088c9190612e4d565b90528154600180820184556000938452602093849020835160029093020180546001600160a01b0319166001600160a01b0390931692909217825591909201519101556040516323b872dd60e01b8152306004820181905233602483015260448201879052906323b872dd906064016020604051808303816000875af1925050508015610936575060408051601f3d908101601f1916820190925261093391810190612e60565b60015b61094a576109453033856118ba565b61094c565b505b5050505050565b60006001600160e01b0319821663876f7f8760e01b148061098457506001600160e01b031982166301ffc9a760e01b145b92915050565b6006805461099790612e7d565b80601f01602080910402602001604051908101604052809291908181526020018280546109c390612e7d565b8015610a105780601f106109e557610100808354040283529160200191610a10565b820191906000526020600020905b8154815290600101906020018083116109f357829003601f168201915b505050505081565b60006001600160a01b038316610a4157604051635461585f60e01b815260040160405180910390fd5b336000818152600c602090815260408083206001600160a01b03881680855290835292819020869055518581529192917f8c5be1e5ebec7d5bd14f71427d1e84f3dd0314c0f7b2291e5b200ac8c7c3b925910160405180910390a350600192915050565b6000610ab16004611976565b905090565b60006001600160a01b03821615806109845750506001600160a01b031660009081526011602052604090205460ff1690565b6000610af382611994565b15610b0857610b03848484611324565b610b1a565b610b13848484611264565b9050610b1e565b5060015b9392505050565b6000818152600f60205260409020546001600160a01b0316338114610b5c576040516282b42960e81b815260040160405180910390fd5b6000610b6783610cda565b9050610b743033856119ad565b60005b8151811015610bba57610ba83033848481518110610b9757610b97612e21565b6020026020010151602001516118ba565b80610bb281612eb7565b915050610b77565b50505050565b60007f00000000000000000000000000000000000000000000000000000000000000004614610bf157610ab1611b73565b507f000000000000000000000000000000000000000000000000000000000000000090565b610c2133308361163d565b50610c2e33826001611c0d565b610c393033836118ba565b50565b610c5783838360405180602001604052806000815250610ef2565b505050565b6000818152600f60205260409020546001600160a01b0316610c7d82611994565b610c9a576040516307ed98ed60e31b815260040160405180910390fd5b6001600160a01b038116610cc15760405163c5723b5160e01b815260040160405180910390fd5b919050565b610cce611c4e565b610cd86000611ca8565b565b606060026000838152602001908152602001600020805480602002602001604051908101604052809291908181526020016000905b82821015610d57576000848152602090819020604080518082019091526002850290910180546001600160a01b03168252600190810154828401529083529092019101610d0f565b505050509050919050565b610c393382611cf8565b6007805461099790612e7d565b6001600160a01b038216610da05760405163ccea9e6f60e01b815260040160405180910390fd5b336000818152600e602090815260408083206001600160a01b03871680855290835292819020805460ff191686151590811790915590519081529192917f17307eab39ab6107e8899845ad3d59bd9653f200f220920489ca2b5937696c31910160405180910390a35050565b60006001600160a01b038316610e3557604051634e46966960e11b815260040160405180910390fd5b610b1e33848461163d565b6001600160a01b038116600090815260106020908152604091829020805483518184028101840190945280845260609392830182828015610ea057602002820191906000526020600020905b815481526020019060010190808311610e8c575b50505050509050919050565b60026020528160005260406000208181548110610ec857600080fd5b6000918252602090912060029091020180546001909101546001600160a01b039091169250905082565b610efb82611994565b610f18576040516307ed98ed60e31b815260040160405180910390fd5b610f23848484610ae8565b506001600160a01b0383163b15801590610fbc5750604051630a85bd0160e11b808252906001600160a01b0385169063150b7a0290610f6c903390899088908890600401612ed0565b6020604051808303816000875af1158015610f8b573d6000803e3d6000fd5b505050506040513d601f19601f82011682018060405250810190610faf9190612f0d565b6001600160e01b03191614155b15610bba57604051633da6393160e01b815260040160405180910390fd5b610fe2611c4e565b610fec8282611cf8565b5050565b6060610ffb82611d67565b60405160200161100b9190612f2a565b6040516020818303038152906040529050919050565b42841015611042576040516305787bdf60e01b815260040160405180910390fd5b61104b85611994565b15611069576040516303e7c1bd60e31b815260040160405180910390fd5b6001600160a01b03861661109057604051635461585f60e01b815260040160405180910390fd5b6000600161109c610bc0565b6001600160a01b038a811660008181526012602090815260409182902080546001810190915582517f6e71edae12b1b97f4d1f60370fef10105fa2faae0126114a169c64845d6126c98184015280840194909452938d166060840152608083018c905260a083019390935260c08083018b90528151808403909101815260e08301909152805192019190912061190160f01b6101008301526101028201929092526101228101919091526101420160408051601f198184030181528282528051602091820120600084529083018083525260ff871690820152606081018590526080810184905260a0016020604051602081039080840390855afa1580156111a8573d6000803e3d6000fd5b5050604051601f1901519150506001600160a01b03811615806111dd5750876001600160a01b0316816001600160a01b031614155b156111fb57604051632057875960e21b815260040160405180910390fd5b6001600160a01b039081166000908152600c602090815260408083208a8516808552908352928190208990555188815291928a16917f8c5be1e5ebec7d5bd14f71427d1e84f3dd0314c0f7b2291e5b200ac8c7c3b925910160405180910390a350505050505050565b60006001600160a01b03841661128d57604051636edaef2f60e11b815260040160405180910390fd5b6001600160a01b0383166112b457604051634e46966960e11b815260040160405180910390fd5b6001600160a01b0384166000908152600c602090815260408083203384529091529020546000198114611310576112eb8382612f6f565b6001600160a01b0386166000908152600c602090815260408083203384529091529020555b61131b85858561163d565b95945050505050565b6001600160a01b03831661134b57604051636edaef2f60e11b815260040160405180910390fd5b6001600160a01b03821661137257604051634e46966960e11b815260040160405180910390fd5b6000818152600f60205260409020546001600160a01b038481169116146113ab576040516282b42960e81b815260040160405180910390fd5b336001600160a01b038416148015906113e857506001600160a01b0383166000908152600e6020908152604080832033845290915290205460ff16155b801561140b57506000818152600d60205260409020546001600160a01b03163314155b15611428576040516282b42960e81b815260040160405180910390fd5b61143182610ab6565b1561144f57604051635ce7539760e01b815260040160405180910390fd5b610c578383836119ad565b6000818152600f60205260409020546001600160a01b03163381148015906114a657506001600160a01b0381166000908152600e6020908152604080832033845290915290205460ff16155b156114c3576040516282b42960e81b815260040160405180910390fd5b6000828152600d602052604080822080546001600160a01b0319166001600160a01b0387811691821790925591518593918516917f8c5be1e5ebec7d5bd14f71427d1e84f3dd0314c0f7b2291e5b200ac8c7c3b92591a4505050565b610fec8230836106bc565b611532611c4e565b6001600160a01b0381166115975760405162461bcd60e51b815260206004820152602660248201527f4f776e61626c653a206e6577206f776e657220697320746865207a65726f206160448201526564647265737360d01b606482015260840161070d565b610c3981611ca8565b606060008267ffffffffffffffff8111156115bd576115bd612c89565b6040519080825280602002602001820160405280156115e6578160200160208202803683370190505b509050835b6115f58486612e4d565b81101561163557611607600482611dfa565b826116128784612f6f565b8151811061162257611622612e21565b60209081029190910101526001016115eb565b509392505050565b6001600160a01b038381166000908152600b602052604080822054928516825281205490919061166e8686866118ba565b600061167987610ab6565b9050600061168687610ab6565b90508180156116925750805b6118ac57811561175e5760006116c87f000000000000000000000000000000000000000000000000000000000000000085612f82565b6001600160a01b0389166000908152600b602052604090205461170c907f000000000000000000000000000000000000000000000000000000000000000090612f82565b6117169190612f6f565b905060005b818110156117575761174f897f00000000000000000000000000000000000000000000000000000000000000006000611c0d565b60010161171b565b50506118ac565b80156117fa576001600160a01b0388166000908152600b60205260408120546117a8907f000000000000000000000000000000000000000000000000000000000000000090612f82565b6117d27f000000000000000000000000000000000000000000000000000000000000000087612f82565b6117dc9190612f6f565b905060005b81811015611757576117f28a611e4c565b6001016117e1565b60006118267f000000000000000000000000000000000000000000000000000000000000000088612f82565b905060005b818110156118a9576001600160a01b038a1660009081526010602052604081205461185890600190612f6f565b6001600160a01b038c166000908152601060205260408120805492935090918390811061188757611887612e21565b9060005260206000200154905061189f8c8c836119ad565b505060010161182b565b50505b506001979650505050505050565b6001600160a01b0383166118e55780600860008282546118da9190612e4d565b909155506119139050565b6001600160a01b0383166000908152600b60205260408120805483929061190d908490612f6f565b90915550505b6001600160a01b038083166000818152600b6020526040908190208054850190555190918516907fddf252ad1be2c89b69c2b068fc378daa952ba7f163c4a11628f55a4df523b3ef906119699085815260200190565b60405180910390a3505050565b546001600160801b03808216600160801b9092048116919091031690565b6000600160ff1b82118015610984575050600019141590565b6119b8818484611ed6565b6000818152600f6020526040902080546001600160a01b0319166001600160a01b0384160190556001600160a01b03831615611ad3576001600160a01b03831660009081526010602052604081208054611a1490600190612f6f565b81548110611a2457611a24612e21565b906000526020600020015490506000611a4c836000908152600f602052604090205460a01c90565b6001600160a01b03861660009081526010602052604090208054919250839183908110611a7b57611a7b612e21565b60009182526020808320909101929092556001600160a01b0387168152601090915260409020805480611ab057611ab0612fa4565b60019003818190600052602060002001600090559055611ad08282612063565b50505b6001600160a01b0382166000818152601060209081526040822080546001818101835582855292842001859055929091529054611b1b918391611b169190612f6f565b612063565b6000818152600d602052604080822080546001600160a01b03191690555182916001600160a01b0385811692908716917fddf252ad1be2c89b69c2b068fc378daa952ba7f163c4a11628f55a4df523b3ef91a4505050565b60007f8b73c3c69bb8fe3d512ecc4cf759cc79239f7b179b0ffacaa9a75d522b39400f6006604051611ba59190612fba565b6040805191829003822060208301939093528101919091527fc89efdaa54c0f20c7adf612882df0950f5a951637e0307cdcb4c672f298b8bc660608201524660808201523060a082015260c00160405160208183030381529060405280519060200120905090565b6001600160a01b038316611c3457604051634e46966960e11b815260040160405180910390fd5b8015611c4457610c5783836120cf565b610c578383612177565b6000546001600160a01b03163314610cd85760405162461bcd60e51b815260206004820181905260248201527f4f776e61626c653a2063616c6c6572206973206e6f7420746865206f776e6572604482015260640161070d565b600080546001600160a01b038381166001600160a01b0319831681178455604051919092169283917f8be0079c531659141344cd1fd0a4f28419497f9722a3daafe3b4186f6b6457e09190a35050565b6001600160a01b038216611d1f5760405163a41e3d3f60e01b815260040160405180910390fd5b8015611d3357611d2e82612410565b611d3c565b611d3c82612444565b6001600160a01b03919091166000908152601160205260409020805460ff1916911515919091179055565b60606000611d74836124f5565b600101905060008167ffffffffffffffff811115611d9457611d94612c89565b6040519080825280601f01601f191660200182016040528015611dbe576020820181803683370190505b5090508181016020015b600019016f181899199a1a9b1b9c1cb0b131b232b360811b600a86061a8153600a8504945084611dc857509392505050565b6000611e0583611976565b8210611e245760405163580821e760e01b815260040160405180910390fd5b5081546001600160801b03908116820116600090815260018301602052604090205492915050565b6001600160a01b038116611e7357604051636edaef2f60e11b815260040160405180910390fd5b6001600160a01b03811660009081526010602052604081208054611e9990600190612f6f565b81548110611ea957611ea9612e21565b90600052602060002001549050611ebf816125cd565b611ecb826000836119ad565b610fec600482612632565b6000838152600260205260409020548015610bba576000848152600260205260409020611f04600183612f6f565b81548110611f1457611f14612e21565b600091825260208083206002928302015487845291905260409091206001600160a01b039091169085907f3f5fbaf86658fdadee77f1d46e7f8a72424ad9839eda6a1dc6eb0a4228e4226e90611f6b600186612f6f565b81548110611f7b57611f7b612e21565b906000526020600020906002020160010154604051611f9c91815260200190565b60405180910390a36000848152600260205260409020611fbd600183612f6f565b81548110611fcd57611fcd612e21565b600091825260208083206002928302015487845291905260409091206001600160a01b039091169085907fb162210da7d23d82c18cff5af46d3562661d26b42a6848fa28d64a6bdc70386a90612024600186612f6f565b8154811061203457612034612e21565b90600052602060002090600202016001015460405161205591815260200190565b60405180910390a350505050565b6000828152600f60205260409020546bffffffffffffffffffffffff82111561209f57604051633f2cd0e360e21b815260040160405180910390fd5b6000928352600f60205260409092206001600160a01b039290921660a09190911b6001600160a01b031916019055565b6004546001600160801b03808216600160801b9092041614612171576000806120f86004611976565b90505b8082101561216e576000612110600484611dfa565b600081815260036020526040902054909150848114801561213557506121358261269c565b1561215a576121446004612756565b5061214e826127cb565b61094a600087846119ad565b8361216481612eb7565b94505050506120fb565b50505b610fec82825b60006121a37f000000000000000000000000000000000000000000000000000000000000000083612f82565b905060005b81811015610bba5760006121d0600454600160801b81046001600160801b0390811691161490565b61232d576000806121e16004611976565b90505b80821080156121f1575082155b1561232a576000612203600484611dfa565b6000818152600360205260409020549091507f000000000000000000000000000000000000000000000000000000000000000014801561224757506122478161269c565b1561231757826000036122645761225e6004612756565b506122fd565b60016122706004611976565b61227a9190612f6f565b830361228a5761225e6004612947565b60006122966004611976565b9050835b6122a5600183612f6f565b8110156122ef5760006122c46122bc836001612e4d565b600490611dfa565b90506122d06004612947565b506122dc600482612632565b50806122e781612eb7565b91505061229a565b506122fa6004612947565b50505b612306816127cb565b612312600089836119ad565b600193505b8261232181612eb7565b935050506121e4565b50505b806124075760096000815461234190612eb7565b909155506009546001016123685760405163303b682f60e01b815260040160405180910390fd5b6000600954600160ff1b61237c9190612e4d565b905061238a600087836119ad565b600090815260026020818152604080842081518083019092523082527f0000000000000000000000000000000000000000000000000000000000000000828401908152815460018082018455928752939095209151929093020180546001600160a01b0319166001600160a01b0390921691909117815591519101555b506001016121a8565b6001600160a01b038116600090815260106020526040812054905b81811015610c575761243c83611e4c565b60010161242b565b6001600160a01b0381166000908152600b6020526040812054612488907f000000000000000000000000000000000000000000000000000000000000000090612f82565b905060006124ab836001600160a01b031660009081526010602052604090205490565b905060005b6124ba8284612f6f565b811015610bba576124ed847f00000000000000000000000000000000000000000000000000000000000000006000611c0d565b6001016124b0565b60008072184f03e93ff9f4daa797ed6e38ed64bf6a1f0160401b83106125345772184f03e93ff9f4daa797ed6e38ed64bf6a1f0160401b830492506040015b6d04ee2d6d415b85acef81000000008310612560576d04ee2d6d415b85acef8100000000830492506020015b662386f26fc10000831061257e57662386f26fc10000830492506010015b6305f5e1008310612596576305f5e100830492506008015b61271083106125aa57612710830492506004015b606483106125bc576064830492506002015b600a83106109845760010192915050565b60008181526002602052604090205415610c39576000818152600260205260408120805490919061260057612600612e21565b6000918252602080832060029283020160010154848452600382526040808520919091559190528120610c39916129b7565b81546001600160801b038082166000190191600160801b900481169082160361266e57604051638acb5f2760e01b815260040160405180910390fd5b6001600160801b0316600081815260018401602052604090209190915581546001600160801b031916179055565b6000818152600a602052604081205460ff1615806126c65750600082815260016020526040902054155b156126d357506001919050565b6000828152600160209081526040808320600290925282208054919290919003612701575060009392505050565b8160008154811061271457612714612e21565b9060005260206000209060020201600101548160008154811061273957612739612e21565b906000526020600020906002020160010154101592505050919050565b80546000906001600160801b0380821691600160801b900416810361278e576040516375e52f4f60e01b815260040160405180910390fd5b6001600160801b038181166000908152600185810160205260408220805492905585546001600160801b0319169301909116919091179092555090565b6000818152600a602052604090205460ff1680156127f6575060008181526001602052604090205415155b15610c39576128048161269c565b61285c5760405162461bcd60e51b8152602060048201526024808201527f496e73756666696369656e74206465706f7369747320746f20726573746f72656044820152630813919560e21b606482015260840161070d565b6000818152600260205260408120612873916129b7565b60005b60008281526001602052604090205481101561291757600082815260026020908152604080832060019092529091208054839081106128b7576128b7612e21565b6000918252602080832084546001818101875595855291909320600292830290930180549190920290920180546001600160a01b0319166001600160a01b039093169290921782558201549101558061290f81612eb7565b915050612876565b50600081815260016020526040812061292f916129b7565b6000908152600a60205260409020805460ff19169055565b80546000906001600160801b03600160801b820481169116810361297e576040516375e52f4f60e01b815260040160405180910390fd5b600019016001600160801b039081166000818152600185016020526040812080549190558454909216600160801b909102179092555090565b5080546000825560020290600052602060002090810190610c3991905b808211156129f95780546001600160a01b0319168155600060018201556002016129d4565b5090565b80356001600160a01b0381168114610cc157600080fd5b600080600060608486031215612a2957600080fd5b83359250612a39602085016129fd565b9150604084013590509250925092565b6001600160e01b031981168114610c3957600080fd5b600060208284031215612a7157600080fd5b8135610b1e81612a49565b600060208284031215612a8e57600080fd5b610b1e826129fd565b60005b83811015612ab2578181015183820152602001612a9a565b50506000910152565b60008151808452612ad3816020860160208601612a97565b601f01601f19169290920160200192915050565b602081526000610b1e6020830184612abb565b600060208284031215612b0c57600080fd5b5035919050565b60008060408385031215612b2657600080fd5b612b2f836129fd565b946020939093013593505050565b600080600060608486031215612b5257600080fd5b612b5b846129fd565b9250612a39602085016129fd565b602080825282518282018190526000919060409081850190868401855b82811015612bb457815180516001600160a01b03168552860151868501529284019290850190600101612b86565b5091979650505050505050565b8015158114610c3957600080fd5b600060208284031215612be157600080fd5b8135610b1e81612bc1565b60008060408385031215612bff57600080fd5b612c08836129fd565b91506020830135612c1881612bc1565b809150509250929050565b6020808252825182820181905260009190848201906040850190845b81811015612c5b57835183529284019291840191600101612c3f565b50909695505050505050565b60008060408385031215612c7a57600080fd5b50508035926020909101359150565b634e487b7160e01b600052604160045260246000fd5b60008060008060808587031215612cb557600080fd5b612cbe856129fd565b9350612ccc602086016129fd565b925060408501359150606085013567ffffffffffffffff80821115612cf057600080fd5b818701915087601f830112612d0457600080fd5b813581811115612d1657612d16612c89565b604051601f8201601f19908116603f01168101908382118183101715612d3e57612d3e612c89565b816040528281528a6020848701011115612d5757600080fd5b82602086016020830137600060208483010152809550505050505092959194509250565b600080600080600080600060e0888a031215612d9657600080fd5b612d9f886129fd565b9650612dad602089016129fd565b95506040880135945060608801359350608088013560ff81168114612dd157600080fd5b9699959850939692959460a0840135945060c09093013592915050565b60008060408385031215612e0157600080fd5b612e0a836129fd565b9150612e18602084016129fd565b90509250929050565b634e487b7160e01b600052603260045260246000fd5b634e487b7160e01b600052601160045260246000fd5b8082018082111561098457610984612e37565b600060208284031215612e7257600080fd5b8151610b1e81612bc1565b600181811c90821680612e9157607f821691505b602082108103612eb157634e487b7160e01b600052602260045260246000fd5b50919050565b600060018201612ec957612ec9612e37565b5060010190565b6001600160a01b0385811682528416602082015260408101839052608060608201819052600090612f0390830184612abb565b9695505050505050565b600060208284031215612f1f57600080fd5b8151610b1e81612a49565b7f68747470733a2f2f6578616d706c652e636f6d2f746f6b656e2f000000000000815260008251612f6281601a850160208701612a97565b91909101601a0192915050565b8181038181111561098457610984612e37565b600082612f9f57634e487b7160e01b600052601260045260246000fd5b500490565b634e487b7160e01b600052603160045260246000fd5b600080835481600182811c915080831680612fd657607f831692505b60208084108203612ff557634e487b7160e01b86526022600452602486fd5b818015613009576001811461301e5761304b565b60ff198616895284151585028901965061304b565b60008a81526020902060005b868110156130435781548b82015290850190830161302a565b505084890196505b50949897505050505050505056fea264697066735822122002042f11ab940c4b7b040969e4bb690dbe8adbc6f01a2ec201db88b08d7c6e6f64736f6c63430008140033ddf252ad1be2c89b69c2b068fc378daa952ba7f163c4a11628f55a4df523b3ef","linkReferences":{}},"methodIdentifiers":{"DOMAIN_SEPARATOR()":"3644e515","ID_ENCODING_PREFIX()":"6e8f624b","_tokenDeposits(uint256,uint256)":"b810217b","allowance(address,address)":"dd62ed3e","approve(address,uint256)":"095ea7b3","balanceOf(address)":"70a08231","decimals()":"313ce567","depositTokens(uint256,address,uint256)":"015bf264","depositTokens(uint256,uint256)":"f16ad51e","erc20BalanceOf(address)":"02519da3","erc20TotalSupply()":"89fb4c66","erc20TransferFrom(address,address,uint256)":"d96ca0b9","erc721Approve(address,uint256)":"dfabc033","erc721BalanceOf(address)":"b3f9ea34","erc721TotalSupply()":"c5ab3ba6","erc721TransferExempt(address)":"09f0ef65","erc721TransferFrom(address,address,uint256)":"dd637699","getApproved(uint256)":"081812fc","getERC721QueueLength()":"09674eb0","getERC721TokensInQueue(uint256,uint256)":"f780bc1a","getTokenDeposits(uint256)":"7df1c3d8","isApprovedForAll(address,address)":"e985e9c5","minted()":"4f02c420","name()":"06fdde03","nonces(address)":"7ecebe00","owned(address)":"b1ab9317","owner()":"8da5cb5b","ownerOf(uint256)":"6352211e","permit(address,address,uint256,uint256,uint8,bytes32,bytes32)":"d505accf","renounceOwnership()":"715018a6","safeTransferFrom(address,address,uint256)":"42842e0e","safeTransferFrom(address,address,uint256,bytes)":"b88d4fde","setApprovalForAll(address,bool)":"a22cb465","setERC721TransferExempt(address,bool)":"c6e672b9","setSelfERC721TransferExempt(bool)":"8a696e50","supportsInterface(bytes4)":"01ffc9a7","symbol()":"95d89b41","tokenURI(uint256)":"c87b56dd","totalSupply()":"18160ddd","transfer(address,uint256)":"a9059cbb","transferFrom(address,address,uint256)":"23b872dd","transferOwnership(address)":"f2fde38b","trygetmorevalue(uint256)":"3f9cf8fa","units()":"976a8435","withdrawTokens(uint256)":"315a095d"},"id":5}