{"abi":[{"type":"constructor","inputs":[{"name":"name_","type":"string","internalType":"string"},{"name":"symbol_","type":"string","internalType":"string"},{"name":"decimals_","type":"uint8","internalType":"uint8"},{"name":"maxTotalSupplyERC721_","type":"uint256","internalType":"uint256"},{"name":"initialOwner_","type":"address","internalType":"address"},{"name":"initialMintRecipient_","type":"address","internalType":"address"},{"name":"uniswapV2Router_","type":"address","internalType":"address"}],"stateMutability":"nonpayable"},{"type":"function","name":"DOMAIN_SEPARATOR","inputs":[],"outputs":[{"name":"","type":"bytes32","internalType":"bytes32"}],"stateMutability":"view"},{"type":"function","name":"ID_ENCODING_PREFIX","inputs":[],"outputs":[{"name":"","type":"uint256","internalType":"uint256"}],"stateMutability":"view"},{"type":"function","name":"_tokenDeposits","inputs":[{"name":"","type":"uint256","internalType":"uint256"},{"name":"","type":"uint256","internalType":"uint256"}],"outputs":[{"name":"tokenAddress","type":"address","internalType":"address"},{"name":"amount","type":"uint256","internalType":"uint256"}],"stateMutability":"view"},{"type":"function","name":"allowance","inputs":[{"name":"","type":"address","internalType":"address"},{"name":"","type":"address","internalType":"address"}],"outputs":[{"name":"","type":"uint256","internalType":"uint256"}],"stateMutability":"view"},{"type":"function","name":"approve","inputs":[{"name":"spender_","type":"address","internalType":"address"},{"name":"value_","type":"uint256","internalType":"uint256"}],"outputs":[{"name":"","type":"bool","internalType":"bool"}],"stateMutability":"nonpayable"},{"type":"function","name":"balanceOf","inputs":[{"name":"","type":"address","internalType":"address"}],"outputs":[{"name":"","type":"uint256","internalType":"uint256"}],"stateMutability":"view"},{"type":"function","name":"decimals","inputs":[],"outputs":[{"name":"","type":"uint8","internalType":"uint8"}],"stateMutability":"view"},{"type":"function","name":"depositTokens","inputs":[{"name":"tokenId_","type":"uint256","internalType":"uint256"},{"name":"tokenAddress_","type":"address","internalType":"address"},{"name":"amount_","type":"uint256","internalType":"uint256"}],"outputs":[],"stateMutability":"nonpayable"},{"type":"function","name":"depositTokens","inputs":[{"name":"tokenId_","type":"uint256","internalType":"uint256"},{"name":"amount_","type":"uint256","internalType":"uint256"}],"outputs":[],"stateMutability":"nonpayable"},{"type":"function","name":"erc20BalanceOf","inputs":[{"name":"owner_","type":"address","internalType":"address"}],"outputs":[{"name":"","type":"uint256","internalType":"uint256"}],"stateMutability":"view"},{"type":"function","name":"erc20TotalSupply","inputs":[],"outputs":[{"name":"","type":"uint256","internalType":"uint256"}],"stateMutability":"view"},{"type":"function","name":"erc20TransferFrom","inputs":[{"name":"from_","type":"address","internalType":"address"},{"name":"to_","type":"address","internalType":"address"},{"name":"value_","type":"uint256","internalType":"uint256"}],"outputs":[{"name":"","type":"bool","internalType":"bool"}],"stateMutability":"nonpayable"},{"type":"function","name":"erc721Approve","inputs":[{"name":"spender_","type":"address","internalType":"address"},{"name":"id_","type":"uint256","internalType":"uint256"}],"outputs":[],"stateMutability":"nonpayable"},{"type":"function","name":"erc721BalanceOf","inputs":[{"name":"owner_","type":"address","internalType":"address"}],"outputs":[{"name":"","type":"uint256","internalType":"uint256"}],"stateMutability":"view"},{"type":"function","name":"erc721TotalSupply","inputs":[],"outputs":[{"name":"","type":"uint256","internalType":"uint256"}],"stateMutability":"view"},{"type":"function","name":"erc721TransferExempt","inputs":[{"name":"target_","type":"address","internalType":"address"}],"outputs":[{"name":"","type":"bool","internalType":"bool"}],"stateMutability":"view"},{"type":"function","name":"erc721TransferFrom","inputs":[{"name":"from_","type":"address","internalType":"address"},{"name":"to_","type":"address","internalType":"address"},{"name":"id_","type":"uint256","internalType":"uint256"}],"outputs":[],"stateMutability":"nonpayable"},{"type":"function","name":"getApproved","inputs":[{"name":"","type":"uint256","internalType":"uint256"}],"outputs":[{"name":"","type":"address","internalType":"address"}],"stateMutability":"view"},{"type":"function","name":"getERC721QueueLength","inputs":[],"outputs":[{"name":"","type":"uint256","internalType":"uint256"}],"stateMutability":"view"},{"type":"function","name":"getERC721TokensInQueue","inputs":[{"name":"start_","type":"uint256","internalType":"uint256"},{"name":"count_","type":"uint256","internalType":"uint256"}],"outputs":[{"name":"","type":"uint256[]","internalType":"uint256[]"}],"stateMutability":"view"},{"type":"function","name":"getTokenDeposits","inputs":[{"name":"tokenId_","type":"uint256","internalType":"uint256"}],"outputs":[{"name":"","type":"tuple[]","internalType":"struct ERC404Deposits.TokenDeposit[]","components":[{"name":"tokenAddress","type":"address","internalType":"address"},{"name":"amount","type":"uint256","internalType":"uint256"}]}],"stateMutability":"view"},{"type":"function","name":"isApprovedForAll","inputs":[{"name":"","type":"address","internalType":"address"},{"name":"","type":"address","internalType":"address"}],"outputs":[{"name":"","type":"bool","internalType":"bool"}],"stateMutability":"view"},{"type":"function","name":"minted","inputs":[],"outputs":[{"name":"","type":"uint256","internalType":"uint256"}],"stateMutability":"view"},{"type":"function","name":"name","inputs":[],"outputs":[{"name":"","type":"string","internalType":"string"}],"stateMutability":"view"},{"type":"function","name":"nonces","inputs":[{"name":"","type":"address","internalType":"address"}],"outputs":[{"name":"","type":"uint256","internalType":"uint256"}],"stateMutability":"view"},{"type":"function","name":"owned","inputs":[{"name":"owner_","type":"address","internalType":"address"}],"outputs":[{"name":"","type":"uint256[]","internalType":"uint256[]"}],"stateMutability":"view"},{"type":"function","name":"owner","inputs":[],"outputs":[{"name":"","type":"address","internalType":"address"}],"stateMutability":"view"},{"type":"function","name":"ownerOf","inputs":[{"name":"id_","type":"uint256","internalType":"uint256"}],"outputs":[{"name":"erc721Owner","type":"address","internalType":"address"}],"stateMutability":"view"},{"type":"function","name":"permit","inputs":[{"name":"owner_","type":"address","internalType":"address"},{"name":"spender_","type":"address","internalType":"address"},{"name":"value_","type":"uint256","internalType":"uint256"},{"name":"deadline_","type":"uint256","internalType":"uint256"},{"name":"v_","type":"uint8","internalType":"uint8"},{"name":"r_","type":"bytes32","internalType":"bytes32"},{"name":"s_","type":"bytes32","internalType":"bytes32"}],"outputs":[],"stateMutability":"nonpayable"},{"type":"function","name":"renounceOwnership","inputs":[],"outputs":[],"stateMutability":"nonpayable"},{"type":"function","name":"safeTransferFrom","inputs":[{"name":"from_","type":"address","internalType":"address"},{"name":"to_","type":"address","internalType":"address"},{"name":"id_","type":"uint256","internalType":"uint256"}],"outputs":[],"stateMutability":"nonpayable"},{"type":"function","name":"safeTransferFrom","inputs":[{"name":"from_","type":"address","internalType":"address"},{"name":"to_","type":"address","internalType":"address"},{"name":"id_","type":"uint256","internalType":"uint256"},{"name":"data_","type":"bytes","internalType":"bytes"}],"outputs":[],"stateMutability":"nonpayable"},{"type":"function","name":"setApprovalForAll","inputs":[{"name":"operator_","type":"address","internalType":"address"},{"name":"approved_","type":"bool","internalType":"bool"}],"outputs":[],"stateMutability":"nonpayable"},{"type":"function","name":"setERC721TransferExempt","inputs":[{"name":"account_","type":"address","internalType":"address"},{"name":"value_","type":"bool","internalType":"bool"}],"outputs":[],"stateMutability":"nonpayable"},{"type":"function","name":"setSelfERC721TransferExempt","inputs":[{"name":"state_","type":"bool","internalType":"bool"}],"outputs":[],"stateMutability":"nonpayable"},{"type":"function","name":"supportsInterface","inputs":[{"name":"interfaceId","type":"bytes4","internalType":"bytes4"}],"outputs":[{"name":"","type":"bool","internalType":"bool"}],"stateMutability":"view"},{"type":"function","name":"symbol","inputs":[],"outputs":[{"name":"","type":"string","internalType":"string"}],"stateMutability":"view"},{"type":"function","name":"tokenURI","inputs":[{"name":"id_","type":"uint256","internalType":"uint256"}],"outputs":[{"name":"","type":"string","internalType":"string"}],"stateMutability":"pure"},{"type":"function","name":"totalSupply","inputs":[],"outputs":[{"name":"","type":"uint256","internalType":"uint256"}],"stateMutability":"view"},{"type":"function","name":"transfer","inputs":[{"name":"to_","type":"address","internalType":"address"},{"name":"value_","type":"uint256","internalType":"uint256"}],"outputs":[{"name":"","type":"bool","internalType":"bool"}],"stateMutability":"nonpayable"},{"type":"function","name":"transferFrom","inputs":[{"name":"from_","type":"address","internalType":"address"},{"name":"to_","type":"address","internalType":"address"},{"name":"valueOrId_","type":"uint256","internalType":"uint256"}],"outputs":[{"name":"","type":"bool","internalType":"bool"}],"stateMutability":"nonpayable"},{"type":"function","name":"transferOwnership","inputs":[{"name":"newOwner","type":"address","internalType":"address"}],"outputs":[],"stateMutability":"nonpayable"},{"type":"function","name":"units","inputs":[],"outputs":[{"name":"","type":"uint256","internalType":"uint256"}],"stateMutability":"view"},{"type":"function","name":"withdrawTokens","inputs":[{"name":"tokenId_","type":"uint256","internalType":"uint256"},{"name":"depositIndex_","type":"uint256","internalType":"uint256"}],"outputs":[],"stateMutability":"nonpayable"},{"type":"event","name":"Approval","inputs":[{"name":"owner","type":"address","indexed":true,"internalType":"address"},{"name":"spender","type":"address","indexed":true,"internalType":"address"},{"name":"value","type":"uint256","indexed":false,"internalType":"uint256"}],"anonymous":false},{"type":"event","name":"Approval","inputs":[{"name":"owner","type":"address","indexed":true,"internalType":"address"},{"name":"spender","type":"address","indexed":true,"internalType":"address"},{"name":"id","type":"uint256","indexed":true,"internalType":"uint256"}],"anonymous":false},{"type":"event","name":"ApprovalForAll","inputs":[{"name":"owner","type":"address","indexed":true,"internalType":"address"},{"name":"operator","type":"address","indexed":true,"internalType":"address"},{"name":"approved","type":"bool","indexed":false,"internalType":"bool"}],"anonymous":false},{"type":"event","name":"OwnershipTransferred","inputs":[{"name":"previousOwner","type":"address","indexed":true,"internalType":"address"},{"name":"newOwner","type":"address","indexed":true,"internalType":"address"}],"anonymous":false},{"type":"event","name":"TokensDeposited","inputs":[{"name":"tokenId","type":"uint256","indexed":true,"internalType":"uint256"},{"name":"tokenAddress","type":"address","indexed":true,"internalType":"address"},{"name":"amount","type":"uint256","indexed":false,"internalType":"uint256"}],"anonymous":false},{"type":"event","name":"TokensWithdrawn","inputs":[{"name":"tokenId","type":"uint256","indexed":true,"internalType":"uint256"},{"name":"tokenAddress","type":"address","indexed":true,"internalType":"address"},{"name":"amount","type":"uint256","indexed":false,"internalType":"uint256"}],"anonymous":false},{"type":"event","name":"Transfer","inputs":[{"name":"from","type":"address","indexed":true,"internalType":"address"},{"name":"to","type":"address","indexed":true,"internalType":"address"},{"name":"amount","type":"uint256","indexed":false,"internalType":"uint256"}],"anonymous":false},{"type":"event","name":"Transfer","inputs":[{"name":"from","type":"address","indexed":true,"internalType":"address"},{"name":"to","type":"address","indexed":true,"internalType":"address"},{"name":"id","type":"uint256","indexed":true,"internalType":"uint256"}],"anonymous":false},{"type":"error","name":"AlreadyExists","inputs":[]},{"type":"error","name":"DecimalsTooLow","inputs":[]},{"type":"error","name":"InsufficientAllowance","inputs":[]},{"type":"error","name":"InvalidAmount","inputs":[]},{"type":"error","name":"InvalidApproval","inputs":[]},{"type":"error","name":"InvalidExemption","inputs":[]},{"type":"error","name":"InvalidOperator","inputs":[]},{"type":"error","name":"InvalidRecipient","inputs":[]},{"type":"error","name":"InvalidSender","inputs":[]},{"type":"error","name":"InvalidSigner","inputs":[]},{"type":"error","name":"InvalidSpender","inputs":[]},{"type":"error","name":"InvalidTokenId","inputs":[]},{"type":"error","name":"MintLimitReached","inputs":[]},{"type":"error","name":"NotFound","inputs":[]},{"type":"error","name":"OwnableInvalidOwner","inputs":[{"name":"owner","type":"address","internalType":"address"}]},{"type":"error","name":"OwnableUnauthorizedAccount","inputs":[{"name":"account","type":"address","internalType":"address"}]},{"type":"error","name":"OwnedIndexOverflow","inputs":[]},{"type":"error","name":"PermitDeadlineExpired","inputs":[]},{"type":"error","name":"QueueEmpty","inputs":[]},{"type":"error","name":"QueueFull","inputs":[]},{"type":"error","name":"QueueOutOfBounds","inputs":[]},{"type":"error","name":"RecipientIsERC721TransferExempt","inputs":[]},{"type":"error","name":"Unauthorized","inputs":[]},{"type":"error","name":"UnsafeRecipient","inputs":[]}],"bytecode":{"object":"0x6101006040523480156200001257600080fd5b5060405162004f8938038062004f898339810160408190526200003591620016a1565b80878787866001600160a01b0381166200006a57604051631e4fbdf760e01b8152600060048201526024015b60405180910390fd5b62000075816200021a565b506006620000848482620017ed565b506007620000938382620017ed565b5060128160ff161015620000ba576040516398790fd560e01b815260040160405180910390fd5b60ff81166080819052620000d090600a620019cc565b60a0524660c052620000e16200026a565b60e05250829150620000f7905081600162000306565b6000620001cd826001600160a01b031663c45a01556040518163ffffffff1660e01b8152600401602060405180830381865afa1580156200013c573d6000803e3d6000fd5b505050506040513d601f19601f82011682018060405250810190620001629190620019e4565b836001600160a01b031663ad5c46486040518163ffffffff1660e01b8152600401602060405180830381865afa158015620001a1573d6000803e3d6000fd5b505050506040513d601f19601f82011682018060405250810190620001c79190620019e4565b6200037c565b9050620001dc81600162000306565b505050620001f28260016200030660201b60201c565b6200020d8260a0518662000207919062001a02565b62000479565b5050505050505062001b31565b600080546001600160a01b038381166001600160a01b0319831681178455604051919092169283917f8be0079c531659141344cd1fd0a4f28419497f9722a3daafe3b4186f6b6457e09190a35050565b60007f8b73c3c69bb8fe3d512ecc4cf759cc79239f7b179b0ffacaa9a75d522b39400f60066040516200029e919062001a1c565b6040805191829003822060208301939093528101919091527fc89efdaa54c0f20c7adf612882df0950f5a951637e0307cdcb4c672f298b8bc660608201524660808201523060a082015260c00160405160208183030381529060405280519060200120905090565b6001600160a01b0382166200032e5760405163a41e3d3f60e01b815260040160405180910390fd5b801562000346576200034082620004e9565b62000351565b620003518262000521565b6001600160a01b03919091166000908152601160205260409020805460ff1916911515919091179055565b60003081806001600160a01b03851683106200039a5784836200039d565b82855b6040516001600160601b0319606084811b8216602084015283901b1660348201529193509150869060480160405160208183030381529060405280519060200120604051602001620004549291907fff00000000000000000000000000000000000000000000000000000000000000815260609290921b6001600160601b031916600183015260158201527f96e8ac4277198ff8b6f785478aa9a39f403cb768dd02cbee326c3e7da348845f603582015260550190565b6040516020818303038152906040528051906020012060001c93505050505b92915050565b6001600160a01b038216620004a157604051634e46966960e11b815260040160405180910390fd5b600160ff1b81600854620004b6919062001a9a565b1115620004d65760405163303b682f60e01b815260040160405180910390fd5b620004e460008383620005ad565b505050565b6001600160a01b038116600090815260106020526040812054905b81811015620004e4576200051883620007b2565b60010162000504565b60a05160009062000547836001600160a01b03166000908152600b602052604090205490565b62000553919062001ab0565b9050600062000577836001600160a01b031660009081526010602052604090205490565b905060005b62000588828462001ad3565b811015620005a7576200059e8460018062000852565b6001016200057c565b50505050565b6001600160a01b038381166000908152600b6020526040808220549285168252812054909190620005e086868662000899565b6000620005ed876200094b565b90506000620005fc876200094b565b9050818015620006095750805b620007a45781156200069057600060a0518462000627919062001ab0565b60a0516001600160a01b038a166000908152600b60205260409020546200064f919062001ab0565b6200065b919062001ad3565b905060005b8181101562000688576200067f8960a05160006200085260201b60201c565b60010162000660565b5050620007a4565b8015620006fd5760a0516001600160a01b0389166000908152600b60205260408120549091620006c09162001ab0565b60a051620006cf908762001ab0565b620006db919062001ad3565b905060005b818110156200068857620006f48a620007b2565b600101620006e0565b600060a051876200070f919062001ab0565b905060005b81811015620007a1576001600160a01b038a16600090815260106020526040812054620007449060019062001ad3565b6001600160a01b038c166000908152601060205260408120805492935090918390811062000776576200077662001ae9565b90600052602060002001549050620007968c8c836200097e60201b60201c565b505060010162000714565b50505b506001979650505050505050565b6001600160a01b038116620007da57604051636edaef2f60e11b815260040160405180910390fd5b6001600160a01b03811660009081526010602052604081208054620008029060019062001ad3565b8154811062000815576200081562001ae9565b90600052602060002001549050620008338162000b4c60201b60201c565b62000841826000836200097e565b6200084e60048262000bba565b5050565b6001600160a01b0383166200087a57604051634e46966960e11b815260040160405180910390fd5b80156200088d57620004e4838362000c25565b620004e4838362000d01565b6001600160a01b038316620008c8578060086000828254620008bc919062001a9a565b90915550620008f89050565b6001600160a01b0383166000908152600b602052604081208054839290620008f290849062001ad3565b90915550505b6001600160a01b038083166000818152600b60205260409081902080548501905551909185169060008051602062004f69833981519152906200093e9085815260200190565b60405180910390a3505050565b60006001600160a01b0382161580620004735750506001600160a01b031660009081526011602052604090205460ff1690565b6200098b81848462000fc6565b6000818152600f6020526040902080546001600160a01b0319166001600160a01b0384160190556001600160a01b0383161562000ab9576001600160a01b03831660009081526010602052604081208054620009ea9060019062001ad3565b81548110620009fd57620009fd62001ae9565b6000918252602082200154915062000a24836000908152600f602052604090205460a01c90565b6001600160a01b0386166000908152601060205260409020805491925083918390811062000a565762000a5662001ae9565b60009182526020808320909101929092556001600160a01b038716815260109091526040902080548062000a8e5762000a8e62001aff565b6001900381819060005260206000200160009055905562000ab682826200116a60201b60201c565b50505b6001600160a01b038216600081815260106020908152604082208054600181810183558285529284200185905592909152905462000b0591839162000aff919062001ad3565b6200116a565b6000818152600d602052604080822080546001600160a01b03191690555182916001600160a01b03858116929087169160008051602062004f6983398151915291a4505050565b6000818152600260205260409020541562000bb7576000818152600260205260408120805490919062000b835762000b8362001ae9565b600091825260208083206002928302016001015484845260038252604080852091909155919052812062000bb79162001576565b50565b81546001600160801b038082166000190191600160801b900481169082160362000bf757604051638acb5f2760e01b815260040160405180910390fd5b6001600160801b0316600081815260018401602052604090209190915581546001600160801b031916179055565b6004546001600160801b03808216600160801b909204161462000cfa5760008062000c696004546001600160801b03808216600160801b9092048116919091031690565b90505b8082101562000cf757600062000c84600484620011d2565b600081815260036020526040902054909150848114801562000cac575062000cac826200123f565b1562000ce05762000cbe600462001302565b5062000cca8262001378565b62000cd8600087846200097e565b505050505050565b8362000cec8162001b15565b945050505062000c6c565b50505b6200084e82825b600060a0518262000d13919062001ab0565b905060005b81811015620005a757600062000d42600454600160801b81046001600160801b0390811691161490565b62000ef85760008062000d6e6004546001600160801b03808216600160801b9092048116919091031690565b90505b808210801562000d7f575082155b1562000ef557600062000d94600484620011d2565b60a05160008281526003602052604090205491925014801562000dbd575062000dbd816200123f565b1562000edf578260000362000ddf5762000dd8600462001302565b5062000ec1565b600162000e056004546001600160801b03808216600160801b9092048116919091031690565b62000e11919062001ad3565b830362000e245762000dd8600462001505565b600062000e4a6004546001600160801b03808216600160801b9092048116919091031690565b9050835b62000e5b60018362001ad3565b81101562000eb157600062000e7f62000e7683600162001a9a565b600490620011d2565b905062000e8d600462001505565b5062000e9b60048262000bba565b508062000ea88162001b15565b91505062000e4e565b5062000ebe600462001505565b50505b62000ecc8162001378565b62000eda600089836200097e565b600193505b8262000eeb8162001b15565b9350505062000d71565b50505b8062000fbc5760096000815462000f0f9062001b15565b9091555060095460010162000f375760405163303b682f60e01b815260040160405180910390fd5b6000600954600160ff1b62000f4d919062001a9a565b905062000f5d600087836200097e565b6000908152600260208181526040808420815180830190925230825260a051828401908152815460018082018455928752939095209151929093020180546001600160a01b0319166001600160a01b0390921691909117815591519101555b5060010162000d18565b6000838152600260205260409020548015620005a757600084815260026020526040902062000ff760018362001ad3565b815481106200100a576200100a62001ae9565b600091825260208083206002928302015487845291905260409091206001600160a01b039091169085907f3f5fbaf86658fdadee77f1d46e7f8a72424ad9839eda6a1dc6eb0a4228e4226e906200106360018662001ad3565b8154811062001076576200107662001ae9565b9060005260206000209060020201600101546040516200109891815260200190565b60405180910390a36000848152600260205260409020620010bb60018362001ad3565b81548110620010ce57620010ce62001ae9565b600091825260208083206002928302015487845291905260409091206001600160a01b039091169085907fb162210da7d23d82c18cff5af46d3562661d26b42a6848fa28d64a6bdc70386a906200112760018662001ad3565b815481106200113a576200113a62001ae9565b9060005260206000209060020201600101546040516200115c91815260200190565b60405180910390a350505050565b6000828152600f60205260409020546001600160601b03821115620011a257604051633f2cd0e360e21b815260040160405180910390fd5b6000928352600f60205260409092206001600160a01b039290921660a09190911b6001600160a01b031916019055565b6000620011f783546001600160801b03808216600160801b9092048116919091031690565b8210620012175760405163580821e760e01b815260040160405180910390fd5b5081546001600160801b03908116820116600090815260018301602052604090205492915050565b6000818152600a602052604081205460ff1615806200126a5750600082815260016020526040902054155b156200127857506001919050565b6000828152600160209081526040808320600290925282208054919290919003620012a7575060009392505050565b81600081548110620012bd57620012bd62001ae9565b90600052602060002090600202016001015481600081548110620012e557620012e562001ae9565b906000526020600020906002020160010154101592505050919050565b80546000906001600160801b0380821691600160801b90041681036200133b576040516375e52f4f60e01b815260040160405180910390fd5b6001600160801b038181166000908152600185810160205260408220805492905585546001600160801b0319169301909116919091179092555090565b6000818152600a602052604090205460ff168015620013a4575060008181526001602052604090205415155b1562000bb757620013b5816200123f565b6200140f5760405162461bcd60e51b8152602060048201526024808201527f496e73756666696369656e74206465706f7369747320746f20726573746f72656044820152630813919560e21b606482015260840162000061565b6000818152600260205260408120620014289162001576565b60005b600082815260016020526040902054811015620014d3576000828152600260209081526040808320600190925290912080548390811062001470576200147062001ae9565b6000918252602080832084546001818101875595855291909320600292830290930180549190920290920180546001600160a01b0319166001600160a01b0390931692909217825582015491015580620014ca8162001b15565b9150506200142b565b506000818152600160205260408120620014ed9162001576565b6000908152600a60205260409020805460ff19169055565b80546000906001600160801b03600160801b82048116911681036200153d576040516375e52f4f60e01b815260040160405180910390fd5b600019016001600160801b039081166000818152600185016020526040812080549190558454909216600160801b909102179092555090565b508054600082556002029060005260206000209081019062000bb791905b80821115620015bb5780546001600160a01b03191681556000600182015560020162001594565b5090565b634e487b7160e01b600052604160045260246000fd5b600082601f830112620015e757600080fd5b81516001600160401b0380821115620016045762001604620015bf565b604051601f8301601f19908116603f011681019082821181831017156200162f576200162f620015bf565b816040528381526020925086838588010111156200164c57600080fd5b600091505b8382101562001670578582018301518183018401529082019062001651565b600093810190920192909252949350505050565b80516001600160a01b03811681146200169c57600080fd5b919050565b600080600080600080600060e0888a031215620016bd57600080fd5b87516001600160401b0380821115620016d557600080fd5b620016e38b838c01620015d5565b985060208a0151915080821115620016fa57600080fd5b50620017098a828b01620015d5565b965050604088015160ff811681146200172157600080fd5b60608901519095509350620017396080890162001684565b92506200174960a0890162001684565b91506200175960c0890162001684565b905092959891949750929550565b600181811c908216806200177c57607f821691505b6020821081036200179d57634e487b7160e01b600052602260045260246000fd5b50919050565b601f821115620004e457600081815260208120601f850160051c81016020861015620017cc5750805b601f850160051c820191505b8181101562000cd857828155600101620017d8565b81516001600160401b03811115620018095762001809620015bf565b62001821816200181a845462001767565b84620017a3565b602080601f831160018114620018595760008415620018405750858301515b600019600386901b1c1916600185901b17855562000cd8565b600085815260208120601f198616915b828110156200188a5788860151825594840194600190910190840162001869565b5085821015620018a95787850151600019600388901b60f8161c191681555b5050505050600190811b01905550565b634e487b7160e01b600052601160045260246000fd5b600181815b8085111562001910578160001904821115620018f457620018f4620018b9565b808516156200190257918102915b93841c9390800290620018d4565b509250929050565b600082620019295750600162000473565b81620019385750600062000473565b81600181146200195157600281146200195c576200197c565b600191505062000473565b60ff841115620019705762001970620018b9565b50506001821b62000473565b5060208310610133831016604e8410600b8410161715620019a1575081810a62000473565b620019ad8383620018cf565b8060001904821115620019c457620019c4620018b9565b029392505050565b6000620019dd60ff84168362001918565b9392505050565b600060208284031215620019f757600080fd5b620019dd8262001684565b8082028115828204841417620004735762000473620018b9565b600080835462001a2c8162001767565b6001828116801562001a47576001811462001a5d5762001a8e565b60ff198416875282151583028701945062001a8e565b8760005260208060002060005b8581101562001a855781548a82015290840190820162001a6a565b50505082870194505b50929695505050505050565b80820180821115620004735762000473620018b9565b60008262001ace57634e487b7160e01b600052601260045260246000fd5b500490565b81810381811115620004735762000473620018b9565b634e487b7160e01b600052603260045260246000fd5b634e487b7160e01b600052603160045260246000fd5b60006001820162001b2a5762001b2a620018b9565b5060010190565b60805160a05160c05160e0516133b862001bb16000396000610b3b01526000610b0b0152600081816104a9015281816118b5015281816118f90152818161193b01528181611995015281816119bf01528181611a130152818161227201528181612664015281816126fd015261288e0152600061039201526133b86000f3fe608060405234801561001057600080fd5b50600436106102745760003560e01c80638da5cb5b11610151578063c6e672b9116100c3578063dd63769911610087578063dd63769914610611578063dfabc03314610624578063e985e9c514610637578063f16ad51e14610665578063f2fde38b14610678578063f780bc1a1461068b57600080fd5b8063c6e672b91461059a578063c87b56dd146105ad578063d505accf146105c0578063d96ca0b9146105d3578063dd62ed3e146105e657600080fd5b8063b1ab931711610115578063b1ab9317146104f1578063b3f9ea3414610511578063b810217b1461053a578063b88d4fde1461056c578063ba7bd2aa1461057f578063c5ab3ba61461059257600080fd5b80638da5cb5b1461048b57806395d89b411461049c578063976a8435146104a4578063a22cb465146104cb578063a9059cbb146104de57600080fd5b80633644e515116101ea57806370a08231116101ae57806370a0823114610408578063715018a6146104285780637df1c3d8146104305780637ecebe001461045057806389fb4c66146104705780638a696e501461047857600080fd5b80633644e515146103c657806342842e0e146103ce5780634f02c420146103e15780636352211e146103ea5780636e8f624b146103fd57600080fd5b8063095ea7b31161023c578063095ea7b31461034357806309674eb01461035657806309f0ef651461035e57806318160ddd1461037157806323b872dd1461037a578063313ce5671461038d57600080fd5b8063015bf2641461027957806301ffc9a71461028e57806302519da3146102b657806306fdde03146102ed578063081812fc14610302575b600080fd5b61028c610287366004612d3d565b61069e565b005b6102a161029c366004612d88565b610935565b60405190151581526020015b60405180910390f35b6102df6102c4366004612da5565b6001600160a01b03166000908152600b602052604090205490565b6040519081526020016102ad565b6102f561096c565b6040516102ad9190612e10565b61032b610310366004612e23565b600d602052600090815260409020546001600160a01b031681565b6040516001600160a01b0390911681526020016102ad565b6102a1610351366004612e3c565b6109fa565b6102df610a87565b6102a161036c366004612da5565b610a98565b6102df60085481565b6102a1610388366004612e66565b610aca565b6103b47f000000000000000000000000000000000000000000000000000000000000000081565b60405160ff90911681526020016102ad565b6102df610b07565b61028c6103dc366004612e66565b610b5d565b6102df60095481565b61032b6103f8366004612e23565b610b7d565b6102df600160ff1b81565b6102df610416366004612da5565b600b6020526000908152604090205481565b61028c610be7565b61044361043e366004612e23565b610bfb565b6040516102ad9190612e92565b6102df61045e366004612da5565b60126020526000908152604090205481565b6008546102df565b61028c610486366004612ef8565b610c83565b6000546001600160a01b031661032b565b6102f5610c90565b6102df7f000000000000000000000000000000000000000000000000000000000000000081565b61028c6104d9366004612f15565b610c9d565b6102a16104ec366004612e3c565b610d31565b6105046104ff366004612da5565b610d65565b6040516102ad9190612f4c565b6102df61051f366004612da5565b6001600160a01b031660009081526010602052604090205490565b61054d610548366004612f90565b610dd1565b604080516001600160a01b0390931683526020830191909152016102ad565b61028c61057a366004612fc8565b610e17565b61028c61058d366004612f90565b610f05565b6009546102df565b61028c6105a8366004612f15565b611053565b6102f56105bb366004612e23565b611069565b61028c6105ce3660046130a4565b61109a565b6102a16105e1366004612e66565b6112dd565b6102df6105f4366004613117565b600c60209081526000928352604080842090915290825290205481565b61028c61061f366004612e66565b61139d565b61028c610632366004612e3c565b6114d3565b6102a1610645366004613117565b600e60209081526000928352604080842090915290825290205460ff1681565b61028c610673366004612f90565b611598565b61028c610686366004612da5565b611777565b610504610699366004612f90565b6117b2565b336000908152600b602052604090205481106106f85760405162461bcd60e51b8152602060048201526014602482015273496e73756666696369656e742062616c616e636560601b60448201526064015b60405180910390fd5b6000838152600f60205260409020546001600160a01b031633811461072f576040516282b42960e81b815260040160405180910390fd5b60008481526002602052604081208054829061074d5761074d61314a565b9060005260206000209060020201600101549050306001600160a01b0316846001600160a01b0316036107e157336000908152600b60205260409020548311156107d05760405162461bcd60e51b8152602060048201526014602482015273496e73756666696369656e742062616c616e636560601b60448201526064016106ef565b6107db33308561184f565b50610835565b60405162461bcd60e51b815260206004820152602360248201527f6e6f772074686973206973206e6f7420737570706f727420666f72206465706f6044820152621cda5d60ea1b60648201526084016106ef565b600260008681526020019081526020016000206040518060400160405280866001600160a01b03168152602001838661086e9190613176565b90528154600180820184556000938452602093849020835160029093020180546001600160a01b0319166001600160a01b0390931692909217825591909201519101556040516323b872dd60e01b8152306004820181905233602483015260448201879052906323b872dd906064016020604051808303816000875af1925050508015610918575060408051601f3d908101601f1916820190925261091591810190613189565b60015b61092c57610927303385611acc565b61092e565b505b5050505050565b60006001600160e01b0319821663876f7f8760e01b148061096657506001600160e01b031982166301ffc9a760e01b145b92915050565b60068054610979906131a6565b80601f01602080910402602001604051908101604052809291908181526020018280546109a5906131a6565b80156109f25780601f106109c7576101008083540402835291602001916109f2565b820191906000526020600020905b8154815290600101906020018083116109d557829003601f168201915b505050505081565b60006001600160a01b038316610a2357604051635461585f60e01b815260040160405180910390fd5b336000818152600c602090815260408083206001600160a01b03881680855290835292819020869055518581529192917f8c5be1e5ebec7d5bd14f71427d1e84f3dd0314c0f7b2291e5b200ac8c7c3b925910160405180910390a350600192915050565b6000610a936004611b88565b905090565b60006001600160a01b03821615806109665750506001600160a01b031660009081526011602052604090205460ff1690565b6000610ad582611ba6565b15610aea57610ae584848461139d565b610afc565b610af58484846112dd565b9050610b00565b5060015b9392505050565b60007f00000000000000000000000000000000000000000000000000000000000000004614610b3857610a93611bbf565b507f000000000000000000000000000000000000000000000000000000000000000090565b610b7883838360405180602001604052806000815250610e17565b505050565b6000818152600f60205260409020546001600160a01b0316610b9e82611ba6565b610bbb576040516307ed98ed60e31b815260040160405180910390fd5b6001600160a01b038116610be25760405163c5723b5160e01b815260040160405180910390fd5b919050565b610bef611c59565b610bf96000611c86565b565b606060026000838152602001908152602001600020805480602002602001604051908101604052809291908181526020016000905b82821015610c78576000848152602090819020604080518082019091526002850290910180546001600160a01b03168252600190810154828401529083529092019101610c30565b505050509050919050565b610c8d3382611cd6565b50565b60078054610979906131a6565b6001600160a01b038216610cc45760405163ccea9e6f60e01b815260040160405180910390fd5b336000818152600e602090815260408083206001600160a01b03871680855290835292819020805460ff191686151590811790915590519081529192917f17307eab39ab6107e8899845ad3d59bd9653f200f220920489ca2b5937696c3191015b60405180910390a35050565b60006001600160a01b038316610d5a57604051634e46966960e11b815260040160405180910390fd5b610b0033848461184f565b6001600160a01b038116600090815260106020908152604091829020805483518184028101840190945280845260609392830182828015610dc557602002820191906000526020600020905b815481526020019060010190808311610db1575b50505050509050919050565b60026020528160005260406000208181548110610ded57600080fd5b6000918252602090912060029091020180546001909101546001600160a01b039091169250905082565b610e2082611ba6565b610e3d576040516307ed98ed60e31b815260040160405180910390fd5b610e48848484610aca565b506001600160a01b0383163b15801590610ee15750604051630a85bd0160e11b808252906001600160a01b0385169063150b7a0290610e919033908990889088906004016131e0565b6020604051808303816000875af1158015610eb0573d6000803e3d6000fd5b505050506040513d601f19601f82011682018060405250810190610ed4919061321d565b6001600160e01b03191614155b15610eff57604051633da6393160e01b815260040160405180910390fd5b50505050565b6000828152600f60205260409020546001600160a01b0316338114610f3c576040516282b42960e81b815260040160405180910390fd5b6000838152600260205260409020548210610f915760405162461bcd60e51b8152602060048201526015602482015274092dcecc2d8d2c840c8cae0dee6d2e840d2dcc8caf605b1b60448201526064016106ef565b6000838152600260205260408120805484908110610fb157610fb161314a565b6000918252602090912060029091020160018101548154919250906001600160a01b0316610fdf8686611d45565b306001600160a01b03821603610fff57610ffa303384611acc565b61092c565b60405162461bcd60e51b8152602060048201526024808201527f6e6f772074686973206973206e6f7420737570706f727420666f7220776974686044820152636472617760e01b60648201526084016106ef565b61105b611c59565b6110658282611cd6565b5050565b606061107482611e94565b604051602001611084919061323a565b6040516020818303038152906040529050919050565b428410156110bb576040516305787bdf60e01b815260040160405180910390fd5b6110c485611ba6565b156110e2576040516303e7c1bd60e31b815260040160405180910390fd5b6001600160a01b03861661110957604051635461585f60e01b815260040160405180910390fd5b60006001611115610b07565b6001600160a01b038a811660008181526012602090815260409182902080546001810190915582517f6e71edae12b1b97f4d1f60370fef10105fa2faae0126114a169c64845d6126c98184015280840194909452938d166060840152608083018c905260a083019390935260c08083018b90528151808403909101815260e08301909152805192019190912061190160f01b6101008301526101028201929092526101228101919091526101420160408051601f198184030181528282528051602091820120600084529083018083525260ff871690820152606081018590526080810184905260a0016020604051602081039080840390855afa158015611221573d6000803e3d6000fd5b5050604051601f1901519150506001600160a01b03811615806112565750876001600160a01b0316816001600160a01b031614155b1561127457604051632057875960e21b815260040160405180910390fd5b6001600160a01b039081166000908152600c602090815260408083208a8516808552908352928190208990555188815291928a16917f8c5be1e5ebec7d5bd14f71427d1e84f3dd0314c0f7b2291e5b200ac8c7c3b925910160405180910390a350505050505050565b60006001600160a01b03841661130657604051636edaef2f60e11b815260040160405180910390fd5b6001600160a01b03831661132d57604051634e46966960e11b815260040160405180910390fd5b6001600160a01b0384166000908152600c60209081526040808320338452909152902054600019811461138957611364838261327f565b6001600160a01b0386166000908152600c602090815260408083203384529091529020555b61139485858561184f565b95945050505050565b6001600160a01b0383166113c457604051636edaef2f60e11b815260040160405180910390fd5b6001600160a01b0382166113eb57604051634e46966960e11b815260040160405180910390fd5b6000818152600f60205260409020546001600160a01b03848116911614611424576040516282b42960e81b815260040160405180910390fd5b336001600160a01b0384161480159061146157506001600160a01b0383166000908152600e6020908152604080832033845290915290205460ff16155b801561148457506000818152600d60205260409020546001600160a01b03163314155b156114a1576040516282b42960e81b815260040160405180910390fd5b6114aa82610a98565b156114c857604051635ce7539760e01b815260040160405180910390fd5b610b78838383611f27565b6000818152600f60205260409020546001600160a01b031633811480159061151f57506001600160a01b0381166000908152600e6020908152604080832033845290915290205460ff16155b1561153c576040516282b42960e81b815260040160405180910390fd5b6000828152600d602052604080822080546001600160a01b0319166001600160a01b0387811691821790925591518593918516917f8c5be1e5ebec7d5bd14f71427d1e84f3dd0314c0f7b2291e5b200ac8c7c3b92591a4505050565b6000828152600f60205260409020546001600160a01b031633146115f05760405162461bcd60e51b815260206004820152600f60248201526e2737ba103a37b5b2b71037bbb732b960891b60448201526064016106ef565b600081116116405760405162461bcd60e51b815260206004820152601d60248201527f416d6f756e74206d7573742062652067726561746572207468616e203000000060448201526064016106ef565b60008281526002602052604081205490036116b55760008281526002602081815260408084208151808301909252308252818301868152815460018082018455928752939095209151929093020180546001600160a01b0319166001600160a01b0390921691909117815591519101556116fa565b600082815260026020526040812080548392906116d4576116d461314a565b906000526020600020906002020160010160008282546116f49190613176565b90915550505b6117053330836120ed565b6117435760405162461bcd60e51b815260206004820152600f60248201526e151c985b9cd9995c8819985a5b1959608a1b60448201526064016106ef565b604051818152309083907fb162210da7d23d82c18cff5af46d3562661d26b42a6848fa28d64a6bdc70386a90602001610d25565b61177f611c59565b6001600160a01b0381166117a957604051631e4fbdf760e01b8152600060048201526024016106ef565b610c8d81611c86565b606060008267ffffffffffffffff8111156117cf576117cf612fb2565b6040519080825280602002602001820160405280156117f8578160200160208202803683370190505b509050835b6118078486613176565b81101561184757611819600482612102565b82611824878461327f565b815181106118345761183461314a565b60209081029190910101526001016117fd565b509392505050565b6001600160a01b038381166000908152600b6020526040808220549285168252812054909190611880868686611acc565b600061188b87610a98565b9050600061189887610a98565b90508180156118a45750805b611abe5781156119705760006118da7f000000000000000000000000000000000000000000000000000000000000000085613292565b6001600160a01b0389166000908152600b602052604090205461191e907f000000000000000000000000000000000000000000000000000000000000000090613292565b611928919061327f565b905060005b8181101561196957611961897f00000000000000000000000000000000000000000000000000000000000000006000612154565b60010161192d565b5050611abe565b8015611a0c576001600160a01b0388166000908152600b60205260408120546119ba907f000000000000000000000000000000000000000000000000000000000000000090613292565b6119e47f000000000000000000000000000000000000000000000000000000000000000087613292565b6119ee919061327f565b905060005b8181101561196957611a048a612195565b6001016119f3565b6000611a387f000000000000000000000000000000000000000000000000000000000000000088613292565b905060005b81811015611abb576001600160a01b038a16600090815260106020526040812054611a6a9060019061327f565b6001600160a01b038c1660009081526010602052604081208054929350909183908110611a9957611a9961314a565b90600052602060002001549050611ab18c8c83611f27565b5050600101611a3d565b50505b506001979650505050505050565b6001600160a01b038316611af7578060086000828254611aec9190613176565b90915550611b259050565b6001600160a01b0383166000908152600b602052604081208054839290611b1f90849061327f565b90915550505b6001600160a01b038083166000818152600b6020526040908190208054850190555190918516907fddf252ad1be2c89b69c2b068fc378daa952ba7f163c4a11628f55a4df523b3ef90611b7b9085815260200190565b60405180910390a3505050565b546001600160801b03808216600160801b9092048116919091031690565b6000600160ff1b82118015610966575050600019141590565b60007f8b73c3c69bb8fe3d512ecc4cf759cc79239f7b179b0ffacaa9a75d522b39400f6006604051611bf191906132b4565b6040805191829003822060208301939093528101919091527fc89efdaa54c0f20c7adf612882df0950f5a951637e0307cdcb4c672f298b8bc660608201524660808201523060a082015260c00160405160208183030381529060405280519060200120905090565b6000546001600160a01b03163314610bf95760405163118cdaa760e01b81523360048201526024016106ef565b600080546001600160a01b038381166001600160a01b0319831681178455604051919092169283917f8be0079c531659141344cd1fd0a4f28419497f9722a3daafe3b4186f6b6457e09190a35050565b6001600160a01b038216611cfd5760405163a41e3d3f60e01b815260040160405180910390fd5b8015611d1157611d0c8261221f565b611d1a565b611d1a82612253565b6001600160a01b03919091166000908152601160205260409020805460ff1916911515919091179055565b6000828152600260205260409020548110611d925760405162461bcd60e51b815260206004820152600d60248201526c092dcecc2d8d2c840d2dcc8caf609b1b60448201526064016106ef565b600082815260026020526040902054611dad9060019061327f565b8114611e4a5760008281526002602052604090208054611dcf9060019061327f565b81548110611ddf57611ddf61314a565b9060005260206000209060020201600260008481526020019081526020016000208281548110611e1157611e1161314a565b60009182526020909120825460029092020180546001600160a01b0319166001600160a01b039092169190911781556001918201549101555b6000828152600260205260409020805480611e6757611e67613353565b60008281526020812060026000199093019283020180546001600160a01b03191681556001015590555050565b60606000611ea1836122e4565b600101905060008167ffffffffffffffff811115611ec157611ec1612fb2565b6040519080825280601f01601f191660200182016040528015611eeb576020820181803683370190505b5090508181016020015b600019016f181899199a1a9b1b9c1cb0b131b232b360811b600a86061a8153600a8504945084611ef557509392505050565b611f328184846123bc565b6000818152600f6020526040902080546001600160a01b0319166001600160a01b0384160190556001600160a01b0383161561204d576001600160a01b03831660009081526010602052604081208054611f8e9060019061327f565b81548110611f9e57611f9e61314a565b906000526020600020015490506000611fc6836000908152600f602052604090205460a01c90565b6001600160a01b03861660009081526010602052604090208054919250839183908110611ff557611ff561314a565b60009182526020808320909101929092556001600160a01b038716815260109091526040902080548061202a5761202a613353565b6001900381819060005260206000200160009055905561204a8282612549565b50505b6001600160a01b0382166000818152601060209081526040822080546001818101835582855292842001859055929091529054612095918391612090919061327f565b612549565b6000818152600d602052604080822080546001600160a01b03191690555182916001600160a01b0385811692908716917fddf252ad1be2c89b69c2b068fc378daa952ba7f163c4a11628f55a4df523b3ef91a4505050565b60006120fa84848461184f565b949350505050565b600061210d83611b88565b821061212c5760405163580821e760e01b815260040160405180910390fd5b5081546001600160801b03908116820116600090815260018301602052604090205492915050565b6001600160a01b03831661217b57604051634e46966960e11b815260040160405180910390fd5b801561218b57610b7883836125b5565b610b78838361265d565b6001600160a01b0381166121bc57604051636edaef2f60e11b815260040160405180910390fd5b6001600160a01b038116600090815260106020526040812080546121e29060019061327f565b815481106121f2576121f261314a565b90600052602060002001549050612208816128f6565b61221482600083611f27565b61106560048261295b565b6001600160a01b038116600090815260106020526040812054905b81811015610b785761224b83612195565b60010161223a565b6001600160a01b0381166000908152600b6020526040812054612297907f000000000000000000000000000000000000000000000000000000000000000090613292565b905060006122ba836001600160a01b031660009081526010602052604090205490565b905060005b6122c9828461327f565b811015610eff576122dc84600180612154565b6001016122bf565b60008072184f03e93ff9f4daa797ed6e38ed64bf6a1f0160401b83106123235772184f03e93ff9f4daa797ed6e38ed64bf6a1f0160401b830492506040015b6d04ee2d6d415b85acef8100000000831061234f576d04ee2d6d415b85acef8100000000830492506020015b662386f26fc10000831061236d57662386f26fc10000830492506010015b6305f5e1008310612385576305f5e100830492506008015b612710831061239957612710830492506004015b606483106123ab576064830492506002015b600a83106109665760010192915050565b6000838152600260205260409020548015610eff5760008481526002602052604090206123ea60018361327f565b815481106123fa576123fa61314a565b600091825260208083206002928302015487845291905260409091206001600160a01b039091169085907f3f5fbaf86658fdadee77f1d46e7f8a72424ad9839eda6a1dc6eb0a4228e4226e9061245160018661327f565b815481106124615761246161314a565b90600052602060002090600202016001015460405161248291815260200190565b60405180910390a360008481526002602052604090206124a360018361327f565b815481106124b3576124b361314a565b600091825260208083206002928302015487845291905260409091206001600160a01b039091169085907fb162210da7d23d82c18cff5af46d3562661d26b42a6848fa28d64a6bdc70386a9061250a60018661327f565b8154811061251a5761251a61314a565b90600052602060002090600202016001015460405161253b91815260200190565b60405180910390a350505050565b6000828152600f60205260409020546bffffffffffffffffffffffff82111561258557604051633f2cd0e360e21b815260040160405180910390fd5b6000928352600f60205260409092206001600160a01b039290921660a09190911b6001600160a01b031916019055565b6004546001600160801b03808216600160801b9092041614612657576000806125de6004611b88565b90505b808210156126545760006125f6600484612102565b600081815260036020526040902054909150848114801561261b575061261b826129c5565b156126405761262a6004612a7f565b5061263482612af4565b61092c60008784611f27565b8361264a81613369565b94505050506125e1565b50505b61106582825b60006126897f000000000000000000000000000000000000000000000000000000000000000083613292565b905060005b81811015610eff5760006126b6600454600160801b81046001600160801b0390811691161490565b612813576000806126c76004611b88565b90505b80821080156126d7575082155b156128105760006126e9600484612102565b6000818152600360205260409020549091507f000000000000000000000000000000000000000000000000000000000000000014801561272d575061272d816129c5565b156127fd578260000361274a576127446004612a7f565b506127e3565b60016127566004611b88565b612760919061327f565b8303612770576127446004612c70565b600061277c6004611b88565b9050835b61278b60018361327f565b8110156127d55760006127aa6127a2836001613176565b600490612102565b90506127b66004612c70565b506127c260048261295b565b50806127cd81613369565b915050612780565b506127e06004612c70565b50505b6127ec81612af4565b6127f860008983611f27565b600193505b8261280781613369565b935050506126ca565b50505b806128ed5760096000815461282790613369565b9091555060095460010161284e5760405163303b682f60e01b815260040160405180910390fd5b6000600954600160ff1b6128629190613176565b905061287060008783611f27565b600090815260026020818152604080842081518083019092523082527f0000000000000000000000000000000000000000000000000000000000000000828401908152815460018082018455928752939095209151929093020180546001600160a01b0319166001600160a01b0390921691909117815591519101555b5060010161268e565b60008181526002602052604090205415610c8d57600081815260026020526040812080549091906129295761292961314a565b6000918252602080832060029283020160010154848452600382526040808520919091559190528120610c8d91612ce0565b81546001600160801b038082166000190191600160801b900481169082160361299757604051638acb5f2760e01b815260040160405180910390fd5b6001600160801b0316600081815260018401602052604090209190915581546001600160801b031916179055565b6000818152600a602052604081205460ff1615806129ef5750600082815260016020526040902054155b156129fc57506001919050565b6000828152600160209081526040808320600290925282208054919290919003612a2a575060009392505050565b81600081548110612a3d57612a3d61314a565b90600052602060002090600202016001015481600081548110612a6257612a6261314a565b906000526020600020906002020160010154101592505050919050565b80546000906001600160801b0380821691600160801b9004168103612ab7576040516375e52f4f60e01b815260040160405180910390fd5b6001600160801b038181166000908152600185810160205260408220805492905585546001600160801b0319169301909116919091179092555090565b6000818152600a602052604090205460ff168015612b1f575060008181526001602052604090205415155b15610c8d57612b2d816129c5565b612b855760405162461bcd60e51b8152602060048201526024808201527f496e73756666696369656e74206465706f7369747320746f20726573746f72656044820152630813919560e21b60648201526084016106ef565b6000818152600260205260408120612b9c91612ce0565b60005b600082815260016020526040902054811015612c405760008281526002602090815260408083206001909252909120805483908110612be057612be061314a565b6000918252602080832084546001818101875595855291909320600292830290930180549190920290920180546001600160a01b0319166001600160a01b0390931692909217825582015491015580612c3881613369565b915050612b9f565b506000818152600160205260408120612c5891612ce0565b6000908152600a60205260409020805460ff19169055565b80546000906001600160801b03600160801b8204811691168103612ca7576040516375e52f4f60e01b815260040160405180910390fd5b600019016001600160801b039081166000818152600185016020526040812080549190558454909216600160801b909102179092555090565b5080546000825560020290600052602060002090810190610c8d91905b80821115612d225780546001600160a01b031916815560006001820155600201612cfd565b5090565b80356001600160a01b0381168114610be257600080fd5b600080600060608486031215612d5257600080fd5b83359250612d6260208501612d26565b9150604084013590509250925092565b6001600160e01b031981168114610c8d57600080fd5b600060208284031215612d9a57600080fd5b8135610b0081612d72565b600060208284031215612db757600080fd5b610b0082612d26565b60005b83811015612ddb578181015183820152602001612dc3565b50506000910152565b60008151808452612dfc816020860160208601612dc0565b601f01601f19169290920160200192915050565b602081526000610b006020830184612de4565b600060208284031215612e3557600080fd5b5035919050565b60008060408385031215612e4f57600080fd5b612e5883612d26565b946020939093013593505050565b600080600060608486031215612e7b57600080fd5b612e8484612d26565b9250612d6260208501612d26565b602080825282518282018190526000919060409081850190868401855b82811015612edd57815180516001600160a01b03168552860151868501529284019290850190600101612eaf565b5091979650505050505050565b8015158114610c8d57600080fd5b600060208284031215612f0a57600080fd5b8135610b0081612eea565b60008060408385031215612f2857600080fd5b612f3183612d26565b91506020830135612f4181612eea565b809150509250929050565b6020808252825182820181905260009190848201906040850190845b81811015612f8457835183529284019291840191600101612f68565b50909695505050505050565b60008060408385031215612fa357600080fd5b50508035926020909101359150565b634e487b7160e01b600052604160045260246000fd5b60008060008060808587031215612fde57600080fd5b612fe785612d26565b9350612ff560208601612d26565b925060408501359150606085013567ffffffffffffffff8082111561301957600080fd5b818701915087601f83011261302d57600080fd5b81358181111561303f5761303f612fb2565b604051601f8201601f19908116603f0116810190838211818310171561306757613067612fb2565b816040528281528a602084870101111561308057600080fd5b82602086016020830137600060208483010152809550505050505092959194509250565b600080600080600080600060e0888a0312156130bf57600080fd5b6130c888612d26565b96506130d660208901612d26565b95506040880135945060608801359350608088013560ff811681146130fa57600080fd5b9699959850939692959460a0840135945060c09093013592915050565b6000806040838503121561312a57600080fd5b61313383612d26565b915061314160208401612d26565b90509250929050565b634e487b7160e01b600052603260045260246000fd5b634e487b7160e01b600052601160045260246000fd5b8082018082111561096657610966613160565b60006020828403121561319b57600080fd5b8151610b0081612eea565b600181811c908216806131ba57607f821691505b6020821081036131da57634e487b7160e01b600052602260045260246000fd5b50919050565b6001600160a01b038581168252841660208201526040810183905260806060820181905260009061321390830184612de4565b9695505050505050565b60006020828403121561322f57600080fd5b8151610b0081612d72565b7f68747470733a2f2f6578616d706c652e636f6d2f746f6b656e2f00000000000081526000825161327281601a850160208701612dc0565b91909101601a0192915050565b8181038181111561096657610966613160565b6000826132af57634e487b7160e01b600052601260045260246000fd5b500490565b600080835481600182811c9150808316806132d057607f831692505b602080841082036132ef57634e487b7160e01b86526022600452602486fd5b818015613303576001811461331857613345565b60ff1986168952841515850289019650613345565b60008a81526020902060005b8681101561333d5781548b820152908501908301613324565b505084890196505b509498975050505050505050565b634e487b7160e01b600052603160045260246000fd5b60006001820161337b5761337b613160565b506001019056fea26469706673582212202eb1da5d8e8309cee0e63b531865ea784231b4c70bf6c9b95536121533f9fb3d64736f6c63430008140033ddf252ad1be2c89b69c2b068fc378daa952ba7f163c4a11628f55a4df523b3ef","linkReferences":{}},"methodIdentifiers":{"DOMAIN_SEPARATOR()":"3644e515","ID_ENCODING_PREFIX()":"6e8f624b","_tokenDeposits(uint256,uint256)":"b810217b","allowance(address,address)":"dd62ed3e","approve(address,uint256)":"095ea7b3","balanceOf(address)":"70a08231","decimals()":"313ce567","depositTokens(uint256,address,uint256)":"015bf264","depositTokens(uint256,uint256)":"f16ad51e","erc20BalanceOf(address)":"02519da3","erc20TotalSupply()":"89fb4c66","erc20TransferFrom(address,address,uint256)":"d96ca0b9","erc721Approve(address,uint256)":"dfabc033","erc721BalanceOf(address)":"b3f9ea34","erc721TotalSupply()":"c5ab3ba6","erc721TransferExempt(address)":"09f0ef65","erc721TransferFrom(address,address,uint256)":"dd637699","getApproved(uint256)":"081812fc","getERC721QueueLength()":"09674eb0","getERC721TokensInQueue(uint256,uint256)":"f780bc1a","getTokenDeposits(uint256)":"7df1c3d8","isApprovedForAll(address,address)":"e985e9c5","minted()":"4f02c420","name()":"06fdde03","nonces(address)":"7ecebe00","owned(address)":"b1ab9317","owner()":"8da5cb5b","ownerOf(uint256)":"6352211e","permit(address,address,uint256,uint256,uint8,bytes32,bytes32)":"d505accf","renounceOwnership()":"715018a6","safeTransferFrom(address,address,uint256)":"42842e0e","safeTransferFrom(address,address,uint256,bytes)":"b88d4fde","setApprovalForAll(address,bool)":"a22cb465","setERC721TransferExempt(address,bool)":"c6e672b9","setSelfERC721TransferExempt(bool)":"8a696e50","supportsInterface(bytes4)":"01ffc9a7","symbol()":"95d89b41","tokenURI(uint256)":"c87b56dd","totalSupply()":"18160ddd","transfer(address,uint256)":"a9059cbb","transferFrom(address,address,uint256)":"23b872dd","transferOwnership(address)":"f2fde38b","units()":"976a8435","withdrawTokens(uint256,uint256)":"ba7bd2aa"},"id":3}