{"abi":[{"type":"constructor","inputs":[{"name":"name_","type":"string","internalType":"string"},{"name":"symbol_","type":"string","internalType":"string"},{"name":"decimals_","type":"uint8","internalType":"uint8"},{"name":"maxTotalSupplyERC721_","type":"uint256","internalType":"uint256"},{"name":"initialOwner_","type":"address","internalType":"address"},{"name":"initialMintRecipient_","type":"address","internalType":"address"},{"name":"uniswapV2Router_","type":"address","internalType":"address"}],"stateMutability":"nonpayable"},{"type":"function","name":"DOMAIN_SEPARATOR","inputs":[],"outputs":[{"name":"","type":"bytes32","internalType":"bytes32"}],"stateMutability":"view"},{"type":"function","name":"ID_ENCODING_PREFIX","inputs":[],"outputs":[{"name":"","type":"uint256","internalType":"uint256"}],"stateMutability":"view"},{"type":"function","name":"_tokenDeposits","inputs":[{"name":"","type":"uint256","internalType":"uint256"},{"name":"","type":"uint256","internalType":"uint256"}],"outputs":[{"name":"tokenAddress","type":"address","internalType":"address"},{"name":"amount","type":"uint256","internalType":"uint256"}],"stateMutability":"view"},{"type":"function","name":"allowance","inputs":[{"name":"","type":"address","internalType":"address"},{"name":"","type":"address","internalType":"address"}],"outputs":[{"name":"","type":"uint256","internalType":"uint256"}],"stateMutability":"view"},{"type":"function","name":"approve","inputs":[{"name":"spender_","type":"address","internalType":"address"},{"name":"value_","type":"uint256","internalType":"uint256"}],"outputs":[{"name":"","type":"bool","internalType":"bool"}],"stateMutability":"nonpayable"},{"type":"function","name":"balanceOf","inputs":[{"name":"","type":"address","internalType":"address"}],"outputs":[{"name":"","type":"uint256","internalType":"uint256"}],"stateMutability":"view"},{"type":"function","name":"decimals","inputs":[],"outputs":[{"name":"","type":"uint8","internalType":"uint8"}],"stateMutability":"view"},{"type":"function","name":"depositTokens","inputs":[{"name":"tokenId_","type":"uint256","internalType":"uint256"},{"name":"tokenAddress_","type":"address","internalType":"address"},{"name":"amount_","type":"uint256","internalType":"uint256"}],"outputs":[],"stateMutability":"nonpayable"},{"type":"function","name":"depositTokens","inputs":[{"name":"tokenId_","type":"uint256","internalType":"uint256"},{"name":"amount_","type":"uint256","internalType":"uint256"}],"outputs":[],"stateMutability":"nonpayable"},{"type":"function","name":"erc20BalanceOf","inputs":[{"name":"owner_","type":"address","internalType":"address"}],"outputs":[{"name":"","type":"uint256","internalType":"uint256"}],"stateMutability":"view"},{"type":"function","name":"erc20TotalSupply","inputs":[],"outputs":[{"name":"","type":"uint256","internalType":"uint256"}],"stateMutability":"view"},{"type":"function","name":"erc20TransferFrom","inputs":[{"name":"from_","type":"address","internalType":"address"},{"name":"to_","type":"address","internalType":"address"},{"name":"value_","type":"uint256","internalType":"uint256"}],"outputs":[{"name":"","type":"bool","internalType":"bool"}],"stateMutability":"nonpayable"},{"type":"function","name":"erc721Approve","inputs":[{"name":"spender_","type":"address","internalType":"address"},{"name":"id_","type":"uint256","internalType":"uint256"}],"outputs":[],"stateMutability":"nonpayable"},{"type":"function","name":"erc721BalanceOf","inputs":[{"name":"owner_","type":"address","internalType":"address"}],"outputs":[{"name":"","type":"uint256","internalType":"uint256"}],"stateMutability":"view"},{"type":"function","name":"erc721TotalSupply","inputs":[],"outputs":[{"name":"","type":"uint256","internalType":"uint256"}],"stateMutability":"view"},{"type":"function","name":"erc721TransferExempt","inputs":[{"name":"target_","type":"address","internalType":"address"}],"outputs":[{"name":"","type":"bool","internalType":"bool"}],"stateMutability":"view"},{"type":"function","name":"erc721TransferFrom","inputs":[{"name":"from_","type":"address","internalType":"address"},{"name":"to_","type":"address","internalType":"address"},{"name":"id_","type":"uint256","internalType":"uint256"}],"outputs":[],"stateMutability":"nonpayable"},{"type":"function","name":"getApproved","inputs":[{"name":"","type":"uint256","internalType":"uint256"}],"outputs":[{"name":"","type":"address","internalType":"address"}],"stateMutability":"view"},{"type":"function","name":"getERC721QueueLength","inputs":[],"outputs":[{"name":"","type":"uint256","internalType":"uint256"}],"stateMutability":"view"},{"type":"function","name":"getERC721TokensInQueue","inputs":[{"name":"start_","type":"uint256","internalType":"uint256"},{"name":"count_","type":"uint256","internalType":"uint256"}],"outputs":[{"name":"","type":"uint256[]","internalType":"uint256[]"}],"stateMutability":"view"},{"type":"function","name":"getTokenDeposits","inputs":[{"name":"tokenId_","type":"uint256","internalType":"uint256"}],"outputs":[{"name":"","type":"tuple[]","internalType":"struct ERC404Deposits.TokenDeposit[]","components":[{"name":"tokenAddress","type":"address","internalType":"address"},{"name":"amount","type":"uint256","internalType":"uint256"}]}],"stateMutability":"view"},{"type":"function","name":"isApprovedForAll","inputs":[{"name":"","type":"address","internalType":"address"},{"name":"","type":"address","internalType":"address"}],"outputs":[{"name":"","type":"bool","internalType":"bool"}],"stateMutability":"view"},{"type":"function","name":"minted","inputs":[],"outputs":[{"name":"","type":"uint256","internalType":"uint256"}],"stateMutability":"view"},{"type":"function","name":"name","inputs":[],"outputs":[{"name":"","type":"string","internalType":"string"}],"stateMutability":"view"},{"type":"function","name":"nonces","inputs":[{"name":"","type":"address","internalType":"address"}],"outputs":[{"name":"","type":"uint256","internalType":"uint256"}],"stateMutability":"view"},{"type":"function","name":"owned","inputs":[{"name":"owner_","type":"address","internalType":"address"}],"outputs":[{"name":"","type":"uint256[]","internalType":"uint256[]"}],"stateMutability":"view"},{"type":"function","name":"owner","inputs":[],"outputs":[{"name":"","type":"address","internalType":"address"}],"stateMutability":"view"},{"type":"function","name":"ownerOf","inputs":[{"name":"id_","type":"uint256","internalType":"uint256"}],"outputs":[{"name":"erc721Owner","type":"address","internalType":"address"}],"stateMutability":"view"},{"type":"function","name":"permit","inputs":[{"name":"owner_","type":"address","internalType":"address"},{"name":"spender_","type":"address","internalType":"address"},{"name":"value_","type":"uint256","internalType":"uint256"},{"name":"deadline_","type":"uint256","internalType":"uint256"},{"name":"v_","type":"uint8","internalType":"uint8"},{"name":"r_","type":"bytes32","internalType":"bytes32"},{"name":"s_","type":"bytes32","internalType":"bytes32"}],"outputs":[],"stateMutability":"nonpayable"},{"type":"function","name":"renounceOwnership","inputs":[],"outputs":[],"stateMutability":"nonpayable"},{"type":"function","name":"safeTransferFrom","inputs":[{"name":"from_","type":"address","internalType":"address"},{"name":"to_","type":"address","internalType":"address"},{"name":"id_","type":"uint256","internalType":"uint256"}],"outputs":[],"stateMutability":"nonpayable"},{"type":"function","name":"safeTransferFrom","inputs":[{"name":"from_","type":"address","internalType":"address"},{"name":"to_","type":"address","internalType":"address"},{"name":"id_","type":"uint256","internalType":"uint256"},{"name":"data_","type":"bytes","internalType":"bytes"}],"outputs":[],"stateMutability":"nonpayable"},{"type":"function","name":"setApprovalForAll","inputs":[{"name":"operator_","type":"address","internalType":"address"},{"name":"approved_","type":"bool","internalType":"bool"}],"outputs":[],"stateMutability":"nonpayable"},{"type":"function","name":"setERC721TransferExempt","inputs":[{"name":"account_","type":"address","internalType":"address"},{"name":"value_","type":"bool","internalType":"bool"}],"outputs":[],"stateMutability":"nonpayable"},{"type":"function","name":"setSelfERC721TransferExempt","inputs":[{"name":"state_","type":"bool","internalType":"bool"}],"outputs":[],"stateMutability":"nonpayable"},{"type":"function","name":"supportsInterface","inputs":[{"name":"interfaceId","type":"bytes4","internalType":"bytes4"}],"outputs":[{"name":"","type":"bool","internalType":"bool"}],"stateMutability":"view"},{"type":"function","name":"symbol","inputs":[],"outputs":[{"name":"","type":"string","internalType":"string"}],"stateMutability":"view"},{"type":"function","name":"tokenURI","inputs":[{"name":"id_","type":"uint256","internalType":"uint256"}],"outputs":[{"name":"","type":"string","internalType":"string"}],"stateMutability":"pure"},{"type":"function","name":"totalSupply","inputs":[],"outputs":[{"name":"","type":"uint256","internalType":"uint256"}],"stateMutability":"view"},{"type":"function","name":"transfer","inputs":[{"name":"to_","type":"address","internalType":"address"},{"name":"value_","type":"uint256","internalType":"uint256"}],"outputs":[{"name":"","type":"bool","internalType":"bool"}],"stateMutability":"nonpayable"},{"type":"function","name":"transferFrom","inputs":[{"name":"from_","type":"address","internalType":"address"},{"name":"to_","type":"address","internalType":"address"},{"name":"valueOrId_","type":"uint256","internalType":"uint256"}],"outputs":[{"name":"","type":"bool","internalType":"bool"}],"stateMutability":"nonpayable"},{"type":"function","name":"transferOwnership","inputs":[{"name":"newOwner","type":"address","internalType":"address"}],"outputs":[],"stateMutability":"nonpayable"},{"type":"function","name":"units","inputs":[],"outputs":[{"name":"","type":"uint256","internalType":"uint256"}],"stateMutability":"view"},{"type":"function","name":"withdrawTokens","inputs":[{"name":"tokenId_","type":"uint256","internalType":"uint256"},{"name":"depositIndex_","type":"uint256","internalType":"uint256"}],"outputs":[],"stateMutability":"nonpayable"},{"type":"event","name":"Approval","inputs":[{"name":"owner","type":"address","indexed":true,"internalType":"address"},{"name":"spender","type":"address","indexed":true,"internalType":"address"},{"name":"value","type":"uint256","indexed":false,"internalType":"uint256"}],"anonymous":false},{"type":"event","name":"Approval","inputs":[{"name":"owner","type":"address","indexed":true,"internalType":"address"},{"name":"spender","type":"address","indexed":true,"internalType":"address"},{"name":"id","type":"uint256","indexed":true,"internalType":"uint256"}],"anonymous":false},{"type":"event","name":"ApprovalForAll","inputs":[{"name":"owner","type":"address","indexed":true,"internalType":"address"},{"name":"operator","type":"address","indexed":true,"internalType":"address"},{"name":"approved","type":"bool","indexed":false,"internalType":"bool"}],"anonymous":false},{"type":"event","name":"OwnershipTransferred","inputs":[{"name":"previousOwner","type":"address","indexed":true,"internalType":"address"},{"name":"newOwner","type":"address","indexed":true,"internalType":"address"}],"anonymous":false},{"type":"event","name":"TokensDeposited","inputs":[{"name":"tokenId","type":"uint256","indexed":true,"internalType":"uint256"},{"name":"tokenAddress","type":"address","indexed":true,"internalType":"address"},{"name":"amount","type":"uint256","indexed":false,"internalType":"uint256"}],"anonymous":false},{"type":"event","name":"TokensWithdrawn","inputs":[{"name":"tokenId","type":"uint256","indexed":true,"internalType":"uint256"},{"name":"tokenAddress","type":"address","indexed":true,"internalType":"address"},{"name":"amount","type":"uint256","indexed":false,"internalType":"uint256"}],"anonymous":false},{"type":"event","name":"Transfer","inputs":[{"name":"from","type":"address","indexed":true,"internalType":"address"},{"name":"to","type":"address","indexed":true,"internalType":"address"},{"name":"amount","type":"uint256","indexed":false,"internalType":"uint256"}],"anonymous":false},{"type":"event","name":"Transfer","inputs":[{"name":"from","type":"address","indexed":true,"internalType":"address"},{"name":"to","type":"address","indexed":true,"internalType":"address"},{"name":"id","type":"uint256","indexed":true,"internalType":"uint256"}],"anonymous":false},{"type":"error","name":"AlreadyExists","inputs":[]},{"type":"error","name":"DecimalsTooLow","inputs":[]},{"type":"error","name":"InsufficientAllowance","inputs":[]},{"type":"error","name":"InvalidAmount","inputs":[]},{"type":"error","name":"InvalidApproval","inputs":[]},{"type":"error","name":"InvalidExemption","inputs":[]},{"type":"error","name":"InvalidOperator","inputs":[]},{"type":"error","name":"InvalidRecipient","inputs":[]},{"type":"error","name":"InvalidSender","inputs":[]},{"type":"error","name":"InvalidSigner","inputs":[]},{"type":"error","name":"InvalidSpender","inputs":[]},{"type":"error","name":"InvalidTokenId","inputs":[]},{"type":"error","name":"MintLimitReached","inputs":[]},{"type":"error","name":"NotFound","inputs":[]},{"type":"error","name":"OwnableInvalidOwner","inputs":[{"name":"owner","type":"address","internalType":"address"}]},{"type":"error","name":"OwnableUnauthorizedAccount","inputs":[{"name":"account","type":"address","internalType":"address"}]},{"type":"error","name":"OwnedIndexOverflow","inputs":[]},{"type":"error","name":"PermitDeadlineExpired","inputs":[]},{"type":"error","name":"QueueEmpty","inputs":[]},{"type":"error","name":"QueueFull","inputs":[]},{"type":"error","name":"QueueOutOfBounds","inputs":[]},{"type":"error","name":"RecipientIsERC721TransferExempt","inputs":[]},{"type":"error","name":"Unauthorized","inputs":[]},{"type":"error","name":"UnsafeRecipient","inputs":[]}],"bytecode":{"object":"0x6101006040523480156200001257600080fd5b5060405162004e0738038062004e07833981016040819052620000359162001644565b80878787866001600160a01b0381166200006a57604051631e4fbdf760e01b8152600060048201526024015b60405180910390fd5b62000075816200021a565b50600662000084848262001790565b50600762000093838262001790565b5060128160ff161015620000ba576040516398790fd560e01b815260040160405180910390fd5b60ff81166080819052620000d090600a6200196f565b60a0524660c052620000e16200026a565b60e05250829150620000f7905081600162000306565b6000620001cd826001600160a01b031663c45a01556040518163ffffffff1660e01b8152600401602060405180830381865afa1580156200013c573d6000803e3d6000fd5b505050506040513d601f19601f8201168201806040525081019062000162919062001987565b836001600160a01b031663ad5c46486040518163ffffffff1660e01b8152600401602060405180830381865afa158015620001a1573d6000803e3d6000fd5b505050506040513d601f19601f82011682018060405250810190620001c7919062001987565b6200037c565b9050620001dc81600162000306565b505050620001f28260016200030660201b60201c565b6200020d8260a05186620002079190620019a5565b62000479565b5050505050505062001ad4565b600080546001600160a01b038381166001600160a01b0319831681178455604051919092169283917f8be0079c531659141344cd1fd0a4f28419497f9722a3daafe3b4186f6b6457e09190a35050565b60007f8b73c3c69bb8fe3d512ecc4cf759cc79239f7b179b0ffacaa9a75d522b39400f60066040516200029e9190620019bf565b6040805191829003822060208301939093528101919091527fc89efdaa54c0f20c7adf612882df0950f5a951637e0307cdcb4c672f298b8bc660608201524660808201523060a082015260c00160405160208183030381529060405280519060200120905090565b6001600160a01b0382166200032e5760405163a41e3d3f60e01b815260040160405180910390fd5b801562000346576200034082620004e9565b62000351565b620003518262000521565b6001600160a01b03919091166000908152601160205260409020805460ff1916911515919091179055565b60003081806001600160a01b03851683106200039a5784836200039d565b82855b6040516001600160601b0319606084811b8216602084015283901b1660348201529193509150869060480160405160208183030381529060405280519060200120604051602001620004549291907fff00000000000000000000000000000000000000000000000000000000000000815260609290921b6001600160601b031916600183015260158201527f96e8ac4277198ff8b6f785478aa9a39f403cb768dd02cbee326c3e7da348845f603582015260550190565b6040516020818303038152906040528051906020012060001c93505050505b92915050565b6001600160a01b038216620004a157604051634e46966960e11b815260040160405180910390fd5b600160ff1b81600854620004b6919062001a3d565b1115620004d65760405163303b682f60e01b815260040160405180910390fd5b620004e460008383620005ad565b505050565b6001600160a01b038116600090815260106020526040812054905b81811015620004e4576200051883620007b2565b60010162000504565b60a05160009062000547836001600160a01b03166000908152600b602052604090205490565b62000553919062001a53565b9050600062000577836001600160a01b031660009081526010602052604090205490565b905060005b62000588828462001a76565b811015620005a7576200059e8460018062000852565b6001016200057c565b50505050565b6001600160a01b038381166000908152600b6020526040808220549285168252812054909190620005e086868662000899565b6000620005ed876200094b565b90506000620005fc876200094b565b9050818015620006095750805b620007a45781156200069057600060a0518462000627919062001a53565b60a0516001600160a01b038a166000908152600b60205260409020546200064f919062001a53565b6200065b919062001a76565b905060005b8181101562000688576200067f8960a05160006200085260201b60201c565b60010162000660565b5050620007a4565b8015620006fd5760a0516001600160a01b0389166000908152600b60205260408120549091620006c09162001a53565b60a051620006cf908762001a53565b620006db919062001a76565b905060005b818110156200068857620006f48a620007b2565b600101620006e0565b600060a051876200070f919062001a53565b905060005b81811015620007a1576001600160a01b038a16600090815260106020526040812054620007449060019062001a76565b6001600160a01b038c166000908152601060205260408120805492935090918390811062000776576200077662001a8c565b90600052602060002001549050620007968c8c836200097e60201b60201c565b505060010162000714565b50505b506001979650505050505050565b6001600160a01b038116620007da57604051636edaef2f60e11b815260040160405180910390fd5b6001600160a01b03811660009081526010602052604081208054620008029060019062001a76565b8154811062000815576200081562001a8c565b90600052602060002001549050620008338162000b4c60201b60201c565b62000841826000836200097e565b6200084e60048262000bba565b5050565b6001600160a01b0383166200087a57604051634e46966960e11b815260040160405180910390fd5b80156200088d57620004e4838362000c25565b620004e4838362000d01565b6001600160a01b038316620008c8578060086000828254620008bc919062001a3d565b90915550620008f89050565b6001600160a01b0383166000908152600b602052604081208054839290620008f290849062001a76565b90915550505b6001600160a01b038083166000818152600b60205260409081902080548501905551909185169060008051602062004de7833981519152906200093e9085815260200190565b60405180910390a3505050565b60006001600160a01b0382161580620004735750506001600160a01b031660009081526011602052604090205460ff1690565b6200098b81848462000f69565b6000818152600f6020526040902080546001600160a01b0319166001600160a01b0384160190556001600160a01b0383161562000ab9576001600160a01b03831660009081526010602052604081208054620009ea9060019062001a76565b81548110620009fd57620009fd62001a8c565b6000918252602082200154915062000a24836000908152600f602052604090205460a01c90565b6001600160a01b0386166000908152601060205260409020805491925083918390811062000a565762000a5662001a8c565b60009182526020808320909101929092556001600160a01b038716815260109091526040902080548062000a8e5762000a8e62001aa2565b6001900381819060005260206000200160009055905562000ab682826200110d60201b60201c565b50505b6001600160a01b038216600081815260106020908152604082208054600181810183558285529284200185905592909152905462000b0591839162000aff919062001a76565b6200110d565b6000818152600d602052604080822080546001600160a01b03191690555182916001600160a01b03858116929087169160008051602062004de783398151915291a4505050565b6000818152600260205260409020541562000bb7576000818152600260205260408120805490919062000b835762000b8362001a8c565b600091825260208083206002928302016001015484845260038252604080852091909155919052812062000bb79162001519565b50565b81546001600160801b038082166000190191600160801b900481169082160362000bf757604051638acb5f2760e01b815260040160405180910390fd5b6001600160801b0316600081815260018401602052604090209190915581546001600160801b031916179055565b6004546001600160801b03808216600160801b909204161462000cfa5760008062000c696004546001600160801b03808216600160801b9092048116919091031690565b90505b8082101562000cf757600062000c8460048462001175565b600081815260036020526040902054909150848114801562000cac575062000cac82620011e2565b1562000ce05762000cbe6004620012a5565b5062000cca826200131b565b62000cd8600087846200097e565b505050505050565b8362000cec8162001ab8565b945050505062000c6c565b50505b6200084e82825b600060a0518262000d13919062001a53565b905060005b81811015620005a757600062000d42600454600160801b81046001600160801b0390811691161490565b62000ef85760008062000d6e6004546001600160801b03808216600160801b9092048116919091031690565b90505b808210801562000d7f575082155b1562000ef557600062000d9460048462001175565b60a05160008281526003602052604090205491925014801562000dbd575062000dbd81620011e2565b1562000edf578260000362000ddf5762000dd86004620012a5565b5062000ec1565b600162000e056004546001600160801b03808216600160801b9092048116919091031690565b62000e11919062001a76565b830362000e245762000dd86004620014a8565b600062000e4a6004546001600160801b03808216600160801b9092048116919091031690565b9050835b62000e5b60018362001a76565b81101562000eb157600062000e7f62000e7683600162001a3d565b60049062001175565b905062000e8d6004620014a8565b5062000e9b60048262000bba565b508062000ea88162001ab8565b91505062000e4e565b5062000ebe6004620014a8565b50505b62000ecc816200131b565b62000eda600089836200097e565b600193505b8262000eeb8162001ab8565b9350505062000d71565b50505b8062000f5f5760096000815462000f0f9062001ab8565b9091555060095460010162000f375760405163303b682f60e01b815260040160405180910390fd5b6000600954600160ff1b62000f4d919062001a3d565b905062000f5d600087836200097e565b505b5060010162000d18565b6000838152600260205260409020548015620005a757600084815260026020526040902062000f9a60018362001a76565b8154811062000fad5762000fad62001a8c565b600091825260208083206002928302015487845291905260409091206001600160a01b039091169085907f3f5fbaf86658fdadee77f1d46e7f8a72424ad9839eda6a1dc6eb0a4228e4226e906200100660018662001a76565b8154811062001019576200101962001a8c565b9060005260206000209060020201600101546040516200103b91815260200190565b60405180910390a360008481526002602052604090206200105e60018362001a76565b8154811062001071576200107162001a8c565b600091825260208083206002928302015487845291905260409091206001600160a01b039091169085907fb162210da7d23d82c18cff5af46d3562661d26b42a6848fa28d64a6bdc70386a90620010ca60018662001a76565b81548110620010dd57620010dd62001a8c565b906000526020600020906002020160010154604051620010ff91815260200190565b60405180910390a350505050565b6000828152600f60205260409020546001600160601b038211156200114557604051633f2cd0e360e21b815260040160405180910390fd5b6000928352600f60205260409092206001600160a01b039290921660a09190911b6001600160a01b031916019055565b60006200119a83546001600160801b03808216600160801b9092048116919091031690565b8210620011ba5760405163580821e760e01b815260040160405180910390fd5b5081546001600160801b03908116820116600090815260018301602052604090205492915050565b6000818152600a602052604081205460ff1615806200120d5750600082815260016020526040902054155b156200121b57506001919050565b60008281526001602090815260408083206002909252822080549192909190036200124a575060009392505050565b8160008154811062001260576200126062001a8c565b9060005260206000209060020201600101548160008154811062001288576200128862001a8c565b906000526020600020906002020160010154101592505050919050565b80546000906001600160801b0380821691600160801b9004168103620012de576040516375e52f4f60e01b815260040160405180910390fd5b6001600160801b038181166000908152600185810160205260408220805492905585546001600160801b0319169301909116919091179092555090565b6000818152600a602052604090205460ff16801562001347575060008181526001602052604090205415155b1562000bb7576200135881620011e2565b620013b25760405162461bcd60e51b8152602060048201526024808201527f496e73756666696369656e74206465706f7369747320746f20726573746f72656044820152630813919560e21b606482015260840162000061565b6000818152600260205260408120620013cb9162001519565b60005b60008281526001602052604090205481101562001476576000828152600260209081526040808320600190925290912080548390811062001413576200141362001a8c565b6000918252602080832084546001818101875595855291909320600292830290930180549190920290920180546001600160a01b0319166001600160a01b03909316929092178255820154910155806200146d8162001ab8565b915050620013ce565b506000818152600160205260408120620014909162001519565b6000908152600a60205260409020805460ff19169055565b80546000906001600160801b03600160801b8204811691168103620014e0576040516375e52f4f60e01b815260040160405180910390fd5b600019016001600160801b039081166000818152600185016020526040812080549190558454909216600160801b909102179092555090565b508054600082556002029060005260206000209081019062000bb791905b808211156200155e5780546001600160a01b03191681556000600182015560020162001537565b5090565b634e487b7160e01b600052604160045260246000fd5b600082601f8301126200158a57600080fd5b81516001600160401b0380821115620015a757620015a762001562565b604051601f8301601f19908116603f01168101908282118183101715620015d257620015d262001562565b81604052838152602092508683858801011115620015ef57600080fd5b600091505b83821015620016135785820183015181830184015290820190620015f4565b600093810190920192909252949350505050565b80516001600160a01b03811681146200163f57600080fd5b919050565b600080600080600080600060e0888a0312156200166057600080fd5b87516001600160401b03808211156200167857600080fd5b620016868b838c0162001578565b985060208a01519150808211156200169d57600080fd5b50620016ac8a828b0162001578565b965050604088015160ff81168114620016c457600080fd5b60608901519095509350620016dc6080890162001627565b9250620016ec60a0890162001627565b9150620016fc60c0890162001627565b905092959891949750929550565b600181811c908216806200171f57607f821691505b6020821081036200174057634e487b7160e01b600052602260045260246000fd5b50919050565b601f821115620004e457600081815260208120601f850160051c810160208610156200176f5750805b601f850160051c820191505b8181101562000cd8578281556001016200177b565b81516001600160401b03811115620017ac57620017ac62001562565b620017c481620017bd84546200170a565b8462001746565b602080601f831160018114620017fc5760008415620017e35750858301515b600019600386901b1c1916600185901b17855562000cd8565b600085815260208120601f198616915b828110156200182d578886015182559484019460019091019084016200180c565b50858210156200184c5787850151600019600388901b60f8161c191681555b5050505050600190811b01905550565b634e487b7160e01b600052601160045260246000fd5b600181815b80851115620018b35781600019048211156200189757620018976200185c565b80851615620018a557918102915b93841c939080029062001877565b509250929050565b600082620018cc5750600162000473565b81620018db5750600062000473565b8160018114620018f45760028114620018ff576200191f565b600191505062000473565b60ff8411156200191357620019136200185c565b50506001821b62000473565b5060208310610133831016604e8410600b841016171562001944575081810a62000473565b62001950838362001872565b80600019048211156200196757620019676200185c565b029392505050565b60006200198060ff841683620018bb565b9392505050565b6000602082840312156200199a57600080fd5b620019808262001627565b80820281158282048414176200047357620004736200185c565b6000808354620019cf816200170a565b60018281168015620019ea576001811462001a005762001a31565b60ff198416875282151583028701945062001a31565b8760005260208060002060005b8581101562001a285781548a82015290840190820162001a0d565b50505082870194505b50929695505050505050565b808201808211156200047357620004736200185c565b60008262001a7157634e487b7160e01b600052601260045260246000fd5b500490565b818103818111156200047357620004736200185c565b634e487b7160e01b600052603260045260246000fd5b634e487b7160e01b600052603160045260246000fd5b60006001820162001acd5762001acd6200185c565b5060010190565b60805160a05160c05160e05161329a62001b4d6000396000610a4c01526000610a1c0152600081816104a901528181611a6201528181611aa601528181611ae801528181611b4201528181611b6c01528181611bc0015281816120db01528181612598015261263101526000610392015261329a6000f3fe608060405234801561001057600080fd5b50600436106102745760003560e01c80638da5cb5b11610151578063c6e672b9116100c3578063dd63769911610087578063dd63769914610611578063dfabc03314610624578063e985e9c514610637578063f16ad51e14610665578063f2fde38b14610678578063f780bc1a1461068b57600080fd5b8063c6e672b91461059a578063c87b56dd146105ad578063d505accf146105c0578063d96ca0b9146105d3578063dd62ed3e146105e657600080fd5b8063b1ab931711610115578063b1ab9317146104f1578063b3f9ea3414610511578063b810217b1461053a578063b88d4fde1461056c578063ba7bd2aa1461057f578063c5ab3ba61461059257600080fd5b80638da5cb5b1461048b57806395d89b411461049c578063976a8435146104a4578063a22cb465146104cb578063a9059cbb146104de57600080fd5b80633644e515116101ea57806370a08231116101ae57806370a0823114610408578063715018a6146104285780637df1c3d8146104305780637ecebe001461045057806389fb4c66146104705780638a696e501461047857600080fd5b80633644e515146103c657806342842e0e146103ce5780634f02c420146103e15780636352211e146103ea5780636e8f624b146103fd57600080fd5b8063095ea7b31161023c578063095ea7b31461034357806309674eb01461035657806309f0ef651461035e57806318160ddd1461037157806323b872dd1461037a578063313ce5671461038d57600080fd5b8063015bf2641461027957806301ffc9a71461028e57806302519da3146102b657806306fdde03146102ed578063081812fc14610302575b600080fd5b61028c610287366004612bf6565b61069e565b005b6102a161029c366004612c41565b610846565b60405190151581526020015b60405180910390f35b6102df6102c4366004612c5e565b6001600160a01b03166000908152600b602052604090205490565b6040519081526020016102ad565b6102f561087d565b6040516102ad9190612cc9565b61032b610310366004612cdc565b600d602052600090815260409020546001600160a01b031681565b6040516001600160a01b0390911681526020016102ad565b6102a1610351366004612cf5565b61090b565b6102df610998565b6102a161036c366004612c5e565b6109a9565b6102df60085481565b6102a1610388366004612d1f565b6109db565b6103b47f000000000000000000000000000000000000000000000000000000000000000081565b60405160ff90911681526020016102ad565b6102df610a18565b61028c6103dc366004612d1f565b610a6e565b6102df60095481565b61032b6103f8366004612cdc565b610a8e565b6102df600160ff1b81565b6102df610416366004612c5e565b600b6020526000908152604090205481565b61028c610af8565b61044361043e366004612cdc565b610b0c565b6040516102ad9190612d4b565b6102df61045e366004612c5e565b60126020526000908152604090205481565b6008546102df565b61028c610486366004612db1565b610b94565b6000546001600160a01b031661032b565b6102f5610ba1565b6102df7f000000000000000000000000000000000000000000000000000000000000000081565b61028c6104d9366004612dce565b610bae565b6102a16104ec366004612cf5565b610c42565b6105046104ff366004612c5e565b610c76565b6040516102ad9190612e05565b6102df61051f366004612c5e565b6001600160a01b031660009081526010602052604090205490565b61054d610548366004612e49565b610ce2565b604080516001600160a01b0390931683526020830191909152016102ad565b61028c61057a366004612e81565b610d28565b61028c61058d366004612e49565b610e16565b6009546102df565b61028c6105a8366004612dce565b610fa9565b6102f56105bb366004612cdc565b610fbf565b61028c6105ce366004612f5d565b610ff0565b6102a16105e1366004612d1f565b611233565b6102df6105f4366004612fd0565b600c60209081526000928352604080842090915290825290205481565b61028c61061f366004612d1f565b6112f3565b61028c610632366004612cf5565b611429565b6102a1610645366004612fd0565b600e60209081526000928352604080842090915290825290205460ff1681565b61028c610673366004612e49565b6114ee565b61028c610686366004612c5e565b6116ab565b610504610699366004612e49565b6116e6565b6000838152600f60205260409020546001600160a01b03163381146106d5576040516282b42960e81b815260040160405180910390fd5b306001600160a01b0384160361075057336000908152600b60205260409020548211156107405760405162461bcd60e51b8152602060048201526014602482015273496e73756666696369656e742062616c616e636560601b60448201526064015b60405180910390fd5b61074b333084611783565b6107e7565b6040516323b872dd60e01b81523360048201523060248201526044810183905283906001600160a01b038216906323b872dd906064016020604051808303816000875af11580156107a5573d6000803e3d6000fd5b505050506040513d601f19601f820116820180604052508101906107c99190613003565b6107e55760405162461bcd60e51b815260040161073790613020565b505b50600092835260026020818152604080862081518083019092526001600160a01b0395861682528183019485528054600180820183559188529290962090519190920290910180546001600160a01b0319169190931617825551910155565b60006001600160e01b0319821663876f7f8760e01b148061087757506001600160e01b031982166301ffc9a760e01b145b92915050565b6006805461088a90613049565b80601f01602080910402602001604051908101604052809291908181526020018280546108b690613049565b80156109035780601f106108d857610100808354040283529160200191610903565b820191906000526020600020905b8154815290600101906020018083116108e657829003601f168201915b505050505081565b60006001600160a01b03831661093457604051635461585f60e01b815260040160405180910390fd5b336000818152600c602090815260408083206001600160a01b03881680855290835292819020869055518581529192917f8c5be1e5ebec7d5bd14f71427d1e84f3dd0314c0f7b2291e5b200ac8c7c3b925910160405180910390a350600192915050565b60006109a4600461183f565b905090565b60006001600160a01b03821615806108775750506001600160a01b031660009081526011602052604090205460ff1690565b60006109e68261185d565b156109fb576109f68484846112f3565b610a0d565b610a06848484611233565b9050610a11565b5060015b9392505050565b60007f00000000000000000000000000000000000000000000000000000000000000004614610a49576109a4611876565b507f000000000000000000000000000000000000000000000000000000000000000090565b610a8983838360405180602001604052806000815250610d28565b505050565b6000818152600f60205260409020546001600160a01b0316610aaf8261185d565b610acc576040516307ed98ed60e31b815260040160405180910390fd5b6001600160a01b038116610af35760405163c5723b5160e01b815260040160405180910390fd5b919050565b610b00611910565b610b0a600061193d565b565b606060026000838152602001908152602001600020805480602002602001604051908101604052809291908181526020016000905b82821015610b89576000848152602090819020604080518082019091526002850290910180546001600160a01b03168252600190810154828401529083529092019101610b41565b505050509050919050565b610b9e338261198d565b50565b6007805461088a90613049565b6001600160a01b038216610bd55760405163ccea9e6f60e01b815260040160405180910390fd5b336000818152600e602090815260408083206001600160a01b03871680855290835292819020805460ff191686151590811790915590519081529192917f17307eab39ab6107e8899845ad3d59bd9653f200f220920489ca2b5937696c3191015b60405180910390a35050565b60006001600160a01b038316610c6b57604051634e46966960e11b815260040160405180910390fd5b610a113384846119fc565b6001600160a01b038116600090815260106020908152604091829020805483518184028101840190945280845260609392830182828015610cd657602002820191906000526020600020905b815481526020019060010190808311610cc2575b50505050509050919050565b60026020528160005260406000208181548110610cfe57600080fd5b6000918252602090912060029091020180546001909101546001600160a01b039091169250905082565b610d318261185d565b610d4e576040516307ed98ed60e31b815260040160405180910390fd5b610d598484846109db565b506001600160a01b0383163b15801590610df25750604051630a85bd0160e11b808252906001600160a01b0385169063150b7a0290610da2903390899088908890600401613083565b6020604051808303816000875af1158015610dc1573d6000803e3d6000fd5b505050506040513d601f19601f82011682018060405250810190610de591906130c0565b6001600160e01b03191614155b15610e1057604051633da6393160e01b815260040160405180910390fd5b50505050565b6000828152600f60205260409020546001600160a01b0316338114610e4d576040516282b42960e81b815260040160405180910390fd5b6000838152600260205260409020548210610ea25760405162461bcd60e51b8152602060048201526015602482015274092dcecc2d8d2c840c8cae0dee6d2e840d2dcc8caf605b1b6044820152606401610737565b6000838152600260205260408120805484908110610ec257610ec26130dd565b6000918252602090912060029091020160018101548154919250906001600160a01b0316610ef08686611c79565b306001600160a01b03821603610f1057610f0b303384611783565b610fa1565b60405163a9059cbb60e01b81523360048201526024810183905281906001600160a01b0382169063a9059cbb906044016020604051808303816000875af1158015610f5f573d6000803e3d6000fd5b505050506040513d601f19601f82011682018060405250810190610f839190613003565b610f9f5760405162461bcd60e51b815260040161073790613020565b505b505050505050565b610fb1611910565b610fbb828261198d565b5050565b6060610fca82611dc8565b604051602001610fda91906130f3565b6040516020818303038152906040529050919050565b42841015611011576040516305787bdf60e01b815260040160405180910390fd5b61101a8561185d565b15611038576040516303e7c1bd60e31b815260040160405180910390fd5b6001600160a01b03861661105f57604051635461585f60e01b815260040160405180910390fd5b6000600161106b610a18565b6001600160a01b038a811660008181526012602090815260409182902080546001810190915582517f6e71edae12b1b97f4d1f60370fef10105fa2faae0126114a169c64845d6126c98184015280840194909452938d166060840152608083018c905260a083019390935260c08083018b90528151808403909101815260e08301909152805192019190912061190160f01b6101008301526101028201929092526101228101919091526101420160408051601f198184030181528282528051602091820120600084529083018083525260ff871690820152606081018590526080810184905260a0016020604051602081039080840390855afa158015611177573d6000803e3d6000fd5b5050604051601f1901519150506001600160a01b03811615806111ac5750876001600160a01b0316816001600160a01b031614155b156111ca57604051632057875960e21b815260040160405180910390fd5b6001600160a01b039081166000908152600c602090815260408083208a8516808552908352928190208990555188815291928a16917f8c5be1e5ebec7d5bd14f71427d1e84f3dd0314c0f7b2291e5b200ac8c7c3b925910160405180910390a350505050505050565b60006001600160a01b03841661125c57604051636edaef2f60e11b815260040160405180910390fd5b6001600160a01b03831661128357604051634e46966960e11b815260040160405180910390fd5b6001600160a01b0384166000908152600c6020908152604080832033845290915290205460001981146112df576112ba838261314e565b6001600160a01b0386166000908152600c602090815260408083203384529091529020555b6112ea8585856119fc565b95945050505050565b6001600160a01b03831661131a57604051636edaef2f60e11b815260040160405180910390fd5b6001600160a01b03821661134157604051634e46966960e11b815260040160405180910390fd5b6000818152600f60205260409020546001600160a01b0384811691161461137a576040516282b42960e81b815260040160405180910390fd5b336001600160a01b038416148015906113b757506001600160a01b0383166000908152600e6020908152604080832033845290915290205460ff16155b80156113da57506000818152600d60205260409020546001600160a01b03163314155b156113f7576040516282b42960e81b815260040160405180910390fd5b611400826109a9565b1561141e57604051635ce7539760e01b815260040160405180910390fd5b610a89838383611e5b565b6000818152600f60205260409020546001600160a01b031633811480159061147557506001600160a01b0381166000908152600e6020908152604080832033845290915290205460ff16155b15611492576040516282b42960e81b815260040160405180910390fd5b6000828152600d602052604080822080546001600160a01b0319166001600160a01b0387811691821790925591518593918516917f8c5be1e5ebec7d5bd14f71427d1e84f3dd0314c0f7b2291e5b200ac8c7c3b92591a4505050565b6000828152600f60205260409020546001600160a01b031633146115465760405162461bcd60e51b815260206004820152600f60248201526e2737ba103a37b5b2b71037bbb732b960891b6044820152606401610737565b600081116115965760405162461bcd60e51b815260206004820152601d60248201527f416d6f756e74206d7573742062652067726561746572207468616e20300000006044820152606401610737565b600082815260026020526040812054900361160b5760008281526002602081815260408084208151808301909252308252818301868152815460018082018455928752939095209151929093020180546001600160a01b0319166001600160a01b039092169190911781559151910155611650565b6000828152600260205260408120805483929061162a5761162a6130dd565b9060005260206000209060020201600101600082825461164a9190613161565b90915550505b61165b333083612021565b6116775760405162461bcd60e51b815260040161073790613020565b604051818152309083907fb162210da7d23d82c18cff5af46d3562661d26b42a6848fa28d64a6bdc70386a90602001610c36565b6116b3611910565b6001600160a01b0381166116dd57604051631e4fbdf760e01b815260006004820152602401610737565b610b9e8161193d565b606060008267ffffffffffffffff81111561170357611703612e6b565b60405190808252806020026020018201604052801561172c578160200160208202803683370190505b509050835b61173b8486613161565b81101561177b5761174d600482612036565b82611758878461314e565b81518110611768576117686130dd565b6020908102919091010152600101611731565b509392505050565b6001600160a01b0383166117ae5780600860008282546117a39190613161565b909155506117dc9050565b6001600160a01b0383166000908152600b6020526040812080548392906117d690849061314e565b90915550505b6001600160a01b038083166000818152600b6020526040908190208054850190555190918516907fddf252ad1be2c89b69c2b068fc378daa952ba7f163c4a11628f55a4df523b3ef906118329085815260200190565b60405180910390a3505050565b546001600160801b03808216600160801b9092048116919091031690565b6000600160ff1b82118015610877575050600019141590565b60007f8b73c3c69bb8fe3d512ecc4cf759cc79239f7b179b0ffacaa9a75d522b39400f60066040516118a89190613174565b6040805191829003822060208301939093528101919091527fc89efdaa54c0f20c7adf612882df0950f5a951637e0307cdcb4c672f298b8bc660608201524660808201523060a082015260c00160405160208183030381529060405280519060200120905090565b6000546001600160a01b03163314610b0a5760405163118cdaa760e01b8152336004820152602401610737565b600080546001600160a01b038381166001600160a01b0319831681178455604051919092169283917f8be0079c531659141344cd1fd0a4f28419497f9722a3daafe3b4186f6b6457e09190a35050565b6001600160a01b0382166119b45760405163a41e3d3f60e01b815260040160405180910390fd5b80156119c8576119c382612088565b6119d1565b6119d1826120bc565b6001600160a01b03919091166000908152601160205260409020805460ff1916911515919091179055565b6001600160a01b038381166000908152600b6020526040808220549285168252812054909190611a2d868686611783565b6000611a38876109a9565b90506000611a45876109a9565b9050818015611a515750805b611c6b578115611b1d576000611a877f000000000000000000000000000000000000000000000000000000000000000085613213565b6001600160a01b0389166000908152600b6020526040902054611acb907f000000000000000000000000000000000000000000000000000000000000000090613213565b611ad5919061314e565b905060005b81811015611b1657611b0e897f0000000000000000000000000000000000000000000000000000000000000000600061214d565b600101611ada565b5050611c6b565b8015611bb9576001600160a01b0388166000908152600b6020526040812054611b67907f000000000000000000000000000000000000000000000000000000000000000090613213565b611b917f000000000000000000000000000000000000000000000000000000000000000087613213565b611b9b919061314e565b905060005b81811015611b1657611bb18a61218e565b600101611ba0565b6000611be57f000000000000000000000000000000000000000000000000000000000000000088613213565b905060005b81811015611c68576001600160a01b038a16600090815260106020526040812054611c179060019061314e565b6001600160a01b038c1660009081526010602052604081208054929350909183908110611c4657611c466130dd565b90600052602060002001549050611c5e8c8c83611e5b565b5050600101611bea565b50505b506001979650505050505050565b6000828152600260205260409020548110611cc65760405162461bcd60e51b815260206004820152600d60248201526c092dcecc2d8d2c840d2dcc8caf609b1b6044820152606401610737565b600082815260026020526040902054611ce19060019061314e565b8114611d7e5760008281526002602052604090208054611d039060019061314e565b81548110611d1357611d136130dd565b9060005260206000209060020201600260008481526020019081526020016000208281548110611d4557611d456130dd565b60009182526020909120825460029092020180546001600160a01b0319166001600160a01b039092169190911781556001918201549101555b6000828152600260205260409020805480611d9b57611d9b613235565b60008281526020812060026000199093019283020180546001600160a01b03191681556001015590555050565b60606000611dd583612218565b600101905060008167ffffffffffffffff811115611df557611df5612e6b565b6040519080825280601f01601f191660200182016040528015611e1f576020820181803683370190505b5090508181016020015b600019016f181899199a1a9b1b9c1cb0b131b232b360811b600a86061a8153600a8504945084611e2957509392505050565b611e668184846122f0565b6000818152600f6020526040902080546001600160a01b0319166001600160a01b0384160190556001600160a01b03831615611f81576001600160a01b03831660009081526010602052604081208054611ec29060019061314e565b81548110611ed257611ed26130dd565b906000526020600020015490506000611efa836000908152600f602052604090205460a01c90565b6001600160a01b03861660009081526010602052604090208054919250839183908110611f2957611f296130dd565b60009182526020808320909101929092556001600160a01b0387168152601090915260409020805480611f5e57611f5e613235565b60019003818190600052602060002001600090559055611f7e828261247d565b50505b6001600160a01b0382166000818152601060209081526040822080546001818101835582855292842001859055929091529054611fc9918391611fc4919061314e565b61247d565b6000818152600d602052604080822080546001600160a01b03191690555182916001600160a01b0385811692908716917fddf252ad1be2c89b69c2b068fc378daa952ba7f163c4a11628f55a4df523b3ef91a4505050565b600061202e8484846119fc565b949350505050565b60006120418361183f565b82106120605760405163580821e760e01b815260040160405180910390fd5b5081546001600160801b03908116820116600090815260018301602052604090205492915050565b6001600160a01b038116600090815260106020526040812054905b81811015610a89576120b48361218e565b6001016120a3565b6001600160a01b0381166000908152600b6020526040812054612100907f000000000000000000000000000000000000000000000000000000000000000090613213565b90506000612123836001600160a01b031660009081526010602052604090205490565b905060005b612132828461314e565b811015610e10576121458460018061214d565b600101612128565b6001600160a01b03831661217457604051634e46966960e11b815260040160405180910390fd5b801561218457610a8983836124e9565b610a898383612591565b6001600160a01b0381166121b557604051636edaef2f60e11b815260040160405180910390fd5b6001600160a01b038116600090815260106020526040812080546121db9060019061314e565b815481106121eb576121eb6130dd565b90600052602060002001549050612201816127af565b61220d82600083611e5b565b610fbb600482612814565b60008072184f03e93ff9f4daa797ed6e38ed64bf6a1f0160401b83106122575772184f03e93ff9f4daa797ed6e38ed64bf6a1f0160401b830492506040015b6d04ee2d6d415b85acef81000000008310612283576d04ee2d6d415b85acef8100000000830492506020015b662386f26fc1000083106122a157662386f26fc10000830492506010015b6305f5e10083106122b9576305f5e100830492506008015b61271083106122cd57612710830492506004015b606483106122df576064830492506002015b600a83106108775760010192915050565b6000838152600260205260409020548015610e1057600084815260026020526040902061231e60018361314e565b8154811061232e5761232e6130dd565b600091825260208083206002928302015487845291905260409091206001600160a01b039091169085907f3f5fbaf86658fdadee77f1d46e7f8a72424ad9839eda6a1dc6eb0a4228e4226e9061238560018661314e565b81548110612395576123956130dd565b9060005260206000209060020201600101546040516123b691815260200190565b60405180910390a360008481526002602052604090206123d760018361314e565b815481106123e7576123e76130dd565b600091825260208083206002928302015487845291905260409091206001600160a01b039091169085907fb162210da7d23d82c18cff5af46d3562661d26b42a6848fa28d64a6bdc70386a9061243e60018661314e565b8154811061244e5761244e6130dd565b90600052602060002090600202016001015460405161246f91815260200190565b60405180910390a350505050565b6000828152600f60205260409020546bffffffffffffffffffffffff8211156124b957604051633f2cd0e360e21b815260040160405180910390fd5b6000928352600f60205260409092206001600160a01b039290921660a09190911b6001600160a01b031916019055565b6004546001600160801b03808216600160801b909204161461258b57600080612512600461183f565b90505b8082101561258857600061252a600484612036565b600081815260036020526040902054909150848114801561254f575061254f8261287e565b156125745761255e6004612938565b50612568826129ad565b610fa160008784611e5b565b8361257e8161324b565b9450505050612515565b50505b610fbb82825b60006125bd7f000000000000000000000000000000000000000000000000000000000000000083613213565b905060005b81811015610e105760006125ea600454600160801b81046001600160801b0390811691161490565b612747576000806125fb600461183f565b90505b808210801561260b575082155b1561274457600061261d600484612036565b6000818152600360205260409020549091507f000000000000000000000000000000000000000000000000000000000000000014801561266157506126618161287e565b15612731578260000361267e576126786004612938565b50612717565b600161268a600461183f565b612694919061314e565b83036126a4576126786004612b29565b60006126b0600461183f565b9050835b6126bf60018361314e565b8110156127095760006126de6126d6836001613161565b600490612036565b90506126ea6004612b29565b506126f6600482612814565b50806127018161324b565b9150506126b4565b506127146004612b29565b50505b612720816129ad565b61272c60008983611e5b565b600193505b8261273b8161324b565b935050506125fe565b50505b806127a65760096000815461275b9061324b565b909155506009546001016127825760405163303b682f60e01b815260040160405180910390fd5b6000600954600160ff1b6127969190613161565b90506127a460008783611e5b565b505b506001016125c2565b60008181526002602052604090205415610b9e57600081815260026020526040812080549091906127e2576127e26130dd565b6000918252602080832060029283020160010154848452600382526040808520919091559190528120610b9e91612b99565b81546001600160801b038082166000190191600160801b900481169082160361285057604051638acb5f2760e01b815260040160405180910390fd5b6001600160801b0316600081815260018401602052604090209190915581546001600160801b031916179055565b6000818152600a602052604081205460ff1615806128a85750600082815260016020526040902054155b156128b557506001919050565b60008281526001602090815260408083206002909252822080549192909190036128e3575060009392505050565b816000815481106128f6576128f66130dd565b9060005260206000209060020201600101548160008154811061291b5761291b6130dd565b906000526020600020906002020160010154101592505050919050565b80546000906001600160801b0380821691600160801b9004168103612970576040516375e52f4f60e01b815260040160405180910390fd5b6001600160801b038181166000908152600185810160205260408220805492905585546001600160801b0319169301909116919091179092555090565b6000818152600a602052604090205460ff1680156129d8575060008181526001602052604090205415155b15610b9e576129e68161287e565b612a3e5760405162461bcd60e51b8152602060048201526024808201527f496e73756666696369656e74206465706f7369747320746f20726573746f72656044820152630813919560e21b6064820152608401610737565b6000818152600260205260408120612a5591612b99565b60005b600082815260016020526040902054811015612af95760008281526002602090815260408083206001909252909120805483908110612a9957612a996130dd565b6000918252602080832084546001818101875595855291909320600292830290930180549190920290920180546001600160a01b0319166001600160a01b0390931692909217825582015491015580612af18161324b565b915050612a58565b506000818152600160205260408120612b1191612b99565b6000908152600a60205260409020805460ff19169055565b80546000906001600160801b03600160801b8204811691168103612b60576040516375e52f4f60e01b815260040160405180910390fd5b600019016001600160801b039081166000818152600185016020526040812080549190558454909216600160801b909102179092555090565b5080546000825560020290600052602060002090810190610b9e91905b80821115612bdb5780546001600160a01b031916815560006001820155600201612bb6565b5090565b80356001600160a01b0381168114610af357600080fd5b600080600060608486031215612c0b57600080fd5b83359250612c1b60208501612bdf565b9150604084013590509250925092565b6001600160e01b031981168114610b9e57600080fd5b600060208284031215612c5357600080fd5b8135610a1181612c2b565b600060208284031215612c7057600080fd5b610a1182612bdf565b60005b83811015612c94578181015183820152602001612c7c565b50506000910152565b60008151808452612cb5816020860160208601612c79565b601f01601f19169290920160200192915050565b602081526000610a116020830184612c9d565b600060208284031215612cee57600080fd5b5035919050565b60008060408385031215612d0857600080fd5b612d1183612bdf565b946020939093013593505050565b600080600060608486031215612d3457600080fd5b612d3d84612bdf565b9250612c1b60208501612bdf565b602080825282518282018190526000919060409081850190868401855b82811015612d9657815180516001600160a01b03168552860151868501529284019290850190600101612d68565b5091979650505050505050565b8015158114610b9e57600080fd5b600060208284031215612dc357600080fd5b8135610a1181612da3565b60008060408385031215612de157600080fd5b612dea83612bdf565b91506020830135612dfa81612da3565b809150509250929050565b6020808252825182820181905260009190848201906040850190845b81811015612e3d57835183529284019291840191600101612e21565b50909695505050505050565b60008060408385031215612e5c57600080fd5b50508035926020909101359150565b634e487b7160e01b600052604160045260246000fd5b60008060008060808587031215612e9757600080fd5b612ea085612bdf565b9350612eae60208601612bdf565b925060408501359150606085013567ffffffffffffffff80821115612ed257600080fd5b818701915087601f830112612ee657600080fd5b813581811115612ef857612ef8612e6b565b604051601f8201601f19908116603f01168101908382118183101715612f2057612f20612e6b565b816040528281528a6020848701011115612f3957600080fd5b82602086016020830137600060208483010152809550505050505092959194509250565b600080600080600080600060e0888a031215612f7857600080fd5b612f8188612bdf565b9650612f8f60208901612bdf565b95506040880135945060608801359350608088013560ff81168114612fb357600080fd5b9699959850939692959460a0840135945060c09093013592915050565b60008060408385031215612fe357600080fd5b612fec83612bdf565b9150612ffa60208401612bdf565b90509250929050565b60006020828403121561301557600080fd5b8151610a1181612da3565b6020808252600f908201526e151c985b9cd9995c8819985a5b1959608a1b604082015260600190565b600181811c9082168061305d57607f821691505b60208210810361307d57634e487b7160e01b600052602260045260246000fd5b50919050565b6001600160a01b03858116825284166020820152604081018390526080606082018190526000906130b690830184612c9d565b9695505050505050565b6000602082840312156130d257600080fd5b8151610a1181612c2b565b634e487b7160e01b600052603260045260246000fd5b7f68747470733a2f2f6578616d706c652e636f6d2f746f6b656e2f00000000000081526000825161312b81601a850160208701612c79565b91909101601a0192915050565b634e487b7160e01b600052601160045260246000fd5b8181038181111561087757610877613138565b8082018082111561087757610877613138565b600080835481600182811c91508083168061319057607f831692505b602080841082036131af57634e487b7160e01b86526022600452602486fd5b8180156131c357600181146131d857613205565b60ff1986168952841515850289019650613205565b60008a81526020902060005b868110156131fd5781548b8201529085019083016131e4565b505084890196505b509498975050505050505050565b60008261323057634e487b7160e01b600052601260045260246000fd5b500490565b634e487b7160e01b600052603160045260246000fd5b60006001820161325d5761325d613138565b506001019056fea26469706673582212208e77495009cd6a2434bc60e95f472319555def1d2794ea98ae2f2fb1b095c33864736f6c63430008140033ddf252ad1be2c89b69c2b068fc378daa952ba7f163c4a11628f55a4df523b3ef","linkReferences":{}},"methodIdentifiers":{"DOMAIN_SEPARATOR()":"3644e515","ID_ENCODING_PREFIX()":"6e8f624b","_tokenDeposits(uint256,uint256)":"b810217b","allowance(address,address)":"dd62ed3e","approve(address,uint256)":"095ea7b3","balanceOf(address)":"70a08231","decimals()":"313ce567","depositTokens(uint256,address,uint256)":"015bf264","depositTokens(uint256,uint256)":"f16ad51e","erc20BalanceOf(address)":"02519da3","erc20TotalSupply()":"89fb4c66","erc20TransferFrom(address,address,uint256)":"d96ca0b9","erc721Approve(address,uint256)":"dfabc033","erc721BalanceOf(address)":"b3f9ea34","erc721TotalSupply()":"c5ab3ba6","erc721TransferExempt(address)":"09f0ef65","erc721TransferFrom(address,address,uint256)":"dd637699","getApproved(uint256)":"081812fc","getERC721QueueLength()":"09674eb0","getERC721TokensInQueue(uint256,uint256)":"f780bc1a","getTokenDeposits(uint256)":"7df1c3d8","isApprovedForAll(address,address)":"e985e9c5","minted()":"4f02c420","name()":"06fdde03","nonces(address)":"7ecebe00","owned(address)":"b1ab9317","owner()":"8da5cb5b","ownerOf(uint256)":"6352211e","permit(address,address,uint256,uint256,uint8,bytes32,bytes32)":"d505accf","renounceOwnership()":"715018a6","safeTransferFrom(address,address,uint256)":"42842e0e","safeTransferFrom(address,address,uint256,bytes)":"b88d4fde","setApprovalForAll(address,bool)":"a22cb465","setERC721TransferExempt(address,bool)":"c6e672b9","setSelfERC721TransferExempt(bool)":"8a696e50","supportsInterface(bytes4)":"01ffc9a7","symbol()":"95d89b41","tokenURI(uint256)":"c87b56dd","totalSupply()":"18160ddd","transfer(address,uint256)":"a9059cbb","transferFrom(address,address,uint256)":"23b872dd","transferOwnership(address)":"f2fde38b","units()":"976a8435","withdrawTokens(uint256,uint256)":"ba7bd2aa"},"id":3}