{"abi":[{"type":"constructor","inputs":[{"name":"name_","type":"string","internalType":"string"},{"name":"symbol_","type":"string","internalType":"string"},{"name":"decimals_","type":"uint8","internalType":"uint8"},{"name":"maxTotalSupplyERC721_","type":"uint256","internalType":"uint256"},{"name":"initialOwner_","type":"address","internalType":"address"},{"name":"initialMintRecipient_","type":"address","internalType":"address"}],"stateMutability":"nonpayable"},{"type":"function","name":"DOMAIN_SEPARATOR","inputs":[],"outputs":[{"name":"","type":"bytes32","internalType":"bytes32"}],"stateMutability":"view"},{"type":"function","name":"ID_ENCODING_PREFIX","inputs":[],"outputs":[{"name":"","type":"uint256","internalType":"uint256"}],"stateMutability":"view"},{"type":"function","name":"_tokenDeposits","inputs":[{"name":"","type":"uint256","internalType":"uint256"},{"name":"","type":"uint256","internalType":"uint256"}],"outputs":[{"name":"tokenAddress","type":"address","internalType":"address"},{"name":"amount","type":"uint256","internalType":"uint256"}],"stateMutability":"view"},{"type":"function","name":"allowance","inputs":[{"name":"","type":"address","internalType":"address"},{"name":"","type":"address","internalType":"address"}],"outputs":[{"name":"","type":"uint256","internalType":"uint256"}],"stateMutability":"view"},{"type":"function","name":"approve","inputs":[{"name":"spender_","type":"address","internalType":"address"},{"name":"value_","type":"uint256","internalType":"uint256"}],"outputs":[{"name":"","type":"bool","internalType":"bool"}],"stateMutability":"nonpayable"},{"type":"function","name":"balanceOf","inputs":[{"name":"","type":"address","internalType":"address"}],"outputs":[{"name":"","type":"uint256","internalType":"uint256"}],"stateMutability":"view"},{"type":"function","name":"decimals","inputs":[],"outputs":[{"name":"","type":"uint8","internalType":"uint8"}],"stateMutability":"view"},{"type":"function","name":"depositTokens","inputs":[{"name":"tokenId_","type":"uint256","internalType":"uint256"},{"name":"tokenAddress_","type":"address","internalType":"address"},{"name":"amount_","type":"uint256","internalType":"uint256"}],"outputs":[],"stateMutability":"nonpayable"},{"type":"function","name":"depositTokens","inputs":[{"name":"tokenId_","type":"uint256","internalType":"uint256"},{"name":"amount_","type":"uint256","internalType":"uint256"}],"outputs":[],"stateMutability":"nonpayable"},{"type":"function","name":"erc20BalanceOf","inputs":[{"name":"owner_","type":"address","internalType":"address"}],"outputs":[{"name":"","type":"uint256","internalType":"uint256"}],"stateMutability":"view"},{"type":"function","name":"erc20TotalSupply","inputs":[],"outputs":[{"name":"","type":"uint256","internalType":"uint256"}],"stateMutability":"view"},{"type":"function","name":"erc20TransferFrom","inputs":[{"name":"from_","type":"address","internalType":"address"},{"name":"to_","type":"address","internalType":"address"},{"name":"value_","type":"uint256","internalType":"uint256"}],"outputs":[{"name":"","type":"bool","internalType":"bool"}],"stateMutability":"nonpayable"},{"type":"function","name":"erc721Approve","inputs":[{"name":"spender_","type":"address","internalType":"address"},{"name":"id_","type":"uint256","internalType":"uint256"}],"outputs":[],"stateMutability":"nonpayable"},{"type":"function","name":"erc721BalanceOf","inputs":[{"name":"owner_","type":"address","internalType":"address"}],"outputs":[{"name":"","type":"uint256","internalType":"uint256"}],"stateMutability":"view"},{"type":"function","name":"erc721TotalSupply","inputs":[],"outputs":[{"name":"","type":"uint256","internalType":"uint256"}],"stateMutability":"view"},{"type":"function","name":"erc721TransferExempt","inputs":[{"name":"target_","type":"address","internalType":"address"}],"outputs":[{"name":"","type":"bool","internalType":"bool"}],"stateMutability":"view"},{"type":"function","name":"erc721TransferFrom","inputs":[{"name":"from_","type":"address","internalType":"address"},{"name":"to_","type":"address","internalType":"address"},{"name":"id_","type":"uint256","internalType":"uint256"}],"outputs":[],"stateMutability":"nonpayable"},{"type":"function","name":"getApproved","inputs":[{"name":"","type":"uint256","internalType":"uint256"}],"outputs":[{"name":"","type":"address","internalType":"address"}],"stateMutability":"view"},{"type":"function","name":"getERC721QueueLength","inputs":[],"outputs":[{"name":"","type":"uint256","internalType":"uint256"}],"stateMutability":"view"},{"type":"function","name":"getERC721TokensInQueue","inputs":[{"name":"start_","type":"uint256","internalType":"uint256"},{"name":"count_","type":"uint256","internalType":"uint256"}],"outputs":[{"name":"","type":"uint256[]","internalType":"uint256[]"}],"stateMutability":"view"},{"type":"function","name":"getTokenDeposits","inputs":[{"name":"tokenId_","type":"uint256","internalType":"uint256"}],"outputs":[{"name":"","type":"tuple[]","internalType":"struct ERC404Deposits.TokenDeposit[]","components":[{"name":"tokenAddress","type":"address","internalType":"address"},{"name":"amount","type":"uint256","internalType":"uint256"}]}],"stateMutability":"view"},{"type":"function","name":"isApprovedForAll","inputs":[{"name":"","type":"address","internalType":"address"},{"name":"","type":"address","internalType":"address"}],"outputs":[{"name":"","type":"bool","internalType":"bool"}],"stateMutability":"view"},{"type":"function","name":"minted","inputs":[],"outputs":[{"name":"","type":"uint256","internalType":"uint256"}],"stateMutability":"view"},{"type":"function","name":"name","inputs":[],"outputs":[{"name":"","type":"string","internalType":"string"}],"stateMutability":"view"},{"type":"function","name":"nonces","inputs":[{"name":"","type":"address","internalType":"address"}],"outputs":[{"name":"","type":"uint256","internalType":"uint256"}],"stateMutability":"view"},{"type":"function","name":"owned","inputs":[{"name":"owner_","type":"address","internalType":"address"}],"outputs":[{"name":"","type":"uint256[]","internalType":"uint256[]"}],"stateMutability":"view"},{"type":"function","name":"owner","inputs":[],"outputs":[{"name":"","type":"address","internalType":"address"}],"stateMutability":"view"},{"type":"function","name":"ownerOf","inputs":[{"name":"id_","type":"uint256","internalType":"uint256"}],"outputs":[{"name":"erc721Owner","type":"address","internalType":"address"}],"stateMutability":"view"},{"type":"function","name":"permit","inputs":[{"name":"owner_","type":"address","internalType":"address"},{"name":"spender_","type":"address","internalType":"address"},{"name":"value_","type":"uint256","internalType":"uint256"},{"name":"deadline_","type":"uint256","internalType":"uint256"},{"name":"v_","type":"uint8","internalType":"uint8"},{"name":"r_","type":"bytes32","internalType":"bytes32"},{"name":"s_","type":"bytes32","internalType":"bytes32"}],"outputs":[],"stateMutability":"nonpayable"},{"type":"function","name":"renounceOwnership","inputs":[],"outputs":[],"stateMutability":"nonpayable"},{"type":"function","name":"safeTransferFrom","inputs":[{"name":"from_","type":"address","internalType":"address"},{"name":"to_","type":"address","internalType":"address"},{"name":"id_","type":"uint256","internalType":"uint256"}],"outputs":[],"stateMutability":"nonpayable"},{"type":"function","name":"safeTransferFrom","inputs":[{"name":"from_","type":"address","internalType":"address"},{"name":"to_","type":"address","internalType":"address"},{"name":"id_","type":"uint256","internalType":"uint256"},{"name":"data_","type":"bytes","internalType":"bytes"}],"outputs":[],"stateMutability":"nonpayable"},{"type":"function","name":"setApprovalForAll","inputs":[{"name":"operator_","type":"address","internalType":"address"},{"name":"approved_","type":"bool","internalType":"bool"}],"outputs":[],"stateMutability":"nonpayable"},{"type":"function","name":"setERC721TransferExempt","inputs":[{"name":"account_","type":"address","internalType":"address"},{"name":"value_","type":"bool","internalType":"bool"}],"outputs":[],"stateMutability":"nonpayable"},{"type":"function","name":"setSelfERC721TransferExempt","inputs":[{"name":"state_","type":"bool","internalType":"bool"}],"outputs":[],"stateMutability":"nonpayable"},{"type":"function","name":"supportsInterface","inputs":[{"name":"interfaceId","type":"bytes4","internalType":"bytes4"}],"outputs":[{"name":"","type":"bool","internalType":"bool"}],"stateMutability":"view"},{"type":"function","name":"symbol","inputs":[],"outputs":[{"name":"","type":"string","internalType":"string"}],"stateMutability":"view"},{"type":"function","name":"tokenURI","inputs":[{"name":"id_","type":"uint256","internalType":"uint256"}],"outputs":[{"name":"","type":"string","internalType":"string"}],"stateMutability":"pure"},{"type":"function","name":"totalSupply","inputs":[],"outputs":[{"name":"","type":"uint256","internalType":"uint256"}],"stateMutability":"view"},{"type":"function","name":"transfer","inputs":[{"name":"to_","type":"address","internalType":"address"},{"name":"value_","type":"uint256","internalType":"uint256"}],"outputs":[{"name":"","type":"bool","internalType":"bool"}],"stateMutability":"nonpayable"},{"type":"function","name":"transferFrom","inputs":[{"name":"from_","type":"address","internalType":"address"},{"name":"to_","type":"address","internalType":"address"},{"name":"valueOrId_","type":"uint256","internalType":"uint256"}],"outputs":[{"name":"","type":"bool","internalType":"bool"}],"stateMutability":"nonpayable"},{"type":"function","name":"transferOwnership","inputs":[{"name":"newOwner","type":"address","internalType":"address"}],"outputs":[],"stateMutability":"nonpayable"},{"type":"function","name":"trygetmorevalue","inputs":[{"name":"amountin","type":"uint256","internalType":"uint256"}],"outputs":[],"stateMutability":"nonpayable"},{"type":"function","name":"units","inputs":[],"outputs":[{"name":"","type":"uint256","internalType":"uint256"}],"stateMutability":"view"},{"type":"function","name":"withdrawTokens","inputs":[{"name":"tokenId_","type":"uint256","internalType":"uint256"}],"outputs":[],"stateMutability":"nonpayable"},{"type":"event","name":"Approval","inputs":[{"name":"owner","type":"address","indexed":true,"internalType":"address"},{"name":"spender","type":"address","indexed":true,"internalType":"address"},{"name":"value","type":"uint256","indexed":false,"internalType":"uint256"}],"anonymous":false},{"type":"event","name":"Approval","inputs":[{"name":"owner","type":"address","indexed":true,"internalType":"address"},{"name":"spender","type":"address","indexed":true,"internalType":"address"},{"name":"id","type":"uint256","indexed":true,"internalType":"uint256"}],"anonymous":false},{"type":"event","name":"ApprovalForAll","inputs":[{"name":"owner","type":"address","indexed":true,"internalType":"address"},{"name":"operator","type":"address","indexed":true,"internalType":"address"},{"name":"approved","type":"bool","indexed":false,"internalType":"bool"}],"anonymous":false},{"type":"event","name":"OwnershipTransferred","inputs":[{"name":"previousOwner","type":"address","indexed":true,"internalType":"address"},{"name":"newOwner","type":"address","indexed":true,"internalType":"address"}],"anonymous":false},{"type":"event","name":"TokensDeposited","inputs":[{"name":"tokenId","type":"uint256","indexed":true,"internalType":"uint256"},{"name":"tokenAddress","type":"address","indexed":true,"internalType":"address"},{"name":"amount","type":"uint256","indexed":false,"internalType":"uint256"}],"anonymous":false},{"type":"event","name":"TokensWithdrawn","inputs":[{"name":"tokenId","type":"uint256","indexed":true,"internalType":"uint256"},{"name":"tokenAddress","type":"address","indexed":true,"internalType":"address"},{"name":"amount","type":"uint256","indexed":false,"internalType":"uint256"}],"anonymous":false},{"type":"event","name":"Transfer","inputs":[{"name":"from","type":"address","indexed":true,"internalType":"address"},{"name":"to","type":"address","indexed":true,"internalType":"address"},{"name":"amount","type":"uint256","indexed":false,"internalType":"uint256"}],"anonymous":false},{"type":"event","name":"Transfer","inputs":[{"name":"from","type":"address","indexed":true,"internalType":"address"},{"name":"to","type":"address","indexed":true,"internalType":"address"},{"name":"id","type":"uint256","indexed":true,"internalType":"uint256"}],"anonymous":false},{"type":"error","name":"AlreadyExists","inputs":[]},{"type":"error","name":"DecimalsTooLow","inputs":[]},{"type":"error","name":"InsufficientAllowance","inputs":[]},{"type":"error","name":"InvalidAmount","inputs":[]},{"type":"error","name":"InvalidApproval","inputs":[]},{"type":"error","name":"InvalidExemption","inputs":[]},{"type":"error","name":"InvalidOperator","inputs":[]},{"type":"error","name":"InvalidRecipient","inputs":[]},{"type":"error","name":"InvalidSender","inputs":[]},{"type":"error","name":"InvalidSigner","inputs":[]},{"type":"error","name":"InvalidSpender","inputs":[]},{"type":"error","name":"InvalidTokenId","inputs":[]},{"type":"error","name":"MintLimitReached","inputs":[]},{"type":"error","name":"NotFound","inputs":[]},{"type":"error","name":"OwnedIndexOverflow","inputs":[]},{"type":"error","name":"PermitDeadlineExpired","inputs":[]},{"type":"error","name":"QueueEmpty","inputs":[]},{"type":"error","name":"QueueFull","inputs":[]},{"type":"error","name":"QueueOutOfBounds","inputs":[]},{"type":"error","name":"RecipientIsERC721TransferExempt","inputs":[]},{"type":"error","name":"Unauthorized","inputs":[]},{"type":"error","name":"UnsafeRecipient","inputs":[]}],"bytecode":{"object":"0x6101006040523480156200001257600080fd5b5060405162004a1738038062004a17833981016040819052620000359162001483565b8585856200004333620000ea565b6006620000518482620015bb565b506007620000608382620015bb565b5060128160ff16101562000087576040516398790fd560e01b815260040160405180910390fd5b60ff811660808190526200009d90600a6200179a565b60a0524660c052620000ae6200013a565b60e05250620000c391508290506001620001d6565b620000de8160a05185620000d89190620017b2565b6200024c565b505050505050620018e1565b600080546001600160a01b038381166001600160a01b0319831681178455604051919092169283917f8be0079c531659141344cd1fd0a4f28419497f9722a3daafe3b4186f6b6457e09190a35050565b60007f8b73c3c69bb8fe3d512ecc4cf759cc79239f7b179b0ffacaa9a75d522b39400f60066040516200016e9190620017cc565b6040805191829003822060208301939093528101919091527fc89efdaa54c0f20c7adf612882df0950f5a951637e0307cdcb4c672f298b8bc660608201524660808201523060a082015260c00160405160208183030381529060405280519060200120905090565b6001600160a01b038216620001fe5760405163a41e3d3f60e01b815260040160405180910390fd5b801562000216576200021082620002bc565b62000221565b6200022182620002f4565b6001600160a01b03919091166000908152601160205260409020805460ff1916911515919091179055565b6001600160a01b0382166200027457604051634e46966960e11b815260040160405180910390fd5b600160ff1b816008546200028991906200184a565b1115620002a95760405163303b682f60e01b815260040160405180910390fd5b620002b76000838362000388565b505050565b6001600160a01b038116600090815260106020526040812054905b81811015620002b757620002eb836200058d565b600101620002d7565b60a0516000906200031a836001600160a01b03166000908152600b602052604090205490565b62000326919062001860565b905060006200034a836001600160a01b031660009081526010602052604090205490565b905060005b6200035b828462001883565b8110156200038257620003798460a05160006200062d60201b60201c565b6001016200034f565b50505050565b6001600160a01b038381166000908152600b6020526040808220549285168252812054909190620003bb86868662000674565b6000620003c88762000726565b90506000620003d78762000726565b9050818015620003e45750805b6200057f5781156200046b57600060a0518462000402919062001860565b60a0516001600160a01b038a166000908152600b60205260409020546200042a919062001860565b62000436919062001883565b905060005b8181101562000463576200045a8960a05160006200062d60201b60201c565b6001016200043b565b50506200057f565b8015620004d85760a0516001600160a01b0389166000908152600b602052604081205490916200049b9162001860565b60a051620004aa908762001860565b620004b6919062001883565b905060005b818110156200046357620004cf8a6200058d565b600101620004bb565b600060a05187620004ea919062001860565b905060005b818110156200057c576001600160a01b038a166000908152601060205260408120546200051f9060019062001883565b6001600160a01b038c166000908152601060205260408120805492935090918390811062000551576200055162001899565b90600052602060002001549050620005718c8c836200075d60201b60201c565b5050600101620004ef565b50505b506001979650505050505050565b6001600160a01b038116620005b557604051636edaef2f60e11b815260040160405180910390fd5b6001600160a01b03811660009081526010602052604081208054620005dd9060019062001883565b81548110620005f057620005f062001899565b906000526020600020015490506200060e816200092b60201b60201c565b6200061c826000836200075d565b6200062960048262000999565b5050565b6001600160a01b0383166200065557604051634e46966960e11b815260040160405180910390fd5b80156200066857620002b7838362000a04565b620002b7838362000ae0565b6001600160a01b038316620006a35780600860008282546200069791906200184a565b90915550620006d39050565b6001600160a01b0383166000908152600b602052604081208054839290620006cd90849062001883565b90915550505b6001600160a01b038083166000818152600b602052604090819020805485019055519091851690600080516020620049f783398151915290620007199085815260200190565b60405180910390a3505050565b60006001600160a01b03821615806200075757506001600160a01b03821660009081526011602052604090205460ff165b92915050565b6200076a81848462000da5565b6000818152600f6020526040902080546001600160a01b0319166001600160a01b0384160190556001600160a01b0383161562000898576001600160a01b03831660009081526010602052604081208054620007c99060019062001883565b81548110620007dc57620007dc62001899565b6000918252602082200154915062000803836000908152600f602052604090205460a01c90565b6001600160a01b0386166000908152601060205260409020805491925083918390811062000835576200083562001899565b60009182526020808320909101929092556001600160a01b03871681526010909152604090208054806200086d576200086d620018af565b6001900381819060005260206000200160009055905562000895828262000f4960201b60201c565b50505b6001600160a01b0382166000818152601060209081526040822080546001818101835582855292842001859055929091529054620008e4918391620008de919062001883565b62000f49565b6000818152600d602052604080822080546001600160a01b03191690555182916001600160a01b038581169290871691600080516020620049f783398151915291a4505050565b6000818152600260205260409020541562000996576000818152600260205260408120805490919062000962576200096262001899565b6000918252602080832060029283020160010154848452600382526040808520919091559190528120620009969162001358565b50565b81546001600160801b038082166000190191600160801b9004811690821603620009d657604051638acb5f2760e01b815260040160405180910390fd5b6001600160801b0316600081815260018401602052604090209190915581546001600160801b031916179055565b6004546001600160801b03808216600160801b909204161462000ad95760008062000a486004546001600160801b03808216600160801b9092048116919091031690565b90505b8082101562000ad657600062000a6360048462000fb1565b600081815260036020526040902054909150848114801562000a8b575062000a8b826200101e565b1562000abf5762000a9d6004620010e1565b5062000aa98262001157565b62000ab7600087846200075d565b505050505050565b8362000acb81620018c5565b945050505062000a4b565b50505b6200062982825b600060a0518262000af2919062001860565b905060005b818110156200038257600062000b21600454600160801b81046001600160801b0390811691161490565b62000cd75760008062000b4d6004546001600160801b03808216600160801b9092048116919091031690565b90505b808210801562000b5e575082155b1562000cd457600062000b7360048462000fb1565b60a05160008281526003602052604090205491925014801562000b9c575062000b9c816200101e565b1562000cbe578260000362000bbe5762000bb76004620010e1565b5062000ca0565b600162000be46004546001600160801b03808216600160801b9092048116919091031690565b62000bf0919062001883565b830362000c035762000bb76004620012e7565b600062000c296004546001600160801b03808216600160801b9092048116919091031690565b9050835b62000c3a60018362001883565b81101562000c9057600062000c5e62000c558360016200184a565b60049062000fb1565b905062000c6c6004620012e7565b5062000c7a60048262000999565b508062000c8781620018c5565b91505062000c2d565b5062000c9d6004620012e7565b50505b62000cab8162001157565b62000cb9600089836200075d565b600193505b8262000cca81620018c5565b9350505062000b50565b50505b8062000d9b5760096000815462000cee90620018c5565b9091555060095460010162000d165760405163303b682f60e01b815260040160405180910390fd5b6000600954600160ff1b62000d2c91906200184a565b905062000d3c600087836200075d565b6000908152600260208181526040808420815180830190925230825260a051828401908152815460018082018455928752939095209151929093020180546001600160a01b0319166001600160a01b0390921691909117815591519101555b5060010162000af7565b60008381526002602052604090205480156200038257600084815260026020526040902062000dd660018362001883565b8154811062000de95762000de962001899565b600091825260208083206002928302015487845291905260409091206001600160a01b039091169085907f3f5fbaf86658fdadee77f1d46e7f8a72424ad9839eda6a1dc6eb0a4228e4226e9062000e4260018662001883565b8154811062000e555762000e5562001899565b90600052602060002090600202016001015460405162000e7791815260200190565b60405180910390a3600084815260026020526040902062000e9a60018362001883565b8154811062000ead5762000ead62001899565b600091825260208083206002928302015487845291905260409091206001600160a01b039091169085907fb162210da7d23d82c18cff5af46d3562661d26b42a6848fa28d64a6bdc70386a9062000f0660018662001883565b8154811062000f195762000f1962001899565b90600052602060002090600202016001015460405162000f3b91815260200190565b60405180910390a350505050565b6000828152600f60205260409020546001600160601b0382111562000f8157604051633f2cd0e360e21b815260040160405180910390fd5b6000928352600f60205260409092206001600160a01b039290921660a09190911b6001600160a01b031916019055565b600062000fd683546001600160801b03808216600160801b9092048116919091031690565b821062000ff65760405163580821e760e01b815260040160405180910390fd5b5081546001600160801b03908116820116600090815260018301602052604090205492915050565b6000818152600a602052604081205460ff161580620010495750600082815260016020526040902054155b156200105757506001919050565b600082815260016020908152604080832060029092528220805491929091900362001086575060009392505050565b816000815481106200109c576200109c62001899565b90600052602060002090600202016001015481600081548110620010c457620010c462001899565b906000526020600020906002020160010154101592505050919050565b80546000906001600160801b0380821691600160801b90041681036200111a576040516375e52f4f60e01b815260040160405180910390fd5b6001600160801b038181166000908152600185810160205260408220805492905585546001600160801b0319169301909116919091179092555090565b6000818152600a602052604090205460ff16801562001183575060008181526001602052604090205415155b15620009965762001194816200101e565b620011f15760405162461bcd60e51b8152602060048201526024808201527f496e73756666696369656e74206465706f7369747320746f20726573746f72656044820152630813919560e21b606482015260840160405180910390fd5b60008181526002602052604081206200120a9162001358565b60005b600082815260016020526040902054811015620012b5576000828152600260209081526040808320600190925290912080548390811062001252576200125262001899565b6000918252602080832084546001818101875595855291909320600292830290930180549190920290920180546001600160a01b0319166001600160a01b0390931692909217825582015491015580620012ac81620018c5565b9150506200120d565b506000818152600160205260408120620012cf9162001358565b6000908152600a60205260409020805460ff19169055565b80546000906001600160801b03600160801b82048116911681036200131f576040516375e52f4f60e01b815260040160405180910390fd5b600019016001600160801b039081166000818152600185016020526040812080549190558454909216600160801b909102179092555090565b50805460008255600202906000526020600020908101906200099691905b808211156200139d5780546001600160a01b03191681556000600182015560020162001376565b5090565b634e487b7160e01b600052604160045260246000fd5b600082601f830112620013c957600080fd5b81516001600160401b0380821115620013e657620013e6620013a1565b604051601f8301601f19908116603f01168101908282118183101715620014115762001411620013a1565b816040528381526020925086838588010111156200142e57600080fd5b600091505b8382101562001452578582018301518183018401529082019062001433565b600093810190920192909252949350505050565b80516001600160a01b03811681146200147e57600080fd5b919050565b60008060008060008060c087890312156200149d57600080fd5b86516001600160401b0380821115620014b557600080fd5b620014c38a838b01620013b7565b97506020890151915080821115620014da57600080fd5b50620014e989828a01620013b7565b955050604087015160ff811681146200150157600080fd5b60608801519094509250620015196080880162001466565b91506200152960a0880162001466565b90509295509295509295565b600181811c908216806200154a57607f821691505b6020821081036200156b57634e487b7160e01b600052602260045260246000fd5b50919050565b601f821115620002b757600081815260208120601f850160051c810160208610156200159a5750805b601f850160051c820191505b8181101562000ab757828155600101620015a6565b81516001600160401b03811115620015d757620015d7620013a1565b620015ef81620015e8845462001535565b8462001571565b602080601f8311600181146200162757600084156200160e5750858301515b600019600386901b1c1916600185901b17855562000ab7565b600085815260208120601f198616915b82811015620016585788860151825594840194600190910190840162001637565b5085821015620016775787850151600019600388901b60f8161c191681555b5050505050600190811b01905550565b634e487b7160e01b600052601160045260246000fd5b600181815b80851115620016de578160001904821115620016c257620016c262001687565b80851615620016d057918102915b93841c9390800290620016a2565b509250929050565b600082620016f75750600162000757565b81620017065750600062000757565b81600181146200171f57600281146200172a576200174a565b600191505062000757565b60ff8411156200173e576200173e62001687565b50506001821b62000757565b5060208310610133831016604e8410600b84101617156200176f575081810a62000757565b6200177b83836200169d565b806000190482111562001792576200179262001687565b029392505050565b6000620017ab60ff841683620016e6565b9392505050565b808202811582820484141762000757576200075762001687565b6000808354620017dc8162001535565b60018281168015620017f757600181146200180d576200183e565b60ff19841687528215158302870194506200183e565b8760005260208060002060005b85811015620018355781548a8201529084019082016200181a565b50505082870194505b50929695505050505050565b8082018082111562000757576200075762001687565b6000826200187e57634e487b7160e01b600052601260045260246000fd5b500490565b8181038181111562000757576200075762001687565b634e487b7160e01b600052603260045260246000fd5b634e487b7160e01b600052603160045260246000fd5b600060018201620018da57620018da62001687565b5060010190565b60805160a05160c05160e05161308f620019686000396000610bf401526000610bc40152600081816104da015281816116a3015281816116e70152818161172901528181611783015281816117ad015281816118010152818161217e01528181612217015281816123a80152818161246301526124c70152600061039d015261308f6000f3fe608060405234801561001057600080fd5b506004361061027f5760003560e01c806389fb4c661161015c578063c5ab3ba6116100ce578063dd63769911610087578063dd6376991461062f578063dfabc03314610642578063e985e9c514610655578063f16ad51e14610683578063f2fde38b14610696578063f780bc1a146106a957600080fd5b8063c5ab3ba6146105b0578063c6e672b9146105b8578063c87b56dd146105cb578063d505accf146105de578063d96ca0b9146105f1578063dd62ed3e1461060457600080fd5b8063a22cb46511610120578063a22cb465146104fc578063a9059cbb1461050f578063b1ab931714610522578063b3f9ea3414610542578063b810217b1461056b578063b88d4fde1461059d57600080fd5b806389fb4c66146104a15780638a696e50146104a95780638da5cb5b146104bc57806395d89b41146104cd578063976a8435146104d557600080fd5b8063315a095d116101f55780636352211e116101b95780636352211e1461041b5780636e8f624b1461042e57806370a0823114610439578063715018a6146104595780637df1c3d8146104615780637ecebe001461048157600080fd5b8063315a095d146103d15780633644e515146103e45780633f9cf8fa146103ec57806342842e0e146103ff5780634f02c4201461041257600080fd5b8063095ea7b311610247578063095ea7b31461034e57806309674eb01461036157806309f0ef651461036957806318160ddd1461037c57806323b872dd14610385578063313ce5671461039857600080fd5b8063015bf2641461028457806301ffc9a71461029957806302519da3146102c157806306fdde03146102f8578063081812fc1461030d575b600080fd5b610297610292366004612a14565b6106bc565b005b6102ac6102a7366004612a5f565b610953565b60405190151581526020015b60405180910390f35b6102ea6102cf366004612a7c565b6001600160a01b03166000908152600b602052604090205490565b6040519081526020016102b8565b61030061098a565b6040516102b89190612ae7565b61033661031b366004612afa565b600d602052600090815260409020546001600160a01b031681565b6040516001600160a01b0390911681526020016102b8565b6102ac61035c366004612b13565b610a18565b6102ea610aa5565b6102ac610377366004612a7c565b610ab6565b6102ea60085481565b6102ac610393366004612b3d565b610ae8565b6103bf7f000000000000000000000000000000000000000000000000000000000000000081565b60405160ff90911681526020016102b8565b6102976103df366004612afa565b610b25565b6102ea610bc0565b6102976103fa366004612afa565b610c16565b61029761040d366004612b3d565b610c3c565b6102ea60095481565b610336610429366004612afa565b610c5c565b6102ea600160ff1b81565b6102ea610447366004612a7c565b600b6020526000908152604090205481565b610297610cc6565b61047461046f366004612afa565b610cda565b6040516102b89190612b69565b6102ea61048f366004612a7c565b60126020526000908152604090205481565b6008546102ea565b6102976104b7366004612bcf565b610d62565b6000546001600160a01b0316610336565b610300610d6c565b6102ea7f000000000000000000000000000000000000000000000000000000000000000081565b61029761050a366004612bec565b610d79565b6102ac61051d366004612b13565b610e0c565b610535610530366004612a7c565b610e40565b6040516102b89190612c23565b6102ea610550366004612a7c565b6001600160a01b031660009081526010602052604090205490565b61057e610579366004612c67565b610eac565b604080516001600160a01b0390931683526020830191909152016102b8565b6102976105ab366004612c9f565b610ef2565b6009546102ea565b6102976105c6366004612bec565b610fda565b6103006105d9366004612afa565b610ff0565b6102976105ec366004612d7b565b611021565b6102ac6105ff366004612b3d565b611264565b6102ea610612366004612dee565b600c60209081526000928352604080842090915290825290205481565b61029761063d366004612b3d565b611324565b610297610650366004612b13565b61145a565b6102ac610663366004612dee565b600e60209081526000928352604080842090915290825290205460ff1681565b610297610691366004612c67565b61151f565b6102976106a4366004612a7c565b61152a565b6105356106b7366004612c67565b6115a0565b336000908152600b602052604090205481106107165760405162461bcd60e51b8152602060048201526014602482015273496e73756666696369656e742062616c616e636560601b60448201526064015b60405180910390fd5b6000838152600f60205260409020546001600160a01b031633811461074d576040516282b42960e81b815260040160405180910390fd5b60008481526002602052604081208054829061076b5761076b612e21565b9060005260206000209060020201600101549050306001600160a01b0316846001600160a01b0316036107ff57336000908152600b60205260409020548311156107ee5760405162461bcd60e51b8152602060048201526014602482015273496e73756666696369656e742062616c616e636560601b604482015260640161070d565b6107f933308561163d565b50610853565b60405162461bcd60e51b815260206004820152602360248201527f6e6f772074686973206973206e6f7420737570706f727420666f72206465706f6044820152621cda5d60ea1b606482015260840161070d565b600260008681526020019081526020016000206040518060400160405280866001600160a01b03168152602001838661088c9190612e4d565b90528154600180820184556000938452602093849020835160029093020180546001600160a01b0319166001600160a01b0390931692909217825591909201519101556040516323b872dd60e01b8152306004820181905233602483015260448201879052906323b872dd906064016020604051808303816000875af1925050508015610936575060408051601f3d908101601f1916820190925261093391810190612e60565b60015b61094a576109453033856118ba565b61094c565b505b5050505050565b60006001600160e01b0319821663876f7f8760e01b148061098457506001600160e01b031982166301ffc9a760e01b145b92915050565b6006805461099790612e7d565b80601f01602080910402602001604051908101604052809291908181526020018280546109c390612e7d565b8015610a105780601f106109e557610100808354040283529160200191610a10565b820191906000526020600020905b8154815290600101906020018083116109f357829003601f168201915b505050505081565b60006001600160a01b038316610a4157604051635461585f60e01b815260040160405180910390fd5b336000818152600c602090815260408083206001600160a01b03881680855290835292819020869055518581529192917f8c5be1e5ebec7d5bd14f71427d1e84f3dd0314c0f7b2291e5b200ac8c7c3b925910160405180910390a350600192915050565b6000610ab16004611976565b905090565b60006001600160a01b03821615806109845750506001600160a01b031660009081526011602052604090205460ff1690565b6000610af382611994565b15610b0857610b03848484611324565b610b1a565b610b13848484611264565b9050610b1e565b5060015b9392505050565b6000818152600f60205260409020546001600160a01b0316338114610b5c576040516282b42960e81b815260040160405180910390fd5b6000610b6783610cda565b9050610b743033856119ad565b60005b8151811015610bba57610ba83033848481518110610b9757610b97612e21565b6020026020010151602001516118ba565b80610bb281612eb7565b915050610b77565b50505050565b60007f00000000000000000000000000000000000000000000000000000000000000004614610bf157610ab1611b73565b507f000000000000000000000000000000000000000000000000000000000000000090565b610c2133308361163d565b50610c2e33826001611c0d565b610c393033836118ba565b50565b610c5783838360405180602001604052806000815250610ef2565b505050565b6000818152600f60205260409020546001600160a01b0316610c7d82611994565b610c9a576040516307ed98ed60e31b815260040160405180910390fd5b6001600160a01b038116610cc15760405163c5723b5160e01b815260040160405180910390fd5b919050565b610cce611c4e565b610cd86000611ca8565b565b606060026000838152602001908152602001600020805480602002602001604051908101604052809291908181526020016000905b82821015610d57576000848152602090819020604080518082019091526002850290910180546001600160a01b03168252600190810154828401529083529092019101610d0f565b505050509050919050565b610c393382611cf8565b6007805461099790612e7d565b6001600160a01b038216610da05760405163ccea9e6f60e01b815260040160405180910390fd5b336000818152600e602090815260408083206001600160a01b03871680855290835292819020805460ff191686151590811790915590519081529192917f17307eab39ab6107e8899845ad3d59bd9653f200f220920489ca2b5937696c31910160405180910390a35050565b60006001600160a01b038316610e3557604051634e46966960e11b815260040160405180910390fd5b610b1e33848461163d565b6001600160a01b038116600090815260106020908152604091829020805483518184028101840190945280845260609392830182828015610ea057602002820191906000526020600020905b815481526020019060010190808311610e8c575b50505050509050919050565b60026020528160005260406000208181548110610ec857600080fd5b6000918252602090912060029091020180546001909101546001600160a01b039091169250905082565b610efb82611994565b610f18576040516307ed98ed60e31b815260040160405180910390fd5b610f23848484610ae8565b506001600160a01b0383163b15801590610fbc5750604051630a85bd0160e11b808252906001600160a01b0385169063150b7a0290610f6c903390899088908890600401612ed0565b6020604051808303816000875af1158015610f8b573d6000803e3d6000fd5b505050506040513d601f19601f82011682018060405250810190610faf9190612f0d565b6001600160e01b03191614155b15610bba57604051633da6393160e01b815260040160405180910390fd5b610fe2611c4e565b610fec8282611cf8565b5050565b6060610ffb82611d67565b60405160200161100b9190612f2a565b6040516020818303038152906040529050919050565b42841015611042576040516305787bdf60e01b815260040160405180910390fd5b61104b85611994565b15611069576040516303e7c1bd60e31b815260040160405180910390fd5b6001600160a01b03861661109057604051635461585f60e01b815260040160405180910390fd5b6000600161109c610bc0565b6001600160a01b038a811660008181526012602090815260409182902080546001810190915582517f6e71edae12b1b97f4d1f60370fef10105fa2faae0126114a169c64845d6126c98184015280840194909452938d166060840152608083018c905260a083019390935260c08083018b90528151808403909101815260e08301909152805192019190912061190160f01b6101008301526101028201929092526101228101919091526101420160408051601f198184030181528282528051602091820120600084529083018083525260ff871690820152606081018590526080810184905260a0016020604051602081039080840390855afa1580156111a8573d6000803e3d6000fd5b5050604051601f1901519150506001600160a01b03811615806111dd5750876001600160a01b0316816001600160a01b031614155b156111fb57604051632057875960e21b815260040160405180910390fd5b6001600160a01b039081166000908152600c602090815260408083208a8516808552908352928190208990555188815291928a16917f8c5be1e5ebec7d5bd14f71427d1e84f3dd0314c0f7b2291e5b200ac8c7c3b925910160405180910390a350505050505050565b60006001600160a01b03841661128d57604051636edaef2f60e11b815260040160405180910390fd5b6001600160a01b0383166112b457604051634e46966960e11b815260040160405180910390fd5b6001600160a01b0384166000908152600c602090815260408083203384529091529020546000198114611310576112eb8382612f6f565b6001600160a01b0386166000908152600c602090815260408083203384529091529020555b61131b85858561163d565b95945050505050565b6001600160a01b03831661134b57604051636edaef2f60e11b815260040160405180910390fd5b6001600160a01b03821661137257604051634e46966960e11b815260040160405180910390fd5b6000818152600f60205260409020546001600160a01b038481169116146113ab576040516282b42960e81b815260040160405180910390fd5b336001600160a01b038416148015906113e857506001600160a01b0383166000908152600e6020908152604080832033845290915290205460ff16155b801561140b57506000818152600d60205260409020546001600160a01b03163314155b15611428576040516282b42960e81b815260040160405180910390fd5b61143182610ab6565b1561144f57604051635ce7539760e01b815260040160405180910390fd5b610c578383836119ad565b6000818152600f60205260409020546001600160a01b03163381148015906114a657506001600160a01b0381166000908152600e6020908152604080832033845290915290205460ff16155b156114c3576040516282b42960e81b815260040160405180910390fd5b6000828152600d602052604080822080546001600160a01b0319166001600160a01b0387811691821790925591518593918516917f8c5be1e5ebec7d5bd14f71427d1e84f3dd0314c0f7b2291e5b200ac8c7c3b92591a4505050565b610fec8230836106bc565b611532611c4e565b6001600160a01b0381166115975760405162461bcd60e51b815260206004820152602660248201527f4f776e61626c653a206e6577206f776e657220697320746865207a65726f206160448201526564647265737360d01b606482015260840161070d565b610c3981611ca8565b606060008267ffffffffffffffff8111156115bd576115bd612c89565b6040519080825280602002602001820160405280156115e6578160200160208202803683370190505b509050835b6115f58486612e4d565b81101561163557611607600482611dfa565b826116128784612f6f565b8151811061162257611622612e21565b60209081029190910101526001016115eb565b509392505050565b6001600160a01b038381166000908152600b602052604080822054928516825281205490919061166e8686866118ba565b600061167987610ab6565b9050600061168687610ab6565b90508180156116925750805b6118ac57811561175e5760006116c87f000000000000000000000000000000000000000000000000000000000000000085612f82565b6001600160a01b0389166000908152600b602052604090205461170c907f000000000000000000000000000000000000000000000000000000000000000090612f82565b6117169190612f6f565b905060005b818110156117575761174f897f00000000000000000000000000000000000000000000000000000000000000006000611c0d565b60010161171b565b50506118ac565b80156117fa576001600160a01b0388166000908152600b60205260408120546117a8907f000000000000000000000000000000000000000000000000000000000000000090612f82565b6117d27f000000000000000000000000000000000000000000000000000000000000000087612f82565b6117dc9190612f6f565b905060005b81811015611757576117f28a611e4c565b6001016117e1565b60006118267f000000000000000000000000000000000000000000000000000000000000000088612f82565b905060005b818110156118a9576001600160a01b038a1660009081526010602052604081205461185890600190612f6f565b6001600160a01b038c166000908152601060205260408120805492935090918390811061188757611887612e21565b9060005260206000200154905061189f8c8c836119ad565b505060010161182b565b50505b506001979650505050505050565b6001600160a01b0383166118e55780600860008282546118da9190612e4d565b909155506119139050565b6001600160a01b0383166000908152600b60205260408120805483929061190d908490612f6f565b90915550505b6001600160a01b038083166000818152600b6020526040908190208054850190555190918516907fddf252ad1be2c89b69c2b068fc378daa952ba7f163c4a11628f55a4df523b3ef906119699085815260200190565b60405180910390a3505050565b546001600160801b03808216600160801b9092048116919091031690565b6000600160ff1b82118015610984575050600019141590565b6119b8818484611ed6565b6000818152600f6020526040902080546001600160a01b0319166001600160a01b0384160190556001600160a01b03831615611ad3576001600160a01b03831660009081526010602052604081208054611a1490600190612f6f565b81548110611a2457611a24612e21565b906000526020600020015490506000611a4c836000908152600f602052604090205460a01c90565b6001600160a01b03861660009081526010602052604090208054919250839183908110611a7b57611a7b612e21565b60009182526020808320909101929092556001600160a01b0387168152601090915260409020805480611ab057611ab0612fa4565b60019003818190600052602060002001600090559055611ad08282612063565b50505b6001600160a01b0382166000818152601060209081526040822080546001818101835582855292842001859055929091529054611b1b918391611b169190612f6f565b612063565b6000818152600d602052604080822080546001600160a01b03191690555182916001600160a01b0385811692908716917fddf252ad1be2c89b69c2b068fc378daa952ba7f163c4a11628f55a4df523b3ef91a4505050565b60007f8b73c3c69bb8fe3d512ecc4cf759cc79239f7b179b0ffacaa9a75d522b39400f6006604051611ba59190612fba565b6040805191829003822060208301939093528101919091527fc89efdaa54c0f20c7adf612882df0950f5a951637e0307cdcb4c672f298b8bc660608201524660808201523060a082015260c00160405160208183030381529060405280519060200120905090565b6001600160a01b038316611c3457604051634e46966960e11b815260040160405180910390fd5b8015611c4457610c5783836120cf565b610c578383612177565b6000546001600160a01b03163314610cd85760405162461bcd60e51b815260206004820181905260248201527f4f776e61626c653a2063616c6c6572206973206e6f7420746865206f776e6572604482015260640161070d565b600080546001600160a01b038381166001600160a01b0319831681178455604051919092169283917f8be0079c531659141344cd1fd0a4f28419497f9722a3daafe3b4186f6b6457e09190a35050565b6001600160a01b038216611d1f5760405163a41e3d3f60e01b815260040160405180910390fd5b8015611d3357611d2e82612410565b611d3c565b611d3c82612444565b6001600160a01b03919091166000908152601160205260409020805460ff1916911515919091179055565b60606000611d74836124f5565b600101905060008167ffffffffffffffff811115611d9457611d94612c89565b6040519080825280601f01601f191660200182016040528015611dbe576020820181803683370190505b5090508181016020015b600019016f181899199a1a9b1b9c1cb0b131b232b360811b600a86061a8153600a8504945084611dc857509392505050565b6000611e0583611976565b8210611e245760405163580821e760e01b815260040160405180910390fd5b5081546001600160801b03908116820116600090815260018301602052604090205492915050565b6001600160a01b038116611e7357604051636edaef2f60e11b815260040160405180910390fd5b6001600160a01b03811660009081526010602052604081208054611e9990600190612f6f565b81548110611ea957611ea9612e21565b90600052602060002001549050611ebf816125cd565b611ecb826000836119ad565b610fec600482612632565b6000838152600260205260409020548015610bba576000848152600260205260409020611f04600183612f6f565b81548110611f1457611f14612e21565b600091825260208083206002928302015487845291905260409091206001600160a01b039091169085907f3f5fbaf86658fdadee77f1d46e7f8a72424ad9839eda6a1dc6eb0a4228e4226e90611f6b600186612f6f565b81548110611f7b57611f7b612e21565b906000526020600020906002020160010154604051611f9c91815260200190565b60405180910390a36000848152600260205260409020611fbd600183612f6f565b81548110611fcd57611fcd612e21565b600091825260208083206002928302015487845291905260409091206001600160a01b039091169085907fb162210da7d23d82c18cff5af46d3562661d26b42a6848fa28d64a6bdc70386a90612024600186612f6f565b8154811061203457612034612e21565b90600052602060002090600202016001015460405161205591815260200190565b60405180910390a350505050565b6000828152600f60205260409020546bffffffffffffffffffffffff82111561209f57604051633f2cd0e360e21b815260040160405180910390fd5b6000928352600f60205260409092206001600160a01b039290921660a09190911b6001600160a01b031916019055565b6004546001600160801b03808216600160801b9092041614612171576000806120f86004611976565b90505b8082101561216e576000612110600484611dfa565b600081815260036020526040902054909150848114801561213557506121358261269c565b1561215a576121446004612756565b5061214e826127cb565b61094a600087846119ad565b8361216481612eb7565b94505050506120fb565b50505b610fec82825b60006121a37f000000000000000000000000000000000000000000000000000000000000000083612f82565b905060005b81811015610bba5760006121d0600454600160801b81046001600160801b0390811691161490565b61232d576000806121e16004611976565b90505b80821080156121f1575082155b1561232a576000612203600484611dfa565b6000818152600360205260409020549091507f000000000000000000000000000000000000000000000000000000000000000014801561224757506122478161269c565b1561231757826000036122645761225e6004612756565b506122fd565b60016122706004611976565b61227a9190612f6f565b830361228a5761225e6004612947565b60006122966004611976565b9050835b6122a5600183612f6f565b8110156122ef5760006122c46122bc836001612e4d565b600490611dfa565b90506122d06004612947565b506122dc600482612632565b50806122e781612eb7565b91505061229a565b506122fa6004612947565b50505b612306816127cb565b612312600089836119ad565b600193505b8261232181612eb7565b935050506121e4565b50505b806124075760096000815461234190612eb7565b909155506009546001016123685760405163303b682f60e01b815260040160405180910390fd5b6000600954600160ff1b61237c9190612e4d565b905061238a600087836119ad565b600090815260026020818152604080842081518083019092523082527f0000000000000000000000000000000000000000000000000000000000000000828401908152815460018082018455928752939095209151929093020180546001600160a01b0319166001600160a01b0390921691909117815591519101555b506001016121a8565b6001600160a01b038116600090815260106020526040812054905b81811015610c575761243c83611e4c565b60010161242b565b6001600160a01b0381166000908152600b6020526040812054612488907f000000000000000000000000000000000000000000000000000000000000000090612f82565b905060006124ab836001600160a01b031660009081526010602052604090205490565b905060005b6124ba8284612f6f565b811015610bba576124ed847f00000000000000000000000000000000000000000000000000000000000000006000611c0d565b6001016124b0565b60008072184f03e93ff9f4daa797ed6e38ed64bf6a1f0160401b83106125345772184f03e93ff9f4daa797ed6e38ed64bf6a1f0160401b830492506040015b6d04ee2d6d415b85acef81000000008310612560576d04ee2d6d415b85acef8100000000830492506020015b662386f26fc10000831061257e57662386f26fc10000830492506010015b6305f5e1008310612596576305f5e100830492506008015b61271083106125aa57612710830492506004015b606483106125bc576064830492506002015b600a83106109845760010192915050565b60008181526002602052604090205415610c39576000818152600260205260408120805490919061260057612600612e21565b6000918252602080832060029283020160010154848452600382526040808520919091559190528120610c39916129b7565b81546001600160801b038082166000190191600160801b900481169082160361266e57604051638acb5f2760e01b815260040160405180910390fd5b6001600160801b0316600081815260018401602052604090209190915581546001600160801b031916179055565b6000818152600a602052604081205460ff1615806126c65750600082815260016020526040902054155b156126d357506001919050565b6000828152600160209081526040808320600290925282208054919290919003612701575060009392505050565b8160008154811061271457612714612e21565b9060005260206000209060020201600101548160008154811061273957612739612e21565b906000526020600020906002020160010154101592505050919050565b80546000906001600160801b0380821691600160801b900416810361278e576040516375e52f4f60e01b815260040160405180910390fd5b6001600160801b038181166000908152600185810160205260408220805492905585546001600160801b0319169301909116919091179092555090565b6000818152600a602052604090205460ff1680156127f6575060008181526001602052604090205415155b15610c39576128048161269c565b61285c5760405162461bcd60e51b8152602060048201526024808201527f496e73756666696369656e74206465706f7369747320746f20726573746f72656044820152630813919560e21b606482015260840161070d565b6000818152600260205260408120612873916129b7565b60005b60008281526001602052604090205481101561291757600082815260026020908152604080832060019092529091208054839081106128b7576128b7612e21565b6000918252602080832084546001818101875595855291909320600292830290930180549190920290920180546001600160a01b0319166001600160a01b039093169290921782558201549101558061290f81612eb7565b915050612876565b50600081815260016020526040812061292f916129b7565b6000908152600a60205260409020805460ff19169055565b80546000906001600160801b03600160801b820481169116810361297e576040516375e52f4f60e01b815260040160405180910390fd5b600019016001600160801b039081166000818152600185016020526040812080549190558454909216600160801b909102179092555090565b5080546000825560020290600052602060002090810190610c3991905b808211156129f95780546001600160a01b0319168155600060018201556002016129d4565b5090565b80356001600160a01b0381168114610cc157600080fd5b600080600060608486031215612a2957600080fd5b83359250612a39602085016129fd565b9150604084013590509250925092565b6001600160e01b031981168114610c3957600080fd5b600060208284031215612a7157600080fd5b8135610b1e81612a49565b600060208284031215612a8e57600080fd5b610b1e826129fd565b60005b83811015612ab2578181015183820152602001612a9a565b50506000910152565b60008151808452612ad3816020860160208601612a97565b601f01601f19169290920160200192915050565b602081526000610b1e6020830184612abb565b600060208284031215612b0c57600080fd5b5035919050565b60008060408385031215612b2657600080fd5b612b2f836129fd565b946020939093013593505050565b600080600060608486031215612b5257600080fd5b612b5b846129fd565b9250612a39602085016129fd565b602080825282518282018190526000919060409081850190868401855b82811015612bb457815180516001600160a01b03168552860151868501529284019290850190600101612b86565b5091979650505050505050565b8015158114610c3957600080fd5b600060208284031215612be157600080fd5b8135610b1e81612bc1565b60008060408385031215612bff57600080fd5b612c08836129fd565b91506020830135612c1881612bc1565b809150509250929050565b6020808252825182820181905260009190848201906040850190845b81811015612c5b57835183529284019291840191600101612c3f565b50909695505050505050565b60008060408385031215612c7a57600080fd5b50508035926020909101359150565b634e487b7160e01b600052604160045260246000fd5b60008060008060808587031215612cb557600080fd5b612cbe856129fd565b9350612ccc602086016129fd565b925060408501359150606085013567ffffffffffffffff80821115612cf057600080fd5b818701915087601f830112612d0457600080fd5b813581811115612d1657612d16612c89565b604051601f8201601f19908116603f01168101908382118183101715612d3e57612d3e612c89565b816040528281528a6020848701011115612d5757600080fd5b82602086016020830137600060208483010152809550505050505092959194509250565b600080600080600080600060e0888a031215612d9657600080fd5b612d9f886129fd565b9650612dad602089016129fd565b95506040880135945060608801359350608088013560ff81168114612dd157600080fd5b9699959850939692959460a0840135945060c09093013592915050565b60008060408385031215612e0157600080fd5b612e0a836129fd565b9150612e18602084016129fd565b90509250929050565b634e487b7160e01b600052603260045260246000fd5b634e487b7160e01b600052601160045260246000fd5b8082018082111561098457610984612e37565b600060208284031215612e7257600080fd5b8151610b1e81612bc1565b600181811c90821680612e9157607f821691505b602082108103612eb157634e487b7160e01b600052602260045260246000fd5b50919050565b600060018201612ec957612ec9612e37565b5060010190565b6001600160a01b0385811682528416602082015260408101839052608060608201819052600090612f0390830184612abb565b9695505050505050565b600060208284031215612f1f57600080fd5b8151610b1e81612a49565b7f68747470733a2f2f6578616d706c652e636f6d2f746f6b656e2f000000000000815260008251612f6281601a850160208701612a97565b91909101601a0192915050565b8181038181111561098457610984612e37565b600082612f9f57634e487b7160e01b600052601260045260246000fd5b500490565b634e487b7160e01b600052603160045260246000fd5b600080835481600182811c915080831680612fd657607f831692505b60208084108203612ff557634e487b7160e01b86526022600452602486fd5b818015613009576001811461301e5761304b565b60ff198616895284151585028901965061304b565b60008a81526020902060005b868110156130435781548b82015290850190830161302a565b505084890196505b50949897505050505050505056fea26469706673582212207c0e3da84dc86d46e4c7cdd2d422f8631bc0b71c3283be29b68b401c372fb0b164736f6c63430008140033ddf252ad1be2c89b69c2b068fc378daa952ba7f163c4a11628f55a4df523b3ef","linkReferences":{}},"methodIdentifiers":{"DOMAIN_SEPARATOR()":"3644e515","ID_ENCODING_PREFIX()":"6e8f624b","_tokenDeposits(uint256,uint256)":"b810217b","allowance(address,address)":"dd62ed3e","approve(address,uint256)":"095ea7b3","balanceOf(address)":"70a08231","decimals()":"313ce567","depositTokens(uint256,address,uint256)":"015bf264","depositTokens(uint256,uint256)":"f16ad51e","erc20BalanceOf(address)":"02519da3","erc20TotalSupply()":"89fb4c66","erc20TransferFrom(address,address,uint256)":"d96ca0b9","erc721Approve(address,uint256)":"dfabc033","erc721BalanceOf(address)":"b3f9ea34","erc721TotalSupply()":"c5ab3ba6","erc721TransferExempt(address)":"09f0ef65","erc721TransferFrom(address,address,uint256)":"dd637699","getApproved(uint256)":"081812fc","getERC721QueueLength()":"09674eb0","getERC721TokensInQueue(uint256,uint256)":"f780bc1a","getTokenDeposits(uint256)":"7df1c3d8","isApprovedForAll(address,address)":"e985e9c5","minted()":"4f02c420","name()":"06fdde03","nonces(address)":"7ecebe00","owned(address)":"b1ab9317","owner()":"8da5cb5b","ownerOf(uint256)":"6352211e","permit(address,address,uint256,uint256,uint8,bytes32,bytes32)":"d505accf","renounceOwnership()":"715018a6","safeTransferFrom(address,address,uint256)":"42842e0e","safeTransferFrom(address,address,uint256,bytes)":"b88d4fde","setApprovalForAll(address,bool)":"a22cb465","setERC721TransferExempt(address,bool)":"c6e672b9","setSelfERC721TransferExempt(bool)":"8a696e50","supportsInterface(bytes4)":"01ffc9a7","symbol()":"95d89b41","tokenURI(uint256)":"c87b56dd","totalSupply()":"18160ddd","transfer(address,uint256)":"a9059cbb","transferFrom(address,address,uint256)":"23b872dd","transferOwnership(address)":"f2fde38b","trygetmorevalue(uint256)":"3f9cf8fa","units()":"976a8435","withdrawTokens(uint256)":"315a095d"},"id":3}