{"abi":[{"type":"constructor","inputs":[{"name":"name_","type":"string","internalType":"string"},{"name":"symbol_","type":"string","internalType":"string"},{"name":"decimals_","type":"uint8","internalType":"uint8"},{"name":"maxTotalSupplyERC721_","type":"uint256","internalType":"uint256"},{"name":"initialOwner_","type":"address","internalType":"address"},{"name":"initialMintRecipient_","type":"address","internalType":"address"}],"stateMutability":"nonpayable"},{"type":"function","name":"DOMAIN_SEPARATOR","inputs":[],"outputs":[{"name":"","type":"bytes32","internalType":"bytes32"}],"stateMutability":"view"},{"type":"function","name":"ID_ENCODING_PREFIX","inputs":[],"outputs":[{"name":"","type":"uint256","internalType":"uint256"}],"stateMutability":"view"},{"type":"function","name":"_tokenDeposits","inputs":[{"name":"","type":"uint256","internalType":"uint256"},{"name":"","type":"uint256","internalType":"uint256"}],"outputs":[{"name":"tokenAddress","type":"address","internalType":"address"},{"name":"amount","type":"uint256","internalType":"uint256"}],"stateMutability":"view"},{"type":"function","name":"allowance","inputs":[{"name":"","type":"address","internalType":"address"},{"name":"","type":"address","internalType":"address"}],"outputs":[{"name":"","type":"uint256","internalType":"uint256"}],"stateMutability":"view"},{"type":"function","name":"approve","inputs":[{"name":"spender_","type":"address","internalType":"address"},{"name":"value_","type":"uint256","internalType":"uint256"}],"outputs":[{"name":"","type":"bool","internalType":"bool"}],"stateMutability":"nonpayable"},{"type":"function","name":"balanceOf","inputs":[{"name":"","type":"address","internalType":"address"}],"outputs":[{"name":"","type":"uint256","internalType":"uint256"}],"stateMutability":"view"},{"type":"function","name":"decimals","inputs":[],"outputs":[{"name":"","type":"uint8","internalType":"uint8"}],"stateMutability":"view"},{"type":"function","name":"depositTokens","inputs":[{"name":"tokenId_","type":"uint256","internalType":"uint256"},{"name":"tokenAddress_","type":"address","internalType":"address"},{"name":"amount_","type":"uint256","internalType":"uint256"}],"outputs":[],"stateMutability":"nonpayable"},{"type":"function","name":"depositTokens","inputs":[{"name":"tokenId_","type":"uint256","internalType":"uint256"},{"name":"amount_","type":"uint256","internalType":"uint256"}],"outputs":[],"stateMutability":"nonpayable"},{"type":"function","name":"erc20BalanceOf","inputs":[{"name":"owner_","type":"address","internalType":"address"}],"outputs":[{"name":"","type":"uint256","internalType":"uint256"}],"stateMutability":"view"},{"type":"function","name":"erc20TotalSupply","inputs":[],"outputs":[{"name":"","type":"uint256","internalType":"uint256"}],"stateMutability":"view"},{"type":"function","name":"erc20TransferFrom","inputs":[{"name":"from_","type":"address","internalType":"address"},{"name":"to_","type":"address","internalType":"address"},{"name":"value_","type":"uint256","internalType":"uint256"}],"outputs":[{"name":"","type":"bool","internalType":"bool"}],"stateMutability":"nonpayable"},{"type":"function","name":"erc721Approve","inputs":[{"name":"spender_","type":"address","internalType":"address"},{"name":"id_","type":"uint256","internalType":"uint256"}],"outputs":[],"stateMutability":"nonpayable"},{"type":"function","name":"erc721BalanceOf","inputs":[{"name":"owner_","type":"address","internalType":"address"}],"outputs":[{"name":"","type":"uint256","internalType":"uint256"}],"stateMutability":"view"},{"type":"function","name":"erc721TotalSupply","inputs":[],"outputs":[{"name":"","type":"uint256","internalType":"uint256"}],"stateMutability":"view"},{"type":"function","name":"erc721TransferExempt","inputs":[{"name":"target_","type":"address","internalType":"address"}],"outputs":[{"name":"","type":"bool","internalType":"bool"}],"stateMutability":"view"},{"type":"function","name":"erc721TransferFrom","inputs":[{"name":"from_","type":"address","internalType":"address"},{"name":"to_","type":"address","internalType":"address"},{"name":"id_","type":"uint256","internalType":"uint256"}],"outputs":[],"stateMutability":"nonpayable"},{"type":"function","name":"getApproved","inputs":[{"name":"","type":"uint256","internalType":"uint256"}],"outputs":[{"name":"","type":"address","internalType":"address"}],"stateMutability":"view"},{"type":"function","name":"getERC721QueueLength","inputs":[],"outputs":[{"name":"","type":"uint256","internalType":"uint256"}],"stateMutability":"view"},{"type":"function","name":"getERC721TokensInQueue","inputs":[{"name":"start_","type":"uint256","internalType":"uint256"},{"name":"count_","type":"uint256","internalType":"uint256"}],"outputs":[{"name":"","type":"uint256[]","internalType":"uint256[]"}],"stateMutability":"view"},{"type":"function","name":"getTokenDeposits","inputs":[{"name":"tokenId_","type":"uint256","internalType":"uint256"}],"outputs":[{"name":"","type":"tuple[]","internalType":"struct ERC404Deposits.TokenDeposit[]","components":[{"name":"tokenAddress","type":"address","internalType":"address"},{"name":"amount","type":"uint256","internalType":"uint256"}]}],"stateMutability":"view"},{"type":"function","name":"isApprovedForAll","inputs":[{"name":"","type":"address","internalType":"address"},{"name":"","type":"address","internalType":"address"}],"outputs":[{"name":"","type":"bool","internalType":"bool"}],"stateMutability":"view"},{"type":"function","name":"minted","inputs":[],"outputs":[{"name":"","type":"uint256","internalType":"uint256"}],"stateMutability":"view"},{"type":"function","name":"name","inputs":[],"outputs":[{"name":"","type":"string","internalType":"string"}],"stateMutability":"view"},{"type":"function","name":"nonces","inputs":[{"name":"","type":"address","internalType":"address"}],"outputs":[{"name":"","type":"uint256","internalType":"uint256"}],"stateMutability":"view"},{"type":"function","name":"owned","inputs":[{"name":"owner_","type":"address","internalType":"address"}],"outputs":[{"name":"","type":"uint256[]","internalType":"uint256[]"}],"stateMutability":"view"},{"type":"function","name":"owner","inputs":[],"outputs":[{"name":"","type":"address","internalType":"address"}],"stateMutability":"view"},{"type":"function","name":"ownerOf","inputs":[{"name":"id_","type":"uint256","internalType":"uint256"}],"outputs":[{"name":"erc721Owner","type":"address","internalType":"address"}],"stateMutability":"view"},{"type":"function","name":"permit","inputs":[{"name":"owner_","type":"address","internalType":"address"},{"name":"spender_","type":"address","internalType":"address"},{"name":"value_","type":"uint256","internalType":"uint256"},{"name":"deadline_","type":"uint256","internalType":"uint256"},{"name":"v_","type":"uint8","internalType":"uint8"},{"name":"r_","type":"bytes32","internalType":"bytes32"},{"name":"s_","type":"bytes32","internalType":"bytes32"}],"outputs":[],"stateMutability":"nonpayable"},{"type":"function","name":"renounceOwnership","inputs":[],"outputs":[],"stateMutability":"nonpayable"},{"type":"function","name":"safeTransferFrom","inputs":[{"name":"from_","type":"address","internalType":"address"},{"name":"to_","type":"address","internalType":"address"},{"name":"id_","type":"uint256","internalType":"uint256"}],"outputs":[],"stateMutability":"nonpayable"},{"type":"function","name":"safeTransferFrom","inputs":[{"name":"from_","type":"address","internalType":"address"},{"name":"to_","type":"address","internalType":"address"},{"name":"id_","type":"uint256","internalType":"uint256"},{"name":"data_","type":"bytes","internalType":"bytes"}],"outputs":[],"stateMutability":"nonpayable"},{"type":"function","name":"setApprovalForAll","inputs":[{"name":"operator_","type":"address","internalType":"address"},{"name":"approved_","type":"bool","internalType":"bool"}],"outputs":[],"stateMutability":"nonpayable"},{"type":"function","name":"setERC721TransferExempt","inputs":[{"name":"account_","type":"address","internalType":"address"},{"name":"value_","type":"bool","internalType":"bool"}],"outputs":[],"stateMutability":"nonpayable"},{"type":"function","name":"setSelfERC721TransferExempt","inputs":[{"name":"state_","type":"bool","internalType":"bool"}],"outputs":[],"stateMutability":"nonpayable"},{"type":"function","name":"supportsInterface","inputs":[{"name":"interfaceId","type":"bytes4","internalType":"bytes4"}],"outputs":[{"name":"","type":"bool","internalType":"bool"}],"stateMutability":"view"},{"type":"function","name":"symbol","inputs":[],"outputs":[{"name":"","type":"string","internalType":"string"}],"stateMutability":"view"},{"type":"function","name":"tokenURI","inputs":[{"name":"id_","type":"uint256","internalType":"uint256"}],"outputs":[{"name":"","type":"string","internalType":"string"}],"stateMutability":"pure"},{"type":"function","name":"totalSupply","inputs":[],"outputs":[{"name":"","type":"uint256","internalType":"uint256"}],"stateMutability":"view"},{"type":"function","name":"transfer","inputs":[{"name":"to_","type":"address","internalType":"address"},{"name":"value_","type":"uint256","internalType":"uint256"}],"outputs":[{"name":"","type":"bool","internalType":"bool"}],"stateMutability":"nonpayable"},{"type":"function","name":"transferFrom","inputs":[{"name":"from_","type":"address","internalType":"address"},{"name":"to_","type":"address","internalType":"address"},{"name":"valueOrId_","type":"uint256","internalType":"uint256"}],"outputs":[{"name":"","type":"bool","internalType":"bool"}],"stateMutability":"nonpayable"},{"type":"function","name":"transferOwnership","inputs":[{"name":"newOwner","type":"address","internalType":"address"}],"outputs":[],"stateMutability":"nonpayable"},{"type":"function","name":"units","inputs":[],"outputs":[{"name":"","type":"uint256","internalType":"uint256"}],"stateMutability":"view"},{"type":"function","name":"withdrawTokens","inputs":[{"name":"tokenId_","type":"uint256","internalType":"uint256"},{"name":"depositIndex_","type":"uint256","internalType":"uint256"}],"outputs":[],"stateMutability":"nonpayable"},{"type":"event","name":"Approval","inputs":[{"name":"owner","type":"address","indexed":true,"internalType":"address"},{"name":"spender","type":"address","indexed":true,"internalType":"address"},{"name":"value","type":"uint256","indexed":false,"internalType":"uint256"}],"anonymous":false},{"type":"event","name":"Approval","inputs":[{"name":"owner","type":"address","indexed":true,"internalType":"address"},{"name":"spender","type":"address","indexed":true,"internalType":"address"},{"name":"id","type":"uint256","indexed":true,"internalType":"uint256"}],"anonymous":false},{"type":"event","name":"ApprovalForAll","inputs":[{"name":"owner","type":"address","indexed":true,"internalType":"address"},{"name":"operator","type":"address","indexed":true,"internalType":"address"},{"name":"approved","type":"bool","indexed":false,"internalType":"bool"}],"anonymous":false},{"type":"event","name":"OwnershipTransferred","inputs":[{"name":"previousOwner","type":"address","indexed":true,"internalType":"address"},{"name":"newOwner","type":"address","indexed":true,"internalType":"address"}],"anonymous":false},{"type":"event","name":"TokensDeposited","inputs":[{"name":"tokenId","type":"uint256","indexed":true,"internalType":"uint256"},{"name":"tokenAddress","type":"address","indexed":true,"internalType":"address"},{"name":"amount","type":"uint256","indexed":false,"internalType":"uint256"}],"anonymous":false},{"type":"event","name":"TokensWithdrawn","inputs":[{"name":"tokenId","type":"uint256","indexed":true,"internalType":"uint256"},{"name":"tokenAddress","type":"address","indexed":true,"internalType":"address"},{"name":"amount","type":"uint256","indexed":false,"internalType":"uint256"}],"anonymous":false},{"type":"event","name":"Transfer","inputs":[{"name":"from","type":"address","indexed":true,"internalType":"address"},{"name":"to","type":"address","indexed":true,"internalType":"address"},{"name":"amount","type":"uint256","indexed":false,"internalType":"uint256"}],"anonymous":false},{"type":"event","name":"Transfer","inputs":[{"name":"from","type":"address","indexed":true,"internalType":"address"},{"name":"to","type":"address","indexed":true,"internalType":"address"},{"name":"id","type":"uint256","indexed":true,"internalType":"uint256"}],"anonymous":false},{"type":"error","name":"AlreadyExists","inputs":[]},{"type":"error","name":"DecimalsTooLow","inputs":[]},{"type":"error","name":"InsufficientAllowance","inputs":[]},{"type":"error","name":"InvalidAmount","inputs":[]},{"type":"error","name":"InvalidApproval","inputs":[]},{"type":"error","name":"InvalidExemption","inputs":[]},{"type":"error","name":"InvalidOperator","inputs":[]},{"type":"error","name":"InvalidRecipient","inputs":[]},{"type":"error","name":"InvalidSender","inputs":[]},{"type":"error","name":"InvalidSigner","inputs":[]},{"type":"error","name":"InvalidSpender","inputs":[]},{"type":"error","name":"InvalidTokenId","inputs":[]},{"type":"error","name":"MintLimitReached","inputs":[]},{"type":"error","name":"NotFound","inputs":[]},{"type":"error","name":"OwnableInvalidOwner","inputs":[{"name":"owner","type":"address","internalType":"address"}]},{"type":"error","name":"OwnableUnauthorizedAccount","inputs":[{"name":"account","type":"address","internalType":"address"}]},{"type":"error","name":"OwnedIndexOverflow","inputs":[]},{"type":"error","name":"PermitDeadlineExpired","inputs":[]},{"type":"error","name":"QueueEmpty","inputs":[]},{"type":"error","name":"QueueFull","inputs":[]},{"type":"error","name":"QueueOutOfBounds","inputs":[]},{"type":"error","name":"RecipientIsERC721TransferExempt","inputs":[]},{"type":"error","name":"Unauthorized","inputs":[]},{"type":"error","name":"UnsafeRecipient","inputs":[]}],"bytecode":{"object":"0x6101006040523480156200001257600080fd5b5060405162004bde38038062004bde83398101604081905262000035916200144d565b858585846001600160a01b0381166200006957604051631e4fbdf760e01b8152600060048201526024015b60405180910390fd5b62000074816200011c565b50600662000083848262001585565b50600762000092838262001585565b5060128160ff161015620000b9576040516398790fd560e01b815260040160405180910390fd5b60ff81166080819052620000cf90600a62001764565b60a0524660c052620000e06200016c565b60e05250620000f59150829050600162000208565b620001108160a051856200010a91906200177c565b6200027e565b505050505050620018ab565b600080546001600160a01b038381166001600160a01b0319831681178455604051919092169283917f8be0079c531659141344cd1fd0a4f28419497f9722a3daafe3b4186f6b6457e09190a35050565b60007f8b73c3c69bb8fe3d512ecc4cf759cc79239f7b179b0ffacaa9a75d522b39400f6006604051620001a0919062001796565b6040805191829003822060208301939093528101919091527fc89efdaa54c0f20c7adf612882df0950f5a951637e0307cdcb4c672f298b8bc660608201524660808201523060a082015260c00160405160208183030381529060405280519060200120905090565b6001600160a01b038216620002305760405163a41e3d3f60e01b815260040160405180910390fd5b801562000248576200024282620002ee565b62000253565b620002538262000326565b6001600160a01b03919091166000908152601160205260409020805460ff1916911515919091179055565b6001600160a01b038216620002a657604051634e46966960e11b815260040160405180910390fd5b600160ff1b81600854620002bb919062001814565b1115620002db5760405163303b682f60e01b815260040160405180910390fd5b620002e960008383620003b2565b505050565b6001600160a01b038116600090815260106020526040812054905b81811015620002e9576200031d83620005b7565b60010162000309565b60a0516000906200034c836001600160a01b03166000908152600b602052604090205490565b6200035891906200182a565b905060006200037c836001600160a01b031660009081526010602052604090205490565b905060005b6200038d82846200184d565b811015620003ac57620003a38460018062000657565b60010162000381565b50505050565b6001600160a01b038381166000908152600b6020526040808220549285168252812054909190620003e58686866200069e565b6000620003f28762000750565b90506000620004018762000750565b90508180156200040e5750805b620005a95781156200049557600060a051846200042c91906200182a565b60a0516001600160a01b038a166000908152600b60205260409020546200045491906200182a565b6200046091906200184d565b905060005b818110156200048d57620004848960a05160006200065760201b60201c565b60010162000465565b5050620005a9565b8015620005025760a0516001600160a01b0389166000908152600b60205260408120549091620004c5916200182a565b60a051620004d490876200182a565b620004e091906200184d565b905060005b818110156200048d57620004f98a620005b7565b600101620004e5565b600060a051876200051491906200182a565b905060005b81811015620005a6576001600160a01b038a1660009081526010602052604081205462000549906001906200184d565b6001600160a01b038c16600090815260106020526040812080549293509091839081106200057b576200057b62001863565b906000526020600020015490506200059b8c8c836200078760201b60201c565b505060010162000519565b50505b506001979650505050505050565b6001600160a01b038116620005df57604051636edaef2f60e11b815260040160405180910390fd5b6001600160a01b0381166000908152601060205260408120805462000607906001906200184d565b815481106200061a576200061a62001863565b9060005260206000200154905062000638816200095560201b60201c565b620006468260008362000787565b62000653600482620009c3565b5050565b6001600160a01b0383166200067f57604051634e46966960e11b815260040160405180910390fd5b80156200069257620002e9838362000a2e565b620002e9838362000b0a565b6001600160a01b038316620006cd578060086000828254620006c1919062001814565b90915550620006fd9050565b6001600160a01b0383166000908152600b602052604081208054839290620006f79084906200184d565b90915550505b6001600160a01b038083166000818152600b60205260409081902080548501905551909185169060008051602062004bbe83398151915290620007439085815260200190565b60405180910390a3505050565b60006001600160a01b03821615806200078157506001600160a01b03821660009081526011602052604090205460ff165b92915050565b6200079481848462000d72565b6000818152600f6020526040902080546001600160a01b0319166001600160a01b0384160190556001600160a01b03831615620008c2576001600160a01b03831660009081526010602052604081208054620007f3906001906200184d565b8154811062000806576200080662001863565b600091825260208220015491506200082d836000908152600f602052604090205460a01c90565b6001600160a01b038616600090815260106020526040902080549192508391839081106200085f576200085f62001863565b60009182526020808320909101929092556001600160a01b038716815260109091526040902080548062000897576200089762001879565b60019003818190600052602060002001600090559055620008bf828262000f1660201b60201c565b50505b6001600160a01b03821660008181526010602090815260408220805460018181018355828552928420018590559290915290546200090e9183916200090891906200184d565b62000f16565b6000818152600d602052604080822080546001600160a01b03191690555182916001600160a01b03858116929087169160008051602062004bbe83398151915291a4505050565b60008181526002602052604090205415620009c057600081815260026020526040812080549091906200098c576200098c62001863565b6000918252602080832060029283020160010154848452600382526040808520919091559190528120620009c09162001322565b50565b81546001600160801b038082166000190191600160801b900481169082160362000a0057604051638acb5f2760e01b815260040160405180910390fd5b6001600160801b0316600081815260018401602052604090209190915581546001600160801b031916179055565b6004546001600160801b03808216600160801b909204161462000b035760008062000a726004546001600160801b03808216600160801b9092048116919091031690565b90505b8082101562000b0057600062000a8d60048462000f7e565b600081815260036020526040902054909150848114801562000ab5575062000ab58262000feb565b1562000ae95762000ac76004620010ae565b5062000ad38262001124565b62000ae16000878462000787565b505050505050565b8362000af5816200188f565b945050505062000a75565b50505b6200065382825b600060a0518262000b1c91906200182a565b905060005b81811015620003ac57600062000b4b600454600160801b81046001600160801b0390811691161490565b62000d015760008062000b776004546001600160801b03808216600160801b9092048116919091031690565b90505b808210801562000b88575082155b1562000cfe57600062000b9d60048462000f7e565b60a05160008281526003602052604090205491925014801562000bc6575062000bc68162000feb565b1562000ce8578260000362000be85762000be16004620010ae565b5062000cca565b600162000c0e6004546001600160801b03808216600160801b9092048116919091031690565b62000c1a91906200184d565b830362000c2d5762000be16004620012b1565b600062000c536004546001600160801b03808216600160801b9092048116919091031690565b9050835b62000c646001836200184d565b81101562000cba57600062000c8862000c7f83600162001814565b60049062000f7e565b905062000c966004620012b1565b5062000ca4600482620009c3565b508062000cb1816200188f565b91505062000c57565b5062000cc76004620012b1565b50505b62000cd58162001124565b62000ce36000898362000787565b600193505b8262000cf4816200188f565b9350505062000b7a565b50505b8062000d685760096000815462000d18906200188f565b9091555060095460010162000d405760405163303b682f60e01b815260040160405180910390fd5b6000600954600160ff1b62000d56919062001814565b905062000d666000878362000787565b505b5060010162000b21565b6000838152600260205260409020548015620003ac57600084815260026020526040902062000da36001836200184d565b8154811062000db65762000db662001863565b600091825260208083206002928302015487845291905260409091206001600160a01b039091169085907f3f5fbaf86658fdadee77f1d46e7f8a72424ad9839eda6a1dc6eb0a4228e4226e9062000e0f6001866200184d565b8154811062000e225762000e2262001863565b90600052602060002090600202016001015460405162000e4491815260200190565b60405180910390a3600084815260026020526040902062000e676001836200184d565b8154811062000e7a5762000e7a62001863565b600091825260208083206002928302015487845291905260409091206001600160a01b039091169085907fb162210da7d23d82c18cff5af46d3562661d26b42a6848fa28d64a6bdc70386a9062000ed36001866200184d565b8154811062000ee65762000ee662001863565b90600052602060002090600202016001015460405162000f0891815260200190565b60405180910390a350505050565b6000828152600f60205260409020546001600160601b0382111562000f4e57604051633f2cd0e360e21b815260040160405180910390fd5b6000928352600f60205260409092206001600160a01b039290921660a09190911b6001600160a01b031916019055565b600062000fa383546001600160801b03808216600160801b9092048116919091031690565b821062000fc35760405163580821e760e01b815260040160405180910390fd5b5081546001600160801b03908116820116600090815260018301602052604090205492915050565b6000818152600a602052604081205460ff161580620010165750600082815260016020526040902054155b156200102457506001919050565b600082815260016020908152604080832060029092528220805491929091900362001053575060009392505050565b8160008154811062001069576200106962001863565b9060005260206000209060020201600101548160008154811062001091576200109162001863565b906000526020600020906002020160010154101592505050919050565b80546000906001600160801b0380821691600160801b9004168103620010e7576040516375e52f4f60e01b815260040160405180910390fd5b6001600160801b038181166000908152600185810160205260408220805492905585546001600160801b0319169301909116919091179092555090565b6000818152600a602052604090205460ff16801562001150575060008181526001602052604090205415155b15620009c057620011618162000feb565b620011bb5760405162461bcd60e51b8152602060048201526024808201527f496e73756666696369656e74206465706f7369747320746f20726573746f72656044820152630813919560e21b606482015260840162000060565b6000818152600260205260408120620011d49162001322565b60005b6000828152600160205260409020548110156200127f57600082815260026020908152604080832060019092529091208054839081106200121c576200121c62001863565b6000918252602080832084546001818101875595855291909320600292830290930180549190920290920180546001600160a01b0319166001600160a01b039093169290921782558201549101558062001276816200188f565b915050620011d7565b506000818152600160205260408120620012999162001322565b6000908152600a60205260409020805460ff19169055565b80546000906001600160801b03600160801b8204811691168103620012e9576040516375e52f4f60e01b815260040160405180910390fd5b600019016001600160801b039081166000818152600185016020526040812080549190558454909216600160801b909102179092555090565b5080546000825560020290600052602060002090810190620009c091905b80821115620013675780546001600160a01b03191681556000600182015560020162001340565b5090565b634e487b7160e01b600052604160045260246000fd5b600082601f8301126200139357600080fd5b81516001600160401b0380821115620013b057620013b06200136b565b604051601f8301601f19908116603f01168101908282118183101715620013db57620013db6200136b565b81604052838152602092508683858801011115620013f857600080fd5b600091505b838210156200141c5785820183015181830184015290820190620013fd565b600093810190920192909252949350505050565b80516001600160a01b03811681146200144857600080fd5b919050565b60008060008060008060c087890312156200146757600080fd5b86516001600160401b03808211156200147f57600080fd5b6200148d8a838b0162001381565b97506020890151915080821115620014a457600080fd5b50620014b389828a0162001381565b955050604087015160ff81168114620014cb57600080fd5b60608801519094509250620014e36080880162001430565b9150620014f360a0880162001430565b90509295509295509295565b600181811c908216806200151457607f821691505b6020821081036200153557634e487b7160e01b600052602260045260246000fd5b50919050565b601f821115620002e957600081815260208120601f850160051c81016020861015620015645750805b601f850160051c820191505b8181101562000ae15782815560010162001570565b81516001600160401b03811115620015a157620015a16200136b565b620015b981620015b28454620014ff565b846200153b565b602080601f831160018114620015f15760008415620015d85750858301515b600019600386901b1c1916600185901b17855562000ae1565b600085815260208120601f198616915b82811015620016225788860151825594840194600190910190840162001601565b5085821015620016415787850151600019600388901b60f8161c191681555b5050505050600190811b01905550565b634e487b7160e01b600052601160045260246000fd5b600181815b80851115620016a85781600019048211156200168c576200168c62001651565b808516156200169a57918102915b93841c93908002906200166c565b509250929050565b600082620016c15750600162000781565b81620016d05750600062000781565b8160018114620016e95760028114620016f45762001714565b600191505062000781565b60ff84111562001708576200170862001651565b50506001821b62000781565b5060208310610133831016604e8410600b841016171562001739575081810a62000781565b62001745838362001667565b80600019048211156200175c576200175c62001651565b029392505050565b60006200177560ff841683620016b0565b9392505050565b808202811582820484141762000781576200078162001651565b6000808354620017a681620014ff565b60018281168015620017c15760018114620017d75762001808565b60ff198416875282151583028701945062001808565b8760005260208060002060005b85811015620017ff5781548a820152908401908201620017e4565b50505082870194505b50929695505050505050565b8082018082111562000781576200078162001651565b6000826200184857634e487b7160e01b600052601260045260246000fd5b500490565b8181038181111562000781576200078162001651565b634e487b7160e01b600052603260045260246000fd5b634e487b7160e01b600052603160045260246000fd5b600060018201620018a457620018a462001651565b5060010190565b60805160a05160c05160e05161329a620019246000396000610a4c01526000610a1c0152600081816104a901528181611a6201528181611aa601528181611ae801528181611b4201528181611b6c01528181611bc0015281816120db01528181612598015261263101526000610392015261329a6000f3fe608060405234801561001057600080fd5b50600436106102745760003560e01c80638da5cb5b11610151578063c6e672b9116100c3578063dd63769911610087578063dd63769914610611578063dfabc03314610624578063e985e9c514610637578063f16ad51e14610665578063f2fde38b14610678578063f780bc1a1461068b57600080fd5b8063c6e672b91461059a578063c87b56dd146105ad578063d505accf146105c0578063d96ca0b9146105d3578063dd62ed3e146105e657600080fd5b8063b1ab931711610115578063b1ab9317146104f1578063b3f9ea3414610511578063b810217b1461053a578063b88d4fde1461056c578063ba7bd2aa1461057f578063c5ab3ba61461059257600080fd5b80638da5cb5b1461048b57806395d89b411461049c578063976a8435146104a4578063a22cb465146104cb578063a9059cbb146104de57600080fd5b80633644e515116101ea57806370a08231116101ae57806370a0823114610408578063715018a6146104285780637df1c3d8146104305780637ecebe001461045057806389fb4c66146104705780638a696e501461047857600080fd5b80633644e515146103c657806342842e0e146103ce5780634f02c420146103e15780636352211e146103ea5780636e8f624b146103fd57600080fd5b8063095ea7b31161023c578063095ea7b31461034357806309674eb01461035657806309f0ef651461035e57806318160ddd1461037157806323b872dd1461037a578063313ce5671461038d57600080fd5b8063015bf2641461027957806301ffc9a71461028e57806302519da3146102b657806306fdde03146102ed578063081812fc14610302575b600080fd5b61028c610287366004612bf6565b61069e565b005b6102a161029c366004612c41565b610846565b60405190151581526020015b60405180910390f35b6102df6102c4366004612c5e565b6001600160a01b03166000908152600b602052604090205490565b6040519081526020016102ad565b6102f561087d565b6040516102ad9190612cc9565b61032b610310366004612cdc565b600d602052600090815260409020546001600160a01b031681565b6040516001600160a01b0390911681526020016102ad565b6102a1610351366004612cf5565b61090b565b6102df610998565b6102a161036c366004612c5e565b6109a9565b6102df60085481565b6102a1610388366004612d1f565b6109db565b6103b47f000000000000000000000000000000000000000000000000000000000000000081565b60405160ff90911681526020016102ad565b6102df610a18565b61028c6103dc366004612d1f565b610a6e565b6102df60095481565b61032b6103f8366004612cdc565b610a8e565b6102df600160ff1b81565b6102df610416366004612c5e565b600b6020526000908152604090205481565b61028c610af8565b61044361043e366004612cdc565b610b0c565b6040516102ad9190612d4b565b6102df61045e366004612c5e565b60126020526000908152604090205481565b6008546102df565b61028c610486366004612db1565b610b94565b6000546001600160a01b031661032b565b6102f5610ba1565b6102df7f000000000000000000000000000000000000000000000000000000000000000081565b61028c6104d9366004612dce565b610bae565b6102a16104ec366004612cf5565b610c42565b6105046104ff366004612c5e565b610c76565b6040516102ad9190612e05565b6102df61051f366004612c5e565b6001600160a01b031660009081526010602052604090205490565b61054d610548366004612e49565b610ce2565b604080516001600160a01b0390931683526020830191909152016102ad565b61028c61057a366004612e81565b610d28565b61028c61058d366004612e49565b610e16565b6009546102df565b61028c6105a8366004612dce565b610fa9565b6102f56105bb366004612cdc565b610fbf565b61028c6105ce366004612f5d565b610ff0565b6102a16105e1366004612d1f565b611233565b6102df6105f4366004612fd0565b600c60209081526000928352604080842090915290825290205481565b61028c61061f366004612d1f565b6112f3565b61028c610632366004612cf5565b611429565b6102a1610645366004612fd0565b600e60209081526000928352604080842090915290825290205460ff1681565b61028c610673366004612e49565b6114ee565b61028c610686366004612c5e565b6116ab565b610504610699366004612e49565b6116e6565b6000838152600f60205260409020546001600160a01b03163381146106d5576040516282b42960e81b815260040160405180910390fd5b306001600160a01b0384160361075057336000908152600b60205260409020548211156107405760405162461bcd60e51b8152602060048201526014602482015273496e73756666696369656e742062616c616e636560601b60448201526064015b60405180910390fd5b61074b333084611783565b6107e7565b6040516323b872dd60e01b81523360048201523060248201526044810183905283906001600160a01b038216906323b872dd906064016020604051808303816000875af11580156107a5573d6000803e3d6000fd5b505050506040513d601f19601f820116820180604052508101906107c99190613003565b6107e55760405162461bcd60e51b815260040161073790613020565b505b50600092835260026020818152604080862081518083019092526001600160a01b0395861682528183019485528054600180820183559188529290962090519190920290910180546001600160a01b0319169190931617825551910155565b60006001600160e01b0319821663876f7f8760e01b148061087757506001600160e01b031982166301ffc9a760e01b145b92915050565b6006805461088a90613049565b80601f01602080910402602001604051908101604052809291908181526020018280546108b690613049565b80156109035780601f106108d857610100808354040283529160200191610903565b820191906000526020600020905b8154815290600101906020018083116108e657829003601f168201915b505050505081565b60006001600160a01b03831661093457604051635461585f60e01b815260040160405180910390fd5b336000818152600c602090815260408083206001600160a01b03881680855290835292819020869055518581529192917f8c5be1e5ebec7d5bd14f71427d1e84f3dd0314c0f7b2291e5b200ac8c7c3b925910160405180910390a350600192915050565b60006109a4600461183f565b905090565b60006001600160a01b03821615806108775750506001600160a01b031660009081526011602052604090205460ff1690565b60006109e68261185d565b156109fb576109f68484846112f3565b610a0d565b610a06848484611233565b9050610a11565b5060015b9392505050565b60007f00000000000000000000000000000000000000000000000000000000000000004614610a49576109a4611876565b507f000000000000000000000000000000000000000000000000000000000000000090565b610a8983838360405180602001604052806000815250610d28565b505050565b6000818152600f60205260409020546001600160a01b0316610aaf8261185d565b610acc576040516307ed98ed60e31b815260040160405180910390fd5b6001600160a01b038116610af35760405163c5723b5160e01b815260040160405180910390fd5b919050565b610b00611910565b610b0a600061193d565b565b606060026000838152602001908152602001600020805480602002602001604051908101604052809291908181526020016000905b82821015610b89576000848152602090819020604080518082019091526002850290910180546001600160a01b03168252600190810154828401529083529092019101610b41565b505050509050919050565b610b9e338261198d565b50565b6007805461088a90613049565b6001600160a01b038216610bd55760405163ccea9e6f60e01b815260040160405180910390fd5b336000818152600e602090815260408083206001600160a01b03871680855290835292819020805460ff191686151590811790915590519081529192917f17307eab39ab6107e8899845ad3d59bd9653f200f220920489ca2b5937696c3191015b60405180910390a35050565b60006001600160a01b038316610c6b57604051634e46966960e11b815260040160405180910390fd5b610a113384846119fc565b6001600160a01b038116600090815260106020908152604091829020805483518184028101840190945280845260609392830182828015610cd657602002820191906000526020600020905b815481526020019060010190808311610cc2575b50505050509050919050565b60026020528160005260406000208181548110610cfe57600080fd5b6000918252602090912060029091020180546001909101546001600160a01b039091169250905082565b610d318261185d565b610d4e576040516307ed98ed60e31b815260040160405180910390fd5b610d598484846109db565b506001600160a01b0383163b15801590610df25750604051630a85bd0160e11b808252906001600160a01b0385169063150b7a0290610da2903390899088908890600401613083565b6020604051808303816000875af1158015610dc1573d6000803e3d6000fd5b505050506040513d601f19601f82011682018060405250810190610de591906130c0565b6001600160e01b03191614155b15610e1057604051633da6393160e01b815260040160405180910390fd5b50505050565b6000828152600f60205260409020546001600160a01b0316338114610e4d576040516282b42960e81b815260040160405180910390fd5b6000838152600260205260409020548210610ea25760405162461bcd60e51b8152602060048201526015602482015274092dcecc2d8d2c840c8cae0dee6d2e840d2dcc8caf605b1b6044820152606401610737565b6000838152600260205260408120805484908110610ec257610ec26130dd565b6000918252602090912060029091020160018101548154919250906001600160a01b0316610ef08686611c79565b306001600160a01b03821603610f1057610f0b303384611783565b610fa1565b60405163a9059cbb60e01b81523360048201526024810183905281906001600160a01b0382169063a9059cbb906044016020604051808303816000875af1158015610f5f573d6000803e3d6000fd5b505050506040513d601f19601f82011682018060405250810190610f839190613003565b610f9f5760405162461bcd60e51b815260040161073790613020565b505b505050505050565b610fb1611910565b610fbb828261198d565b5050565b6060610fca82611dc8565b604051602001610fda91906130f3565b6040516020818303038152906040529050919050565b42841015611011576040516305787bdf60e01b815260040160405180910390fd5b61101a8561185d565b15611038576040516303e7c1bd60e31b815260040160405180910390fd5b6001600160a01b03861661105f57604051635461585f60e01b815260040160405180910390fd5b6000600161106b610a18565b6001600160a01b038a811660008181526012602090815260409182902080546001810190915582517f6e71edae12b1b97f4d1f60370fef10105fa2faae0126114a169c64845d6126c98184015280840194909452938d166060840152608083018c905260a083019390935260c08083018b90528151808403909101815260e08301909152805192019190912061190160f01b6101008301526101028201929092526101228101919091526101420160408051601f198184030181528282528051602091820120600084529083018083525260ff871690820152606081018590526080810184905260a0016020604051602081039080840390855afa158015611177573d6000803e3d6000fd5b5050604051601f1901519150506001600160a01b03811615806111ac5750876001600160a01b0316816001600160a01b031614155b156111ca57604051632057875960e21b815260040160405180910390fd5b6001600160a01b039081166000908152600c602090815260408083208a8516808552908352928190208990555188815291928a16917f8c5be1e5ebec7d5bd14f71427d1e84f3dd0314c0f7b2291e5b200ac8c7c3b925910160405180910390a350505050505050565b60006001600160a01b03841661125c57604051636edaef2f60e11b815260040160405180910390fd5b6001600160a01b03831661128357604051634e46966960e11b815260040160405180910390fd5b6001600160a01b0384166000908152600c6020908152604080832033845290915290205460001981146112df576112ba838261314e565b6001600160a01b0386166000908152600c602090815260408083203384529091529020555b6112ea8585856119fc565b95945050505050565b6001600160a01b03831661131a57604051636edaef2f60e11b815260040160405180910390fd5b6001600160a01b03821661134157604051634e46966960e11b815260040160405180910390fd5b6000818152600f60205260409020546001600160a01b0384811691161461137a576040516282b42960e81b815260040160405180910390fd5b336001600160a01b038416148015906113b757506001600160a01b0383166000908152600e6020908152604080832033845290915290205460ff16155b80156113da57506000818152600d60205260409020546001600160a01b03163314155b156113f7576040516282b42960e81b815260040160405180910390fd5b611400826109a9565b1561141e57604051635ce7539760e01b815260040160405180910390fd5b610a89838383611e5b565b6000818152600f60205260409020546001600160a01b031633811480159061147557506001600160a01b0381166000908152600e6020908152604080832033845290915290205460ff16155b15611492576040516282b42960e81b815260040160405180910390fd5b6000828152600d602052604080822080546001600160a01b0319166001600160a01b0387811691821790925591518593918516917f8c5be1e5ebec7d5bd14f71427d1e84f3dd0314c0f7b2291e5b200ac8c7c3b92591a4505050565b6000828152600f60205260409020546001600160a01b031633146115465760405162461bcd60e51b815260206004820152600f60248201526e2737ba103a37b5b2b71037bbb732b960891b6044820152606401610737565b600081116115965760405162461bcd60e51b815260206004820152601d60248201527f416d6f756e74206d7573742062652067726561746572207468616e20300000006044820152606401610737565b600082815260026020526040812054900361160b5760008281526002602081815260408084208151808301909252308252818301868152815460018082018455928752939095209151929093020180546001600160a01b0319166001600160a01b039092169190911781559151910155611650565b6000828152600260205260408120805483929061162a5761162a6130dd565b9060005260206000209060020201600101600082825461164a9190613161565b90915550505b61165b333083612021565b6116775760405162461bcd60e51b815260040161073790613020565b604051818152309083907fb162210da7d23d82c18cff5af46d3562661d26b42a6848fa28d64a6bdc70386a90602001610c36565b6116b3611910565b6001600160a01b0381166116dd57604051631e4fbdf760e01b815260006004820152602401610737565b610b9e8161193d565b606060008267ffffffffffffffff81111561170357611703612e6b565b60405190808252806020026020018201604052801561172c578160200160208202803683370190505b509050835b61173b8486613161565b81101561177b5761174d600482612036565b82611758878461314e565b81518110611768576117686130dd565b6020908102919091010152600101611731565b509392505050565b6001600160a01b0383166117ae5780600860008282546117a39190613161565b909155506117dc9050565b6001600160a01b0383166000908152600b6020526040812080548392906117d690849061314e565b90915550505b6001600160a01b038083166000818152600b6020526040908190208054850190555190918516907fddf252ad1be2c89b69c2b068fc378daa952ba7f163c4a11628f55a4df523b3ef906118329085815260200190565b60405180910390a3505050565b546001600160801b03808216600160801b9092048116919091031690565b6000600160ff1b82118015610877575050600019141590565b60007f8b73c3c69bb8fe3d512ecc4cf759cc79239f7b179b0ffacaa9a75d522b39400f60066040516118a89190613174565b6040805191829003822060208301939093528101919091527fc89efdaa54c0f20c7adf612882df0950f5a951637e0307cdcb4c672f298b8bc660608201524660808201523060a082015260c00160405160208183030381529060405280519060200120905090565b6000546001600160a01b03163314610b0a5760405163118cdaa760e01b8152336004820152602401610737565b600080546001600160a01b038381166001600160a01b0319831681178455604051919092169283917f8be0079c531659141344cd1fd0a4f28419497f9722a3daafe3b4186f6b6457e09190a35050565b6001600160a01b0382166119b45760405163a41e3d3f60e01b815260040160405180910390fd5b80156119c8576119c382612088565b6119d1565b6119d1826120bc565b6001600160a01b03919091166000908152601160205260409020805460ff1916911515919091179055565b6001600160a01b038381166000908152600b6020526040808220549285168252812054909190611a2d868686611783565b6000611a38876109a9565b90506000611a45876109a9565b9050818015611a515750805b611c6b578115611b1d576000611a877f000000000000000000000000000000000000000000000000000000000000000085613213565b6001600160a01b0389166000908152600b6020526040902054611acb907f000000000000000000000000000000000000000000000000000000000000000090613213565b611ad5919061314e565b905060005b81811015611b1657611b0e897f0000000000000000000000000000000000000000000000000000000000000000600061214d565b600101611ada565b5050611c6b565b8015611bb9576001600160a01b0388166000908152600b6020526040812054611b67907f000000000000000000000000000000000000000000000000000000000000000090613213565b611b917f000000000000000000000000000000000000000000000000000000000000000087613213565b611b9b919061314e565b905060005b81811015611b1657611bb18a61218e565b600101611ba0565b6000611be57f000000000000000000000000000000000000000000000000000000000000000088613213565b905060005b81811015611c68576001600160a01b038a16600090815260106020526040812054611c179060019061314e565b6001600160a01b038c1660009081526010602052604081208054929350909183908110611c4657611c466130dd565b90600052602060002001549050611c5e8c8c83611e5b565b5050600101611bea565b50505b506001979650505050505050565b6000828152600260205260409020548110611cc65760405162461bcd60e51b815260206004820152600d60248201526c092dcecc2d8d2c840d2dcc8caf609b1b6044820152606401610737565b600082815260026020526040902054611ce19060019061314e565b8114611d7e5760008281526002602052604090208054611d039060019061314e565b81548110611d1357611d136130dd565b9060005260206000209060020201600260008481526020019081526020016000208281548110611d4557611d456130dd565b60009182526020909120825460029092020180546001600160a01b0319166001600160a01b039092169190911781556001918201549101555b6000828152600260205260409020805480611d9b57611d9b613235565b60008281526020812060026000199093019283020180546001600160a01b03191681556001015590555050565b60606000611dd583612218565b600101905060008167ffffffffffffffff811115611df557611df5612e6b565b6040519080825280601f01601f191660200182016040528015611e1f576020820181803683370190505b5090508181016020015b600019016f181899199a1a9b1b9c1cb0b131b232b360811b600a86061a8153600a8504945084611e2957509392505050565b611e668184846122f0565b6000818152600f6020526040902080546001600160a01b0319166001600160a01b0384160190556001600160a01b03831615611f81576001600160a01b03831660009081526010602052604081208054611ec29060019061314e565b81548110611ed257611ed26130dd565b906000526020600020015490506000611efa836000908152600f602052604090205460a01c90565b6001600160a01b03861660009081526010602052604090208054919250839183908110611f2957611f296130dd565b60009182526020808320909101929092556001600160a01b0387168152601090915260409020805480611f5e57611f5e613235565b60019003818190600052602060002001600090559055611f7e828261247d565b50505b6001600160a01b0382166000818152601060209081526040822080546001818101835582855292842001859055929091529054611fc9918391611fc4919061314e565b61247d565b6000818152600d602052604080822080546001600160a01b03191690555182916001600160a01b0385811692908716917fddf252ad1be2c89b69c2b068fc378daa952ba7f163c4a11628f55a4df523b3ef91a4505050565b600061202e8484846119fc565b949350505050565b60006120418361183f565b82106120605760405163580821e760e01b815260040160405180910390fd5b5081546001600160801b03908116820116600090815260018301602052604090205492915050565b6001600160a01b038116600090815260106020526040812054905b81811015610a89576120b48361218e565b6001016120a3565b6001600160a01b0381166000908152600b6020526040812054612100907f000000000000000000000000000000000000000000000000000000000000000090613213565b90506000612123836001600160a01b031660009081526010602052604090205490565b905060005b612132828461314e565b811015610e10576121458460018061214d565b600101612128565b6001600160a01b03831661217457604051634e46966960e11b815260040160405180910390fd5b801561218457610a8983836124e9565b610a898383612591565b6001600160a01b0381166121b557604051636edaef2f60e11b815260040160405180910390fd5b6001600160a01b038116600090815260106020526040812080546121db9060019061314e565b815481106121eb576121eb6130dd565b90600052602060002001549050612201816127af565b61220d82600083611e5b565b610fbb600482612814565b60008072184f03e93ff9f4daa797ed6e38ed64bf6a1f0160401b83106122575772184f03e93ff9f4daa797ed6e38ed64bf6a1f0160401b830492506040015b6d04ee2d6d415b85acef81000000008310612283576d04ee2d6d415b85acef8100000000830492506020015b662386f26fc1000083106122a157662386f26fc10000830492506010015b6305f5e10083106122b9576305f5e100830492506008015b61271083106122cd57612710830492506004015b606483106122df576064830492506002015b600a83106108775760010192915050565b6000838152600260205260409020548015610e1057600084815260026020526040902061231e60018361314e565b8154811061232e5761232e6130dd565b600091825260208083206002928302015487845291905260409091206001600160a01b039091169085907f3f5fbaf86658fdadee77f1d46e7f8a72424ad9839eda6a1dc6eb0a4228e4226e9061238560018661314e565b81548110612395576123956130dd565b9060005260206000209060020201600101546040516123b691815260200190565b60405180910390a360008481526002602052604090206123d760018361314e565b815481106123e7576123e76130dd565b600091825260208083206002928302015487845291905260409091206001600160a01b039091169085907fb162210da7d23d82c18cff5af46d3562661d26b42a6848fa28d64a6bdc70386a9061243e60018661314e565b8154811061244e5761244e6130dd565b90600052602060002090600202016001015460405161246f91815260200190565b60405180910390a350505050565b6000828152600f60205260409020546bffffffffffffffffffffffff8211156124b957604051633f2cd0e360e21b815260040160405180910390fd5b6000928352600f60205260409092206001600160a01b039290921660a09190911b6001600160a01b031916019055565b6004546001600160801b03808216600160801b909204161461258b57600080612512600461183f565b90505b8082101561258857600061252a600484612036565b600081815260036020526040902054909150848114801561254f575061254f8261287e565b156125745761255e6004612938565b50612568826129ad565b610fa160008784611e5b565b8361257e8161324b565b9450505050612515565b50505b610fbb82825b60006125bd7f000000000000000000000000000000000000000000000000000000000000000083613213565b905060005b81811015610e105760006125ea600454600160801b81046001600160801b0390811691161490565b612747576000806125fb600461183f565b90505b808210801561260b575082155b1561274457600061261d600484612036565b6000818152600360205260409020549091507f000000000000000000000000000000000000000000000000000000000000000014801561266157506126618161287e565b15612731578260000361267e576126786004612938565b50612717565b600161268a600461183f565b612694919061314e565b83036126a4576126786004612b29565b60006126b0600461183f565b9050835b6126bf60018361314e565b8110156127095760006126de6126d6836001613161565b600490612036565b90506126ea6004612b29565b506126f6600482612814565b50806127018161324b565b9150506126b4565b506127146004612b29565b50505b612720816129ad565b61272c60008983611e5b565b600193505b8261273b8161324b565b935050506125fe565b50505b806127a65760096000815461275b9061324b565b909155506009546001016127825760405163303b682f60e01b815260040160405180910390fd5b6000600954600160ff1b6127969190613161565b90506127a460008783611e5b565b505b506001016125c2565b60008181526002602052604090205415610b9e57600081815260026020526040812080549091906127e2576127e26130dd565b6000918252602080832060029283020160010154848452600382526040808520919091559190528120610b9e91612b99565b81546001600160801b038082166000190191600160801b900481169082160361285057604051638acb5f2760e01b815260040160405180910390fd5b6001600160801b0316600081815260018401602052604090209190915581546001600160801b031916179055565b6000818152600a602052604081205460ff1615806128a85750600082815260016020526040902054155b156128b557506001919050565b60008281526001602090815260408083206002909252822080549192909190036128e3575060009392505050565b816000815481106128f6576128f66130dd565b9060005260206000209060020201600101548160008154811061291b5761291b6130dd565b906000526020600020906002020160010154101592505050919050565b80546000906001600160801b0380821691600160801b9004168103612970576040516375e52f4f60e01b815260040160405180910390fd5b6001600160801b038181166000908152600185810160205260408220805492905585546001600160801b0319169301909116919091179092555090565b6000818152600a602052604090205460ff1680156129d8575060008181526001602052604090205415155b15610b9e576129e68161287e565b612a3e5760405162461bcd60e51b8152602060048201526024808201527f496e73756666696369656e74206465706f7369747320746f20726573746f72656044820152630813919560e21b6064820152608401610737565b6000818152600260205260408120612a5591612b99565b60005b600082815260016020526040902054811015612af95760008281526002602090815260408083206001909252909120805483908110612a9957612a996130dd565b6000918252602080832084546001818101875595855291909320600292830290930180549190920290920180546001600160a01b0319166001600160a01b0390931692909217825582015491015580612af18161324b565b915050612a58565b506000818152600160205260408120612b1191612b99565b6000908152600a60205260409020805460ff19169055565b80546000906001600160801b03600160801b8204811691168103612b60576040516375e52f4f60e01b815260040160405180910390fd5b600019016001600160801b039081166000818152600185016020526040812080549190558454909216600160801b909102179092555090565b5080546000825560020290600052602060002090810190610b9e91905b80821115612bdb5780546001600160a01b031916815560006001820155600201612bb6565b5090565b80356001600160a01b0381168114610af357600080fd5b600080600060608486031215612c0b57600080fd5b83359250612c1b60208501612bdf565b9150604084013590509250925092565b6001600160e01b031981168114610b9e57600080fd5b600060208284031215612c5357600080fd5b8135610a1181612c2b565b600060208284031215612c7057600080fd5b610a1182612bdf565b60005b83811015612c94578181015183820152602001612c7c565b50506000910152565b60008151808452612cb5816020860160208601612c79565b601f01601f19169290920160200192915050565b602081526000610a116020830184612c9d565b600060208284031215612cee57600080fd5b5035919050565b60008060408385031215612d0857600080fd5b612d1183612bdf565b946020939093013593505050565b600080600060608486031215612d3457600080fd5b612d3d84612bdf565b9250612c1b60208501612bdf565b602080825282518282018190526000919060409081850190868401855b82811015612d9657815180516001600160a01b03168552860151868501529284019290850190600101612d68565b5091979650505050505050565b8015158114610b9e57600080fd5b600060208284031215612dc357600080fd5b8135610a1181612da3565b60008060408385031215612de157600080fd5b612dea83612bdf565b91506020830135612dfa81612da3565b809150509250929050565b6020808252825182820181905260009190848201906040850190845b81811015612e3d57835183529284019291840191600101612e21565b50909695505050505050565b60008060408385031215612e5c57600080fd5b50508035926020909101359150565b634e487b7160e01b600052604160045260246000fd5b60008060008060808587031215612e9757600080fd5b612ea085612bdf565b9350612eae60208601612bdf565b925060408501359150606085013567ffffffffffffffff80821115612ed257600080fd5b818701915087601f830112612ee657600080fd5b813581811115612ef857612ef8612e6b565b604051601f8201601f19908116603f01168101908382118183101715612f2057612f20612e6b565b816040528281528a6020848701011115612f3957600080fd5b82602086016020830137600060208483010152809550505050505092959194509250565b600080600080600080600060e0888a031215612f7857600080fd5b612f8188612bdf565b9650612f8f60208901612bdf565b95506040880135945060608801359350608088013560ff81168114612fb357600080fd5b9699959850939692959460a0840135945060c09093013592915050565b60008060408385031215612fe357600080fd5b612fec83612bdf565b9150612ffa60208401612bdf565b90509250929050565b60006020828403121561301557600080fd5b8151610a1181612da3565b6020808252600f908201526e151c985b9cd9995c8819985a5b1959608a1b604082015260600190565b600181811c9082168061305d57607f821691505b60208210810361307d57634e487b7160e01b600052602260045260246000fd5b50919050565b6001600160a01b03858116825284166020820152604081018390526080606082018190526000906130b690830184612c9d565b9695505050505050565b6000602082840312156130d257600080fd5b8151610a1181612c2b565b634e487b7160e01b600052603260045260246000fd5b7f68747470733a2f2f6578616d706c652e636f6d2f746f6b656e2f00000000000081526000825161312b81601a850160208701612c79565b91909101601a0192915050565b634e487b7160e01b600052601160045260246000fd5b8181038181111561087757610877613138565b8082018082111561087757610877613138565b600080835481600182811c91508083168061319057607f831692505b602080841082036131af57634e487b7160e01b86526022600452602486fd5b8180156131c357600181146131d857613205565b60ff1986168952841515850289019650613205565b60008a81526020902060005b868110156131fd5781548b8201529085019083016131e4565b505084890196505b509498975050505050505050565b60008261323057634e487b7160e01b600052601260045260246000fd5b500490565b634e487b7160e01b600052603160045260246000fd5b60006001820161325d5761325d613138565b506001019056fea2646970667358221220ed37c07a6b1e35a8880ef662b9120550e3c24937559006118a28c293de73963d64736f6c63430008140033ddf252ad1be2c89b69c2b068fc378daa952ba7f163c4a11628f55a4df523b3ef","linkReferences":{}},"methodIdentifiers":{"DOMAIN_SEPARATOR()":"3644e515","ID_ENCODING_PREFIX()":"6e8f624b","_tokenDeposits(uint256,uint256)":"b810217b","allowance(address,address)":"dd62ed3e","approve(address,uint256)":"095ea7b3","balanceOf(address)":"70a08231","decimals()":"313ce567","depositTokens(uint256,address,uint256)":"015bf264","depositTokens(uint256,uint256)":"f16ad51e","erc20BalanceOf(address)":"02519da3","erc20TotalSupply()":"89fb4c66","erc20TransferFrom(address,address,uint256)":"d96ca0b9","erc721Approve(address,uint256)":"dfabc033","erc721BalanceOf(address)":"b3f9ea34","erc721TotalSupply()":"c5ab3ba6","erc721TransferExempt(address)":"09f0ef65","erc721TransferFrom(address,address,uint256)":"dd637699","getApproved(uint256)":"081812fc","getERC721QueueLength()":"09674eb0","getERC721TokensInQueue(uint256,uint256)":"f780bc1a","getTokenDeposits(uint256)":"7df1c3d8","isApprovedForAll(address,address)":"e985e9c5","minted()":"4f02c420","name()":"06fdde03","nonces(address)":"7ecebe00","owned(address)":"b1ab9317","owner()":"8da5cb5b","ownerOf(uint256)":"6352211e","permit(address,address,uint256,uint256,uint8,bytes32,bytes32)":"d505accf","renounceOwnership()":"715018a6","safeTransferFrom(address,address,uint256)":"42842e0e","safeTransferFrom(address,address,uint256,bytes)":"b88d4fde","setApprovalForAll(address,bool)":"a22cb465","setERC721TransferExempt(address,bool)":"c6e672b9","setSelfERC721TransferExempt(bool)":"8a696e50","supportsInterface(bytes4)":"01ffc9a7","symbol()":"95d89b41","tokenURI(uint256)":"c87b56dd","totalSupply()":"18160ddd","transfer(address,uint256)":"a9059cbb","transferFrom(address,address,uint256)":"23b872dd","transferOwnership(address)":"f2fde38b","units()":"976a8435","withdrawTokens(uint256,uint256)":"ba7bd2aa"},"id":2}